{
	"src/BuiltTrustPay.sol": {
		"SmartPayConstruction": {
			"abi": [
				{
					"anonymous": false,
					"inputs": [
						{
							"indexed": false,
							"internalType": "uint256",
							"name": "projectId",
							"type": "uint256"
						},
						{
							"indexed": false,
							"internalType": "uint256",
							"name": "stageId",
							"type": "uint256"
						},
						{
							"indexed": false,
							"internalType": "uint256",
							"name": "amount",
							"type": "uint256"
						}
					],
					"name": "PaymentProcessed",
					"type": "event"
				},
				{
					"anonymous": false,
					"inputs": [
						{
							"indexed": false,
							"internalType": "uint256",
							"name": "id",
							"type": "uint256"
						}
					],
					"name": "ProjectClosed",
					"type": "event"
				},
				{
					"anonymous": false,
					"inputs": [
						{
							"indexed": false,
							"internalType": "uint256",
							"name": "projectId",
							"type": "uint256"
						},
						{
							"indexed": false,
							"internalType": "uint256",
							"name": "stageId",
							"type": "uint256"
						},
						{
							"indexed": false,
							"internalType": "string",
							"name": "description",
							"type": "string"
						},
						{
							"indexed": false,
							"internalType": "uint256",
							"name": "value",
							"type": "uint256"
						}
					],
					"name": "StageAdded",
					"type": "event"
				},
				{
					"anonymous": false,
					"inputs": [
						{
							"indexed": false,
							"internalType": "uint256",
							"name": "projectId",
							"type": "uint256"
						},
						{
							"indexed": false,
							"internalType": "uint256",
							"name": "stageId",
							"type": "uint256"
						},
						{
							"indexed": false,
							"internalType": "string",
							"name": "validatorID",
							"type": "string"
						}
					],
					"name": "StageValidated",
					"type": "event"
				},
				{
					"inputs": [
						{
							"internalType": "string",
							"name": "projectId",
							"type": "string"
						},
						{
							"components": [
								{
									"internalType": "string",
									"name": "stage_id",
									"type": "string"
								},
								{
									"internalType": "string",
									"name": "title",
									"type": "string"
								},
								{
									"internalType": "string",
									"name": "description",
									"type": "string"
								},
								{
									"internalType": "string",
									"name": "validation_steps",
									"type": "string"
								},
								{
									"internalType": "uint256",
									"name": "value",
									"type": "uint256"
								},
								{
									"internalType": "string[]",
									"name": "validators_ids",
									"type": "string[]"
								},
								{
									"internalType": "string[]",
									"name": "validations",
									"type": "string[]"
								},
								{
									"internalType": "uint256",
									"name": "totalValidators",
									"type": "uint256"
								},
								{
									"internalType": "uint256",
									"name": "amountToValidator",
									"type": "uint256"
								},
								{
									"internalType": "bool",
									"name": "completed",
									"type": "bool"
								}
							],
							"internalType": "struct SmartPayConstruction.Stage",
							"name": "_stage",
							"type": "tuple"
						}
					],
					"name": "addStage",
					"outputs": [],
					"stateMutability": "nonpayable",
					"type": "function"
				},
				{
					"inputs": [
						{
							"internalType": "string",
							"name": "_project_id",
							"type": "string"
						},
						{
							"internalType": "string",
							"name": "_stage_id",
							"type": "string"
						},
						{
							"internalType": "string",
							"name": "_validator_id",
							"type": "string"
						}
					],
					"name": "addValidator",
					"outputs": [],
					"stateMutability": "nonpayable",
					"type": "function"
				},
				{
					"inputs": [
						{
							"internalType": "string",
							"name": "_project_id",
							"type": "string"
						},
						{
							"internalType": "string",
							"name": "_stage_id",
							"type": "string"
						},
						{
							"internalType": "string[]",
							"name": "_validators_ids",
							"type": "string[]"
						}
					],
					"name": "addValidators",
					"outputs": [],
					"stateMutability": "nonpayable",
					"type": "function"
				},
				{
					"inputs": [],
					"name": "agencyId",
					"outputs": [
						{
							"internalType": "string",
							"name": "",
							"type": "string"
						}
					],
					"stateMutability": "view",
					"type": "function"
				},
				{
					"inputs": [
						{
							"internalType": "uint256",
							"name": "projectId",
							"type": "uint256"
						}
					],
					"name": "closeProject",
					"outputs": [],
					"stateMutability": "nonpayable",
					"type": "function"
				},
				{
					"inputs": [
						{
							"internalType": "string",
							"name": "a",
							"type": "string"
						},
						{
							"internalType": "string",
							"name": "b",
							"type": "string"
						}
					],
					"name": "compareStrings",
					"outputs": [
						{
							"internalType": "bool",
							"name": "",
							"type": "bool"
						}
					],
					"stateMutability": "pure",
					"type": "function"
				},
				{
					"inputs": [
						{
							"internalType": "string",
							"name": "_project_id",
							"type": "string"
						},
						{
							"internalType": "string",
							"name": "_name",
							"type": "string"
						},
						{
							"internalType": "string",
							"name": "_description",
							"type": "string"
						},
						{
							"internalType": "string",
							"name": "_client_id",
							"type": "string"
						},
						{
							"internalType": "string",
							"name": "_contractor",
							"type": "string"
						},
						{
							"internalType": "uint256",
							"name": "_startDate",
							"type": "uint256"
						},
						{
							"internalType": "uint256",
							"name": "_endDate",
							"type": "uint256"
						},
						{
							"components": [
								{
									"internalType": "string",
									"name": "stage_id",
									"type": "string"
								},
								{
									"internalType": "string",
									"name": "title",
									"type": "string"
								},
								{
									"internalType": "string",
									"name": "description",
									"type": "string"
								},
								{
									"internalType": "string",
									"name": "validation_steps",
									"type": "string"
								},
								{
									"internalType": "uint256",
									"name": "value",
									"type": "uint256"
								},
								{
									"internalType": "string[]",
									"name": "validators_ids",
									"type": "string[]"
								},
								{
									"internalType": "string[]",
									"name": "validations",
									"type": "string[]"
								},
								{
									"internalType": "uint256",
									"name": "totalValidators",
									"type": "uint256"
								},
								{
									"internalType": "uint256",
									"name": "amountToValidator",
									"type": "uint256"
								},
								{
									"internalType": "bool",
									"name": "completed",
									"type": "bool"
								}
							],
							"internalType": "struct SmartPayConstruction.Stage[]",
							"name": "_stages",
							"type": "tuple[]"
						}
					],
					"name": "createProject",
					"outputs": [],
					"stateMutability": "nonpayable",
					"type": "function"
				},
				{
					"inputs": [],
					"name": "getAllProjectIds",
					"outputs": [
						{
							"internalType": "string[]",
							"name": "",
							"type": "string[]"
						}
					],
					"stateMutability": "view",
					"type": "function"
				},
				{
					"inputs": [
						{
							"internalType": "string",
							"name": "_project_id",
							"type": "string"
						},
						{
							"internalType": "string",
							"name": "_stage_id",
							"type": "string"
						}
					],
					"name": "getMaxTotalValidators",
					"outputs": [
						{
							"internalType": "uint256",
							"name": "",
							"type": "uint256"
						}
					],
					"stateMutability": "view",
					"type": "function"
				},
				{
					"inputs": [],
					"name": "getProjects",
					"outputs": [
						{
							"components": [
								{
									"internalType": "string",
									"name": "project_id",
									"type": "string"
								},
								{
									"internalType": "string",
									"name": "name",
									"type": "string"
								},
								{
									"internalType": "string",
									"name": "description",
									"type": "string"
								},
								{
									"internalType": "string",
									"name": "client_id",
									"type": "string"
								},
								{
									"internalType": "string",
									"name": "contractor",
									"type": "string"
								},
								{
									"internalType": "uint256",
									"name": "creationDate",
									"type": "uint256"
								},
								{
									"internalType": "uint256",
									"name": "startDate",
									"type": "uint256"
								},
								{
									"internalType": "uint256",
									"name": "endDate",
									"type": "uint256"
								},
								{
									"internalType": "uint256",
									"name": "actualCompletionDate",
									"type": "uint256"
								},
								{
									"internalType": "bool",
									"name": "closed",
									"type": "bool"
								},
								{
									"components": [
										{
											"internalType": "string",
											"name": "stage_id",
											"type": "string"
										},
										{
											"internalType": "string",
											"name": "title",
											"type": "string"
										},
										{
											"internalType": "string",
											"name": "description",
											"type": "string"
										},
										{
											"internalType": "string",
											"name": "validation_steps",
											"type": "string"
										},
										{
											"internalType": "uint256",
											"name": "value",
											"type": "uint256"
										},
										{
											"internalType": "string[]",
											"name": "validators_ids",
											"type": "string[]"
										},
										{
											"internalType": "string[]",
											"name": "validations",
											"type": "string[]"
										},
										{
											"internalType": "uint256",
											"name": "totalValidators",
											"type": "uint256"
										},
										{
											"internalType": "uint256",
											"name": "amountToValidator",
											"type": "uint256"
										},
										{
											"internalType": "bool",
											"name": "completed",
											"type": "bool"
										}
									],
									"internalType": "struct SmartPayConstruction.Stage[]",
									"name": "stages",
									"type": "tuple[]"
								}
							],
							"internalType": "struct SmartPayConstruction.Project[]",
							"name": "",
							"type": "tuple[]"
						}
					],
					"stateMutability": "view",
					"type": "function"
				},
				{
					"inputs": [],
					"name": "getProjectsCount",
					"outputs": [
						{
							"internalType": "uint256",
							"name": "",
							"type": "uint256"
						}
					],
					"stateMutability": "view",
					"type": "function"
				},
				{
					"inputs": [
						{
							"internalType": "string",
							"name": "projectId",
							"type": "string"
						},
						{
							"internalType": "string",
							"name": "stageId",
							"type": "string"
						}
					],
					"name": "getStageById",
					"outputs": [
						{
							"components": [
								{
									"internalType": "string",
									"name": "stage_id",
									"type": "string"
								},
								{
									"internalType": "string",
									"name": "title",
									"type": "string"
								},
								{
									"internalType": "string",
									"name": "description",
									"type": "string"
								},
								{
									"internalType": "string",
									"name": "validation_steps",
									"type": "string"
								},
								{
									"internalType": "uint256",
									"name": "value",
									"type": "uint256"
								},
								{
									"internalType": "string[]",
									"name": "validators_ids",
									"type": "string[]"
								},
								{
									"internalType": "string[]",
									"name": "validations",
									"type": "string[]"
								},
								{
									"internalType": "uint256",
									"name": "totalValidators",
									"type": "uint256"
								},
								{
									"internalType": "uint256",
									"name": "amountToValidator",
									"type": "uint256"
								},
								{
									"internalType": "bool",
									"name": "completed",
									"type": "bool"
								}
							],
							"internalType": "struct SmartPayConstruction.Stage",
							"name": "s",
							"type": "tuple"
						},
						{
							"internalType": "bool",
							"name": "found",
							"type": "bool"
						},
						{
							"internalType": "uint256",
							"name": "",
							"type": "uint256"
						}
					],
					"stateMutability": "view",
					"type": "function"
				},
				{
					"inputs": [
						{
							"internalType": "string",
							"name": "projectId",
							"type": "string"
						}
					],
					"name": "getStagesCount",
					"outputs": [
						{
							"internalType": "uint256",
							"name": "",
							"type": "uint256"
						}
					],
					"stateMutability": "view",
					"type": "function"
				},
				{
					"inputs": [
						{
							"internalType": "string",
							"name": "_project_id",
							"type": "string"
						},
						{
							"internalType": "string",
							"name": "_stage_id",
							"type": "string"
						}
					],
					"name": "getTotalValidators",
					"outputs": [
						{
							"internalType": "uint256",
							"name": "",
							"type": "uint256"
						}
					],
					"stateMutability": "view",
					"type": "function"
				},
				{
					"inputs": [
						{
							"internalType": "string",
							"name": "_project_id",
							"type": "string"
						},
						{
							"internalType": "string",
							"name": "_stage_id",
							"type": "string"
						}
					],
					"name": "getValidatorsIds",
					"outputs": [
						{
							"internalType": "string[]",
							"name": "",
							"type": "string[]"
						}
					],
					"stateMutability": "view",
					"type": "function"
				},
				{
					"inputs": [
						{
							"internalType": "string",
							"name": "_project_id",
							"type": "string"
						},
						{
							"internalType": "string",
							"name": "_stage_id",
							"type": "string"
						},
						{
							"internalType": "string",
							"name": "_validator_id",
							"type": "string"
						}
					],
					"name": "isStageValidatedByValidator",
					"outputs": [
						{
							"internalType": "bool",
							"name": "",
							"type": "bool"
						}
					],
					"stateMutability": "view",
					"type": "function"
				},
				{
					"inputs": [
						{
							"internalType": "string",
							"name": "_project_id",
							"type": "string"
						},
						{
							"internalType": "string",
							"name": "_stage_id",
							"type": "string"
						}
					],
					"name": "isThereEnoughValidators",
					"outputs": [
						{
							"internalType": "bool",
							"name": "",
							"type": "bool"
						}
					],
					"stateMutability": "view",
					"type": "function"
				},
				{
					"inputs": [
						{
							"internalType": "string",
							"name": "_project_id",
							"type": "string"
						},
						{
							"internalType": "string",
							"name": "_stage_id",
							"type": "string"
						},
						{
							"internalType": "string",
							"name": "_validator_id",
							"type": "string"
						}
					],
					"name": "isValidatorAllowedToValidate",
					"outputs": [
						{
							"internalType": "bool",
							"name": "",
							"type": "bool"
						}
					],
					"stateMutability": "view",
					"type": "function"
				},
				{
					"inputs": [
						{
							"internalType": "uint256",
							"name": "projectId",
							"type": "uint256"
						},
						{
							"internalType": "uint256",
							"name": "stageId",
							"type": "uint256"
						}
					],
					"name": "processPendingPayments",
					"outputs": [],
					"stateMutability": "nonpayable",
					"type": "function"
				},
				{
					"inputs": [
						{
							"internalType": "uint256",
							"name": "",
							"type": "uint256"
						}
					],
					"name": "projectIds",
					"outputs": [
						{
							"internalType": "string",
							"name": "",
							"type": "string"
						}
					],
					"stateMutability": "view",
					"type": "function"
				},
				{
					"inputs": [
						{
							"internalType": "string",
							"name": "",
							"type": "string"
						}
					],
					"name": "projects",
					"outputs": [
						{
							"internalType": "string",
							"name": "project_id",
							"type": "string"
						},
						{
							"internalType": "string",
							"name": "name",
							"type": "string"
						},
						{
							"internalType": "string",
							"name": "description",
							"type": "string"
						},
						{
							"internalType": "string",
							"name": "client_id",
							"type": "string"
						},
						{
							"internalType": "string",
							"name": "contractor",
							"type": "string"
						},
						{
							"internalType": "uint256",
							"name": "creationDate",
							"type": "uint256"
						},
						{
							"internalType": "uint256",
							"name": "startDate",
							"type": "uint256"
						},
						{
							"internalType": "uint256",
							"name": "endDate",
							"type": "uint256"
						},
						{
							"internalType": "uint256",
							"name": "actualCompletionDate",
							"type": "uint256"
						},
						{
							"internalType": "bool",
							"name": "closed",
							"type": "bool"
						}
					],
					"stateMutability": "view",
					"type": "function"
				},
				{
					"inputs": [
						{
							"internalType": "string",
							"name": "_project_id",
							"type": "string"
						},
						{
							"internalType": "string",
							"name": "_stage_id",
							"type": "string"
						},
						{
							"internalType": "string",
							"name": "_validator_id",
							"type": "string"
						}
					],
					"name": "validateStage",
					"outputs": [],
					"stateMutability": "nonpayable",
					"type": "function"
				},
				{
					"inputs": [
						{
							"internalType": "string",
							"name": "_project_id",
							"type": "string"
						},
						{
							"internalType": "string",
							"name": "_stage_id",
							"type": "string"
						},
						{
							"internalType": "string",
							"name": "_validator_id",
							"type": "string"
						}
					],
					"name": "validatorWasAlreadyAdded",
					"outputs": [
						{
							"internalType": "bool",
							"name": "",
							"type": "bool"
						}
					],
					"stateMutability": "view",
					"type": "function"
				}
			],
			"devdoc": {
				"kind": "dev",
				"methods": {},
				"version": 1
			},
			"evm": {
				"assembly": "    /* \"src/BuiltTrustPay.sol\":58:12658  contract SmartPayConstruction {... */\n  mstore(0x40, 0x80)\n    /* \"src/BuiltTrustPay.sol\":94:127  string public agencyId = \"agency\" */\n  mload(0x40)\n  dup1\n  0x40\n  add\n  0x40\n  mstore\n  dup1\n  0x06\n  dup2\n  mstore\n  0x20\n  add\n  0x6167656e63790000000000000000000000000000000000000000000000000000\n  dup2\n  mstore\n  pop\n  0x00\n  swap1\n  dup2\n  tag_1\n  swap2\n  swap1\n  tag_2\n  jump\t// in\ntag_1:\n  pop\n    /* \"src/BuiltTrustPay.sol\":58:12658  contract SmartPayConstruction {... */\n  callvalue\n  dup1\n  iszero\n  tag_3\n  jumpi\n  0x00\n  dup1\n  revert\ntag_3:\n  pop\n  jump(tag_4)\n    /* \"#utility.yul\":7:106   */\ntag_5:\n    /* \"#utility.yul\":59:65   */\n  0x00\n    /* \"#utility.yul\":93:98   */\n  dup2\n    /* \"#utility.yul\":87:99   */\n  mload\n    /* \"#utility.yul\":77:99   */\n  swap1\n  pop\n    /* \"#utility.yul\":7:106   */\n  swap2\n  swap1\n  pop\n  jump\t// out\n    /* \"#utility.yul\":112:292   */\ntag_6:\n    /* \"#utility.yul\":160:237   */\n  0x4e487b7100000000000000000000000000000000000000000000000000000000\n    /* \"#utility.yul\":157:158   */\n  0x00\n    /* \"#utility.yul\":150:238   */\n  mstore\n    /* \"#utility.yul\":257:261   */\n  0x41\n    /* \"#utility.yul\":254:255   */\n  0x04\n    /* \"#utility.yul\":247:262   */\n  mstore\n    /* \"#utility.yul\":281:285   */\n  0x24\n    /* \"#utility.yul\":278:279   */\n  0x00\n    /* \"#utility.yul\":271:286   */\n  revert\n    /* \"#utility.yul\":298:478   */\ntag_7:\n    /* \"#utility.yul\":346:423   */\n  0x4e487b7100000000000000000000000000000000000000000000000000000000\n    /* \"#utility.yul\":343:344   */\n  0x00\n    /* \"#utility.yul\":336:424   */\n  mstore\n    /* \"#utility.yul\":443:447   */\n  0x22\n    /* \"#utility.yul\":440:441   */\n  0x04\n    /* \"#utility.yul\":433:448   */\n  mstore\n    /* \"#utility.yul\":467:471   */\n  0x24\n    /* \"#utility.yul\":464:465   */\n  0x00\n    /* \"#utility.yul\":457:472   */\n  revert\n    /* \"#utility.yul\":484:804   */\ntag_8:\n    /* \"#utility.yul\":528:534   */\n  0x00\n    /* \"#utility.yul\":565:566   */\n  0x02\n    /* \"#utility.yul\":559:563   */\n  dup3\n    /* \"#utility.yul\":555:567   */\n  div\n    /* \"#utility.yul\":545:567   */\n  swap1\n  pop\n    /* \"#utility.yul\":612:613   */\n  0x01\n    /* \"#utility.yul\":606:610   */\n  dup3\n    /* \"#utility.yul\":602:614   */\n  and\n    /* \"#utility.yul\":633:651   */\n  dup1\n    /* \"#utility.yul\":623:704   */\n  tag_30\n  jumpi\n    /* \"#utility.yul\":689:693   */\n  0x7f\n    /* \"#utility.yul\":681:687   */\n  dup3\n    /* \"#utility.yul\":677:694   */\n  and\n    /* \"#utility.yul\":667:694   */\n  swap2\n  pop\n    /* \"#utility.yul\":623:704   */\ntag_30:\n    /* \"#utility.yul\":751:753   */\n  0x20\n    /* \"#utility.yul\":743:749   */\n  dup3\n    /* \"#utility.yul\":740:754   */\n  lt\n    /* \"#utility.yul\":720:738   */\n  dup2\n    /* \"#utility.yul\":717:755   */\n  sub\n    /* \"#utility.yul\":714:798   */\n  tag_31\n  jumpi\n    /* \"#utility.yul\":770:788   */\n  tag_32\n  tag_7\n  jump\t// in\ntag_32:\n    /* \"#utility.yul\":714:798   */\ntag_31:\n    /* \"#utility.yul\":535:804   */\n  pop\n    /* \"#utility.yul\":484:804   */\n  swap2\n  swap1\n  pop\n  jump\t// out\n    /* \"#utility.yul\":810:951   */\ntag_9:\n    /* \"#utility.yul\":859:863   */\n  0x00\n    /* \"#utility.yul\":882:885   */\n  dup2\n    /* \"#utility.yul\":874:885   */\n  swap1\n  pop\n    /* \"#utility.yul\":905:908   */\n  dup2\n    /* \"#utility.yul\":902:903   */\n  0x00\n    /* \"#utility.yul\":895:909   */\n  mstore\n    /* \"#utility.yul\":939:943   */\n  0x20\n    /* \"#utility.yul\":936:937   */\n  0x00\n    /* \"#utility.yul\":926:944   */\n  keccak256\n    /* \"#utility.yul\":918:944   */\n  swap1\n  pop\n    /* \"#utility.yul\":810:951   */\n  swap2\n  swap1\n  pop\n  jump\t// out\n    /* \"#utility.yul\":957:1050   */\ntag_10:\n    /* \"#utility.yul\":994:1000   */\n  0x00\n    /* \"#utility.yul\":1041:1043   */\n  0x20\n    /* \"#utility.yul\":1036:1038   */\n  0x1f\n    /* \"#utility.yul\":1029:1034   */\n  dup4\n    /* \"#utility.yul\":1025:1039   */\n  add\n    /* \"#utility.yul\":1021:1044   */\n  div\n    /* \"#utility.yul\":1011:1044   */\n  swap1\n  pop\n    /* \"#utility.yul\":957:1050   */\n  swap2\n  swap1\n  pop\n  jump\t// out\n    /* \"#utility.yul\":1056:1163   */\ntag_11:\n    /* \"#utility.yul\":1100:1108   */\n  0x00\n    /* \"#utility.yul\":1150:1155   */\n  dup3\n    /* \"#utility.yul\":1144:1148   */\n  dup3\n    /* \"#utility.yul\":1140:1156   */\n  shl\n    /* \"#utility.yul\":1119:1156   */\n  swap1\n  pop\n    /* \"#utility.yul\":1056:1163   */\n  swap3\n  swap2\n  pop\n  pop\n  jump\t// out\n    /* \"#utility.yul\":1169:1562   */\ntag_12:\n    /* \"#utility.yul\":1238:1244   */\n  0x00\n    /* \"#utility.yul\":1288:1289   */\n  0x08\n    /* \"#utility.yul\":1276:1286   */\n  dup4\n    /* \"#utility.yul\":1272:1290   */\n  mul\n    /* \"#utility.yul\":1311:1408   */\n  tag_37\n    /* \"#utility.yul\":1341:1407   */\n  0xffffffffffffffffffffffffffffffffffffffffffffffffffffffffffffffff\n    /* \"#utility.yul\":1330:1339   */\n  dup3\n    /* \"#utility.yul\":1311:1408   */\n  tag_11\n  jump\t// in\ntag_37:\n    /* \"#utility.yul\":1429:1468   */\n  tag_38\n    /* \"#utility.yul\":1459:1467   */\n  dup7\n    /* \"#utility.yul\":1448:1457   */\n  dup4\n    /* \"#utility.yul\":1429:1468   */\n  tag_11\n  jump\t// in\ntag_38:\n    /* \"#utility.yul\":1417:1468   */\n  swap6\n  pop\n    /* \"#utility.yul\":1501:1505   */\n  dup1\n    /* \"#utility.yul\":1497:1506   */\n  not\n    /* \"#utility.yul\":1490:1495   */\n  dup5\n    /* \"#utility.yul\":1486:1507   */\n  and\n    /* \"#utility.yul\":1477:1507   */\n  swap4\n  pop\n    /* \"#utility.yul\":1550:1554   */\n  dup1\n    /* \"#utility.yul\":1540:1548   */\n  dup7\n    /* \"#utility.yul\":1536:1555   */\n  and\n    /* \"#utility.yul\":1529:1534   */\n  dup5\n    /* \"#utility.yul\":1526:1556   */\n  or\n    /* \"#utility.yul\":1516:1556   */\n  swap3\n  pop\n    /* \"#utility.yul\":1245:1562   */\n  pop\n  pop\n    /* \"#utility.yul\":1169:1562   */\n  swap4\n  swap3\n  pop\n  pop\n  pop\n  jump\t// out\n    /* \"#utility.yul\":1568:1645   */\ntag_13:\n    /* \"#utility.yul\":1605:1612   */\n  0x00\n    /* \"#utility.yul\":1634:1639   */\n  dup2\n    /* \"#utility.yul\":1623:1639   */\n  swap1\n  pop\n    /* \"#utility.yul\":1568:1645   */\n  swap2\n  swap1\n  pop\n  jump\t// out\n    /* \"#utility.yul\":1651:1711   */\ntag_14:\n    /* \"#utility.yul\":1679:1682   */\n  0x00\n    /* \"#utility.yul\":1700:1705   */\n  dup2\n    /* \"#utility.yul\":1693:1705   */\n  swap1\n  pop\n    /* \"#utility.yul\":1651:1711   */\n  swap2\n  swap1\n  pop\n  jump\t// out\n    /* \"#utility.yul\":1717:1859   */\ntag_15:\n    /* \"#utility.yul\":1767:1776   */\n  0x00\n    /* \"#utility.yul\":1800:1853   */\n  tag_42\n    /* \"#utility.yul\":1818:1852   */\n  tag_43\n    /* \"#utility.yul\":1827:1851   */\n  tag_44\n    /* \"#utility.yul\":1845:1850   */\n  dup5\n    /* \"#utility.yul\":1827:1851   */\n  tag_13\n  jump\t// in\ntag_44:\n    /* \"#utility.yul\":1818:1852   */\n  tag_14\n  jump\t// in\ntag_43:\n    /* \"#utility.yul\":1800:1853   */\n  tag_13\n  jump\t// in\ntag_42:\n    /* \"#utility.yul\":1787:1853   */\n  swap1\n  pop\n    /* \"#utility.yul\":1717:1859   */\n  swap2\n  swap1\n  pop\n  jump\t// out\n    /* \"#utility.yul\":1865:1940   */\ntag_16:\n    /* \"#utility.yul\":1908:1911   */\n  0x00\n    /* \"#utility.yul\":1929:1934   */\n  dup2\n    /* \"#utility.yul\":1922:1934   */\n  swap1\n  pop\n    /* \"#utility.yul\":1865:1940   */\n  swap2\n  swap1\n  pop\n  jump\t// out\n    /* \"#utility.yul\":1946:2215   */\ntag_17:\n    /* \"#utility.yul\":2056:2095   */\n  tag_47\n    /* \"#utility.yul\":2087:2094   */\n  dup4\n    /* \"#utility.yul\":2056:2095   */\n  tag_15\n  jump\t// in\ntag_47:\n    /* \"#utility.yul\":2117:2208   */\n  tag_48\n    /* \"#utility.yul\":2166:2207   */\n  tag_49\n    /* \"#utility.yul\":2190:2206   */\n  dup3\n    /* \"#utility.yul\":2166:2207   */\n  tag_16\n  jump\t// in\ntag_49:\n    /* \"#utility.yul\":2158:2164   */\n  dup5\n    /* \"#utility.yul\":2151:2155   */\n  dup5\n    /* \"#utility.yul\":2145:2156   */\n  sload\n    /* \"#utility.yul\":2117:2208   */\n  tag_12\n  jump\t// in\ntag_48:\n    /* \"#utility.yul\":2111:2115   */\n  dup3\n    /* \"#utility.yul\":2104:2209   */\n  sstore\n    /* \"#utility.yul\":2022:2215   */\n  pop\n    /* \"#utility.yul\":1946:2215   */\n  pop\n  pop\n  pop\n  jump\t// out\n    /* \"#utility.yul\":2221:2294   */\ntag_18:\n    /* \"#utility.yul\":2266:2269   */\n  0x00\n    /* \"#utility.yul\":2221:2294   */\n  swap1\n  jump\t// out\n    /* \"#utility.yul\":2300:2489   */\ntag_19:\n    /* \"#utility.yul\":2377:2409   */\n  tag_52\n  tag_18\n  jump\t// in\ntag_52:\n    /* \"#utility.yul\":2418:2483   */\n  tag_53\n    /* \"#utility.yul\":2476:2482   */\n  dup2\n    /* \"#utility.yul\":2468:2474   */\n  dup5\n    /* \"#utility.yul\":2462:2466   */\n  dup5\n    /* \"#utility.yul\":2418:2483   */\n  tag_17\n  jump\t// in\ntag_53:\n    /* \"#utility.yul\":2353:2489   */\n  pop\n    /* \"#utility.yul\":2300:2489   */\n  pop\n  pop\n  jump\t// out\n    /* \"#utility.yul\":2495:2681   */\ntag_20:\n    /* \"#utility.yul\":2555:2675   */\ntag_55:\n    /* \"#utility.yul\":2572:2575   */\n  dup2\n    /* \"#utility.yul\":2565:2570   */\n  dup2\n    /* \"#utility.yul\":2562:2576   */\n  lt\n    /* \"#utility.yul\":2555:2675   */\n  iszero\n  tag_57\n  jumpi\n    /* \"#utility.yul\":2626:2665   */\n  tag_58\n    /* \"#utility.yul\":2663:2664   */\n  0x00\n    /* \"#utility.yul\":2656:2661   */\n  dup3\n    /* \"#utility.yul\":2626:2665   */\n  tag_19\n  jump\t// in\ntag_58:\n    /* \"#utility.yul\":2599:2600   */\n  0x01\n    /* \"#utility.yul\":2592:2597   */\n  dup2\n    /* \"#utility.yul\":2588:2601   */\n  add\n    /* \"#utility.yul\":2579:2601   */\n  swap1\n  pop\n    /* \"#utility.yul\":2555:2675   */\n  jump(tag_55)\ntag_57:\n    /* \"#utility.yul\":2495:2681   */\n  pop\n  pop\n  jump\t// out\n    /* \"#utility.yul\":2687:3230   */\ntag_21:\n    /* \"#utility.yul\":2788:2790   */\n  0x1f\n    /* \"#utility.yul\":2783:2786   */\n  dup3\n    /* \"#utility.yul\":2780:2791   */\n  gt\n    /* \"#utility.yul\":2777:3223   */\n  iszero\n  tag_60\n  jumpi\n    /* \"#utility.yul\":2822:2860   */\n  tag_61\n    /* \"#utility.yul\":2854:2859   */\n  dup2\n    /* \"#utility.yul\":2822:2860   */\n  tag_9\n  jump\t// in\ntag_61:\n    /* \"#utility.yul\":2906:2935   */\n  tag_62\n    /* \"#utility.yul\":2924:2934   */\n  dup5\n    /* \"#utility.yul\":2906:2935   */\n  tag_10\n  jump\t// in\ntag_62:\n    /* \"#utility.yul\":2896:2904   */\n  dup2\n    /* \"#utility.yul\":2892:2936   */\n  add\n    /* \"#utility.yul\":3089:3091   */\n  0x20\n    /* \"#utility.yul\":3077:3087   */\n  dup6\n    /* \"#utility.yul\":3074:3092   */\n  lt\n    /* \"#utility.yul\":3071:3120   */\n  iszero\n  tag_63\n  jumpi\n    /* \"#utility.yul\":3110:3118   */\n  dup2\n    /* \"#utility.yul\":3095:3118   */\n  swap1\n  pop\n    /* \"#utility.yul\":3071:3120   */\ntag_63:\n    /* \"#utility.yul\":3133:3213   */\n  tag_64\n    /* \"#utility.yul\":3189:3211   */\n  tag_65\n    /* \"#utility.yul\":3207:3210   */\n  dup6\n    /* \"#utility.yul\":3189:3211   */\n  tag_10\n  jump\t// in\ntag_65:\n    /* \"#utility.yul\":3179:3187   */\n  dup4\n    /* \"#utility.yul\":3175:3212   */\n  add\n    /* \"#utility.yul\":3162:3173   */\n  dup3\n    /* \"#utility.yul\":3133:3213   */\n  tag_20\n  jump\t// in\ntag_64:\n    /* \"#utility.yul\":2792:3223   */\n  pop\n  pop\n    /* \"#utility.yul\":2777:3223   */\ntag_60:\n    /* \"#utility.yul\":2687:3230   */\n  pop\n  pop\n  pop\n  jump\t// out\n    /* \"#utility.yul\":3236:3353   */\ntag_22:\n    /* \"#utility.yul\":3290:3298   */\n  0x00\n    /* \"#utility.yul\":3340:3345   */\n  dup3\n    /* \"#utility.yul\":3334:3338   */\n  dup3\n    /* \"#utility.yul\":3330:3346   */\n  shr\n    /* \"#utility.yul\":3309:3346   */\n  swap1\n  pop\n    /* \"#utility.yul\":3236:3353   */\n  swap3\n  swap2\n  pop\n  pop\n  jump\t// out\n    /* \"#utility.yul\":3359:3528   */\ntag_23:\n    /* \"#utility.yul\":3403:3409   */\n  0x00\n    /* \"#utility.yul\":3436:3487   */\n  tag_68\n    /* \"#utility.yul\":3484:3485   */\n  0x00\n    /* \"#utility.yul\":3480:3486   */\n  not\n    /* \"#utility.yul\":3472:3477   */\n  dup5\n    /* \"#utility.yul\":3469:3470   */\n  0x08\n    /* \"#utility.yul\":3465:3478   */\n  mul\n    /* \"#utility.yul\":3436:3487   */\n  tag_22\n  jump\t// in\ntag_68:\n    /* \"#utility.yul\":3432:3488   */\n  not\n    /* \"#utility.yul\":3517:3521   */\n  dup1\n    /* \"#utility.yul\":3511:3515   */\n  dup4\n    /* \"#utility.yul\":3507:3522   */\n  and\n    /* \"#utility.yul\":3497:3522   */\n  swap2\n  pop\n    /* \"#utility.yul\":3410:3528   */\n  pop\n    /* \"#utility.yul\":3359:3528   */\n  swap3\n  swap2\n  pop\n  pop\n  jump\t// out\n    /* \"#utility.yul\":3533:3828   */\ntag_24:\n    /* \"#utility.yul\":3609:3613   */\n  0x00\n    /* \"#utility.yul\":3755:3784   */\n  tag_70\n    /* \"#utility.yul\":3780:3783   */\n  dup4\n    /* \"#utility.yul\":3774:3778   */\n  dup4\n    /* \"#utility.yul\":3755:3784   */\n  tag_23\n  jump\t// in\ntag_70:\n    /* \"#utility.yul\":3747:3784   */\n  swap2\n  pop\n    /* \"#utility.yul\":3817:3820   */\n  dup3\n    /* \"#utility.yul\":3814:3815   */\n  0x02\n    /* \"#utility.yul\":3810:3821   */\n  mul\n    /* \"#utility.yul\":3804:3808   */\n  dup3\n    /* \"#utility.yul\":3801:3822   */\n  or\n    /* \"#utility.yul\":3793:3822   */\n  swap1\n  pop\n    /* \"#utility.yul\":3533:3828   */\n  swap3\n  swap2\n  pop\n  pop\n  jump\t// out\n    /* \"#utility.yul\":3833:5228   */\ntag_2:\n    /* \"#utility.yul\":3950:3987   */\n  tag_72\n    /* \"#utility.yul\":3983:3986   */\n  dup3\n    /* \"#utility.yul\":3950:3987   */\n  tag_5\n  jump\t// in\ntag_72:\n    /* \"#utility.yul\":4052:4070   */\n  0xffffffffffffffff\n    /* \"#utility.yul\":4044:4050   */\n  dup2\n    /* \"#utility.yul\":4041:4071   */\n  gt\n    /* \"#utility.yul\":4038:4094   */\n  iszero\n  tag_73\n  jumpi\n    /* \"#utility.yul\":4074:4092   */\n  tag_74\n  tag_6\n  jump\t// in\ntag_74:\n    /* \"#utility.yul\":4038:4094   */\ntag_73:\n    /* \"#utility.yul\":4118:4156   */\n  tag_75\n    /* \"#utility.yul\":4150:4154   */\n  dup3\n    /* \"#utility.yul\":4144:4155   */\n  sload\n    /* \"#utility.yul\":4118:4156   */\n  tag_8\n  jump\t// in\ntag_75:\n    /* \"#utility.yul\":4203:4270   */\n  tag_76\n    /* \"#utility.yul\":4263:4269   */\n  dup3\n    /* \"#utility.yul\":4255:4261   */\n  dup3\n    /* \"#utility.yul\":4249:4253   */\n  dup6\n    /* \"#utility.yul\":4203:4270   */\n  tag_21\n  jump\t// in\ntag_76:\n    /* \"#utility.yul\":4297:4298   */\n  0x00\n    /* \"#utility.yul\":4321:4325   */\n  0x20\n    /* \"#utility.yul\":4308:4325   */\n  swap1\n  pop\n    /* \"#utility.yul\":4353:4355   */\n  0x1f\n    /* \"#utility.yul\":4345:4351   */\n  dup4\n    /* \"#utility.yul\":4342:4356   */\n  gt\n    /* \"#utility.yul\":4370:4371   */\n  0x01\n    /* \"#utility.yul\":4365:4983   */\n  dup2\n  eq\n  tag_78\n  jumpi\n    /* \"#utility.yul\":5027:5028   */\n  0x00\n    /* \"#utility.yul\":5044:5050   */\n  dup5\n    /* \"#utility.yul\":5041:5118   */\n  iszero\n  tag_79\n  jumpi\n    /* \"#utility.yul\":5093:5102   */\n  dup3\n    /* \"#utility.yul\":5088:5091   */\n  dup8\n    /* \"#utility.yul\":5084:5103   */\n  add\n    /* \"#utility.yul\":5078:5104   */\n  mload\n    /* \"#utility.yul\":5069:5104   */\n  swap1\n  pop\n    /* \"#utility.yul\":5041:5118   */\ntag_79:\n    /* \"#utility.yul\":5144:5211   */\n  tag_80\n    /* \"#utility.yul\":5204:5210   */\n  dup6\n    /* \"#utility.yul\":5197:5202   */\n  dup3\n    /* \"#utility.yul\":5144:5211   */\n  tag_24\n  jump\t// in\ntag_80:\n    /* \"#utility.yul\":5138:5142   */\n  dup7\n    /* \"#utility.yul\":5131:5212   */\n  sstore\n    /* \"#utility.yul\":5000:5222   */\n  pop\n    /* \"#utility.yul\":4335:5222   */\n  jump(tag_77)\n    /* \"#utility.yul\":4365:4983   */\ntag_78:\n    /* \"#utility.yul\":4417:4421   */\n  0x1f\n    /* \"#utility.yul\":4413:4422   */\n  not\n    /* \"#utility.yul\":4405:4411   */\n  dup5\n    /* \"#utility.yul\":4401:4423   */\n  and\n    /* \"#utility.yul\":4451:4488   */\n  tag_81\n    /* \"#utility.yul\":4483:4487   */\n  dup7\n    /* \"#utility.yul\":4451:4488   */\n  tag_9\n  jump\t// in\ntag_81:\n    /* \"#utility.yul\":4510:4511   */\n  0x00\n    /* \"#utility.yul\":4524:4732   */\ntag_82:\n    /* \"#utility.yul\":4538:4545   */\n  dup3\n    /* \"#utility.yul\":4535:4536   */\n  dup2\n    /* \"#utility.yul\":4532:4546   */\n  lt\n    /* \"#utility.yul\":4524:4732   */\n  iszero\n  tag_84\n  jumpi\n    /* \"#utility.yul\":4617:4626   */\n  dup5\n    /* \"#utility.yul\":4612:4615   */\n  dup10\n    /* \"#utility.yul\":4608:4627   */\n  add\n    /* \"#utility.yul\":4602:4628   */\n  mload\n    /* \"#utility.yul\":4594:4600   */\n  dup3\n    /* \"#utility.yul\":4587:4629   */\n  sstore\n    /* \"#utility.yul\":4668:4669   */\n  0x01\n    /* \"#utility.yul\":4660:4666   */\n  dup3\n    /* \"#utility.yul\":4656:4670   */\n  add\n    /* \"#utility.yul\":4646:4670   */\n  swap2\n  pop\n    /* \"#utility.yul\":4715:4717   */\n  0x20\n    /* \"#utility.yul\":4704:4713   */\n  dup6\n    /* \"#utility.yul\":4700:4718   */\n  add\n    /* \"#utility.yul\":4687:4718   */\n  swap5\n  pop\n    /* \"#utility.yul\":4561:4565   */\n  0x20\n    /* \"#utility.yul\":4558:4559   */\n  dup2\n    /* \"#utility.yul\":4554:4566   */\n  add\n    /* \"#utility.yul\":4549:4566   */\n  swap1\n  pop\n    /* \"#utility.yul\":4524:4732   */\n  jump(tag_82)\ntag_84:\n    /* \"#utility.yul\":4760:4766   */\n  dup7\n    /* \"#utility.yul\":4751:4758   */\n  dup4\n    /* \"#utility.yul\":4748:4767   */\n  lt\n    /* \"#utility.yul\":4745:4924   */\n  iszero\n  tag_85\n  jumpi\n    /* \"#utility.yul\":4818:4827   */\n  dup5\n    /* \"#utility.yul\":4813:4816   */\n  dup10\n    /* \"#utility.yul\":4809:4828   */\n  add\n    /* \"#utility.yul\":4803:4829   */\n  mload\n    /* \"#utility.yul\":4861:4909   */\n  tag_86\n    /* \"#utility.yul\":4903:4907   */\n  0x1f\n    /* \"#utility.yul\":4895:4901   */\n  dup10\n    /* \"#utility.yul\":4891:4908   */\n  and\n    /* \"#utility.yul\":4880:4889   */\n  dup3\n    /* \"#utility.yul\":4861:4909   */\n  tag_23\n  jump\t// in\ntag_86:\n    /* \"#utility.yul\":4853:4859   */\n  dup4\n    /* \"#utility.yul\":4846:4910   */\n  sstore\n    /* \"#utility.yul\":4768:4924   */\n  pop\n    /* \"#utility.yul\":4745:4924   */\ntag_85:\n    /* \"#utility.yul\":4970:4971   */\n  0x01\n    /* \"#utility.yul\":4966:4967   */\n  0x02\n    /* \"#utility.yul\":4958:4964   */\n  dup9\n    /* \"#utility.yul\":4954:4968   */\n  mul\n    /* \"#utility.yul\":4950:4972   */\n  add\n    /* \"#utility.yul\":4944:4948   */\n  dup9\n    /* \"#utility.yul\":4937:4973   */\n  sstore\n    /* \"#utility.yul\":4372:4983   */\n  pop\n  pop\n  pop\n    /* \"#utility.yul\":4335:5222   */\ntag_77:\n  pop\n    /* \"#utility.yul\":3925:5228   */\n  pop\n  pop\n  pop\n    /* \"#utility.yul\":3833:5228   */\n  pop\n  pop\n  jump\t// out\n    /* \"src/BuiltTrustPay.sol\":58:12658  contract SmartPayConstruction {... */\ntag_4:\n  dataSize(sub_0)\n  dup1\n  dataOffset(sub_0)\n  0x00\n  codecopy\n  0x00\n  return\nstop\n\nsub_0: assembly {\n        /* \"src/BuiltTrustPay.sol\":58:12658  contract SmartPayConstruction {... */\n      mstore(0x40, 0x80)\n      callvalue\n      dup1\n      iszero\n      tag_1\n      jumpi\n      0x00\n      dup1\n      revert\n    tag_1:\n      pop\n      jumpi(tag_2, lt(calldatasize, 0x04))\n      shr(0xe0, calldataload(0x00))\n      dup1\n      0x7d4aee20\n      gt\n      tag_26\n      jumpi\n      dup1\n      0xcb89c644\n      gt\n      tag_27\n      jumpi\n      dup1\n      0xcb89c644\n      eq\n      tag_20\n      jumpi\n      dup1\n      0xcbe737b3\n      eq\n      tag_21\n      jumpi\n      dup1\n      0xce89e021\n      eq\n      tag_22\n      jumpi\n      dup1\n      0xdcc60128\n      eq\n      tag_23\n      jumpi\n      dup1\n      0xe4a8f18b\n      eq\n      tag_24\n      jumpi\n      dup1\n      0xef079b20\n      eq\n      tag_25\n      jumpi\n      jump(tag_2)\n    tag_27:\n      dup1\n      0x7d4aee20\n      eq\n      tag_14\n      jumpi\n      dup1\n      0x91c9b268\n      eq\n      tag_15\n      jumpi\n      dup1\n      0x93dc12e6\n      eq\n      tag_16\n      jumpi\n      dup1\n      0x99e76d35\n      eq\n      tag_17\n      jumpi\n      dup1\n      0xa762ad5b\n      eq\n      tag_18\n      jumpi\n      dup1\n      0xbed34bba\n      eq\n      tag_19\n      jumpi\n      jump(tag_2)\n    tag_26:\n      dup1\n      0x47642512\n      gt\n      tag_28\n      jumpi\n      dup1\n      0x47642512\n      eq\n      tag_8\n      jumpi\n      dup1\n      0x48c35ad4\n      eq\n      tag_9\n      jumpi\n      dup1\n      0x4ac64766\n      eq\n      tag_10\n      jumpi\n      dup1\n      0x57c303d5\n      eq\n      tag_11\n      jumpi\n      dup1\n      0x615ba9d9\n      eq\n      tag_12\n      jumpi\n      dup1\n      0x632787f5\n      eq\n      tag_13\n      jumpi\n      jump(tag_2)\n    tag_28:\n      dup1\n      0x074faf2b\n      eq\n      tag_3\n      jumpi\n      dup1\n      0x089cd025\n      eq\n      tag_4\n      jumpi\n      dup1\n      0x221c51bb\n      eq\n      tag_5\n      jumpi\n      dup1\n      0x292ee7c9\n      eq\n      tag_6\n      jumpi\n      dup1\n      0x3efe1b8a\n      eq\n      tag_7\n      jumpi\n    tag_2:\n      0x00\n      dup1\n      revert\n        /* \"src/BuiltTrustPay.sol\":7933:8445  function validatorWasAlreadyAdded(string memory _project_id, string memory _stage_id, string memory _validator_id)... */\n    tag_3:\n      tag_29\n      0x04\n      dup1\n      calldatasize\n      sub\n      dup2\n      add\n      swap1\n      tag_30\n      swap2\n      swap1\n      tag_31\n      jump\t// in\n    tag_30:\n      tag_32\n      jump\t// in\n    tag_29:\n      mload(0x40)\n      tag_33\n      swap2\n      swap1\n      tag_34\n      jump\t// in\n    tag_33:\n      mload(0x40)\n      dup1\n      swap2\n      sub\n      swap1\n      return\n        /* \"src/BuiltTrustPay.sol\":11504:11583  function processPendingPayments(uint256 projectId, uint256 stageId) external {} */\n    tag_4:\n      tag_35\n      0x04\n      dup1\n      calldatasize\n      sub\n      dup2\n      add\n      swap1\n      tag_36\n      swap2\n      swap1\n      tag_37\n      jump\t// in\n    tag_36:\n      tag_38\n      jump\t// in\n    tag_35:\n      stop\n        /* \"src/BuiltTrustPay.sol\":2330:3450  function createProject(... */\n    tag_5:\n      tag_39\n      0x04\n      dup1\n      calldatasize\n      sub\n      dup2\n      add\n      swap1\n      tag_40\n      swap2\n      swap1\n      tag_41\n      jump\t// in\n    tag_40:\n      tag_42\n      jump\t// in\n    tag_39:\n      stop\n        /* \"src/BuiltTrustPay.sol\":9855:9984  function addStage(string memory projectId, Stage memory _stage) external {... */\n    tag_6:\n      tag_43\n      0x04\n      dup1\n      calldatasize\n      sub\n      dup2\n      add\n      swap1\n      tag_44\n      swap2\n      swap1\n      tag_45\n      jump\t// in\n    tag_44:\n      tag_46\n      jump\t// in\n    tag_43:\n      stop\n        /* \"src/BuiltTrustPay.sol\":9482:9713  function getMaxTotalValidators(string memory _project_id, string memory _stage_id) public view returns (uint256) {... */\n    tag_7:\n      tag_47\n      0x04\n      dup1\n      calldatasize\n      sub\n      dup2\n      add\n      swap1\n      tag_48\n      swap2\n      swap1\n      tag_49\n      jump\t// in\n    tag_48:\n      tag_50\n      jump\t// in\n    tag_47:\n      mload(0x40)\n      tag_51\n      swap2\n      swap1\n      tag_52\n      jump\t// in\n    tag_51:\n      mload(0x40)\n      dup1\n      swap2\n      sub\n      swap1\n      return\n        /* \"src/BuiltTrustPay.sol\":8604:8865  function getValidatorsIds(string memory _project_id, string memory _stage_id)... */\n    tag_8:\n      tag_53\n      0x04\n      dup1\n      calldatasize\n      sub\n      dup2\n      add\n      swap1\n      tag_54\n      swap2\n      swap1\n      tag_49\n      jump\t// in\n    tag_54:\n      tag_55\n      jump\t// in\n    tag_53:\n      mload(0x40)\n      tag_56\n      swap2\n      swap1\n      tag_57\n      jump\t// in\n    tag_56:\n      mload(0x40)\n      dup1\n      swap2\n      sub\n      swap1\n      return\n        /* \"src/BuiltTrustPay.sol\":1657:1683  string[] public projectIds */\n    tag_9:\n      tag_58\n      0x04\n      dup1\n      calldatasize\n      sub\n      dup2\n      add\n      swap1\n      tag_59\n      swap2\n      swap1\n      tag_60\n      jump\t// in\n    tag_59:\n      tag_61\n      jump\t// in\n    tag_58:\n      mload(0x40)\n      tag_62\n      swap2\n      swap1\n      tag_63\n      jump\t// in\n    tag_62:\n      mload(0x40)\n      dup1\n      swap2\n      sub\n      swap1\n      return\n        /* \"src/BuiltTrustPay.sol\":11894:11996  function getAllProjectIds() external view returns (string[] memory) {... */\n    tag_10:\n      tag_64\n      tag_65\n      jump\t// in\n    tag_64:\n      mload(0x40)\n      tag_66\n      swap2\n      swap1\n      tag_57\n      jump\t// in\n    tag_66:\n      mload(0x40)\n      dup1\n      swap2\n      sub\n      swap1\n      return\n        /* \"src/BuiltTrustPay.sol\":10396:11327  function validateStage(string memory _project_id, string memory _stage_id, string memory _validator_id) external {... */\n    tag_11:\n      tag_67\n      0x04\n      dup1\n      calldatasize\n      sub\n      dup2\n      add\n      swap1\n      tag_68\n      swap2\n      swap1\n      tag_31\n      jump\t// in\n    tag_68:\n      tag_69\n      jump\t// in\n    tag_67:\n      stop\n        /* \"src/BuiltTrustPay.sol\":4737:5253  function isStageValidatedByValidator(... */\n    tag_12:\n      tag_70\n      0x04\n      dup1\n      calldatasize\n      sub\n      dup2\n      add\n      swap1\n      tag_71\n      swap2\n      swap1\n      tag_31\n      jump\t// in\n    tag_71:\n      tag_72\n      jump\t// in\n    tag_70:\n      mload(0x40)\n      tag_73\n      swap2\n      swap1\n      tag_34\n      jump\t// in\n    tag_73:\n      mload(0x40)\n      dup1\n      swap2\n      sub\n      swap1\n      return\n        /* \"src/BuiltTrustPay.sol\":5459:5982  function isValidatorAllowedToValidate(... */\n    tag_13:\n      tag_74\n      0x04\n      dup1\n      calldatasize\n      sub\n      dup2\n      add\n      swap1\n      tag_75\n      swap2\n      swap1\n      tag_31\n      jump\t// in\n    tag_75:\n      tag_76\n      jump\t// in\n    tag_74:\n      mload(0x40)\n      tag_77\n      swap2\n      swap1\n      tag_34\n      jump\t// in\n    tag_77:\n      mload(0x40)\n      dup1\n      swap2\n      sub\n      swap1\n      return\n        /* \"src/BuiltTrustPay.sol\":7491:7768  function addValidators(string memory _project_id, string memory _stage_id, string[] memory _validators_ids)... */\n    tag_14:\n      tag_78\n      0x04\n      dup1\n      calldatasize\n      sub\n      dup2\n      add\n      swap1\n      tag_79\n      swap2\n      swap1\n      tag_80\n      jump\t// in\n    tag_79:\n      tag_81\n      jump\t// in\n    tag_78:\n      stop\n        /* \"src/BuiltTrustPay.sol\":1609:1651  mapping(string => Project) public projects */\n    tag_15:\n      tag_82\n      0x04\n      dup1\n      calldatasize\n      sub\n      dup2\n      add\n      swap1\n      tag_83\n      swap2\n      swap1\n      tag_84\n      jump\t// in\n    tag_83:\n      tag_85\n      jump\t// in\n    tag_82:\n      mload(0x40)\n      tag_86\n      swap11\n      swap10\n      swap9\n      swap8\n      swap7\n      swap6\n      swap5\n      swap4\n      swap3\n      swap2\n      swap1\n      tag_87\n      jump\t// in\n    tag_86:\n      mload(0x40)\n      dup1\n      swap2\n      sub\n      swap1\n      return\n        /* \"src/BuiltTrustPay.sol\":11715:11767  function closeProject(uint256 projectId) external {} */\n    tag_16:\n      tag_88\n      0x04\n      dup1\n      calldatasize\n      sub\n      dup2\n      add\n      swap1\n      tag_89\n      swap2\n      swap1\n      tag_60\n      jump\t// in\n    tag_89:\n      tag_90\n      jump\t// in\n    tag_88:\n      stop\n        /* \"src/BuiltTrustPay.sol\":94:127  string public agencyId = \"agency\" */\n    tag_17:\n      tag_91\n      tag_92\n      jump\t// in\n    tag_91:\n      mload(0x40)\n      tag_93\n      swap2\n      swap1\n      tag_63\n      jump\t// in\n    tag_93:\n      mload(0x40)\n      dup1\n      swap2\n      sub\n      swap1\n      return\n        /* \"src/BuiltTrustPay.sol\":6135:6939  function addValidator(string memory _project_id, string memory _stage_id, string memory _validator_id) public {... */\n    tag_18:\n      tag_94\n      0x04\n      dup1\n      calldatasize\n      sub\n      dup2\n      add\n      swap1\n      tag_95\n      swap2\n      swap1\n      tag_31\n      jump\t// in\n    tag_95:\n      tag_96\n      jump\t// in\n    tag_94:\n      stop\n        /* \"src/BuiltTrustPay.sol\":10084:10257  function compareStrings(string memory a, string memory b) public pure returns (bool) {... */\n    tag_19:\n      tag_97\n      0x04\n      dup1\n      calldatasize\n      sub\n      dup2\n      add\n      swap1\n      tag_98\n      swap2\n      swap1\n      tag_49\n      jump\t// in\n    tag_98:\n      tag_99\n      jump\t// in\n    tag_97:\n      mload(0x40)\n      tag_100\n      swap2\n      swap1\n      tag_34\n      jump\t// in\n    tag_100:\n      mload(0x40)\n      dup1\n      swap2\n      sub\n      swap1\n      return\n        /* \"src/BuiltTrustPay.sol\":9043:9274  function getTotalValidators(string memory _project_id, string memory _stage_id) public view returns (uint256) {... */\n    tag_20:\n      tag_101\n      0x04\n      dup1\n      calldatasize\n      sub\n      dup2\n      add\n      swap1\n      tag_102\n      swap2\n      swap1\n      tag_49\n      jump\t// in\n    tag_102:\n      tag_103\n      jump\t// in\n    tag_101:\n      mload(0x40)\n      tag_104\n      swap2\n      swap1\n      tag_52\n      jump\t// in\n    tag_104:\n      mload(0x40)\n      dup1\n      swap2\n      sub\n      swap1\n      return\n        /* \"src/BuiltTrustPay.sol\":3720:4264  function getStageById(string memory projectId, string memory stageId)... */\n    tag_21:\n      tag_105\n      0x04\n      dup1\n      calldatasize\n      sub\n      dup2\n      add\n      swap1\n      tag_106\n      swap2\n      swap1\n      tag_49\n      jump\t// in\n    tag_106:\n      tag_107\n      jump\t// in\n    tag_105:\n      mload(0x40)\n      tag_108\n      swap4\n      swap3\n      swap2\n      swap1\n      tag_109\n      jump\t// in\n    tag_108:\n      mload(0x40)\n      dup1\n      swap2\n      sub\n      swap1\n      return\n        /* \"src/BuiltTrustPay.sol\":4399:4537  function getStagesCount(string memory projectId) external view returns (uint256) {... */\n    tag_22:\n      tag_110\n      0x04\n      dup1\n      calldatasize\n      sub\n      dup2\n      add\n      swap1\n      tag_111\n      swap2\n      swap1\n      tag_84\n      jump\t// in\n    tag_111:\n      tag_112\n      jump\t// in\n    tag_110:\n      mload(0x40)\n      tag_113\n      swap2\n      swap1\n      tag_52\n      jump\t// in\n    tag_113:\n      mload(0x40)\n      dup1\n      swap2\n      sub\n      swap1\n      return\n        /* \"src/BuiltTrustPay.sol\":12121:12409  function getProjects() external view returns (Project[] memory) {... */\n    tag_23:\n      tag_114\n      tag_115\n      jump\t// in\n    tag_114:\n      mload(0x40)\n      tag_116\n      swap2\n      swap1\n      tag_117\n      jump\t// in\n    tag_116:\n      mload(0x40)\n      dup1\n      swap2\n      sub\n      swap1\n      return\n        /* \"src/BuiltTrustPay.sol\":12555:12656  function getProjectsCount() external view returns (uint256) {... */\n    tag_24:\n      tag_118\n      tag_119\n      jump\t// in\n    tag_118:\n      mload(0x40)\n      tag_120\n      swap2\n      swap1\n      tag_52\n      jump\t// in\n    tag_120:\n      mload(0x40)\n      dup1\n      swap2\n      sub\n      swap1\n      return\n        /* \"src/BuiltTrustPay.sol\":7127:7354  function isThereEnoughValidators(string memory _project_id, string memory _stage_id) public view returns (bool) {... */\n    tag_25:\n      tag_121\n      0x04\n      dup1\n      calldatasize\n      sub\n      dup2\n      add\n      swap1\n      tag_122\n      swap2\n      swap1\n      tag_49\n      jump\t// in\n    tag_122:\n      tag_123\n      jump\t// in\n    tag_121:\n      mload(0x40)\n      tag_124\n      swap2\n      swap1\n      tag_34\n      jump\t// in\n    tag_124:\n      mload(0x40)\n      dup1\n      swap2\n      sub\n      swap1\n      return\n        /* \"src/BuiltTrustPay.sol\":7933:8445  function validatorWasAlreadyAdded(string memory _project_id, string memory _stage_id, string memory _validator_id)... */\n    tag_32:\n        /* \"src/BuiltTrustPay.sol\":8093:8097  bool */\n      0x00\n        /* \"src/BuiltTrustPay.sol\":8113:8142  string[] memory valiators_ids */\n      dup1\n        /* \"src/BuiltTrustPay.sol\":8145:8185  getValidatorsIds(_project_id, _stage_id) */\n      tag_126\n        /* \"src/BuiltTrustPay.sol\":8162:8173  _project_id */\n      dup6\n        /* \"src/BuiltTrustPay.sol\":8175:8184  _stage_id */\n      dup6\n        /* \"src/BuiltTrustPay.sol\":8145:8161  getValidatorsIds */\n      tag_55\n        /* \"src/BuiltTrustPay.sol\":8145:8185  getValidatorsIds(_project_id, _stage_id) */\n      jump\t// in\n    tag_126:\n        /* \"src/BuiltTrustPay.sol\":8113:8185  string[] memory valiators_ids = getValidatorsIds(_project_id, _stage_id) */\n      swap1\n      pop\n        /* \"src/BuiltTrustPay.sol\":8201:8210  uint256 i */\n      0x00\n        /* \"src/BuiltTrustPay.sol\":8196:8416  for (uint256 i = 0; i < valiators_ids.length; i++) {... */\n    tag_127:\n        /* \"src/BuiltTrustPay.sol\":8220:8233  valiators_ids */\n      dup2\n        /* \"src/BuiltTrustPay.sol\":8220:8240  valiators_ids.length */\n      mload\n        /* \"src/BuiltTrustPay.sol\":8216:8217  i */\n      dup2\n        /* \"src/BuiltTrustPay.sol\":8216:8240  i < valiators_ids.length */\n      lt\n        /* \"src/BuiltTrustPay.sol\":8196:8416  for (uint256 i = 0; i < valiators_ids.length; i++) {... */\n      iszero\n      tag_128\n      jumpi\n        /* \"src/BuiltTrustPay.sol\":8313:8360  compareStrings(_validator_id, valiators_ids[i]) */\n      tag_130\n        /* \"src/BuiltTrustPay.sol\":8328:8341  _validator_id */\n      dup5\n        /* \"src/BuiltTrustPay.sol\":8343:8356  valiators_ids */\n      dup4\n        /* \"src/BuiltTrustPay.sol\":8357:8358  i */\n      dup4\n        /* \"src/BuiltTrustPay.sol\":8343:8359  valiators_ids[i] */\n      dup2\n      mload\n      dup2\n      lt\n      tag_131\n      jumpi\n      tag_132\n      tag_133\n      jump\t// in\n    tag_132:\n    tag_131:\n      0x20\n      mul\n      0x20\n      add\n      add\n      mload\n        /* \"src/BuiltTrustPay.sol\":8313:8327  compareStrings */\n      tag_99\n        /* \"src/BuiltTrustPay.sol\":8313:8360  compareStrings(_validator_id, valiators_ids[i]) */\n      jump\t// in\n    tag_130:\n        /* \"src/BuiltTrustPay.sol\":8309:8406  if (compareStrings(_validator_id, valiators_ids[i])) {... */\n      iszero\n      tag_134\n      jumpi\n        /* \"src/BuiltTrustPay.sol\":8387:8391  true */\n      0x01\n        /* \"src/BuiltTrustPay.sol\":8380:8391  return true */\n      swap3\n      pop\n      pop\n      pop\n      jump(tag_125)\n        /* \"src/BuiltTrustPay.sol\":8309:8406  if (compareStrings(_validator_id, valiators_ids[i])) {... */\n    tag_134:\n        /* \"src/BuiltTrustPay.sol\":8242:8245  i++ */\n      dup1\n      dup1\n      0x01\n      add\n      swap2\n      pop\n      pop\n        /* \"src/BuiltTrustPay.sol\":8196:8416  for (uint256 i = 0; i < valiators_ids.length; i++) {... */\n      jump(tag_127)\n    tag_128:\n      pop\n        /* \"src/BuiltTrustPay.sol\":8433:8438  false */\n      0x00\n        /* \"src/BuiltTrustPay.sol\":8426:8438  return false */\n      swap2\n      pop\n      pop\n        /* \"src/BuiltTrustPay.sol\":7933:8445  function validatorWasAlreadyAdded(string memory _project_id, string memory _stage_id, string memory _validator_id)... */\n    tag_125:\n      swap4\n      swap3\n      pop\n      pop\n      pop\n      jump\t// out\n        /* \"src/BuiltTrustPay.sol\":11504:11583  function processPendingPayments(uint256 projectId, uint256 stageId) external {} */\n    tag_38:\n      pop\n      pop\n      jump\t// out\n        /* \"src/BuiltTrustPay.sol\":2330:3450  function createProject(... */\n    tag_42:\n        /* \"src/BuiltTrustPay.sol\":2633:2650  Project storage p */\n      0x00\n        /* \"src/BuiltTrustPay.sol\":2653:2661  projects */\n      0x01\n        /* \"src/BuiltTrustPay.sol\":2662:2673  _project_id */\n      dup10\n        /* \"src/BuiltTrustPay.sol\":2653:2674  projects[_project_id] */\n      mload(0x40)\n      tag_137\n      swap2\n      swap1\n      tag_138\n      jump\t// in\n    tag_137:\n      swap1\n      dup2\n      mstore\n      0x20\n      add\n      mload(0x40)\n      dup1\n      swap2\n      sub\n      swap1\n      keccak256\n        /* \"src/BuiltTrustPay.sol\":2633:2674  Project storage p = projects[_project_id] */\n      swap1\n      pop\n        /* \"src/BuiltTrustPay.sol\":2693:2698  _name */\n      dup8\n        /* \"src/BuiltTrustPay.sol\":2684:2685  p */\n      dup2\n        /* \"src/BuiltTrustPay.sol\":2684:2690  p.name */\n      0x01\n      add\n        /* \"src/BuiltTrustPay.sol\":2684:2698  p.name = _name */\n      swap1\n      dup2\n      tag_139\n      swap2\n      swap1\n      tag_140\n      jump\t// in\n    tag_139:\n      pop\n        /* \"src/BuiltTrustPay.sol\":2724:2736  _description */\n      dup7\n        /* \"src/BuiltTrustPay.sol\":2708:2709  p */\n      dup2\n        /* \"src/BuiltTrustPay.sol\":2708:2721  p.description */\n      0x02\n      add\n        /* \"src/BuiltTrustPay.sol\":2708:2736  p.description = _description */\n      swap1\n      dup2\n      tag_141\n      swap2\n      swap1\n      tag_140\n      jump\t// in\n    tag_141:\n      pop\n        /* \"src/BuiltTrustPay.sol\":2761:2772  _project_id */\n      dup9\n        /* \"src/BuiltTrustPay.sol\":2746:2747  p */\n      dup2\n        /* \"src/BuiltTrustPay.sol\":2746:2758  p.project_id */\n      0x00\n      add\n        /* \"src/BuiltTrustPay.sol\":2746:2772  p.project_id = _project_id */\n      swap1\n      dup2\n      tag_142\n      swap2\n      swap1\n      tag_140\n      jump\t// in\n    tag_142:\n      pop\n        /* \"src/BuiltTrustPay.sol\":2796:2806  _client_id */\n      dup6\n        /* \"src/BuiltTrustPay.sol\":2782:2783  p */\n      dup2\n        /* \"src/BuiltTrustPay.sol\":2782:2793  p.client_id */\n      0x03\n      add\n        /* \"src/BuiltTrustPay.sol\":2782:2806  p.client_id = _client_id */\n      swap1\n      dup2\n      tag_143\n      swap2\n      swap1\n      tag_140\n      jump\t// in\n    tag_143:\n      pop\n        /* \"src/BuiltTrustPay.sol\":2831:2842  _contractor */\n      dup5\n        /* \"src/BuiltTrustPay.sol\":2816:2817  p */\n      dup2\n        /* \"src/BuiltTrustPay.sol\":2816:2828  p.contractor */\n      0x04\n      add\n        /* \"src/BuiltTrustPay.sol\":2816:2842  p.contractor = _contractor */\n      swap1\n      dup2\n      tag_144\n      swap2\n      swap1\n      tag_140\n      jump\t// in\n    tag_144:\n      pop\n        /* \"src/BuiltTrustPay.sol\":2869:2884  block.timestamp */\n      timestamp\n        /* \"src/BuiltTrustPay.sol\":2852:2853  p */\n      dup2\n        /* \"src/BuiltTrustPay.sol\":2852:2866  p.creationDate */\n      0x05\n      add\n        /* \"src/BuiltTrustPay.sol\":2852:2884  p.creationDate = block.timestamp */\n      dup2\n      swap1\n      sstore\n      pop\n        /* \"src/BuiltTrustPay.sol\":2908:2918  _startDate */\n      dup4\n        /* \"src/BuiltTrustPay.sol\":2894:2895  p */\n      dup2\n        /* \"src/BuiltTrustPay.sol\":2894:2905  p.startDate */\n      0x06\n      add\n        /* \"src/BuiltTrustPay.sol\":2894:2918  p.startDate = _startDate */\n      dup2\n      swap1\n      sstore\n      pop\n        /* \"src/BuiltTrustPay.sol\":2940:2948  _endDate */\n      dup3\n        /* \"src/BuiltTrustPay.sol\":2928:2929  p */\n      dup2\n        /* \"src/BuiltTrustPay.sol\":2928:2937  p.endDate */\n      0x07\n      add\n        /* \"src/BuiltTrustPay.sol\":2928:2948  p.endDate = _endDate */\n      dup2\n      swap1\n      sstore\n      pop\n        /* \"src/BuiltTrustPay.sol\":2969:2974  false */\n      0x00\n        /* \"src/BuiltTrustPay.sol\":2958:2959  p */\n      dup2\n        /* \"src/BuiltTrustPay.sol\":2958:2966  p.closed */\n      0x09\n      add\n      0x00\n        /* \"src/BuiltTrustPay.sol\":2958:2974  p.closed = false */\n      0x0100\n      exp\n      dup2\n      sload\n      dup2\n      0xff\n      mul\n      not\n      and\n      swap1\n      dup4\n      iszero\n      iszero\n      mul\n      or\n      swap1\n      sstore\n      pop\n        /* \"src/BuiltTrustPay.sol\":3009:3010  0 */\n      0x00\n        /* \"src/BuiltTrustPay.sol\":2984:2985  p */\n      dup2\n        /* \"src/BuiltTrustPay.sol\":2984:3006  p.actualCompletionDate */\n      0x08\n      add\n        /* \"src/BuiltTrustPay.sol\":2984:3010  p.actualCompletionDate = 0 */\n      dup2\n      swap1\n      sstore\n      pop\n        /* \"src/BuiltTrustPay.sol\":3020:3030  projectIds */\n      0x02\n        /* \"src/BuiltTrustPay.sol\":3036:3047  _project_id */\n      dup10\n        /* \"src/BuiltTrustPay.sol\":3020:3048  projectIds.push(_project_id) */\n      swap1\n      dup1\n      0x01\n      dup2\n      sload\n      add\n      dup1\n      dup3\n      sstore\n      dup1\n      swap2\n      pop\n      pop\n      0x01\n      swap1\n      sub\n      swap1\n      0x00\n      mstore\n      keccak256(0x00, 0x20)\n      add\n      0x00\n      swap1\n      swap2\n      swap1\n      swap2\n      swap1\n      swap2\n      pop\n      swap1\n      dup2\n      tag_146\n      swap2\n      swap1\n      tag_140\n      jump\t// in\n    tag_146:\n      pop\n        /* \"src/BuiltTrustPay.sol\":3064:3073  uint256 i */\n      0x00\n        /* \"src/BuiltTrustPay.sol\":3059:3444  for (uint256 i = 0; i < _stages.length; i++) {... */\n    tag_147:\n        /* \"src/BuiltTrustPay.sol\":3083:3090  _stages */\n      dup3\n        /* \"src/BuiltTrustPay.sol\":3083:3097  _stages.length */\n      mload\n        /* \"src/BuiltTrustPay.sol\":3079:3080  i */\n      dup2\n        /* \"src/BuiltTrustPay.sol\":3079:3097  i < _stages.length */\n      lt\n        /* \"src/BuiltTrustPay.sol\":3059:3444  for (uint256 i = 0; i < _stages.length; i++) {... */\n      iszero\n      tag_148\n      jumpi\n        /* \"src/BuiltTrustPay.sol\":3118:3119  p */\n      dup2\n        /* \"src/BuiltTrustPay.sol\":3118:3126  p.stages */\n      0x0a\n      add\n        /* \"src/BuiltTrustPay.sol\":3132:3139  _stages */\n      dup4\n        /* \"src/BuiltTrustPay.sol\":3140:3141  i */\n      dup3\n        /* \"src/BuiltTrustPay.sol\":3132:3142  _stages[i] */\n      dup2\n      mload\n      dup2\n      lt\n      tag_150\n      jumpi\n      tag_151\n      tag_133\n      jump\t// in\n    tag_151:\n    tag_150:\n      0x20\n      mul\n      0x20\n      add\n      add\n      mload\n        /* \"src/BuiltTrustPay.sol\":3118:3143  p.stages.push(_stages[i]) */\n      swap1\n      dup1\n      0x01\n      dup2\n      sload\n      add\n      dup1\n      dup3\n      sstore\n      dup1\n      swap2\n      pop\n      pop\n      0x01\n      swap1\n      sub\n      swap1\n      0x00\n      mstore\n      keccak256(0x00, 0x20)\n      swap1\n      0x0a\n      mul\n      add\n      0x00\n      swap1\n      swap2\n      swap1\n      swap2\n      swap1\n      swap2\n      pop\n      0x00\n      dup3\n      add\n      mload\n      dup2\n      0x00\n      add\n      swap1\n      dup2\n      tag_153\n      swap2\n      swap1\n      tag_140\n      jump\t// in\n    tag_153:\n      pop\n      0x20\n      dup3\n      add\n      mload\n      dup2\n      0x01\n      add\n      swap1\n      dup2\n      tag_154\n      swap2\n      swap1\n      tag_140\n      jump\t// in\n    tag_154:\n      pop\n      0x40\n      dup3\n      add\n      mload\n      dup2\n      0x02\n      add\n      swap1\n      dup2\n      tag_155\n      swap2\n      swap1\n      tag_140\n      jump\t// in\n    tag_155:\n      pop\n      0x60\n      dup3\n      add\n      mload\n      dup2\n      0x03\n      add\n      swap1\n      dup2\n      tag_156\n      swap2\n      swap1\n      tag_140\n      jump\t// in\n    tag_156:\n      pop\n      0x80\n      dup3\n      add\n      mload\n      dup2\n      0x04\n      add\n      sstore\n      0xa0\n      dup3\n      add\n      mload\n      dup2\n      0x05\n      add\n      swap1\n      dup1\n      mload\n      swap1\n      0x20\n      add\n      swap1\n      tag_157\n      swap3\n      swap2\n      swap1\n      tag_158\n      jump\t// in\n    tag_157:\n      pop\n      0xc0\n      dup3\n      add\n      mload\n      dup2\n      0x06\n      add\n      swap1\n      dup1\n      mload\n      swap1\n      0x20\n      add\n      swap1\n      tag_159\n      swap3\n      swap2\n      swap1\n      tag_158\n      jump\t// in\n    tag_159:\n      pop\n      0xe0\n      dup3\n      add\n      mload\n      dup2\n      0x07\n      add\n      sstore\n      0x0100\n      dup3\n      add\n      mload\n      dup2\n      0x08\n      add\n      sstore\n      0x0120\n      dup3\n      add\n      mload\n      dup2\n      0x09\n      add\n      exp(0x0100, 0x00)\n      dup2\n      sload\n      dup2\n      0xff\n      mul\n      not\n      and\n      swap1\n      dup4\n      iszero\n      iszero\n      mul\n      or\n      swap1\n      sstore\n      pop\n      pop\n      pop\n        /* \"src/BuiltTrustPay.sol\":3389:3390  p */\n      dup2\n        /* \"src/BuiltTrustPay.sol\":3389:3397  p.stages */\n      0x0a\n      add\n        /* \"src/BuiltTrustPay.sol\":3398:3399  i */\n      dup2\n        /* \"src/BuiltTrustPay.sol\":3389:3400  p.stages[i] */\n      dup2\n      sload\n      dup2\n      lt\n      tag_160\n      jumpi\n      tag_161\n      tag_133\n      jump\t// in\n    tag_161:\n    tag_160:\n      swap1\n      0x00\n      mstore\n      keccak256(0x00, 0x20)\n      swap1\n      0x0a\n      mul\n      add\n        /* \"src/BuiltTrustPay.sol\":3389:3415  p.stages[i].validators_ids */\n      0x05\n      add\n        /* \"src/BuiltTrustPay.sol\":3421:3432  _contractor */\n      dup7\n        /* \"src/BuiltTrustPay.sol\":3389:3433  p.stages[i].validators_ids.push(_contractor) */\n      swap1\n      dup1\n      0x01\n      dup2\n      sload\n      add\n      dup1\n      dup3\n      sstore\n      dup1\n      swap2\n      pop\n      pop\n      0x01\n      swap1\n      sub\n      swap1\n      0x00\n      mstore\n      keccak256(0x00, 0x20)\n      add\n      0x00\n      swap1\n      swap2\n      swap1\n      swap2\n      swap1\n      swap2\n      pop\n      swap1\n      dup2\n      tag_164\n      swap2\n      swap1\n      tag_140\n      jump\t// in\n    tag_164:\n      pop\n        /* \"src/BuiltTrustPay.sol\":3099:3102  i++ */\n      dup1\n      dup1\n      0x01\n      add\n      swap2\n      pop\n      pop\n        /* \"src/BuiltTrustPay.sol\":3059:3444  for (uint256 i = 0; i < _stages.length; i++) {... */\n      jump(tag_147)\n    tag_148:\n      pop\n        /* \"src/BuiltTrustPay.sol\":2623:3450  {... */\n      pop\n        /* \"src/BuiltTrustPay.sol\":2330:3450  function createProject(... */\n      pop\n      pop\n      pop\n      pop\n      pop\n      pop\n      pop\n      pop\n      jump\t// out\n        /* \"src/BuiltTrustPay.sol\":9855:9984  function addStage(string memory projectId, Stage memory _stage) external {... */\n    tag_46:\n        /* \"src/BuiltTrustPay.sol\":9938:9946  projects */\n      0x01\n        /* \"src/BuiltTrustPay.sol\":9947:9956  projectId */\n      dup3\n        /* \"src/BuiltTrustPay.sol\":9938:9957  projects[projectId] */\n      mload(0x40)\n      tag_166\n      swap2\n      swap1\n      tag_138\n      jump\t// in\n    tag_166:\n      swap1\n      dup2\n      mstore\n      0x20\n      add\n      mload(0x40)\n      dup1\n      swap2\n      sub\n      swap1\n      keccak256\n        /* \"src/BuiltTrustPay.sol\":9938:9964  projects[projectId].stages */\n      0x0a\n      add\n        /* \"src/BuiltTrustPay.sol\":9970:9976  _stage */\n      dup2\n        /* \"src/BuiltTrustPay.sol\":9938:9977  projects[projectId].stages.push(_stage) */\n      swap1\n      dup1\n      0x01\n      dup2\n      sload\n      add\n      dup1\n      dup3\n      sstore\n      dup1\n      swap2\n      pop\n      pop\n      0x01\n      swap1\n      sub\n      swap1\n      0x00\n      mstore\n      keccak256(0x00, 0x20)\n      swap1\n      0x0a\n      mul\n      add\n      0x00\n      swap1\n      swap2\n      swap1\n      swap2\n      swap1\n      swap2\n      pop\n      0x00\n      dup3\n      add\n      mload\n      dup2\n      0x00\n      add\n      swap1\n      dup2\n      tag_168\n      swap2\n      swap1\n      tag_140\n      jump\t// in\n    tag_168:\n      pop\n      0x20\n      dup3\n      add\n      mload\n      dup2\n      0x01\n      add\n      swap1\n      dup2\n      tag_169\n      swap2\n      swap1\n      tag_140\n      jump\t// in\n    tag_169:\n      pop\n      0x40\n      dup3\n      add\n      mload\n      dup2\n      0x02\n      add\n      swap1\n      dup2\n      tag_170\n      swap2\n      swap1\n      tag_140\n      jump\t// in\n    tag_170:\n      pop\n      0x60\n      dup3\n      add\n      mload\n      dup2\n      0x03\n      add\n      swap1\n      dup2\n      tag_171\n      swap2\n      swap1\n      tag_140\n      jump\t// in\n    tag_171:\n      pop\n      0x80\n      dup3\n      add\n      mload\n      dup2\n      0x04\n      add\n      sstore\n      0xa0\n      dup3\n      add\n      mload\n      dup2\n      0x05\n      add\n      swap1\n      dup1\n      mload\n      swap1\n      0x20\n      add\n      swap1\n      tag_172\n      swap3\n      swap2\n      swap1\n      tag_158\n      jump\t// in\n    tag_172:\n      pop\n      0xc0\n      dup3\n      add\n      mload\n      dup2\n      0x06\n      add\n      swap1\n      dup1\n      mload\n      swap1\n      0x20\n      add\n      swap1\n      tag_173\n      swap3\n      swap2\n      swap1\n      tag_158\n      jump\t// in\n    tag_173:\n      pop\n      0xe0\n      dup3\n      add\n      mload\n      dup2\n      0x07\n      add\n      sstore\n      0x0100\n      dup3\n      add\n      mload\n      dup2\n      0x08\n      add\n      sstore\n      0x0120\n      dup3\n      add\n      mload\n      dup2\n      0x09\n      add\n      exp(0x0100, 0x00)\n      dup2\n      sload\n      dup2\n      0xff\n      mul\n      not\n      and\n      swap1\n      dup4\n      iszero\n      iszero\n      mul\n      or\n      swap1\n      sstore\n      pop\n      pop\n      pop\n        /* \"src/BuiltTrustPay.sol\":9855:9984  function addStage(string memory projectId, Stage memory _stage) external {... */\n      pop\n      pop\n      jump\t// out\n        /* \"src/BuiltTrustPay.sol\":9482:9713  function getMaxTotalValidators(string memory _project_id, string memory _stage_id) public view returns (uint256) {... */\n    tag_50:\n        /* \"src/BuiltTrustPay.sol\":9586:9593  uint256 */\n      0x00\n        /* \"src/BuiltTrustPay.sol\":9606:9625  Stage memory _stage */\n      dup1\n        /* \"src/BuiltTrustPay.sol\":9631:9667  getStageById(_project_id, _stage_id) */\n      tag_175\n        /* \"src/BuiltTrustPay.sol\":9644:9655  _project_id */\n      dup5\n        /* \"src/BuiltTrustPay.sol\":9657:9666  _stage_id */\n      dup5\n        /* \"src/BuiltTrustPay.sol\":9631:9643  getStageById */\n      tag_107\n        /* \"src/BuiltTrustPay.sol\":9631:9667  getStageById(_project_id, _stage_id) */\n      jump\t// in\n    tag_175:\n        /* \"src/BuiltTrustPay.sol\":9605:9667  (Stage memory _stage,,) = getStageById(_project_id, _stage_id) */\n      pop\n      pop\n      swap1\n      pop\n        /* \"src/BuiltTrustPay.sol\":9684:9690  _stage */\n      dup1\n        /* \"src/BuiltTrustPay.sol\":9684:9706  _stage.totalValidators */\n      0xe0\n      add\n      mload\n        /* \"src/BuiltTrustPay.sol\":9677:9706  return _stage.totalValidators */\n      swap2\n      pop\n      pop\n        /* \"src/BuiltTrustPay.sol\":9482:9713  function getMaxTotalValidators(string memory _project_id, string memory _stage_id) public view returns (uint256) {... */\n      swap3\n      swap2\n      pop\n      pop\n      jump\t// out\n        /* \"src/BuiltTrustPay.sol\":8604:8865  function getValidatorsIds(string memory _project_id, string memory _stage_id)... */\n    tag_55:\n        /* \"src/BuiltTrustPay.sol\":8727:8742  string[] memory */\n      0x60\n        /* \"src/BuiltTrustPay.sol\":8759:8778  Stage memory _stage */\n      0x00\n        /* \"src/BuiltTrustPay.sol\":8784:8820  getStageById(_project_id, _stage_id) */\n      tag_177\n        /* \"src/BuiltTrustPay.sol\":8797:8808  _project_id */\n      dup5\n        /* \"src/BuiltTrustPay.sol\":8810:8819  _stage_id */\n      dup5\n        /* \"src/BuiltTrustPay.sol\":8784:8796  getStageById */\n      tag_107\n        /* \"src/BuiltTrustPay.sol\":8784:8820  getStageById(_project_id, _stage_id) */\n      jump\t// in\n    tag_177:\n        /* \"src/BuiltTrustPay.sol\":8758:8820  (Stage memory _stage,,) = getStageById(_project_id, _stage_id) */\n      pop\n      pop\n      swap1\n      pop\n        /* \"src/BuiltTrustPay.sol\":8837:8843  _stage */\n      dup1\n        /* \"src/BuiltTrustPay.sol\":8837:8858  _stage.validators_ids */\n      0xa0\n      add\n      mload\n        /* \"src/BuiltTrustPay.sol\":8830:8858  return _stage.validators_ids */\n      swap2\n      pop\n      pop\n        /* \"src/BuiltTrustPay.sol\":8604:8865  function getValidatorsIds(string memory _project_id, string memory _stage_id)... */\n      swap3\n      swap2\n      pop\n      pop\n      jump\t// out\n        /* \"src/BuiltTrustPay.sol\":1657:1683  string[] public projectIds */\n    tag_61:\n      0x02\n      dup2\n      dup2\n      sload\n      dup2\n      lt\n      tag_178\n      jumpi\n      0x00\n      dup1\n      revert\n    tag_178:\n      swap1\n      0x00\n      mstore\n      keccak256(0x00, 0x20)\n      add\n      0x00\n      swap2\n      pop\n      swap1\n      pop\n      dup1\n      sload\n      tag_180\n      swap1\n      tag_181\n      jump\t// in\n    tag_180:\n      dup1\n      0x1f\n      add\n      0x20\n      dup1\n      swap2\n      div\n      mul\n      0x20\n      add\n      mload(0x40)\n      swap1\n      dup2\n      add\n      0x40\n      mstore\n      dup1\n      swap3\n      swap2\n      swap1\n      dup2\n      dup2\n      mstore\n      0x20\n      add\n      dup3\n      dup1\n      sload\n      tag_182\n      swap1\n      tag_181\n      jump\t// in\n    tag_182:\n      dup1\n      iszero\n      tag_183\n      jumpi\n      dup1\n      0x1f\n      lt\n      tag_184\n      jumpi\n      0x0100\n      dup1\n      dup4\n      sload\n      div\n      mul\n      dup4\n      mstore\n      swap2\n      0x20\n      add\n      swap2\n      jump(tag_183)\n    tag_184:\n      dup3\n      add\n      swap2\n      swap1\n      0x00\n      mstore\n      keccak256(0x00, 0x20)\n      swap1\n    tag_185:\n      dup2\n      sload\n      dup2\n      mstore\n      swap1\n      0x01\n      add\n      swap1\n      0x20\n      add\n      dup1\n      dup4\n      gt\n      tag_185\n      jumpi\n      dup3\n      swap1\n      sub\n      0x1f\n      and\n      dup3\n      add\n      swap2\n    tag_183:\n      pop\n      pop\n      pop\n      pop\n      pop\n      dup2\n      jump\t// out\n        /* \"src/BuiltTrustPay.sol\":11894:11996  function getAllProjectIds() external view returns (string[] memory) {... */\n    tag_65:\n        /* \"src/BuiltTrustPay.sol\":11945:11960  string[] memory */\n      0x60\n        /* \"src/BuiltTrustPay.sol\":11979:11989  projectIds */\n      0x02\n        /* \"src/BuiltTrustPay.sol\":11972:11989  return projectIds */\n      dup1\n      sload\n      dup1\n      0x20\n      mul\n      0x20\n      add\n      mload(0x40)\n      swap1\n      dup2\n      add\n      0x40\n      mstore\n      dup1\n      swap3\n      swap2\n      swap1\n      dup2\n      dup2\n      mstore\n      0x20\n      add\n      0x00\n      swap1\n    tag_187:\n      dup3\n      dup3\n      lt\n      iszero\n      tag_188\n      jumpi\n      dup4\n      dup3\n      swap1\n      0x00\n      mstore\n      keccak256(0x00, 0x20)\n      add\n      dup1\n      sload\n      tag_190\n      swap1\n      tag_181\n      jump\t// in\n    tag_190:\n      dup1\n      0x1f\n      add\n      0x20\n      dup1\n      swap2\n      div\n      mul\n      0x20\n      add\n      mload(0x40)\n      swap1\n      dup2\n      add\n      0x40\n      mstore\n      dup1\n      swap3\n      swap2\n      swap1\n      dup2\n      dup2\n      mstore\n      0x20\n      add\n      dup3\n      dup1\n      sload\n      tag_191\n      swap1\n      tag_181\n      jump\t// in\n    tag_191:\n      dup1\n      iszero\n      tag_192\n      jumpi\n      dup1\n      0x1f\n      lt\n      tag_193\n      jumpi\n      0x0100\n      dup1\n      dup4\n      sload\n      div\n      mul\n      dup4\n      mstore\n      swap2\n      0x20\n      add\n      swap2\n      jump(tag_192)\n    tag_193:\n      dup3\n      add\n      swap2\n      swap1\n      0x00\n      mstore\n      keccak256(0x00, 0x20)\n      swap1\n    tag_194:\n      dup2\n      sload\n      dup2\n      mstore\n      swap1\n      0x01\n      add\n      swap1\n      0x20\n      add\n      dup1\n      dup4\n      gt\n      tag_194\n      jumpi\n      dup3\n      swap1\n      sub\n      0x1f\n      and\n      dup3\n      add\n      swap2\n    tag_192:\n      pop\n      pop\n      pop\n      pop\n      pop\n      dup2\n      mstore\n      0x20\n      add\n      swap1\n      0x01\n      add\n      swap1\n      jump(tag_187)\n    tag_188:\n      pop\n      pop\n      pop\n      pop\n      swap1\n      pop\n        /* \"src/BuiltTrustPay.sol\":11894:11996  function getAllProjectIds() external view returns (string[] memory) {... */\n      swap1\n      jump\t// out\n        /* \"src/BuiltTrustPay.sol\":10396:11327  function validateStage(string memory _project_id, string memory _stage_id, string memory _validator_id) external {... */\n    tag_69:\n        /* \"src/BuiltTrustPay.sol\":10519:10539  Stage storage _stage */\n      0x00\n        /* \"src/BuiltTrustPay.sol\":10554:10572  uint256 stageIndex */\n      dup1\n        /* \"src/BuiltTrustPay.sol\":10576:10612  getStageById(_project_id, _stage_id) */\n      tag_196\n        /* \"src/BuiltTrustPay.sol\":10589:10600  _project_id */\n      dup6\n        /* \"src/BuiltTrustPay.sol\":10602:10611  _stage_id */\n      dup6\n        /* \"src/BuiltTrustPay.sol\":10576:10588  getStageById */\n      tag_107\n        /* \"src/BuiltTrustPay.sol\":10576:10612  getStageById(_project_id, _stage_id) */\n      jump\t// in\n    tag_196:\n        /* \"src/BuiltTrustPay.sol\":10550:10612  (,, uint256 stageIndex) = getStageById(_project_id, _stage_id) */\n      swap3\n      pop\n      pop\n      pop\n        /* \"src/BuiltTrustPay.sol\":10692:10700  projects */\n      0x01\n        /* \"src/BuiltTrustPay.sol\":10701:10712  _project_id */\n      dup6\n        /* \"src/BuiltTrustPay.sol\":10692:10713  projects[_project_id] */\n      mload(0x40)\n      tag_197\n      swap2\n      swap1\n      tag_138\n      jump\t// in\n    tag_197:\n      swap1\n      dup2\n      mstore\n      0x20\n      add\n      mload(0x40)\n      dup1\n      swap2\n      sub\n      swap1\n      keccak256\n        /* \"src/BuiltTrustPay.sol\":10692:10720  projects[_project_id].stages */\n      0x0a\n      add\n        /* \"src/BuiltTrustPay.sol\":10721:10731  stageIndex */\n      dup2\n        /* \"src/BuiltTrustPay.sol\":10692:10732  projects[_project_id].stages[stageIndex] */\n      dup2\n      sload\n      dup2\n      lt\n      tag_198\n      jumpi\n      tag_199\n      tag_133\n      jump\t// in\n    tag_199:\n    tag_198:\n      swap1\n      0x00\n      mstore\n      keccak256(0x00, 0x20)\n      swap1\n      0x0a\n      mul\n      add\n        /* \"src/BuiltTrustPay.sol\":10683:10732  _stage = projects[_project_id].stages[stageIndex] */\n      swap2\n      pop\n        /* \"src/BuiltTrustPay.sol\":10764:10831  isValidatorAllowedToValidate(_project_id, _stage_id, _validator_id) */\n      tag_201\n        /* \"src/BuiltTrustPay.sol\":10793:10804  _project_id */\n      dup6\n        /* \"src/BuiltTrustPay.sol\":10806:10815  _stage_id */\n      dup6\n        /* \"src/BuiltTrustPay.sol\":10817:10830  _validator_id */\n      dup6\n        /* \"src/BuiltTrustPay.sol\":10764:10792  isValidatorAllowedToValidate */\n      tag_76\n        /* \"src/BuiltTrustPay.sol\":10764:10831  isValidatorAllowedToValidate(_project_id, _stage_id, _validator_id) */\n      jump\t// in\n    tag_201:\n        /* \"src/BuiltTrustPay.sol\":10743:10881  require(... */\n      tag_202\n      jumpi\n      mload(0x40)\n      0x08c379a000000000000000000000000000000000000000000000000000000000\n      dup2\n      mstore\n      0x04\n      add\n      tag_203\n      swap1\n      tag_204\n      jump\t// in\n    tag_203:\n      mload(0x40)\n      dup1\n      swap2\n      sub\n      swap1\n      revert\n    tag_202:\n        /* \"src/BuiltTrustPay.sol\":11019:11020  1 */\n      0x01\n        /* \"src/BuiltTrustPay.sol\":10994:11000  _stage */\n      dup3\n        /* \"src/BuiltTrustPay.sol\":10994:11016  _stage.totalValidators */\n      0x07\n      add\n      sload\n        /* \"src/BuiltTrustPay.sol\":10994:11020  _stage.totalValidators + 1 */\n      tag_205\n      swap2\n      swap1\n      tag_206\n      jump\t// in\n    tag_205:\n        /* \"src/BuiltTrustPay.sol\":10966:10972  _stage */\n      dup3\n        /* \"src/BuiltTrustPay.sol\":10966:10984  _stage.validations */\n      0x06\n      add\n        /* \"src/BuiltTrustPay.sol\":10966:10991  _stage.validations.length */\n      dup1\n      sload\n      swap1\n      pop\n        /* \"src/BuiltTrustPay.sol\":10966:11020  _stage.validations.length < _stage.totalValidators + 1 */\n      lt\n        /* \"src/BuiltTrustPay.sol\":10958:11042  require(_stage.validations.length < _stage.totalValidators + 1, \"Already validated\") */\n      tag_207\n      jumpi\n      mload(0x40)\n      0x08c379a000000000000000000000000000000000000000000000000000000000\n      dup2\n      mstore\n      0x04\n      add\n      tag_208\n      swap1\n      tag_209\n      jump\t// in\n    tag_208:\n      mload(0x40)\n      dup1\n      swap2\n      sub\n      swap1\n      revert\n    tag_207:\n        /* \"src/BuiltTrustPay.sol\":11143:11209  isStageValidatedByValidator(_project_id, _stage_id, _validator_id) */\n      tag_210\n        /* \"src/BuiltTrustPay.sol\":11171:11182  _project_id */\n      dup6\n        /* \"src/BuiltTrustPay.sol\":11184:11193  _stage_id */\n      dup6\n        /* \"src/BuiltTrustPay.sol\":11195:11208  _validator_id */\n      dup6\n        /* \"src/BuiltTrustPay.sol\":11143:11170  isStageValidatedByValidator */\n      tag_72\n        /* \"src/BuiltTrustPay.sol\":11143:11209  isStageValidatedByValidator(_project_id, _stage_id, _validator_id) */\n      jump\t// in\n    tag_210:\n        /* \"src/BuiltTrustPay.sol\":11142:11209  !isStageValidatedByValidator(_project_id, _stage_id, _validator_id) */\n      iszero\n        /* \"src/BuiltTrustPay.sol\":11134:11242  require(!isStageValidatedByValidator(_project_id, _stage_id, _validator_id), \"Cant validate more than once\") */\n      tag_211\n      jumpi\n      mload(0x40)\n      0x08c379a000000000000000000000000000000000000000000000000000000000\n      dup2\n      mstore\n      0x04\n      add\n      tag_212\n      swap1\n      tag_213\n      jump\t// in\n    tag_212:\n      mload(0x40)\n      dup1\n      swap2\n      sub\n      swap1\n      revert\n    tag_211:\n        /* \"src/BuiltTrustPay.sol\":11282:11288  _stage */\n      dup2\n        /* \"src/BuiltTrustPay.sol\":11282:11300  _stage.validations */\n      0x06\n      add\n        /* \"src/BuiltTrustPay.sol\":11306:11319  _validator_id */\n      dup4\n        /* \"src/BuiltTrustPay.sol\":11282:11320  _stage.validations.push(_validator_id) */\n      swap1\n      dup1\n      0x01\n      dup2\n      sload\n      add\n      dup1\n      dup3\n      sstore\n      dup1\n      swap2\n      pop\n      pop\n      0x01\n      swap1\n      sub\n      swap1\n      0x00\n      mstore\n      keccak256(0x00, 0x20)\n      add\n      0x00\n      swap1\n      swap2\n      swap1\n      swap2\n      swap1\n      swap2\n      pop\n      swap1\n      dup2\n      tag_215\n      swap2\n      swap1\n      tag_140\n      jump\t// in\n    tag_215:\n      pop\n        /* \"src/BuiltTrustPay.sol\":10509:11327  {... */\n      pop\n      pop\n        /* \"src/BuiltTrustPay.sol\":10396:11327  function validateStage(string memory _project_id, string memory _stage_id, string memory _validator_id) external {... */\n      pop\n      pop\n      pop\n      jump\t// out\n        /* \"src/BuiltTrustPay.sol\":4737:5253  function isStageValidatedByValidator(... */\n    tag_72:\n        /* \"src/BuiltTrustPay.sol\":4906:4910  bool */\n      0x00\n        /* \"src/BuiltTrustPay.sol\":4923:4942  Stage memory _stage */\n      dup1\n        /* \"src/BuiltTrustPay.sol\":4948:4984  getStageById(_project_id, _stage_id) */\n      tag_217\n        /* \"src/BuiltTrustPay.sol\":4961:4972  _project_id */\n      dup6\n        /* \"src/BuiltTrustPay.sol\":4974:4983  _stage_id */\n      dup6\n        /* \"src/BuiltTrustPay.sol\":4948:4960  getStageById */\n      tag_107\n        /* \"src/BuiltTrustPay.sol\":4948:4984  getStageById(_project_id, _stage_id) */\n      jump\t// in\n    tag_217:\n        /* \"src/BuiltTrustPay.sol\":4922:4984  (Stage memory _stage,,) = getStageById(_project_id, _stage_id) */\n      pop\n      pop\n      swap1\n      pop\n        /* \"src/BuiltTrustPay.sol\":5000:5009  uint256 i */\n      0x00\n        /* \"src/BuiltTrustPay.sol\":4995:5225  for (uint256 i = 0; i < _stage.validations.length; i++) {... */\n    tag_218:\n        /* \"src/BuiltTrustPay.sol\":5019:5025  _stage */\n      dup2\n        /* \"src/BuiltTrustPay.sol\":5019:5037  _stage.validations */\n      0xc0\n      add\n      mload\n        /* \"src/BuiltTrustPay.sol\":5019:5044  _stage.validations.length */\n      mload\n        /* \"src/BuiltTrustPay.sol\":5015:5016  i */\n      dup2\n        /* \"src/BuiltTrustPay.sol\":5015:5044  i < _stage.validations.length */\n      lt\n        /* \"src/BuiltTrustPay.sol\":4995:5225  for (uint256 i = 0; i < _stage.validations.length; i++) {... */\n      iszero\n      tag_219\n      jumpi\n        /* \"src/BuiltTrustPay.sol\":5117:5169  compareStrings(_validator_id, _stage.validations[i]) */\n      tag_221\n        /* \"src/BuiltTrustPay.sol\":5132:5145  _validator_id */\n      dup5\n        /* \"src/BuiltTrustPay.sol\":5147:5153  _stage */\n      dup4\n        /* \"src/BuiltTrustPay.sol\":5147:5165  _stage.validations */\n      0xc0\n      add\n      mload\n        /* \"src/BuiltTrustPay.sol\":5166:5167  i */\n      dup4\n        /* \"src/BuiltTrustPay.sol\":5147:5168  _stage.validations[i] */\n      dup2\n      mload\n      dup2\n      lt\n      tag_222\n      jumpi\n      tag_223\n      tag_133\n      jump\t// in\n    tag_223:\n    tag_222:\n      0x20\n      mul\n      0x20\n      add\n      add\n      mload\n        /* \"src/BuiltTrustPay.sol\":5117:5131  compareStrings */\n      tag_99\n        /* \"src/BuiltTrustPay.sol\":5117:5169  compareStrings(_validator_id, _stage.validations[i]) */\n      jump\t// in\n    tag_221:\n        /* \"src/BuiltTrustPay.sol\":5113:5215  if (compareStrings(_validator_id, _stage.validations[i])) {... */\n      iszero\n      tag_224\n      jumpi\n        /* \"src/BuiltTrustPay.sol\":5196:5200  true */\n      0x01\n        /* \"src/BuiltTrustPay.sol\":5189:5200  return true */\n      swap3\n      pop\n      pop\n      pop\n      jump(tag_216)\n        /* \"src/BuiltTrustPay.sol\":5113:5215  if (compareStrings(_validator_id, _stage.validations[i])) {... */\n    tag_224:\n        /* \"src/BuiltTrustPay.sol\":5046:5049  i++ */\n      dup1\n      dup1\n      0x01\n      add\n      swap2\n      pop\n      pop\n        /* \"src/BuiltTrustPay.sol\":4995:5225  for (uint256 i = 0; i < _stage.validations.length; i++) {... */\n      jump(tag_218)\n    tag_219:\n      pop\n        /* \"src/BuiltTrustPay.sol\":5241:5246  false */\n      0x00\n        /* \"src/BuiltTrustPay.sol\":5234:5246  return false */\n      swap2\n      pop\n      pop\n        /* \"src/BuiltTrustPay.sol\":4737:5253  function isStageValidatedByValidator(... */\n    tag_216:\n      swap4\n      swap3\n      pop\n      pop\n      pop\n      jump\t// out\n        /* \"src/BuiltTrustPay.sol\":5459:5982  function isValidatorAllowedToValidate(... */\n    tag_76:\n        /* \"src/BuiltTrustPay.sol\":5629:5633  bool */\n      0x00\n        /* \"src/BuiltTrustPay.sol\":5646:5665  Stage memory _stage */\n      dup1\n        /* \"src/BuiltTrustPay.sol\":5671:5707  getStageById(_project_id, _stage_id) */\n      tag_226\n        /* \"src/BuiltTrustPay.sol\":5684:5695  _project_id */\n      dup6\n        /* \"src/BuiltTrustPay.sol\":5697:5706  _stage_id */\n      dup6\n        /* \"src/BuiltTrustPay.sol\":5671:5683  getStageById */\n      tag_107\n        /* \"src/BuiltTrustPay.sol\":5671:5707  getStageById(_project_id, _stage_id) */\n      jump\t// in\n    tag_226:\n        /* \"src/BuiltTrustPay.sol\":5645:5707  (Stage memory _stage,,) = getStageById(_project_id, _stage_id) */\n      pop\n      pop\n      swap1\n      pop\n        /* \"src/BuiltTrustPay.sol\":5723:5732  uint256 i */\n      0x00\n        /* \"src/BuiltTrustPay.sol\":5718:5954  for (uint256 i = 0; i < _stage.validators_ids.length; i++) {... */\n    tag_227:\n        /* \"src/BuiltTrustPay.sol\":5742:5748  _stage */\n      dup2\n        /* \"src/BuiltTrustPay.sol\":5742:5763  _stage.validators_ids */\n      0xa0\n      add\n      mload\n        /* \"src/BuiltTrustPay.sol\":5742:5770  _stage.validators_ids.length */\n      mload\n        /* \"src/BuiltTrustPay.sol\":5738:5739  i */\n      dup2\n        /* \"src/BuiltTrustPay.sol\":5738:5770  i < _stage.validators_ids.length */\n      lt\n        /* \"src/BuiltTrustPay.sol\":5718:5954  for (uint256 i = 0; i < _stage.validators_ids.length; i++) {... */\n      iszero\n      tag_228\n      jumpi\n        /* \"src/BuiltTrustPay.sol\":5843:5898  compareStrings(_validator_id, _stage.validators_ids[i]) */\n      tag_230\n        /* \"src/BuiltTrustPay.sol\":5858:5871  _validator_id */\n      dup5\n        /* \"src/BuiltTrustPay.sol\":5873:5879  _stage */\n      dup4\n        /* \"src/BuiltTrustPay.sol\":5873:5894  _stage.validators_ids */\n      0xa0\n      add\n      mload\n        /* \"src/BuiltTrustPay.sol\":5895:5896  i */\n      dup4\n        /* \"src/BuiltTrustPay.sol\":5873:5897  _stage.validators_ids[i] */\n      dup2\n      mload\n      dup2\n      lt\n      tag_231\n      jumpi\n      tag_232\n      tag_133\n      jump\t// in\n    tag_232:\n    tag_231:\n      0x20\n      mul\n      0x20\n      add\n      add\n      mload\n        /* \"src/BuiltTrustPay.sol\":5843:5857  compareStrings */\n      tag_99\n        /* \"src/BuiltTrustPay.sol\":5843:5898  compareStrings(_validator_id, _stage.validators_ids[i]) */\n      jump\t// in\n    tag_230:\n        /* \"src/BuiltTrustPay.sol\":5839:5944  if (compareStrings(_validator_id, _stage.validators_ids[i])) {... */\n      iszero\n      tag_233\n      jumpi\n        /* \"src/BuiltTrustPay.sol\":5925:5929  true */\n      0x01\n        /* \"src/BuiltTrustPay.sol\":5918:5929  return true */\n      swap3\n      pop\n      pop\n      pop\n      jump(tag_225)\n        /* \"src/BuiltTrustPay.sol\":5839:5944  if (compareStrings(_validator_id, _stage.validators_ids[i])) {... */\n    tag_233:\n        /* \"src/BuiltTrustPay.sol\":5772:5775  i++ */\n      dup1\n      dup1\n      0x01\n      add\n      swap2\n      pop\n      pop\n        /* \"src/BuiltTrustPay.sol\":5718:5954  for (uint256 i = 0; i < _stage.validators_ids.length; i++) {... */\n      jump(tag_227)\n    tag_228:\n      pop\n        /* \"src/BuiltTrustPay.sol\":5970:5975  false */\n      0x00\n        /* \"src/BuiltTrustPay.sol\":5963:5975  return false */\n      swap2\n      pop\n      pop\n        /* \"src/BuiltTrustPay.sol\":5459:5982  function isValidatorAllowedToValidate(... */\n    tag_225:\n      swap4\n      swap3\n      pop\n      pop\n      pop\n      jump\t// out\n        /* \"src/BuiltTrustPay.sol\":7491:7768  function addValidators(string memory _project_id, string memory _stage_id, string[] memory _validators_ids)... */\n    tag_81:\n        /* \"src/BuiltTrustPay.sol\":7633:7642  uint256 i */\n      0x00\n        /* \"src/BuiltTrustPay.sol\":7628:7762  for (uint256 i = 0; i < _validators_ids.length; i++) {... */\n    tag_235:\n        /* \"src/BuiltTrustPay.sol\":7652:7667  _validators_ids */\n      dup2\n        /* \"src/BuiltTrustPay.sol\":7652:7674  _validators_ids.length */\n      mload\n        /* \"src/BuiltTrustPay.sol\":7648:7649  i */\n      dup2\n        /* \"src/BuiltTrustPay.sol\":7648:7674  i < _validators_ids.length */\n      lt\n        /* \"src/BuiltTrustPay.sol\":7628:7762  for (uint256 i = 0; i < _validators_ids.length; i++) {... */\n      iszero\n      tag_236\n      jumpi\n        /* \"src/BuiltTrustPay.sol\":7695:7751  addValidator(_project_id, _stage_id, _validators_ids[i]) */\n      tag_238\n        /* \"src/BuiltTrustPay.sol\":7708:7719  _project_id */\n      dup5\n        /* \"src/BuiltTrustPay.sol\":7721:7730  _stage_id */\n      dup5\n        /* \"src/BuiltTrustPay.sol\":7732:7747  _validators_ids */\n      dup5\n        /* \"src/BuiltTrustPay.sol\":7748:7749  i */\n      dup5\n        /* \"src/BuiltTrustPay.sol\":7732:7750  _validators_ids[i] */\n      dup2\n      mload\n      dup2\n      lt\n      tag_239\n      jumpi\n      tag_240\n      tag_133\n      jump\t// in\n    tag_240:\n    tag_239:\n      0x20\n      mul\n      0x20\n      add\n      add\n      mload\n        /* \"src/BuiltTrustPay.sol\":7695:7707  addValidator */\n      tag_96\n        /* \"src/BuiltTrustPay.sol\":7695:7751  addValidator(_project_id, _stage_id, _validators_ids[i]) */\n      jump\t// in\n    tag_238:\n        /* \"src/BuiltTrustPay.sol\":7676:7679  i++ */\n      dup1\n      dup1\n      0x01\n      add\n      swap2\n      pop\n      pop\n        /* \"src/BuiltTrustPay.sol\":7628:7762  for (uint256 i = 0; i < _validators_ids.length; i++) {... */\n      jump(tag_235)\n    tag_236:\n      pop\n        /* \"src/BuiltTrustPay.sol\":7491:7768  function addValidators(string memory _project_id, string memory _stage_id, string[] memory _validators_ids)... */\n      pop\n      pop\n      pop\n      jump\t// out\n        /* \"src/BuiltTrustPay.sol\":1609:1651  mapping(string => Project) public projects */\n    tag_85:\n      0x01\n      dup2\n      dup1\n      mload\n      0x20\n      dup2\n      add\n      dup3\n      add\n      dup1\n      mload\n      dup5\n      dup3\n      mstore\n      0x20\n      dup4\n      add\n      0x20\n      dup6\n      add\n      keccak256\n      dup2\n      dup4\n      mstore\n      dup1\n      swap6\n      pop\n      pop\n      pop\n      pop\n      pop\n      pop\n      0x00\n      swap2\n      pop\n      swap1\n      pop\n      dup1\n      0x00\n      add\n      dup1\n      sload\n      tag_241\n      swap1\n      tag_181\n      jump\t// in\n    tag_241:\n      dup1\n      0x1f\n      add\n      0x20\n      dup1\n      swap2\n      div\n      mul\n      0x20\n      add\n      mload(0x40)\n      swap1\n      dup2\n      add\n      0x40\n      mstore\n      dup1\n      swap3\n      swap2\n      swap1\n      dup2\n      dup2\n      mstore\n      0x20\n      add\n      dup3\n      dup1\n      sload\n      tag_242\n      swap1\n      tag_181\n      jump\t// in\n    tag_242:\n      dup1\n      iszero\n      tag_243\n      jumpi\n      dup1\n      0x1f\n      lt\n      tag_244\n      jumpi\n      0x0100\n      dup1\n      dup4\n      sload\n      div\n      mul\n      dup4\n      mstore\n      swap2\n      0x20\n      add\n      swap2\n      jump(tag_243)\n    tag_244:\n      dup3\n      add\n      swap2\n      swap1\n      0x00\n      mstore\n      keccak256(0x00, 0x20)\n      swap1\n    tag_245:\n      dup2\n      sload\n      dup2\n      mstore\n      swap1\n      0x01\n      add\n      swap1\n      0x20\n      add\n      dup1\n      dup4\n      gt\n      tag_245\n      jumpi\n      dup3\n      swap1\n      sub\n      0x1f\n      and\n      dup3\n      add\n      swap2\n    tag_243:\n      pop\n      pop\n      pop\n      pop\n      pop\n      swap1\n      dup1\n      0x01\n      add\n      dup1\n      sload\n      tag_246\n      swap1\n      tag_181\n      jump\t// in\n    tag_246:\n      dup1\n      0x1f\n      add\n      0x20\n      dup1\n      swap2\n      div\n      mul\n      0x20\n      add\n      mload(0x40)\n      swap1\n      dup2\n      add\n      0x40\n      mstore\n      dup1\n      swap3\n      swap2\n      swap1\n      dup2\n      dup2\n      mstore\n      0x20\n      add\n      dup3\n      dup1\n      sload\n      tag_247\n      swap1\n      tag_181\n      jump\t// in\n    tag_247:\n      dup1\n      iszero\n      tag_248\n      jumpi\n      dup1\n      0x1f\n      lt\n      tag_249\n      jumpi\n      0x0100\n      dup1\n      dup4\n      sload\n      div\n      mul\n      dup4\n      mstore\n      swap2\n      0x20\n      add\n      swap2\n      jump(tag_248)\n    tag_249:\n      dup3\n      add\n      swap2\n      swap1\n      0x00\n      mstore\n      keccak256(0x00, 0x20)\n      swap1\n    tag_250:\n      dup2\n      sload\n      dup2\n      mstore\n      swap1\n      0x01\n      add\n      swap1\n      0x20\n      add\n      dup1\n      dup4\n      gt\n      tag_250\n      jumpi\n      dup3\n      swap1\n      sub\n      0x1f\n      and\n      dup3\n      add\n      swap2\n    tag_248:\n      pop\n      pop\n      pop\n      pop\n      pop\n      swap1\n      dup1\n      0x02\n      add\n      dup1\n      sload\n      tag_251\n      swap1\n      tag_181\n      jump\t// in\n    tag_251:\n      dup1\n      0x1f\n      add\n      0x20\n      dup1\n      swap2\n      div\n      mul\n      0x20\n      add\n      mload(0x40)\n      swap1\n      dup2\n      add\n      0x40\n      mstore\n      dup1\n      swap3\n      swap2\n      swap1\n      dup2\n      dup2\n      mstore\n      0x20\n      add\n      dup3\n      dup1\n      sload\n      tag_252\n      swap1\n      tag_181\n      jump\t// in\n    tag_252:\n      dup1\n      iszero\n      tag_253\n      jumpi\n      dup1\n      0x1f\n      lt\n      tag_254\n      jumpi\n      0x0100\n      dup1\n      dup4\n      sload\n      div\n      mul\n      dup4\n      mstore\n      swap2\n      0x20\n      add\n      swap2\n      jump(tag_253)\n    tag_254:\n      dup3\n      add\n      swap2\n      swap1\n      0x00\n      mstore\n      keccak256(0x00, 0x20)\n      swap1\n    tag_255:\n      dup2\n      sload\n      dup2\n      mstore\n      swap1\n      0x01\n      add\n      swap1\n      0x20\n      add\n      dup1\n      dup4\n      gt\n      tag_255\n      jumpi\n      dup3\n      swap1\n      sub\n      0x1f\n      and\n      dup3\n      add\n      swap2\n    tag_253:\n      pop\n      pop\n      pop\n      pop\n      pop\n      swap1\n      dup1\n      0x03\n      add\n      dup1\n      sload\n      tag_256\n      swap1\n      tag_181\n      jump\t// in\n    tag_256:\n      dup1\n      0x1f\n      add\n      0x20\n      dup1\n      swap2\n      div\n      mul\n      0x20\n      add\n      mload(0x40)\n      swap1\n      dup2\n      add\n      0x40\n      mstore\n      dup1\n      swap3\n      swap2\n      swap1\n      dup2\n      dup2\n      mstore\n      0x20\n      add\n      dup3\n      dup1\n      sload\n      tag_257\n      swap1\n      tag_181\n      jump\t// in\n    tag_257:\n      dup1\n      iszero\n      tag_258\n      jumpi\n      dup1\n      0x1f\n      lt\n      tag_259\n      jumpi\n      0x0100\n      dup1\n      dup4\n      sload\n      div\n      mul\n      dup4\n      mstore\n      swap2\n      0x20\n      add\n      swap2\n      jump(tag_258)\n    tag_259:\n      dup3\n      add\n      swap2\n      swap1\n      0x00\n      mstore\n      keccak256(0x00, 0x20)\n      swap1\n    tag_260:\n      dup2\n      sload\n      dup2\n      mstore\n      swap1\n      0x01\n      add\n      swap1\n      0x20\n      add\n      dup1\n      dup4\n      gt\n      tag_260\n      jumpi\n      dup3\n      swap1\n      sub\n      0x1f\n      and\n      dup3\n      add\n      swap2\n    tag_258:\n      pop\n      pop\n      pop\n      pop\n      pop\n      swap1\n      dup1\n      0x04\n      add\n      dup1\n      sload\n      tag_261\n      swap1\n      tag_181\n      jump\t// in\n    tag_261:\n      dup1\n      0x1f\n      add\n      0x20\n      dup1\n      swap2\n      div\n      mul\n      0x20\n      add\n      mload(0x40)\n      swap1\n      dup2\n      add\n      0x40\n      mstore\n      dup1\n      swap3\n      swap2\n      swap1\n      dup2\n      dup2\n      mstore\n      0x20\n      add\n      dup3\n      dup1\n      sload\n      tag_262\n      swap1\n      tag_181\n      jump\t// in\n    tag_262:\n      dup1\n      iszero\n      tag_263\n      jumpi\n      dup1\n      0x1f\n      lt\n      tag_264\n      jumpi\n      0x0100\n      dup1\n      dup4\n      sload\n      div\n      mul\n      dup4\n      mstore\n      swap2\n      0x20\n      add\n      swap2\n      jump(tag_263)\n    tag_264:\n      dup3\n      add\n      swap2\n      swap1\n      0x00\n      mstore\n      keccak256(0x00, 0x20)\n      swap1\n    tag_265:\n      dup2\n      sload\n      dup2\n      mstore\n      swap1\n      0x01\n      add\n      swap1\n      0x20\n      add\n      dup1\n      dup4\n      gt\n      tag_265\n      jumpi\n      dup3\n      swap1\n      sub\n      0x1f\n      and\n      dup3\n      add\n      swap2\n    tag_263:\n      pop\n      pop\n      pop\n      pop\n      pop\n      swap1\n      dup1\n      0x05\n      add\n      sload\n      swap1\n      dup1\n      0x06\n      add\n      sload\n      swap1\n      dup1\n      0x07\n      add\n      sload\n      swap1\n      dup1\n      0x08\n      add\n      sload\n      swap1\n      dup1\n      0x09\n      add\n      0x00\n      swap1\n      sload\n      swap1\n      0x0100\n      exp\n      swap1\n      div\n      0xff\n      and\n      swap1\n      pop\n      dup11\n      jump\t// out\n        /* \"src/BuiltTrustPay.sol\":11715:11767  function closeProject(uint256 projectId) external {} */\n    tag_90:\n      pop\n      jump\t// out\n        /* \"src/BuiltTrustPay.sol\":94:127  string public agencyId = \"agency\" */\n    tag_92:\n      0x00\n      dup1\n      sload\n      tag_267\n      swap1\n      tag_181\n      jump\t// in\n    tag_267:\n      dup1\n      0x1f\n      add\n      0x20\n      dup1\n      swap2\n      div\n      mul\n      0x20\n      add\n      mload(0x40)\n      swap1\n      dup2\n      add\n      0x40\n      mstore\n      dup1\n      swap3\n      swap2\n      swap1\n      dup2\n      dup2\n      mstore\n      0x20\n      add\n      dup3\n      dup1\n      sload\n      tag_268\n      swap1\n      tag_181\n      jump\t// in\n    tag_268:\n      dup1\n      iszero\n      tag_269\n      jumpi\n      dup1\n      0x1f\n      lt\n      tag_270\n      jumpi\n      0x0100\n      dup1\n      dup4\n      sload\n      div\n      mul\n      dup4\n      mstore\n      swap2\n      0x20\n      add\n      swap2\n      jump(tag_269)\n    tag_270:\n      dup3\n      add\n      swap2\n      swap1\n      0x00\n      mstore\n      keccak256(0x00, 0x20)\n      swap1\n    tag_271:\n      dup2\n      sload\n      dup2\n      mstore\n      swap1\n      0x01\n      add\n      swap1\n      0x20\n      add\n      dup1\n      dup4\n      gt\n      tag_271\n      jumpi\n      dup3\n      swap1\n      sub\n      0x1f\n      and\n      dup3\n      add\n      swap2\n    tag_269:\n      pop\n      pop\n      pop\n      pop\n      pop\n      dup2\n      jump\t// out\n        /* \"src/BuiltTrustPay.sol\":6135:6939  function addValidator(string memory _project_id, string memory _stage_id, string memory _validator_id) public {... */\n    tag_96:\n        /* \"src/BuiltTrustPay.sol\":6255:6279  Project storage _project */\n      0x00\n        /* \"src/BuiltTrustPay.sol\":6282:6290  projects */\n      0x01\n        /* \"src/BuiltTrustPay.sol\":6291:6302  _project_id */\n      dup5\n        /* \"src/BuiltTrustPay.sol\":6282:6303  projects[_project_id] */\n      mload(0x40)\n      tag_273\n      swap2\n      swap1\n      tag_138\n      jump\t// in\n    tag_273:\n      swap1\n      dup2\n      mstore\n      0x20\n      add\n      mload(0x40)\n      dup1\n      swap2\n      sub\n      swap1\n      keccak256\n        /* \"src/BuiltTrustPay.sol\":6255:6303  Project storage _project = projects[_project_id] */\n      swap1\n      pop\n        /* \"src/BuiltTrustPay.sol\":6394:6412  uint256 stageIndex */\n      0x00\n        /* \"src/BuiltTrustPay.sol\":6416:6452  getStageById(_project_id, _stage_id) */\n      tag_274\n        /* \"src/BuiltTrustPay.sol\":6429:6440  _project_id */\n      dup6\n        /* \"src/BuiltTrustPay.sol\":6442:6451  _stage_id */\n      dup6\n        /* \"src/BuiltTrustPay.sol\":6416:6428  getStageById */\n      tag_107\n        /* \"src/BuiltTrustPay.sol\":6416:6452  getStageById(_project_id, _stage_id) */\n      jump\t// in\n    tag_274:\n        /* \"src/BuiltTrustPay.sol\":6390:6452  (,, uint256 stageIndex) = getStageById(_project_id, _stage_id) */\n      swap3\n      pop\n      pop\n      pop\n        /* \"src/BuiltTrustPay.sol\":6463:6483  Stage storage _stage */\n      0x00\n        /* \"src/BuiltTrustPay.sol\":6486:6494  _project */\n      dup3\n        /* \"src/BuiltTrustPay.sol\":6486:6501  _project.stages */\n      0x0a\n      add\n        /* \"src/BuiltTrustPay.sol\":6502:6512  stageIndex */\n      dup3\n        /* \"src/BuiltTrustPay.sol\":6486:6513  _project.stages[stageIndex] */\n      dup2\n      sload\n      dup2\n      lt\n      tag_275\n      jumpi\n      tag_276\n      tag_133\n      jump\t// in\n    tag_276:\n    tag_275:\n      swap1\n      0x00\n      mstore\n      keccak256(0x00, 0x20)\n      swap1\n      0x0a\n      mul\n      add\n        /* \"src/BuiltTrustPay.sol\":6463:6513  Stage storage _stage = _project.stages[stageIndex] */\n      swap1\n      pop\n        /* \"src/BuiltTrustPay.sol\":6574:6641  isValidatorAllowedToValidate(_project_id, _stage_id, _validator_id) */\n      tag_278\n        /* \"src/BuiltTrustPay.sol\":6603:6614  _project_id */\n      dup7\n        /* \"src/BuiltTrustPay.sol\":6616:6625  _stage_id */\n      dup7\n        /* \"src/BuiltTrustPay.sol\":6627:6640  _validator_id */\n      dup7\n        /* \"src/BuiltTrustPay.sol\":6574:6602  isValidatorAllowedToValidate */\n      tag_76\n        /* \"src/BuiltTrustPay.sol\":6574:6641  isValidatorAllowedToValidate(_project_id, _stage_id, _validator_id) */\n      jump\t// in\n    tag_278:\n        /* \"src/BuiltTrustPay.sol\":6566:6673  require(isValidatorAllowedToValidate(_project_id, _stage_id, _validator_id), \"validator was already added\") */\n      tag_279\n      jumpi\n      mload(0x40)\n      0x08c379a000000000000000000000000000000000000000000000000000000000\n      dup2\n      mstore\n      0x04\n      add\n      tag_280\n      swap1\n      tag_281\n      jump\t// in\n    tag_280:\n      mload(0x40)\n      dup1\n      swap2\n      sub\n      swap1\n      revert\n    tag_279:\n        /* \"src/BuiltTrustPay.sol\":6781:6828  isThereEnoughValidators(_project_id, _stage_id) */\n      tag_282\n        /* \"src/BuiltTrustPay.sol\":6805:6816  _project_id */\n      dup7\n        /* \"src/BuiltTrustPay.sol\":6818:6827  _stage_id */\n      dup7\n        /* \"src/BuiltTrustPay.sol\":6781:6804  isThereEnoughValidators */\n      tag_123\n        /* \"src/BuiltTrustPay.sol\":6781:6828  isThereEnoughValidators(_project_id, _stage_id) */\n      jump\t// in\n    tag_282:\n        /* \"src/BuiltTrustPay.sol\":6780:6828  !isThereEnoughValidators(_project_id, _stage_id) */\n      iszero\n        /* \"src/BuiltTrustPay.sol\":6772:6880  require(!isThereEnoughValidators(_project_id, _stage_id), \"Already enough validators to validate the stage\") */\n      tag_283\n      jumpi\n      mload(0x40)\n      0x08c379a000000000000000000000000000000000000000000000000000000000\n      dup2\n      mstore\n      0x04\n      add\n      tag_284\n      swap1\n      tag_285\n      jump\t// in\n    tag_284:\n      mload(0x40)\n      dup1\n      swap2\n      sub\n      swap1\n      revert\n    tag_283:\n        /* \"src/BuiltTrustPay.sol\":6891:6897  _stage */\n      dup1\n        /* \"src/BuiltTrustPay.sol\":6891:6912  _stage.validators_ids */\n      0x05\n      add\n        /* \"src/BuiltTrustPay.sol\":6918:6931  _validator_id */\n      dup5\n        /* \"src/BuiltTrustPay.sol\":6891:6932  _stage.validators_ids.push(_validator_id) */\n      swap1\n      dup1\n      0x01\n      dup2\n      sload\n      add\n      dup1\n      dup3\n      sstore\n      dup1\n      swap2\n      pop\n      pop\n      0x01\n      swap1\n      sub\n      swap1\n      0x00\n      mstore\n      keccak256(0x00, 0x20)\n      add\n      0x00\n      swap1\n      swap2\n      swap1\n      swap2\n      swap1\n      swap2\n      pop\n      swap1\n      dup2\n      tag_287\n      swap2\n      swap1\n      tag_140\n      jump\t// in\n    tag_287:\n      pop\n        /* \"src/BuiltTrustPay.sol\":6245:6939  {... */\n      pop\n      pop\n      pop\n        /* \"src/BuiltTrustPay.sol\":6135:6939  function addValidator(string memory _project_id, string memory _stage_id, string memory _validator_id) public {... */\n      pop\n      pop\n      pop\n      jump\t// out\n        /* \"src/BuiltTrustPay.sol\":10084:10257  function compareStrings(string memory a, string memory b) public pure returns (bool) {... */\n    tag_99:\n        /* \"src/BuiltTrustPay.sol\":10163:10167  bool */\n      0x00\n        /* \"src/BuiltTrustPay.sol\":10247:10248  b */\n      dup2\n        /* \"src/BuiltTrustPay.sol\":10230:10249  abi.encodePacked(b) */\n      add(0x20, mload(0x40))\n      tag_289\n      swap2\n      swap1\n      tag_138\n      jump\t// in\n    tag_289:\n      mload(0x40)\n      0x20\n      dup2\n      dup4\n      sub\n      sub\n      dup2\n      mstore\n      swap1\n      0x40\n      mstore\n        /* \"src/BuiltTrustPay.sol\":10220:10250  keccak256(abi.encodePacked(b)) */\n      dup1\n      mload\n      swap1\n      0x20\n      add\n      keccak256\n        /* \"src/BuiltTrustPay.sol\":10213:10214  a */\n      dup4\n        /* \"src/BuiltTrustPay.sol\":10196:10215  abi.encodePacked(a) */\n      add(0x20, mload(0x40))\n      tag_290\n      swap2\n      swap1\n      tag_138\n      jump\t// in\n    tag_290:\n      mload(0x40)\n      0x20\n      dup2\n      dup4\n      sub\n      sub\n      dup2\n      mstore\n      swap1\n      0x40\n      mstore\n        /* \"src/BuiltTrustPay.sol\":10186:10216  keccak256(abi.encodePacked(a)) */\n      dup1\n      mload\n      swap1\n      0x20\n      add\n      keccak256\n        /* \"src/BuiltTrustPay.sol\":10186:10250  keccak256(abi.encodePacked(a)) == keccak256(abi.encodePacked(b)) */\n      eq\n        /* \"src/BuiltTrustPay.sol\":10179:10250  return keccak256(abi.encodePacked(a)) == keccak256(abi.encodePacked(b)) */\n      swap1\n      pop\n        /* \"src/BuiltTrustPay.sol\":10084:10257  function compareStrings(string memory a, string memory b) public pure returns (bool) {... */\n      swap3\n      swap2\n      pop\n      pop\n      jump\t// out\n        /* \"src/BuiltTrustPay.sol\":9043:9274  function getTotalValidators(string memory _project_id, string memory _stage_id) public view returns (uint256) {... */\n    tag_103:\n        /* \"src/BuiltTrustPay.sol\":9144:9151  uint256 */\n      0x00\n        /* \"src/BuiltTrustPay.sol\":9164:9183  Stage memory _stage */\n      dup1\n        /* \"src/BuiltTrustPay.sol\":9189:9225  getStageById(_project_id, _stage_id) */\n      tag_292\n        /* \"src/BuiltTrustPay.sol\":9202:9213  _project_id */\n      dup5\n        /* \"src/BuiltTrustPay.sol\":9215:9224  _stage_id */\n      dup5\n        /* \"src/BuiltTrustPay.sol\":9189:9201  getStageById */\n      tag_107\n        /* \"src/BuiltTrustPay.sol\":9189:9225  getStageById(_project_id, _stage_id) */\n      jump\t// in\n    tag_292:\n        /* \"src/BuiltTrustPay.sol\":9163:9225  (Stage memory _stage,,) = getStageById(_project_id, _stage_id) */\n      pop\n      pop\n      swap1\n      pop\n        /* \"src/BuiltTrustPay.sol\":9242:9248  _stage */\n      dup1\n        /* \"src/BuiltTrustPay.sol\":9242:9260  _stage.validations */\n      0xc0\n      add\n      mload\n        /* \"src/BuiltTrustPay.sol\":9242:9267  _stage.validations.length */\n      mload\n        /* \"src/BuiltTrustPay.sol\":9235:9267  return _stage.validations.length */\n      swap2\n      pop\n      pop\n        /* \"src/BuiltTrustPay.sol\":9043:9274  function getTotalValidators(string memory _project_id, string memory _stage_id) public view returns (uint256) {... */\n      swap3\n      swap2\n      pop\n      pop\n      jump\t// out\n        /* \"src/BuiltTrustPay.sol\":3720:4264  function getStageById(string memory projectId, string memory stageId)... */\n    tag_107:\n        /* \"src/BuiltTrustPay.sol\":3835:3849  Stage memory s */\n      tag_293\n      tag_294\n      jump\t// in\n    tag_293:\n        /* \"src/BuiltTrustPay.sol\":3851:3861  bool found */\n      0x00\n        /* \"src/BuiltTrustPay.sol\":3863:3870  uint256 */\n      dup1\n        /* \"src/BuiltTrustPay.sol\":3886:3916  Project memory selectedProject */\n      0x00\n        /* \"src/BuiltTrustPay.sol\":3919:3927  projects */\n      0x01\n        /* \"src/BuiltTrustPay.sol\":3928:3937  projectId */\n      dup7\n        /* \"src/BuiltTrustPay.sol\":3919:3938  projects[projectId] */\n      mload(0x40)\n      tag_296\n      swap2\n      swap1\n      tag_138\n      jump\t// in\n    tag_296:\n      swap1\n      dup2\n      mstore\n      0x20\n      add\n      mload(0x40)\n      dup1\n      swap2\n      sub\n      swap1\n      keccak256\n        /* \"src/BuiltTrustPay.sol\":3886:3938  Project memory selectedProject = projects[projectId] */\n      mload(0x40)\n      dup1\n      0x0160\n      add\n      0x40\n      mstore\n      swap1\n      dup2\n      0x00\n      dup3\n      add\n      dup1\n      sload\n      tag_297\n      swap1\n      tag_181\n      jump\t// in\n    tag_297:\n      dup1\n      0x1f\n      add\n      0x20\n      dup1\n      swap2\n      div\n      mul\n      0x20\n      add\n      mload(0x40)\n      swap1\n      dup2\n      add\n      0x40\n      mstore\n      dup1\n      swap3\n      swap2\n      swap1\n      dup2\n      dup2\n      mstore\n      0x20\n      add\n      dup3\n      dup1\n      sload\n      tag_298\n      swap1\n      tag_181\n      jump\t// in\n    tag_298:\n      dup1\n      iszero\n      tag_299\n      jumpi\n      dup1\n      0x1f\n      lt\n      tag_300\n      jumpi\n      0x0100\n      dup1\n      dup4\n      sload\n      div\n      mul\n      dup4\n      mstore\n      swap2\n      0x20\n      add\n      swap2\n      jump(tag_299)\n    tag_300:\n      dup3\n      add\n      swap2\n      swap1\n      0x00\n      mstore\n      keccak256(0x00, 0x20)\n      swap1\n    tag_301:\n      dup2\n      sload\n      dup2\n      mstore\n      swap1\n      0x01\n      add\n      swap1\n      0x20\n      add\n      dup1\n      dup4\n      gt\n      tag_301\n      jumpi\n      dup3\n      swap1\n      sub\n      0x1f\n      and\n      dup3\n      add\n      swap2\n    tag_299:\n      pop\n      pop\n      pop\n      pop\n      pop\n      dup2\n      mstore\n      0x20\n      add\n      0x01\n      dup3\n      add\n      dup1\n      sload\n      tag_302\n      swap1\n      tag_181\n      jump\t// in\n    tag_302:\n      dup1\n      0x1f\n      add\n      0x20\n      dup1\n      swap2\n      div\n      mul\n      0x20\n      add\n      mload(0x40)\n      swap1\n      dup2\n      add\n      0x40\n      mstore\n      dup1\n      swap3\n      swap2\n      swap1\n      dup2\n      dup2\n      mstore\n      0x20\n      add\n      dup3\n      dup1\n      sload\n      tag_303\n      swap1\n      tag_181\n      jump\t// in\n    tag_303:\n      dup1\n      iszero\n      tag_304\n      jumpi\n      dup1\n      0x1f\n      lt\n      tag_305\n      jumpi\n      0x0100\n      dup1\n      dup4\n      sload\n      div\n      mul\n      dup4\n      mstore\n      swap2\n      0x20\n      add\n      swap2\n      jump(tag_304)\n    tag_305:\n      dup3\n      add\n      swap2\n      swap1\n      0x00\n      mstore\n      keccak256(0x00, 0x20)\n      swap1\n    tag_306:\n      dup2\n      sload\n      dup2\n      mstore\n      swap1\n      0x01\n      add\n      swap1\n      0x20\n      add\n      dup1\n      dup4\n      gt\n      tag_306\n      jumpi\n      dup3\n      swap1\n      sub\n      0x1f\n      and\n      dup3\n      add\n      swap2\n    tag_304:\n      pop\n      pop\n      pop\n      pop\n      pop\n      dup2\n      mstore\n      0x20\n      add\n      0x02\n      dup3\n      add\n      dup1\n      sload\n      tag_307\n      swap1\n      tag_181\n      jump\t// in\n    tag_307:\n      dup1\n      0x1f\n      add\n      0x20\n      dup1\n      swap2\n      div\n      mul\n      0x20\n      add\n      mload(0x40)\n      swap1\n      dup2\n      add\n      0x40\n      mstore\n      dup1\n      swap3\n      swap2\n      swap1\n      dup2\n      dup2\n      mstore\n      0x20\n      add\n      dup3\n      dup1\n      sload\n      tag_308\n      swap1\n      tag_181\n      jump\t// in\n    tag_308:\n      dup1\n      iszero\n      tag_309\n      jumpi\n      dup1\n      0x1f\n      lt\n      tag_310\n      jumpi\n      0x0100\n      dup1\n      dup4\n      sload\n      div\n      mul\n      dup4\n      mstore\n      swap2\n      0x20\n      add\n      swap2\n      jump(tag_309)\n    tag_310:\n      dup3\n      add\n      swap2\n      swap1\n      0x00\n      mstore\n      keccak256(0x00, 0x20)\n      swap1\n    tag_311:\n      dup2\n      sload\n      dup2\n      mstore\n      swap1\n      0x01\n      add\n      swap1\n      0x20\n      add\n      dup1\n      dup4\n      gt\n      tag_311\n      jumpi\n      dup3\n      swap1\n      sub\n      0x1f\n      and\n      dup3\n      add\n      swap2\n    tag_309:\n      pop\n      pop\n      pop\n      pop\n      pop\n      dup2\n      mstore\n      0x20\n      add\n      0x03\n      dup3\n      add\n      dup1\n      sload\n      tag_312\n      swap1\n      tag_181\n      jump\t// in\n    tag_312:\n      dup1\n      0x1f\n      add\n      0x20\n      dup1\n      swap2\n      div\n      mul\n      0x20\n      add\n      mload(0x40)\n      swap1\n      dup2\n      add\n      0x40\n      mstore\n      dup1\n      swap3\n      swap2\n      swap1\n      dup2\n      dup2\n      mstore\n      0x20\n      add\n      dup3\n      dup1\n      sload\n      tag_313\n      swap1\n      tag_181\n      jump\t// in\n    tag_313:\n      dup1\n      iszero\n      tag_314\n      jumpi\n      dup1\n      0x1f\n      lt\n      tag_315\n      jumpi\n      0x0100\n      dup1\n      dup4\n      sload\n      div\n      mul\n      dup4\n      mstore\n      swap2\n      0x20\n      add\n      swap2\n      jump(tag_314)\n    tag_315:\n      dup3\n      add\n      swap2\n      swap1\n      0x00\n      mstore\n      keccak256(0x00, 0x20)\n      swap1\n    tag_316:\n      dup2\n      sload\n      dup2\n      mstore\n      swap1\n      0x01\n      add\n      swap1\n      0x20\n      add\n      dup1\n      dup4\n      gt\n      tag_316\n      jumpi\n      dup3\n      swap1\n      sub\n      0x1f\n      and\n      dup3\n      add\n      swap2\n    tag_314:\n      pop\n      pop\n      pop\n      pop\n      pop\n      dup2\n      mstore\n      0x20\n      add\n      0x04\n      dup3\n      add\n      dup1\n      sload\n      tag_317\n      swap1\n      tag_181\n      jump\t// in\n    tag_317:\n      dup1\n      0x1f\n      add\n      0x20\n      dup1\n      swap2\n      div\n      mul\n      0x20\n      add\n      mload(0x40)\n      swap1\n      dup2\n      add\n      0x40\n      mstore\n      dup1\n      swap3\n      swap2\n      swap1\n      dup2\n      dup2\n      mstore\n      0x20\n      add\n      dup3\n      dup1\n      sload\n      tag_318\n      swap1\n      tag_181\n      jump\t// in\n    tag_318:\n      dup1\n      iszero\n      tag_319\n      jumpi\n      dup1\n      0x1f\n      lt\n      tag_320\n      jumpi\n      0x0100\n      dup1\n      dup4\n      sload\n      div\n      mul\n      dup4\n      mstore\n      swap2\n      0x20\n      add\n      swap2\n      jump(tag_319)\n    tag_320:\n      dup3\n      add\n      swap2\n      swap1\n      0x00\n      mstore\n      keccak256(0x00, 0x20)\n      swap1\n    tag_321:\n      dup2\n      sload\n      dup2\n      mstore\n      swap1\n      0x01\n      add\n      swap1\n      0x20\n      add\n      dup1\n      dup4\n      gt\n      tag_321\n      jumpi\n      dup3\n      swap1\n      sub\n      0x1f\n      and\n      dup3\n      add\n      swap2\n    tag_319:\n      pop\n      pop\n      pop\n      pop\n      pop\n      dup2\n      mstore\n      0x20\n      add\n      0x05\n      dup3\n      add\n      sload\n      dup2\n      mstore\n      0x20\n      add\n      0x06\n      dup3\n      add\n      sload\n      dup2\n      mstore\n      0x20\n      add\n      0x07\n      dup3\n      add\n      sload\n      dup2\n      mstore\n      0x20\n      add\n      0x08\n      dup3\n      add\n      sload\n      dup2\n      mstore\n      0x20\n      add\n      0x09\n      dup3\n      add\n      0x00\n      swap1\n      sload\n      swap1\n      0x0100\n      exp\n      swap1\n      div\n      0xff\n      and\n      iszero\n      iszero\n      iszero\n      iszero\n      dup2\n      mstore\n      0x20\n      add\n      0x0a\n      dup3\n      add\n      dup1\n      sload\n      dup1\n      0x20\n      mul\n      0x20\n      add\n      mload(0x40)\n      swap1\n      dup2\n      add\n      0x40\n      mstore\n      dup1\n      swap3\n      swap2\n      swap1\n      dup2\n      dup2\n      mstore\n      0x20\n      add\n      0x00\n      swap1\n    tag_322:\n      dup3\n      dup3\n      lt\n      iszero\n      tag_323\n      jumpi\n      dup4\n      dup3\n      swap1\n      0x00\n      mstore\n      keccak256(0x00, 0x20)\n      swap1\n      0x0a\n      mul\n      add\n      mload(0x40)\n      dup1\n      0x0140\n      add\n      0x40\n      mstore\n      swap1\n      dup2\n      0x00\n      dup3\n      add\n      dup1\n      sload\n      tag_325\n      swap1\n      tag_181\n      jump\t// in\n    tag_325:\n      dup1\n      0x1f\n      add\n      0x20\n      dup1\n      swap2\n      div\n      mul\n      0x20\n      add\n      mload(0x40)\n      swap1\n      dup2\n      add\n      0x40\n      mstore\n      dup1\n      swap3\n      swap2\n      swap1\n      dup2\n      dup2\n      mstore\n      0x20\n      add\n      dup3\n      dup1\n      sload\n      tag_326\n      swap1\n      tag_181\n      jump\t// in\n    tag_326:\n      dup1\n      iszero\n      tag_327\n      jumpi\n      dup1\n      0x1f\n      lt\n      tag_328\n      jumpi\n      0x0100\n      dup1\n      dup4\n      sload\n      div\n      mul\n      dup4\n      mstore\n      swap2\n      0x20\n      add\n      swap2\n      jump(tag_327)\n    tag_328:\n      dup3\n      add\n      swap2\n      swap1\n      0x00\n      mstore\n      keccak256(0x00, 0x20)\n      swap1\n    tag_329:\n      dup2\n      sload\n      dup2\n      mstore\n      swap1\n      0x01\n      add\n      swap1\n      0x20\n      add\n      dup1\n      dup4\n      gt\n      tag_329\n      jumpi\n      dup3\n      swap1\n      sub\n      0x1f\n      and\n      dup3\n      add\n      swap2\n    tag_327:\n      pop\n      pop\n      pop\n      pop\n      pop\n      dup2\n      mstore\n      0x20\n      add\n      0x01\n      dup3\n      add\n      dup1\n      sload\n      tag_330\n      swap1\n      tag_181\n      jump\t// in\n    tag_330:\n      dup1\n      0x1f\n      add\n      0x20\n      dup1\n      swap2\n      div\n      mul\n      0x20\n      add\n      mload(0x40)\n      swap1\n      dup2\n      add\n      0x40\n      mstore\n      dup1\n      swap3\n      swap2\n      swap1\n      dup2\n      dup2\n      mstore\n      0x20\n      add\n      dup3\n      dup1\n      sload\n      tag_331\n      swap1\n      tag_181\n      jump\t// in\n    tag_331:\n      dup1\n      iszero\n      tag_332\n      jumpi\n      dup1\n      0x1f\n      lt\n      tag_333\n      jumpi\n      0x0100\n      dup1\n      dup4\n      sload\n      div\n      mul\n      dup4\n      mstore\n      swap2\n      0x20\n      add\n      swap2\n      jump(tag_332)\n    tag_333:\n      dup3\n      add\n      swap2\n      swap1\n      0x00\n      mstore\n      keccak256(0x00, 0x20)\n      swap1\n    tag_334:\n      dup2\n      sload\n      dup2\n      mstore\n      swap1\n      0x01\n      add\n      swap1\n      0x20\n      add\n      dup1\n      dup4\n      gt\n      tag_334\n      jumpi\n      dup3\n      swap1\n      sub\n      0x1f\n      and\n      dup3\n      add\n      swap2\n    tag_332:\n      pop\n      pop\n      pop\n      pop\n      pop\n      dup2\n      mstore\n      0x20\n      add\n      0x02\n      dup3\n      add\n      dup1\n      sload\n      tag_335\n      swap1\n      tag_181\n      jump\t// in\n    tag_335:\n      dup1\n      0x1f\n      add\n      0x20\n      dup1\n      swap2\n      div\n      mul\n      0x20\n      add\n      mload(0x40)\n      swap1\n      dup2\n      add\n      0x40\n      mstore\n      dup1\n      swap3\n      swap2\n      swap1\n      dup2\n      dup2\n      mstore\n      0x20\n      add\n      dup3\n      dup1\n      sload\n      tag_336\n      swap1\n      tag_181\n      jump\t// in\n    tag_336:\n      dup1\n      iszero\n      tag_337\n      jumpi\n      dup1\n      0x1f\n      lt\n      tag_338\n      jumpi\n      0x0100\n      dup1\n      dup4\n      sload\n      div\n      mul\n      dup4\n      mstore\n      swap2\n      0x20\n      add\n      swap2\n      jump(tag_337)\n    tag_338:\n      dup3\n      add\n      swap2\n      swap1\n      0x00\n      mstore\n      keccak256(0x00, 0x20)\n      swap1\n    tag_339:\n      dup2\n      sload\n      dup2\n      mstore\n      swap1\n      0x01\n      add\n      swap1\n      0x20\n      add\n      dup1\n      dup4\n      gt\n      tag_339\n      jumpi\n      dup3\n      swap1\n      sub\n      0x1f\n      and\n      dup3\n      add\n      swap2\n    tag_337:\n      pop\n      pop\n      pop\n      pop\n      pop\n      dup2\n      mstore\n      0x20\n      add\n      0x03\n      dup3\n      add\n      dup1\n      sload\n      tag_340\n      swap1\n      tag_181\n      jump\t// in\n    tag_340:\n      dup1\n      0x1f\n      add\n      0x20\n      dup1\n      swap2\n      div\n      mul\n      0x20\n      add\n      mload(0x40)\n      swap1\n      dup2\n      add\n      0x40\n      mstore\n      dup1\n      swap3\n      swap2\n      swap1\n      dup2\n      dup2\n      mstore\n      0x20\n      add\n      dup3\n      dup1\n      sload\n      tag_341\n      swap1\n      tag_181\n      jump\t// in\n    tag_341:\n      dup1\n      iszero\n      tag_342\n      jumpi\n      dup1\n      0x1f\n      lt\n      tag_343\n      jumpi\n      0x0100\n      dup1\n      dup4\n      sload\n      div\n      mul\n      dup4\n      mstore\n      swap2\n      0x20\n      add\n      swap2\n      jump(tag_342)\n    tag_343:\n      dup3\n      add\n      swap2\n      swap1\n      0x00\n      mstore\n      keccak256(0x00, 0x20)\n      swap1\n    tag_344:\n      dup2\n      sload\n      dup2\n      mstore\n      swap1\n      0x01\n      add\n      swap1\n      0x20\n      add\n      dup1\n      dup4\n      gt\n      tag_344\n      jumpi\n      dup3\n      swap1\n      sub\n      0x1f\n      and\n      dup3\n      add\n      swap2\n    tag_342:\n      pop\n      pop\n      pop\n      pop\n      pop\n      dup2\n      mstore\n      0x20\n      add\n      0x04\n      dup3\n      add\n      sload\n      dup2\n      mstore\n      0x20\n      add\n      0x05\n      dup3\n      add\n      dup1\n      sload\n      dup1\n      0x20\n      mul\n      0x20\n      add\n      mload(0x40)\n      swap1\n      dup2\n      add\n      0x40\n      mstore\n      dup1\n      swap3\n      swap2\n      swap1\n      dup2\n      dup2\n      mstore\n      0x20\n      add\n      0x00\n      swap1\n    tag_345:\n      dup3\n      dup3\n      lt\n      iszero\n      tag_346\n      jumpi\n      dup4\n      dup3\n      swap1\n      0x00\n      mstore\n      keccak256(0x00, 0x20)\n      add\n      dup1\n      sload\n      tag_348\n      swap1\n      tag_181\n      jump\t// in\n    tag_348:\n      dup1\n      0x1f\n      add\n      0x20\n      dup1\n      swap2\n      div\n      mul\n      0x20\n      add\n      mload(0x40)\n      swap1\n      dup2\n      add\n      0x40\n      mstore\n      dup1\n      swap3\n      swap2\n      swap1\n      dup2\n      dup2\n      mstore\n      0x20\n      add\n      dup3\n      dup1\n      sload\n      tag_349\n      swap1\n      tag_181\n      jump\t// in\n    tag_349:\n      dup1\n      iszero\n      tag_350\n      jumpi\n      dup1\n      0x1f\n      lt\n      tag_351\n      jumpi\n      0x0100\n      dup1\n      dup4\n      sload\n      div\n      mul\n      dup4\n      mstore\n      swap2\n      0x20\n      add\n      swap2\n      jump(tag_350)\n    tag_351:\n      dup3\n      add\n      swap2\n      swap1\n      0x00\n      mstore\n      keccak256(0x00, 0x20)\n      swap1\n    tag_352:\n      dup2\n      sload\n      dup2\n      mstore\n      swap1\n      0x01\n      add\n      swap1\n      0x20\n      add\n      dup1\n      dup4\n      gt\n      tag_352\n      jumpi\n      dup3\n      swap1\n      sub\n      0x1f\n      and\n      dup3\n      add\n      swap2\n    tag_350:\n      pop\n      pop\n      pop\n      pop\n      pop\n      dup2\n      mstore\n      0x20\n      add\n      swap1\n      0x01\n      add\n      swap1\n      jump(tag_345)\n    tag_346:\n      pop\n      pop\n      pop\n      pop\n      dup2\n      mstore\n      0x20\n      add\n      0x06\n      dup3\n      add\n      dup1\n      sload\n      dup1\n      0x20\n      mul\n      0x20\n      add\n      mload(0x40)\n      swap1\n      dup2\n      add\n      0x40\n      mstore\n      dup1\n      swap3\n      swap2\n      swap1\n      dup2\n      dup2\n      mstore\n      0x20\n      add\n      0x00\n      swap1\n    tag_353:\n      dup3\n      dup3\n      lt\n      iszero\n      tag_354\n      jumpi\n      dup4\n      dup3\n      swap1\n      0x00\n      mstore\n      keccak256(0x00, 0x20)\n      add\n      dup1\n      sload\n      tag_356\n      swap1\n      tag_181\n      jump\t// in\n    tag_356:\n      dup1\n      0x1f\n      add\n      0x20\n      dup1\n      swap2\n      div\n      mul\n      0x20\n      add\n      mload(0x40)\n      swap1\n      dup2\n      add\n      0x40\n      mstore\n      dup1\n      swap3\n      swap2\n      swap1\n      dup2\n      dup2\n      mstore\n      0x20\n      add\n      dup3\n      dup1\n      sload\n      tag_357\n      swap1\n      tag_181\n      jump\t// in\n    tag_357:\n      dup1\n      iszero\n      tag_358\n      jumpi\n      dup1\n      0x1f\n      lt\n      tag_359\n      jumpi\n      0x0100\n      dup1\n      dup4\n      sload\n      div\n      mul\n      dup4\n      mstore\n      swap2\n      0x20\n      add\n      swap2\n      jump(tag_358)\n    tag_359:\n      dup3\n      add\n      swap2\n      swap1\n      0x00\n      mstore\n      keccak256(0x00, 0x20)\n      swap1\n    tag_360:\n      dup2\n      sload\n      dup2\n      mstore\n      swap1\n      0x01\n      add\n      swap1\n      0x20\n      add\n      dup1\n      dup4\n      gt\n      tag_360\n      jumpi\n      dup3\n      swap1\n      sub\n      0x1f\n      and\n      dup3\n      add\n      swap2\n    tag_358:\n      pop\n      pop\n      pop\n      pop\n      pop\n      dup2\n      mstore\n      0x20\n      add\n      swap1\n      0x01\n      add\n      swap1\n      jump(tag_353)\n    tag_354:\n      pop\n      pop\n      pop\n      pop\n      dup2\n      mstore\n      0x20\n      add\n      0x07\n      dup3\n      add\n      sload\n      dup2\n      mstore\n      0x20\n      add\n      0x08\n      dup3\n      add\n      sload\n      dup2\n      mstore\n      0x20\n      add\n      0x09\n      dup3\n      add\n      0x00\n      swap1\n      sload\n      swap1\n      0x0100\n      exp\n      swap1\n      div\n      0xff\n      and\n      iszero\n      iszero\n      iszero\n      iszero\n      dup2\n      mstore\n      pop\n      pop\n      dup2\n      mstore\n      0x20\n      add\n      swap1\n      0x01\n      add\n      swap1\n      jump(tag_322)\n    tag_323:\n      pop\n      pop\n      pop\n      pop\n      dup2\n      mstore\n      pop\n      pop\n      swap1\n      pop\n        /* \"src/BuiltTrustPay.sol\":3949:3970  Stage memory tmpStage */\n      tag_361\n      tag_294\n      jump\t// in\n    tag_361:\n        /* \"src/BuiltTrustPay.sol\":3986:3995  uint256 i */\n      0x00\n        /* \"src/BuiltTrustPay.sol\":3981:4223  for (uint256 i = 0; i < selectedProject.stages.length; i++) {... */\n    tag_362:\n        /* \"src/BuiltTrustPay.sol\":4005:4020  selectedProject */\n      dup3\n        /* \"src/BuiltTrustPay.sol\":4005:4027  selectedProject.stages */\n      0x0140\n      add\n      mload\n        /* \"src/BuiltTrustPay.sol\":4005:4034  selectedProject.stages.length */\n      mload\n        /* \"src/BuiltTrustPay.sol\":4001:4002  i */\n      dup2\n        /* \"src/BuiltTrustPay.sol\":4001:4034  i < selectedProject.stages.length */\n      lt\n        /* \"src/BuiltTrustPay.sol\":3981:4223  for (uint256 i = 0; i < selectedProject.stages.length; i++) {... */\n      iszero\n      tag_363\n      jumpi\n        /* \"src/BuiltTrustPay.sol\":4066:4081  selectedProject */\n      dup3\n        /* \"src/BuiltTrustPay.sol\":4066:4088  selectedProject.stages */\n      0x0140\n      add\n      mload\n        /* \"src/BuiltTrustPay.sol\":4089:4090  i */\n      dup2\n        /* \"src/BuiltTrustPay.sol\":4066:4091  selectedProject.stages[i] */\n      dup2\n      mload\n      dup2\n      lt\n      tag_365\n      jumpi\n      tag_366\n      tag_133\n      jump\t// in\n    tag_366:\n    tag_365:\n      0x20\n      mul\n      0x20\n      add\n      add\n      mload\n        /* \"src/BuiltTrustPay.sol\":4055:4091  tmpStage = selectedProject.stages[i] */\n      swap2\n      pop\n        /* \"src/BuiltTrustPay.sol\":4110:4152  compareStrings(stageId, tmpStage.stage_id) */\n      tag_367\n        /* \"src/BuiltTrustPay.sol\":4125:4132  stageId */\n      dup8\n        /* \"src/BuiltTrustPay.sol\":4134:4142  tmpStage */\n      dup4\n        /* \"src/BuiltTrustPay.sol\":4134:4151  tmpStage.stage_id */\n      0x00\n      add\n      mload\n        /* \"src/BuiltTrustPay.sol\":4110:4124  compareStrings */\n      tag_99\n        /* \"src/BuiltTrustPay.sol\":4110:4152  compareStrings(stageId, tmpStage.stage_id) */\n      jump\t// in\n    tag_367:\n        /* \"src/BuiltTrustPay.sol\":4106:4213  if (compareStrings(stageId, tmpStage.stage_id)) {... */\n      iszero\n      tag_368\n      jumpi\n        /* \"src/BuiltTrustPay.sol\":4180:4188  tmpStage */\n      dup2\n        /* \"src/BuiltTrustPay.sol\":4190:4194  true */\n      0x01\n        /* \"src/BuiltTrustPay.sol\":4196:4197  i */\n      dup3\n        /* \"src/BuiltTrustPay.sol\":4172:4198  return (tmpStage, true, i) */\n      swap6\n      pop\n      swap6\n      pop\n      swap6\n      pop\n      pop\n      pop\n      pop\n      jump(tag_295)\n        /* \"src/BuiltTrustPay.sol\":4106:4213  if (compareStrings(stageId, tmpStage.stage_id)) {... */\n    tag_368:\n        /* \"src/BuiltTrustPay.sol\":4036:4039  i++ */\n      dup1\n      dup1\n      0x01\n      add\n      swap2\n      pop\n      pop\n        /* \"src/BuiltTrustPay.sol\":3981:4223  for (uint256 i = 0; i < selectedProject.stages.length; i++) {... */\n      jump(tag_362)\n    tag_363:\n      pop\n        /* \"src/BuiltTrustPay.sol\":4232:4257  revert(\"Stage not found\") */\n      mload(0x40)\n      0x08c379a000000000000000000000000000000000000000000000000000000000\n      dup2\n      mstore\n      0x04\n      add\n      tag_369\n      swap1\n      tag_370\n      jump\t// in\n    tag_369:\n      mload(0x40)\n      dup1\n      swap2\n      sub\n      swap1\n      revert\n        /* \"src/BuiltTrustPay.sol\":3720:4264  function getStageById(string memory projectId, string memory stageId)... */\n    tag_295:\n      swap3\n      pop\n      swap3\n      pop\n      swap3\n      jump\t// out\n        /* \"src/BuiltTrustPay.sol\":4399:4537  function getStagesCount(string memory projectId) external view returns (uint256) {... */\n    tag_112:\n        /* \"src/BuiltTrustPay.sol\":4471:4478  uint256 */\n      0x00\n        /* \"src/BuiltTrustPay.sol\":4497:4505  projects */\n      0x01\n        /* \"src/BuiltTrustPay.sol\":4506:4515  projectId */\n      dup3\n        /* \"src/BuiltTrustPay.sol\":4497:4516  projects[projectId] */\n      mload(0x40)\n      tag_372\n      swap2\n      swap1\n      tag_138\n      jump\t// in\n    tag_372:\n      swap1\n      dup2\n      mstore\n      0x20\n      add\n      mload(0x40)\n      dup1\n      swap2\n      sub\n      swap1\n      keccak256\n        /* \"src/BuiltTrustPay.sol\":4497:4523  projects[projectId].stages */\n      0x0a\n      add\n        /* \"src/BuiltTrustPay.sol\":4497:4530  projects[projectId].stages.length */\n      dup1\n      sload\n      swap1\n      pop\n        /* \"src/BuiltTrustPay.sol\":4490:4530  return projects[projectId].stages.length */\n      swap1\n      pop\n        /* \"src/BuiltTrustPay.sol\":4399:4537  function getStagesCount(string memory projectId) external view returns (uint256) {... */\n      swap2\n      swap1\n      pop\n      jump\t// out\n        /* \"src/BuiltTrustPay.sol\":12121:12409  function getProjects() external view returns (Project[] memory) {... */\n    tag_115:\n        /* \"src/BuiltTrustPay.sol\":12167:12183  Project[] memory */\n      0x60\n        /* \"src/BuiltTrustPay.sol\":12195:12221  Project[] memory _projects */\n      0x00\n        /* \"src/BuiltTrustPay.sol\":12238:12248  projectIds */\n      0x02\n        /* \"src/BuiltTrustPay.sol\":12238:12255  projectIds.length */\n      dup1\n      sload\n      swap1\n      pop\n        /* \"src/BuiltTrustPay.sol\":12224:12256  new Project[](projectIds.length) */\n      0xffffffffffffffff\n      dup2\n      gt\n      iszero\n      tag_374\n      jumpi\n      tag_375\n      tag_376\n      jump\t// in\n    tag_375:\n    tag_374:\n      mload(0x40)\n      swap1\n      dup1\n      dup3\n      mstore\n      dup1\n      0x20\n      mul\n      0x20\n      add\n      dup3\n      add\n      0x40\n      mstore\n      dup1\n      iszero\n      tag_377\n      jumpi\n      dup2\n      0x20\n      add\n    tag_378:\n      tag_379\n      tag_380\n      jump\t// in\n    tag_379:\n      dup2\n      mstore\n      0x20\n      add\n      swap1\n      0x01\n      swap1\n      sub\n      swap1\n      dup2\n      tag_378\n      jumpi\n      swap1\n      pop\n    tag_377:\n      pop\n        /* \"src/BuiltTrustPay.sol\":12195:12256  Project[] memory _projects = new Project[](projectIds.length) */\n      swap1\n      pop\n        /* \"src/BuiltTrustPay.sol\":12271:12280  uint256 i */\n      0x00\n        /* \"src/BuiltTrustPay.sol\":12266:12377  for (uint256 i = 0; i < projectIds.length; i++) {... */\n    tag_381:\n        /* \"src/BuiltTrustPay.sol\":12290:12300  projectIds */\n      0x02\n        /* \"src/BuiltTrustPay.sol\":12290:12307  projectIds.length */\n      dup1\n      sload\n      swap1\n      pop\n        /* \"src/BuiltTrustPay.sol\":12286:12287  i */\n      dup2\n        /* \"src/BuiltTrustPay.sol\":12286:12307  i < projectIds.length */\n      lt\n        /* \"src/BuiltTrustPay.sol\":12266:12377  for (uint256 i = 0; i < projectIds.length; i++) {... */\n      iszero\n      tag_382\n      jumpi\n        /* \"src/BuiltTrustPay.sol\":12343:12351  projects */\n      0x01\n        /* \"src/BuiltTrustPay.sol\":12352:12362  projectIds */\n      0x02\n        /* \"src/BuiltTrustPay.sol\":12363:12364  i */\n      dup3\n        /* \"src/BuiltTrustPay.sol\":12352:12365  projectIds[i] */\n      dup2\n      sload\n      dup2\n      lt\n      tag_384\n      jumpi\n      tag_385\n      tag_133\n      jump\t// in\n    tag_385:\n    tag_384:\n      swap1\n      0x00\n      mstore\n      keccak256(0x00, 0x20)\n      add\n        /* \"src/BuiltTrustPay.sol\":12343:12366  projects[projectIds[i]] */\n      mload(0x40)\n      tag_387\n      swap2\n      swap1\n      tag_388\n      jump\t// in\n    tag_387:\n      swap1\n      dup2\n      mstore\n      0x20\n      add\n      mload(0x40)\n      dup1\n      swap2\n      sub\n      swap1\n      keccak256\n        /* \"src/BuiltTrustPay.sol\":12328:12366  _projects[i] = projects[projectIds[i]] */\n      mload(0x40)\n      dup1\n      0x0160\n      add\n      0x40\n      mstore\n      swap1\n      dup2\n      0x00\n      dup3\n      add\n      dup1\n      sload\n      tag_389\n      swap1\n      tag_181\n      jump\t// in\n    tag_389:\n      dup1\n      0x1f\n      add\n      0x20\n      dup1\n      swap2\n      div\n      mul\n      0x20\n      add\n      mload(0x40)\n      swap1\n      dup2\n      add\n      0x40\n      mstore\n      dup1\n      swap3\n      swap2\n      swap1\n      dup2\n      dup2\n      mstore\n      0x20\n      add\n      dup3\n      dup1\n      sload\n      tag_390\n      swap1\n      tag_181\n      jump\t// in\n    tag_390:\n      dup1\n      iszero\n      tag_391\n      jumpi\n      dup1\n      0x1f\n      lt\n      tag_392\n      jumpi\n      0x0100\n      dup1\n      dup4\n      sload\n      div\n      mul\n      dup4\n      mstore\n      swap2\n      0x20\n      add\n      swap2\n      jump(tag_391)\n    tag_392:\n      dup3\n      add\n      swap2\n      swap1\n      0x00\n      mstore\n      keccak256(0x00, 0x20)\n      swap1\n    tag_393:\n      dup2\n      sload\n      dup2\n      mstore\n      swap1\n      0x01\n      add\n      swap1\n      0x20\n      add\n      dup1\n      dup4\n      gt\n      tag_393\n      jumpi\n      dup3\n      swap1\n      sub\n      0x1f\n      and\n      dup3\n      add\n      swap2\n    tag_391:\n      pop\n      pop\n      pop\n      pop\n      pop\n      dup2\n      mstore\n      0x20\n      add\n      0x01\n      dup3\n      add\n      dup1\n      sload\n      tag_394\n      swap1\n      tag_181\n      jump\t// in\n    tag_394:\n      dup1\n      0x1f\n      add\n      0x20\n      dup1\n      swap2\n      div\n      mul\n      0x20\n      add\n      mload(0x40)\n      swap1\n      dup2\n      add\n      0x40\n      mstore\n      dup1\n      swap3\n      swap2\n      swap1\n      dup2\n      dup2\n      mstore\n      0x20\n      add\n      dup3\n      dup1\n      sload\n      tag_395\n      swap1\n      tag_181\n      jump\t// in\n    tag_395:\n      dup1\n      iszero\n      tag_396\n      jumpi\n      dup1\n      0x1f\n      lt\n      tag_397\n      jumpi\n      0x0100\n      dup1\n      dup4\n      sload\n      div\n      mul\n      dup4\n      mstore\n      swap2\n      0x20\n      add\n      swap2\n      jump(tag_396)\n    tag_397:\n      dup3\n      add\n      swap2\n      swap1\n      0x00\n      mstore\n      keccak256(0x00, 0x20)\n      swap1\n    tag_398:\n      dup2\n      sload\n      dup2\n      mstore\n      swap1\n      0x01\n      add\n      swap1\n      0x20\n      add\n      dup1\n      dup4\n      gt\n      tag_398\n      jumpi\n      dup3\n      swap1\n      sub\n      0x1f\n      and\n      dup3\n      add\n      swap2\n    tag_396:\n      pop\n      pop\n      pop\n      pop\n      pop\n      dup2\n      mstore\n      0x20\n      add\n      0x02\n      dup3\n      add\n      dup1\n      sload\n      tag_399\n      swap1\n      tag_181\n      jump\t// in\n    tag_399:\n      dup1\n      0x1f\n      add\n      0x20\n      dup1\n      swap2\n      div\n      mul\n      0x20\n      add\n      mload(0x40)\n      swap1\n      dup2\n      add\n      0x40\n      mstore\n      dup1\n      swap3\n      swap2\n      swap1\n      dup2\n      dup2\n      mstore\n      0x20\n      add\n      dup3\n      dup1\n      sload\n      tag_400\n      swap1\n      tag_181\n      jump\t// in\n    tag_400:\n      dup1\n      iszero\n      tag_401\n      jumpi\n      dup1\n      0x1f\n      lt\n      tag_402\n      jumpi\n      0x0100\n      dup1\n      dup4\n      sload\n      div\n      mul\n      dup4\n      mstore\n      swap2\n      0x20\n      add\n      swap2\n      jump(tag_401)\n    tag_402:\n      dup3\n      add\n      swap2\n      swap1\n      0x00\n      mstore\n      keccak256(0x00, 0x20)\n      swap1\n    tag_403:\n      dup2\n      sload\n      dup2\n      mstore\n      swap1\n      0x01\n      add\n      swap1\n      0x20\n      add\n      dup1\n      dup4\n      gt\n      tag_403\n      jumpi\n      dup3\n      swap1\n      sub\n      0x1f\n      and\n      dup3\n      add\n      swap2\n    tag_401:\n      pop\n      pop\n      pop\n      pop\n      pop\n      dup2\n      mstore\n      0x20\n      add\n      0x03\n      dup3\n      add\n      dup1\n      sload\n      tag_404\n      swap1\n      tag_181\n      jump\t// in\n    tag_404:\n      dup1\n      0x1f\n      add\n      0x20\n      dup1\n      swap2\n      div\n      mul\n      0x20\n      add\n      mload(0x40)\n      swap1\n      dup2\n      add\n      0x40\n      mstore\n      dup1\n      swap3\n      swap2\n      swap1\n      dup2\n      dup2\n      mstore\n      0x20\n      add\n      dup3\n      dup1\n      sload\n      tag_405\n      swap1\n      tag_181\n      jump\t// in\n    tag_405:\n      dup1\n      iszero\n      tag_406\n      jumpi\n      dup1\n      0x1f\n      lt\n      tag_407\n      jumpi\n      0x0100\n      dup1\n      dup4\n      sload\n      div\n      mul\n      dup4\n      mstore\n      swap2\n      0x20\n      add\n      swap2\n      jump(tag_406)\n    tag_407:\n      dup3\n      add\n      swap2\n      swap1\n      0x00\n      mstore\n      keccak256(0x00, 0x20)\n      swap1\n    tag_408:\n      dup2\n      sload\n      dup2\n      mstore\n      swap1\n      0x01\n      add\n      swap1\n      0x20\n      add\n      dup1\n      dup4\n      gt\n      tag_408\n      jumpi\n      dup3\n      swap1\n      sub\n      0x1f\n      and\n      dup3\n      add\n      swap2\n    tag_406:\n      pop\n      pop\n      pop\n      pop\n      pop\n      dup2\n      mstore\n      0x20\n      add\n      0x04\n      dup3\n      add\n      dup1\n      sload\n      tag_409\n      swap1\n      tag_181\n      jump\t// in\n    tag_409:\n      dup1\n      0x1f\n      add\n      0x20\n      dup1\n      swap2\n      div\n      mul\n      0x20\n      add\n      mload(0x40)\n      swap1\n      dup2\n      add\n      0x40\n      mstore\n      dup1\n      swap3\n      swap2\n      swap1\n      dup2\n      dup2\n      mstore\n      0x20\n      add\n      dup3\n      dup1\n      sload\n      tag_410\n      swap1\n      tag_181\n      jump\t// in\n    tag_410:\n      dup1\n      iszero\n      tag_411\n      jumpi\n      dup1\n      0x1f\n      lt\n      tag_412\n      jumpi\n      0x0100\n      dup1\n      dup4\n      sload\n      div\n      mul\n      dup4\n      mstore\n      swap2\n      0x20\n      add\n      swap2\n      jump(tag_411)\n    tag_412:\n      dup3\n      add\n      swap2\n      swap1\n      0x00\n      mstore\n      keccak256(0x00, 0x20)\n      swap1\n    tag_413:\n      dup2\n      sload\n      dup2\n      mstore\n      swap1\n      0x01\n      add\n      swap1\n      0x20\n      add\n      dup1\n      dup4\n      gt\n      tag_413\n      jumpi\n      dup3\n      swap1\n      sub\n      0x1f\n      and\n      dup3\n      add\n      swap2\n    tag_411:\n      pop\n      pop\n      pop\n      pop\n      pop\n      dup2\n      mstore\n      0x20\n      add\n      0x05\n      dup3\n      add\n      sload\n      dup2\n      mstore\n      0x20\n      add\n      0x06\n      dup3\n      add\n      sload\n      dup2\n      mstore\n      0x20\n      add\n      0x07\n      dup3\n      add\n      sload\n      dup2\n      mstore\n      0x20\n      add\n      0x08\n      dup3\n      add\n      sload\n      dup2\n      mstore\n      0x20\n      add\n      0x09\n      dup3\n      add\n      0x00\n      swap1\n      sload\n      swap1\n      0x0100\n      exp\n      swap1\n      div\n      0xff\n      and\n      iszero\n      iszero\n      iszero\n      iszero\n      dup2\n      mstore\n      0x20\n      add\n      0x0a\n      dup3\n      add\n      dup1\n      sload\n      dup1\n      0x20\n      mul\n      0x20\n      add\n      mload(0x40)\n      swap1\n      dup2\n      add\n      0x40\n      mstore\n      dup1\n      swap3\n      swap2\n      swap1\n      dup2\n      dup2\n      mstore\n      0x20\n      add\n      0x00\n      swap1\n    tag_414:\n      dup3\n      dup3\n      lt\n      iszero\n      tag_415\n      jumpi\n      dup4\n      dup3\n      swap1\n      0x00\n      mstore\n      keccak256(0x00, 0x20)\n      swap1\n      0x0a\n      mul\n      add\n      mload(0x40)\n      dup1\n      0x0140\n      add\n      0x40\n      mstore\n      swap1\n      dup2\n      0x00\n      dup3\n      add\n      dup1\n      sload\n      tag_417\n      swap1\n      tag_181\n      jump\t// in\n    tag_417:\n      dup1\n      0x1f\n      add\n      0x20\n      dup1\n      swap2\n      div\n      mul\n      0x20\n      add\n      mload(0x40)\n      swap1\n      dup2\n      add\n      0x40\n      mstore\n      dup1\n      swap3\n      swap2\n      swap1\n      dup2\n      dup2\n      mstore\n      0x20\n      add\n      dup3\n      dup1\n      sload\n      tag_418\n      swap1\n      tag_181\n      jump\t// in\n    tag_418:\n      dup1\n      iszero\n      tag_419\n      jumpi\n      dup1\n      0x1f\n      lt\n      tag_420\n      jumpi\n      0x0100\n      dup1\n      dup4\n      sload\n      div\n      mul\n      dup4\n      mstore\n      swap2\n      0x20\n      add\n      swap2\n      jump(tag_419)\n    tag_420:\n      dup3\n      add\n      swap2\n      swap1\n      0x00\n      mstore\n      keccak256(0x00, 0x20)\n      swap1\n    tag_421:\n      dup2\n      sload\n      dup2\n      mstore\n      swap1\n      0x01\n      add\n      swap1\n      0x20\n      add\n      dup1\n      dup4\n      gt\n      tag_421\n      jumpi\n      dup3\n      swap1\n      sub\n      0x1f\n      and\n      dup3\n      add\n      swap2\n    tag_419:\n      pop\n      pop\n      pop\n      pop\n      pop\n      dup2\n      mstore\n      0x20\n      add\n      0x01\n      dup3\n      add\n      dup1\n      sload\n      tag_422\n      swap1\n      tag_181\n      jump\t// in\n    tag_422:\n      dup1\n      0x1f\n      add\n      0x20\n      dup1\n      swap2\n      div\n      mul\n      0x20\n      add\n      mload(0x40)\n      swap1\n      dup2\n      add\n      0x40\n      mstore\n      dup1\n      swap3\n      swap2\n      swap1\n      dup2\n      dup2\n      mstore\n      0x20\n      add\n      dup3\n      dup1\n      sload\n      tag_423\n      swap1\n      tag_181\n      jump\t// in\n    tag_423:\n      dup1\n      iszero\n      tag_424\n      jumpi\n      dup1\n      0x1f\n      lt\n      tag_425\n      jumpi\n      0x0100\n      dup1\n      dup4\n      sload\n      div\n      mul\n      dup4\n      mstore\n      swap2\n      0x20\n      add\n      swap2\n      jump(tag_424)\n    tag_425:\n      dup3\n      add\n      swap2\n      swap1\n      0x00\n      mstore\n      keccak256(0x00, 0x20)\n      swap1\n    tag_426:\n      dup2\n      sload\n      dup2\n      mstore\n      swap1\n      0x01\n      add\n      swap1\n      0x20\n      add\n      dup1\n      dup4\n      gt\n      tag_426\n      jumpi\n      dup3\n      swap1\n      sub\n      0x1f\n      and\n      dup3\n      add\n      swap2\n    tag_424:\n      pop\n      pop\n      pop\n      pop\n      pop\n      dup2\n      mstore\n      0x20\n      add\n      0x02\n      dup3\n      add\n      dup1\n      sload\n      tag_427\n      swap1\n      tag_181\n      jump\t// in\n    tag_427:\n      dup1\n      0x1f\n      add\n      0x20\n      dup1\n      swap2\n      div\n      mul\n      0x20\n      add\n      mload(0x40)\n      swap1\n      dup2\n      add\n      0x40\n      mstore\n      dup1\n      swap3\n      swap2\n      swap1\n      dup2\n      dup2\n      mstore\n      0x20\n      add\n      dup3\n      dup1\n      sload\n      tag_428\n      swap1\n      tag_181\n      jump\t// in\n    tag_428:\n      dup1\n      iszero\n      tag_429\n      jumpi\n      dup1\n      0x1f\n      lt\n      tag_430\n      jumpi\n      0x0100\n      dup1\n      dup4\n      sload\n      div\n      mul\n      dup4\n      mstore\n      swap2\n      0x20\n      add\n      swap2\n      jump(tag_429)\n    tag_430:\n      dup3\n      add\n      swap2\n      swap1\n      0x00\n      mstore\n      keccak256(0x00, 0x20)\n      swap1\n    tag_431:\n      dup2\n      sload\n      dup2\n      mstore\n      swap1\n      0x01\n      add\n      swap1\n      0x20\n      add\n      dup1\n      dup4\n      gt\n      tag_431\n      jumpi\n      dup3\n      swap1\n      sub\n      0x1f\n      and\n      dup3\n      add\n      swap2\n    tag_429:\n      pop\n      pop\n      pop\n      pop\n      pop\n      dup2\n      mstore\n      0x20\n      add\n      0x03\n      dup3\n      add\n      dup1\n      sload\n      tag_432\n      swap1\n      tag_181\n      jump\t// in\n    tag_432:\n      dup1\n      0x1f\n      add\n      0x20\n      dup1\n      swap2\n      div\n      mul\n      0x20\n      add\n      mload(0x40)\n      swap1\n      dup2\n      add\n      0x40\n      mstore\n      dup1\n      swap3\n      swap2\n      swap1\n      dup2\n      dup2\n      mstore\n      0x20\n      add\n      dup3\n      dup1\n      sload\n      tag_433\n      swap1\n      tag_181\n      jump\t// in\n    tag_433:\n      dup1\n      iszero\n      tag_434\n      jumpi\n      dup1\n      0x1f\n      lt\n      tag_435\n      jumpi\n      0x0100\n      dup1\n      dup4\n      sload\n      div\n      mul\n      dup4\n      mstore\n      swap2\n      0x20\n      add\n      swap2\n      jump(tag_434)\n    tag_435:\n      dup3\n      add\n      swap2\n      swap1\n      0x00\n      mstore\n      keccak256(0x00, 0x20)\n      swap1\n    tag_436:\n      dup2\n      sload\n      dup2\n      mstore\n      swap1\n      0x01\n      add\n      swap1\n      0x20\n      add\n      dup1\n      dup4\n      gt\n      tag_436\n      jumpi\n      dup3\n      swap1\n      sub\n      0x1f\n      and\n      dup3\n      add\n      swap2\n    tag_434:\n      pop\n      pop\n      pop\n      pop\n      pop\n      dup2\n      mstore\n      0x20\n      add\n      0x04\n      dup3\n      add\n      sload\n      dup2\n      mstore\n      0x20\n      add\n      0x05\n      dup3\n      add\n      dup1\n      sload\n      dup1\n      0x20\n      mul\n      0x20\n      add\n      mload(0x40)\n      swap1\n      dup2\n      add\n      0x40\n      mstore\n      dup1\n      swap3\n      swap2\n      swap1\n      dup2\n      dup2\n      mstore\n      0x20\n      add\n      0x00\n      swap1\n    tag_437:\n      dup3\n      dup3\n      lt\n      iszero\n      tag_438\n      jumpi\n      dup4\n      dup3\n      swap1\n      0x00\n      mstore\n      keccak256(0x00, 0x20)\n      add\n      dup1\n      sload\n      tag_440\n      swap1\n      tag_181\n      jump\t// in\n    tag_440:\n      dup1\n      0x1f\n      add\n      0x20\n      dup1\n      swap2\n      div\n      mul\n      0x20\n      add\n      mload(0x40)\n      swap1\n      dup2\n      add\n      0x40\n      mstore\n      dup1\n      swap3\n      swap2\n      swap1\n      dup2\n      dup2\n      mstore\n      0x20\n      add\n      dup3\n      dup1\n      sload\n      tag_441\n      swap1\n      tag_181\n      jump\t// in\n    tag_441:\n      dup1\n      iszero\n      tag_442\n      jumpi\n      dup1\n      0x1f\n      lt\n      tag_443\n      jumpi\n      0x0100\n      dup1\n      dup4\n      sload\n      div\n      mul\n      dup4\n      mstore\n      swap2\n      0x20\n      add\n      swap2\n      jump(tag_442)\n    tag_443:\n      dup3\n      add\n      swap2\n      swap1\n      0x00\n      mstore\n      keccak256(0x00, 0x20)\n      swap1\n    tag_444:\n      dup2\n      sload\n      dup2\n      mstore\n      swap1\n      0x01\n      add\n      swap1\n      0x20\n      add\n      dup1\n      dup4\n      gt\n      tag_444\n      jumpi\n      dup3\n      swap1\n      sub\n      0x1f\n      and\n      dup3\n      add\n      swap2\n    tag_442:\n      pop\n      pop\n      pop\n      pop\n      pop\n      dup2\n      mstore\n      0x20\n      add\n      swap1\n      0x01\n      add\n      swap1\n      jump(tag_437)\n    tag_438:\n      pop\n      pop\n      pop\n      pop\n      dup2\n      mstore\n      0x20\n      add\n      0x06\n      dup3\n      add\n      dup1\n      sload\n      dup1\n      0x20\n      mul\n      0x20\n      add\n      mload(0x40)\n      swap1\n      dup2\n      add\n      0x40\n      mstore\n      dup1\n      swap3\n      swap2\n      swap1\n      dup2\n      dup2\n      mstore\n      0x20\n      add\n      0x00\n      swap1\n    tag_445:\n      dup3\n      dup3\n      lt\n      iszero\n      tag_446\n      jumpi\n      dup4\n      dup3\n      swap1\n      0x00\n      mstore\n      keccak256(0x00, 0x20)\n      add\n      dup1\n      sload\n      tag_448\n      swap1\n      tag_181\n      jump\t// in\n    tag_448:\n      dup1\n      0x1f\n      add\n      0x20\n      dup1\n      swap2\n      div\n      mul\n      0x20\n      add\n      mload(0x40)\n      swap1\n      dup2\n      add\n      0x40\n      mstore\n      dup1\n      swap3\n      swap2\n      swap1\n      dup2\n      dup2\n      mstore\n      0x20\n      add\n      dup3\n      dup1\n      sload\n      tag_449\n      swap1\n      tag_181\n      jump\t// in\n    tag_449:\n      dup1\n      iszero\n      tag_450\n      jumpi\n      dup1\n      0x1f\n      lt\n      tag_451\n      jumpi\n      0x0100\n      dup1\n      dup4\n      sload\n      div\n      mul\n      dup4\n      mstore\n      swap2\n      0x20\n      add\n      swap2\n      jump(tag_450)\n    tag_451:\n      dup3\n      add\n      swap2\n      swap1\n      0x00\n      mstore\n      keccak256(0x00, 0x20)\n      swap1\n    tag_452:\n      dup2\n      sload\n      dup2\n      mstore\n      swap1\n      0x01\n      add\n      swap1\n      0x20\n      add\n      dup1\n      dup4\n      gt\n      tag_452\n      jumpi\n      dup3\n      swap1\n      sub\n      0x1f\n      and\n      dup3\n      add\n      swap2\n    tag_450:\n      pop\n      pop\n      pop\n      pop\n      pop\n      dup2\n      mstore\n      0x20\n      add\n      swap1\n      0x01\n      add\n      swap1\n      jump(tag_445)\n    tag_446:\n      pop\n      pop\n      pop\n      pop\n      dup2\n      mstore\n      0x20\n      add\n      0x07\n      dup3\n      add\n      sload\n      dup2\n      mstore\n      0x20\n      add\n      0x08\n      dup3\n      add\n      sload\n      dup2\n      mstore\n      0x20\n      add\n      0x09\n      dup3\n      add\n      0x00\n      swap1\n      sload\n      swap1\n      0x0100\n      exp\n      swap1\n      div\n      0xff\n      and\n      iszero\n      iszero\n      iszero\n      iszero\n      dup2\n      mstore\n      pop\n      pop\n      dup2\n      mstore\n      0x20\n      add\n      swap1\n      0x01\n      add\n      swap1\n      jump(tag_414)\n    tag_415:\n      pop\n      pop\n      pop\n      pop\n      dup2\n      mstore\n      pop\n      pop\n        /* \"src/BuiltTrustPay.sol\":12328:12337  _projects */\n      dup3\n        /* \"src/BuiltTrustPay.sol\":12338:12339  i */\n      dup3\n        /* \"src/BuiltTrustPay.sol\":12328:12340  _projects[i] */\n      dup2\n      mload\n      dup2\n      lt\n      tag_453\n      jumpi\n      tag_454\n      tag_133\n      jump\t// in\n    tag_454:\n    tag_453:\n      0x20\n      mul\n      0x20\n      add\n      add\n        /* \"src/BuiltTrustPay.sol\":12328:12366  _projects[i] = projects[projectIds[i]] */\n      dup2\n      swap1\n      mstore\n      pop\n        /* \"src/BuiltTrustPay.sol\":12309:12312  i++ */\n      dup1\n      dup1\n      0x01\n      add\n      swap2\n      pop\n      pop\n        /* \"src/BuiltTrustPay.sol\":12266:12377  for (uint256 i = 0; i < projectIds.length; i++) {... */\n      jump(tag_381)\n    tag_382:\n      pop\n        /* \"src/BuiltTrustPay.sol\":12393:12402  _projects */\n      dup1\n        /* \"src/BuiltTrustPay.sol\":12386:12402  return _projects */\n      swap2\n      pop\n      pop\n        /* \"src/BuiltTrustPay.sol\":12121:12409  function getProjects() external view returns (Project[] memory) {... */\n      swap1\n      jump\t// out\n        /* \"src/BuiltTrustPay.sol\":12555:12656  function getProjectsCount() external view returns (uint256) {... */\n    tag_119:\n        /* \"src/BuiltTrustPay.sol\":12606:12613  uint256 */\n      0x00\n        /* \"src/BuiltTrustPay.sol\":12632:12642  projectIds */\n      0x02\n        /* \"src/BuiltTrustPay.sol\":12632:12649  projectIds.length */\n      dup1\n      sload\n      swap1\n      pop\n        /* \"src/BuiltTrustPay.sol\":12625:12649  return projectIds.length */\n      swap1\n      pop\n        /* \"src/BuiltTrustPay.sol\":12555:12656  function getProjectsCount() external view returns (uint256) {... */\n      swap1\n      jump\t// out\n        /* \"src/BuiltTrustPay.sol\":7127:7354  function isThereEnoughValidators(string memory _project_id, string memory _stage_id) public view returns (bool) {... */\n    tag_123:\n        /* \"src/BuiltTrustPay.sol\":7233:7237  bool */\n      0x00\n        /* \"src/BuiltTrustPay.sol\":7302:7347  getMaxTotalValidators(_project_id, _stage_id) */\n      tag_457\n        /* \"src/BuiltTrustPay.sol\":7324:7335  _project_id */\n      dup4\n        /* \"src/BuiltTrustPay.sol\":7337:7346  _stage_id */\n      dup4\n        /* \"src/BuiltTrustPay.sol\":7302:7323  getMaxTotalValidators */\n      tag_50\n        /* \"src/BuiltTrustPay.sol\":7302:7347  getMaxTotalValidators(_project_id, _stage_id) */\n      jump\t// in\n    tag_457:\n        /* \"src/BuiltTrustPay.sol\":7256:7298  getTotalValidators(_project_id, _stage_id) */\n      tag_458\n        /* \"src/BuiltTrustPay.sol\":7275:7286  _project_id */\n      dup5\n        /* \"src/BuiltTrustPay.sol\":7288:7297  _stage_id */\n      dup5\n        /* \"src/BuiltTrustPay.sol\":7256:7274  getTotalValidators */\n      tag_103\n        /* \"src/BuiltTrustPay.sol\":7256:7298  getTotalValidators(_project_id, _stage_id) */\n      jump\t// in\n    tag_458:\n        /* \"src/BuiltTrustPay.sol\":7256:7347  getTotalValidators(_project_id, _stage_id) >= getMaxTotalValidators(_project_id, _stage_id) */\n      lt\n      iszero\n        /* \"src/BuiltTrustPay.sol\":7249:7347  return getTotalValidators(_project_id, _stage_id) >= getMaxTotalValidators(_project_id, _stage_id) */\n      swap1\n      pop\n        /* \"src/BuiltTrustPay.sol\":7127:7354  function isThereEnoughValidators(string memory _project_id, string memory _stage_id) public view returns (bool) {... */\n      swap3\n      swap2\n      pop\n      pop\n      jump\t// out\n    tag_158:\n      dup3\n      dup1\n      sload\n      dup3\n      dup3\n      sstore\n      swap1\n      0x00\n      mstore\n      keccak256(0x00, 0x20)\n      swap1\n      dup2\n      add\n      swap3\n      dup3\n      iszero\n      tag_459\n      jumpi\n      swap2\n      0x20\n      mul\n      dup3\n      add\n    tag_460:\n      dup3\n      dup2\n      gt\n      iszero\n      tag_461\n      jumpi\n      dup3\n      mload\n      dup3\n      swap1\n      dup2\n      tag_462\n      swap2\n      swap1\n      tag_140\n      jump\t// in\n    tag_462:\n      pop\n      swap2\n      0x20\n      add\n      swap2\n      swap1\n      0x01\n      add\n      swap1\n      jump(tag_460)\n    tag_461:\n    tag_459:\n      pop\n      swap1\n      pop\n      tag_463\n      swap2\n      swap1\n      tag_464\n      jump\t// in\n    tag_463:\n      pop\n      swap1\n      jump\t// out\n    tag_294:\n      mload(0x40)\n      dup1\n      0x0140\n      add\n      0x40\n      mstore\n      dup1\n      0x60\n      dup2\n      mstore\n      0x20\n      add\n      0x60\n      dup2\n      mstore\n      0x20\n      add\n      0x60\n      dup2\n      mstore\n      0x20\n      add\n      0x60\n      dup2\n      mstore\n      0x20\n      add\n      0x00\n      dup2\n      mstore\n      0x20\n      add\n      0x60\n      dup2\n      mstore\n      0x20\n      add\n      0x60\n      dup2\n      mstore\n      0x20\n      add\n      0x00\n      dup2\n      mstore\n      0x20\n      add\n      0x00\n      dup2\n      mstore\n      0x20\n      add\n      iszero(iszero(0x00))\n      dup2\n      mstore\n      pop\n      swap1\n      jump\t// out\n    tag_380:\n      mload(0x40)\n      dup1\n      0x0160\n      add\n      0x40\n      mstore\n      dup1\n      0x60\n      dup2\n      mstore\n      0x20\n      add\n      0x60\n      dup2\n      mstore\n      0x20\n      add\n      0x60\n      dup2\n      mstore\n      0x20\n      add\n      0x60\n      dup2\n      mstore\n      0x20\n      add\n      0x60\n      dup2\n      mstore\n      0x20\n      add\n      0x00\n      dup2\n      mstore\n      0x20\n      add\n      0x00\n      dup2\n      mstore\n      0x20\n      add\n      0x00\n      dup2\n      mstore\n      0x20\n      add\n      0x00\n      dup2\n      mstore\n      0x20\n      add\n      iszero(iszero(0x00))\n      dup2\n      mstore\n      0x20\n      add\n      0x60\n      dup2\n      mstore\n      pop\n      swap1\n      jump\t// out\n    tag_464:\n    tag_465:\n      dup1\n      dup3\n      gt\n      iszero\n      tag_466\n      jumpi\n      0x00\n      dup2\n      dup2\n      tag_467\n      swap2\n      swap1\n      tag_468\n      jump\t// in\n    tag_467:\n      pop\n      0x01\n      add\n      jump(tag_465)\n    tag_466:\n      pop\n      swap1\n      jump\t// out\n    tag_468:\n      pop\n      dup1\n      sload\n      tag_469\n      swap1\n      tag_181\n      jump\t// in\n    tag_469:\n      0x00\n      dup3\n      sstore\n      dup1\n      0x1f\n      lt\n      tag_471\n      jumpi\n      pop\n      jump(tag_470)\n    tag_471:\n      0x1f\n      add\n      0x20\n      swap1\n      div\n      swap1\n      0x00\n      mstore\n      keccak256(0x00, 0x20)\n      swap1\n      dup2\n      add\n      swap1\n      tag_472\n      swap2\n      swap1\n      tag_473\n      jump\t// in\n    tag_472:\n    tag_470:\n      pop\n      jump\t// out\n    tag_473:\n    tag_474:\n      dup1\n      dup3\n      gt\n      iszero\n      tag_475\n      jumpi\n      0x00\n      dup2\n      0x00\n      swap1\n      sstore\n      pop\n      0x01\n      add\n      jump(tag_474)\n    tag_475:\n      pop\n      swap1\n      jump\t// out\n        /* \"#utility.yul\":7:82   */\n    tag_476:\n        /* \"#utility.yul\":40:46   */\n      0x00\n        /* \"#utility.yul\":73:75   */\n      0x40\n        /* \"#utility.yul\":67:76   */\n      mload\n        /* \"#utility.yul\":57:76   */\n      swap1\n      pop\n        /* \"#utility.yul\":7:82   */\n      swap1\n      jump\t// out\n        /* \"#utility.yul\":88:205   */\n    tag_477:\n        /* \"#utility.yul\":197:198   */\n      0x00\n        /* \"#utility.yul\":194:195   */\n      dup1\n        /* \"#utility.yul\":187:199   */\n      revert\n        /* \"#utility.yul\":211:328   */\n    tag_478:\n        /* \"#utility.yul\":320:321   */\n      0x00\n        /* \"#utility.yul\":317:318   */\n      dup1\n        /* \"#utility.yul\":310:322   */\n      revert\n        /* \"#utility.yul\":334:451   */\n    tag_479:\n        /* \"#utility.yul\":443:444   */\n      0x00\n        /* \"#utility.yul\":440:441   */\n      dup1\n        /* \"#utility.yul\":433:445   */\n      revert\n        /* \"#utility.yul\":457:574   */\n    tag_480:\n        /* \"#utility.yul\":566:567   */\n      0x00\n        /* \"#utility.yul\":563:564   */\n      dup1\n        /* \"#utility.yul\":556:568   */\n      revert\n        /* \"#utility.yul\":580:682   */\n    tag_481:\n        /* \"#utility.yul\":621:627   */\n      0x00\n        /* \"#utility.yul\":672:674   */\n      0x1f\n        /* \"#utility.yul\":668:675   */\n      not\n        /* \"#utility.yul\":663:665   */\n      0x1f\n        /* \"#utility.yul\":656:661   */\n      dup4\n        /* \"#utility.yul\":652:666   */\n      add\n        /* \"#utility.yul\":648:676   */\n      and\n        /* \"#utility.yul\":638:676   */\n      swap1\n      pop\n        /* \"#utility.yul\":580:682   */\n      swap2\n      swap1\n      pop\n      jump\t// out\n        /* \"#utility.yul\":688:868   */\n    tag_376:\n        /* \"#utility.yul\":736:813   */\n      0x4e487b7100000000000000000000000000000000000000000000000000000000\n        /* \"#utility.yul\":733:734   */\n      0x00\n        /* \"#utility.yul\":726:814   */\n      mstore\n        /* \"#utility.yul\":833:837   */\n      0x41\n        /* \"#utility.yul\":830:831   */\n      0x04\n        /* \"#utility.yul\":823:838   */\n      mstore\n        /* \"#utility.yul\":857:861   */\n      0x24\n        /* \"#utility.yul\":854:855   */\n      0x00\n        /* \"#utility.yul\":847:862   */\n      revert\n        /* \"#utility.yul\":874:1155   */\n    tag_482:\n        /* \"#utility.yul\":957:984   */\n      tag_578\n        /* \"#utility.yul\":979:983   */\n      dup3\n        /* \"#utility.yul\":957:984   */\n      tag_481\n      jump\t// in\n    tag_578:\n        /* \"#utility.yul\":949:955   */\n      dup2\n        /* \"#utility.yul\":945:985   */\n      add\n        /* \"#utility.yul\":1087:1093   */\n      dup2\n        /* \"#utility.yul\":1075:1085   */\n      dup2\n        /* \"#utility.yul\":1072:1094   */\n      lt\n        /* \"#utility.yul\":1051:1069   */\n      0xffffffffffffffff\n        /* \"#utility.yul\":1039:1049   */\n      dup3\n        /* \"#utility.yul\":1036:1070   */\n      gt\n        /* \"#utility.yul\":1033:1095   */\n      or\n        /* \"#utility.yul\":1030:1118   */\n      iszero\n      tag_579\n      jumpi\n        /* \"#utility.yul\":1098:1116   */\n      tag_580\n      tag_376\n      jump\t// in\n    tag_580:\n        /* \"#utility.yul\":1030:1118   */\n    tag_579:\n        /* \"#utility.yul\":1138:1148   */\n      dup1\n        /* \"#utility.yul\":1134:1136   */\n      0x40\n        /* \"#utility.yul\":1127:1149   */\n      mstore\n        /* \"#utility.yul\":917:1155   */\n      pop\n        /* \"#utility.yul\":874:1155   */\n      pop\n      pop\n      jump\t// out\n        /* \"#utility.yul\":1161:1290   */\n    tag_483:\n        /* \"#utility.yul\":1195:1201   */\n      0x00\n        /* \"#utility.yul\":1222:1242   */\n      tag_582\n      tag_476\n      jump\t// in\n    tag_582:\n        /* \"#utility.yul\":1212:1242   */\n      swap1\n      pop\n        /* \"#utility.yul\":1251:1284   */\n      tag_583\n        /* \"#utility.yul\":1279:1283   */\n      dup3\n        /* \"#utility.yul\":1271:1277   */\n      dup3\n        /* \"#utility.yul\":1251:1284   */\n      tag_482\n      jump\t// in\n    tag_583:\n        /* \"#utility.yul\":1161:1290   */\n      swap2\n      swap1\n      pop\n      jump\t// out\n        /* \"#utility.yul\":1296:1604   */\n    tag_484:\n        /* \"#utility.yul\":1358:1362   */\n      0x00\n        /* \"#utility.yul\":1448:1466   */\n      0xffffffffffffffff\n        /* \"#utility.yul\":1440:1446   */\n      dup3\n        /* \"#utility.yul\":1437:1467   */\n      gt\n        /* \"#utility.yul\":1434:1490   */\n      iszero\n      tag_585\n      jumpi\n        /* \"#utility.yul\":1470:1488   */\n      tag_586\n      tag_376\n      jump\t// in\n    tag_586:\n        /* \"#utility.yul\":1434:1490   */\n    tag_585:\n        /* \"#utility.yul\":1508:1537   */\n      tag_587\n        /* \"#utility.yul\":1530:1536   */\n      dup3\n        /* \"#utility.yul\":1508:1537   */\n      tag_481\n      jump\t// in\n    tag_587:\n        /* \"#utility.yul\":1500:1537   */\n      swap1\n      pop\n        /* \"#utility.yul\":1592:1596   */\n      0x20\n        /* \"#utility.yul\":1586:1590   */\n      dup2\n        /* \"#utility.yul\":1582:1597   */\n      add\n        /* \"#utility.yul\":1574:1597   */\n      swap1\n      pop\n        /* \"#utility.yul\":1296:1604   */\n      swap2\n      swap1\n      pop\n      jump\t// out\n        /* \"#utility.yul\":1610:1758   */\n    tag_485:\n        /* \"#utility.yul\":1708:1714   */\n      dup3\n        /* \"#utility.yul\":1703:1706   */\n      dup2\n        /* \"#utility.yul\":1698:1701   */\n      dup4\n        /* \"#utility.yul\":1685:1715   */\n      calldatacopy\n        /* \"#utility.yul\":1749:1750   */\n      0x00\n        /* \"#utility.yul\":1740:1746   */\n      dup4\n        /* \"#utility.yul\":1735:1738   */\n      dup4\n        /* \"#utility.yul\":1731:1747   */\n      add\n        /* \"#utility.yul\":1724:1751   */\n      mstore\n        /* \"#utility.yul\":1610:1758   */\n      pop\n      pop\n      pop\n      jump\t// out\n        /* \"#utility.yul\":1764:2189   */\n    tag_486:\n        /* \"#utility.yul\":1842:1847   */\n      0x00\n        /* \"#utility.yul\":1867:1933   */\n      tag_590\n        /* \"#utility.yul\":1883:1932   */\n      tag_591\n        /* \"#utility.yul\":1925:1931   */\n      dup5\n        /* \"#utility.yul\":1883:1932   */\n      tag_484\n      jump\t// in\n    tag_591:\n        /* \"#utility.yul\":1867:1933   */\n      tag_483\n      jump\t// in\n    tag_590:\n        /* \"#utility.yul\":1858:1933   */\n      swap1\n      pop\n        /* \"#utility.yul\":1956:1962   */\n      dup3\n        /* \"#utility.yul\":1949:1954   */\n      dup2\n        /* \"#utility.yul\":1942:1963   */\n      mstore\n        /* \"#utility.yul\":1994:1998   */\n      0x20\n        /* \"#utility.yul\":1987:1992   */\n      dup2\n        /* \"#utility.yul\":1983:1999   */\n      add\n        /* \"#utility.yul\":2032:2035   */\n      dup5\n        /* \"#utility.yul\":2023:2029   */\n      dup5\n        /* \"#utility.yul\":2018:2021   */\n      dup5\n        /* \"#utility.yul\":2014:2030   */\n      add\n        /* \"#utility.yul\":2011:2036   */\n      gt\n        /* \"#utility.yul\":2008:2120   */\n      iszero\n      tag_592\n      jumpi\n        /* \"#utility.yul\":2039:2118   */\n      tag_593\n      tag_480\n      jump\t// in\n    tag_593:\n        /* \"#utility.yul\":2008:2120   */\n    tag_592:\n        /* \"#utility.yul\":2129:2183   */\n      tag_594\n        /* \"#utility.yul\":2176:2182   */\n      dup5\n        /* \"#utility.yul\":2171:2174   */\n      dup3\n        /* \"#utility.yul\":2166:2169   */\n      dup6\n        /* \"#utility.yul\":2129:2183   */\n      tag_485\n      jump\t// in\n    tag_594:\n        /* \"#utility.yul\":1848:2189   */\n      pop\n        /* \"#utility.yul\":1764:2189   */\n      swap4\n      swap3\n      pop\n      pop\n      pop\n      jump\t// out\n        /* \"#utility.yul\":2209:2549   */\n    tag_487:\n        /* \"#utility.yul\":2265:2270   */\n      0x00\n        /* \"#utility.yul\":2314:2317   */\n      dup3\n        /* \"#utility.yul\":2307:2311   */\n      0x1f\n        /* \"#utility.yul\":2299:2305   */\n      dup4\n        /* \"#utility.yul\":2295:2312   */\n      add\n        /* \"#utility.yul\":2291:2318   */\n      slt\n        /* \"#utility.yul\":2281:2403   */\n      tag_596\n      jumpi\n        /* \"#utility.yul\":2322:2401   */\n      tag_597\n      tag_479\n      jump\t// in\n    tag_597:\n        /* \"#utility.yul\":2281:2403   */\n    tag_596:\n        /* \"#utility.yul\":2439:2445   */\n      dup2\n        /* \"#utility.yul\":2426:2446   */\n      calldataload\n        /* \"#utility.yul\":2464:2543   */\n      tag_598\n        /* \"#utility.yul\":2539:2542   */\n      dup5\n        /* \"#utility.yul\":2531:2537   */\n      dup3\n        /* \"#utility.yul\":2524:2528   */\n      0x20\n        /* \"#utility.yul\":2516:2522   */\n      dup7\n        /* \"#utility.yul\":2512:2529   */\n      add\n        /* \"#utility.yul\":2464:2543   */\n      tag_486\n      jump\t// in\n    tag_598:\n        /* \"#utility.yul\":2455:2543   */\n      swap2\n      pop\n        /* \"#utility.yul\":2271:2549   */\n      pop\n        /* \"#utility.yul\":2209:2549   */\n      swap3\n      swap2\n      pop\n      pop\n      jump\t// out\n        /* \"#utility.yul\":2555:3714   */\n    tag_31:\n        /* \"#utility.yul\":2662:2668   */\n      0x00\n        /* \"#utility.yul\":2670:2676   */\n      dup1\n        /* \"#utility.yul\":2678:2684   */\n      0x00\n        /* \"#utility.yul\":2727:2729   */\n      0x60\n        /* \"#utility.yul\":2715:2724   */\n      dup5\n        /* \"#utility.yul\":2706:2713   */\n      dup7\n        /* \"#utility.yul\":2702:2725   */\n      sub\n        /* \"#utility.yul\":2698:2730   */\n      slt\n        /* \"#utility.yul\":2695:2814   */\n      iszero\n      tag_600\n      jumpi\n        /* \"#utility.yul\":2733:2812   */\n      tag_601\n      tag_477\n      jump\t// in\n    tag_601:\n        /* \"#utility.yul\":2695:2814   */\n    tag_600:\n        /* \"#utility.yul\":2881:2882   */\n      0x00\n        /* \"#utility.yul\":2870:2879   */\n      dup5\n        /* \"#utility.yul\":2866:2883   */\n      add\n        /* \"#utility.yul\":2853:2884   */\n      calldataload\n        /* \"#utility.yul\":2911:2929   */\n      0xffffffffffffffff\n        /* \"#utility.yul\":2903:2909   */\n      dup2\n        /* \"#utility.yul\":2900:2930   */\n      gt\n        /* \"#utility.yul\":2897:3014   */\n      iszero\n      tag_602\n      jumpi\n        /* \"#utility.yul\":2933:3012   */\n      tag_603\n      tag_478\n      jump\t// in\n    tag_603:\n        /* \"#utility.yul\":2897:3014   */\n    tag_602:\n        /* \"#utility.yul\":3038:3101   */\n      tag_604\n        /* \"#utility.yul\":3093:3100   */\n      dup7\n        /* \"#utility.yul\":3084:3090   */\n      dup3\n        /* \"#utility.yul\":3073:3082   */\n      dup8\n        /* \"#utility.yul\":3069:3091   */\n      add\n        /* \"#utility.yul\":3038:3101   */\n      tag_487\n      jump\t// in\n    tag_604:\n        /* \"#utility.yul\":3028:3101   */\n      swap4\n      pop\n        /* \"#utility.yul\":2824:3111   */\n      pop\n        /* \"#utility.yul\":3178:3180   */\n      0x20\n        /* \"#utility.yul\":3167:3176   */\n      dup5\n        /* \"#utility.yul\":3163:3181   */\n      add\n        /* \"#utility.yul\":3150:3182   */\n      calldataload\n        /* \"#utility.yul\":3209:3227   */\n      0xffffffffffffffff\n        /* \"#utility.yul\":3201:3207   */\n      dup2\n        /* \"#utility.yul\":3198:3228   */\n      gt\n        /* \"#utility.yul\":3195:3312   */\n      iszero\n      tag_605\n      jumpi\n        /* \"#utility.yul\":3231:3310   */\n      tag_606\n      tag_478\n      jump\t// in\n    tag_606:\n        /* \"#utility.yul\":3195:3312   */\n    tag_605:\n        /* \"#utility.yul\":3336:3399   */\n      tag_607\n        /* \"#utility.yul\":3391:3398   */\n      dup7\n        /* \"#utility.yul\":3382:3388   */\n      dup3\n        /* \"#utility.yul\":3371:3380   */\n      dup8\n        /* \"#utility.yul\":3367:3389   */\n      add\n        /* \"#utility.yul\":3336:3399   */\n      tag_487\n      jump\t// in\n    tag_607:\n        /* \"#utility.yul\":3326:3399   */\n      swap3\n      pop\n        /* \"#utility.yul\":3121:3409   */\n      pop\n        /* \"#utility.yul\":3476:3478   */\n      0x40\n        /* \"#utility.yul\":3465:3474   */\n      dup5\n        /* \"#utility.yul\":3461:3479   */\n      add\n        /* \"#utility.yul\":3448:3480   */\n      calldataload\n        /* \"#utility.yul\":3507:3525   */\n      0xffffffffffffffff\n        /* \"#utility.yul\":3499:3505   */\n      dup2\n        /* \"#utility.yul\":3496:3526   */\n      gt\n        /* \"#utility.yul\":3493:3610   */\n      iszero\n      tag_608\n      jumpi\n        /* \"#utility.yul\":3529:3608   */\n      tag_609\n      tag_478\n      jump\t// in\n    tag_609:\n        /* \"#utility.yul\":3493:3610   */\n    tag_608:\n        /* \"#utility.yul\":3634:3697   */\n      tag_610\n        /* \"#utility.yul\":3689:3696   */\n      dup7\n        /* \"#utility.yul\":3680:3686   */\n      dup3\n        /* \"#utility.yul\":3669:3678   */\n      dup8\n        /* \"#utility.yul\":3665:3687   */\n      add\n        /* \"#utility.yul\":3634:3697   */\n      tag_487\n      jump\t// in\n    tag_610:\n        /* \"#utility.yul\":3624:3697   */\n      swap2\n      pop\n        /* \"#utility.yul\":3419:3707   */\n      pop\n        /* \"#utility.yul\":2555:3714   */\n      swap3\n      pop\n      swap3\n      pop\n      swap3\n      jump\t// out\n        /* \"#utility.yul\":3720:3810   */\n    tag_488:\n        /* \"#utility.yul\":3754:3761   */\n      0x00\n        /* \"#utility.yul\":3797:3802   */\n      dup2\n        /* \"#utility.yul\":3790:3803   */\n      iszero\n        /* \"#utility.yul\":3783:3804   */\n      iszero\n        /* \"#utility.yul\":3772:3804   */\n      swap1\n      pop\n        /* \"#utility.yul\":3720:3810   */\n      swap2\n      swap1\n      pop\n      jump\t// out\n        /* \"#utility.yul\":3816:3925   */\n    tag_489:\n        /* \"#utility.yul\":3897:3918   */\n      tag_613\n        /* \"#utility.yul\":3912:3917   */\n      dup2\n        /* \"#utility.yul\":3897:3918   */\n      tag_488\n      jump\t// in\n    tag_613:\n        /* \"#utility.yul\":3892:3895   */\n      dup3\n        /* \"#utility.yul\":3885:3919   */\n      mstore\n        /* \"#utility.yul\":3816:3925   */\n      pop\n      pop\n      jump\t// out\n        /* \"#utility.yul\":3931:4141   */\n    tag_34:\n        /* \"#utility.yul\":4018:4022   */\n      0x00\n        /* \"#utility.yul\":4056:4058   */\n      0x20\n        /* \"#utility.yul\":4045:4054   */\n      dup3\n        /* \"#utility.yul\":4041:4059   */\n      add\n        /* \"#utility.yul\":4033:4059   */\n      swap1\n      pop\n        /* \"#utility.yul\":4069:4134   */\n      tag_615\n        /* \"#utility.yul\":4131:4132   */\n      0x00\n        /* \"#utility.yul\":4120:4129   */\n      dup4\n        /* \"#utility.yul\":4116:4133   */\n      add\n        /* \"#utility.yul\":4107:4113   */\n      dup5\n        /* \"#utility.yul\":4069:4134   */\n      tag_489\n      jump\t// in\n    tag_615:\n        /* \"#utility.yul\":3931:4141   */\n      swap3\n      swap2\n      pop\n      pop\n      jump\t// out\n        /* \"#utility.yul\":4147:4224   */\n    tag_490:\n        /* \"#utility.yul\":4184:4191   */\n      0x00\n        /* \"#utility.yul\":4213:4218   */\n      dup2\n        /* \"#utility.yul\":4202:4218   */\n      swap1\n      pop\n        /* \"#utility.yul\":4147:4224   */\n      swap2\n      swap1\n      pop\n      jump\t// out\n        /* \"#utility.yul\":4230:4352   */\n    tag_491:\n        /* \"#utility.yul\":4303:4327   */\n      tag_618\n        /* \"#utility.yul\":4321:4326   */\n      dup2\n        /* \"#utility.yul\":4303:4327   */\n      tag_490\n      jump\t// in\n    tag_618:\n        /* \"#utility.yul\":4296:4301   */\n      dup2\n        /* \"#utility.yul\":4293:4328   */\n      eq\n        /* \"#utility.yul\":4283:4346   */\n      tag_619\n      jumpi\n        /* \"#utility.yul\":4342:4343   */\n      0x00\n        /* \"#utility.yul\":4339:4340   */\n      dup1\n        /* \"#utility.yul\":4332:4344   */\n      revert\n        /* \"#utility.yul\":4283:4346   */\n    tag_619:\n        /* \"#utility.yul\":4230:4352   */\n      pop\n      jump\t// out\n        /* \"#utility.yul\":4358:4497   */\n    tag_492:\n        /* \"#utility.yul\":4404:4409   */\n      0x00\n        /* \"#utility.yul\":4442:4448   */\n      dup2\n        /* \"#utility.yul\":4429:4449   */\n      calldataload\n        /* \"#utility.yul\":4420:4449   */\n      swap1\n      pop\n        /* \"#utility.yul\":4458:4491   */\n      tag_621\n        /* \"#utility.yul\":4485:4490   */\n      dup2\n        /* \"#utility.yul\":4458:4491   */\n      tag_491\n      jump\t// in\n    tag_621:\n        /* \"#utility.yul\":4358:4497   */\n      swap3\n      swap2\n      pop\n      pop\n      jump\t// out\n        /* \"#utility.yul\":4503:4977   */\n    tag_37:\n        /* \"#utility.yul\":4571:4577   */\n      0x00\n        /* \"#utility.yul\":4579:4585   */\n      dup1\n        /* \"#utility.yul\":4628:4630   */\n      0x40\n        /* \"#utility.yul\":4616:4625   */\n      dup4\n        /* \"#utility.yul\":4607:4614   */\n      dup6\n        /* \"#utility.yul\":4603:4626   */\n      sub\n        /* \"#utility.yul\":4599:4631   */\n      slt\n        /* \"#utility.yul\":4596:4715   */\n      iszero\n      tag_623\n      jumpi\n        /* \"#utility.yul\":4634:4713   */\n      tag_624\n      tag_477\n      jump\t// in\n    tag_624:\n        /* \"#utility.yul\":4596:4715   */\n    tag_623:\n        /* \"#utility.yul\":4754:4755   */\n      0x00\n        /* \"#utility.yul\":4779:4832   */\n      tag_625\n        /* \"#utility.yul\":4824:4831   */\n      dup6\n        /* \"#utility.yul\":4815:4821   */\n      dup3\n        /* \"#utility.yul\":4804:4813   */\n      dup7\n        /* \"#utility.yul\":4800:4822   */\n      add\n        /* \"#utility.yul\":4779:4832   */\n      tag_492\n      jump\t// in\n    tag_625:\n        /* \"#utility.yul\":4769:4832   */\n      swap3\n      pop\n        /* \"#utility.yul\":4725:4842   */\n      pop\n        /* \"#utility.yul\":4881:4883   */\n      0x20\n        /* \"#utility.yul\":4907:4960   */\n      tag_626\n        /* \"#utility.yul\":4952:4959   */\n      dup6\n        /* \"#utility.yul\":4943:4949   */\n      dup3\n        /* \"#utility.yul\":4932:4941   */\n      dup7\n        /* \"#utility.yul\":4928:4950   */\n      add\n        /* \"#utility.yul\":4907:4960   */\n      tag_492\n      jump\t// in\n    tag_626:\n        /* \"#utility.yul\":4897:4960   */\n      swap2\n      pop\n        /* \"#utility.yul\":4852:4970   */\n      pop\n        /* \"#utility.yul\":4503:4977   */\n      swap3\n      pop\n      swap3\n      swap1\n      pop\n      jump\t// out\n        /* \"#utility.yul\":4983:5315   */\n    tag_493:\n        /* \"#utility.yul\":5081:5085   */\n      0x00\n        /* \"#utility.yul\":5171:5189   */\n      0xffffffffffffffff\n        /* \"#utility.yul\":5163:5169   */\n      dup3\n        /* \"#utility.yul\":5160:5190   */\n      gt\n        /* \"#utility.yul\":5157:5213   */\n      iszero\n      tag_628\n      jumpi\n        /* \"#utility.yul\":5193:5211   */\n      tag_629\n      tag_376\n      jump\t// in\n    tag_629:\n        /* \"#utility.yul\":5157:5213   */\n    tag_628:\n        /* \"#utility.yul\":5243:5247   */\n      0x20\n        /* \"#utility.yul\":5235:5241   */\n      dup3\n        /* \"#utility.yul\":5231:5248   */\n      mul\n        /* \"#utility.yul\":5223:5248   */\n      swap1\n      pop\n        /* \"#utility.yul\":5303:5307   */\n      0x20\n        /* \"#utility.yul\":5297:5301   */\n      dup2\n        /* \"#utility.yul\":5293:5308   */\n      add\n        /* \"#utility.yul\":5285:5308   */\n      swap1\n      pop\n        /* \"#utility.yul\":4983:5315   */\n      swap2\n      swap1\n      pop\n      jump\t// out\n        /* \"#utility.yul\":5321:5438   */\n    tag_494:\n        /* \"#utility.yul\":5430:5431   */\n      0x00\n        /* \"#utility.yul\":5427:5428   */\n      dup1\n        /* \"#utility.yul\":5420:5432   */\n      revert\n        /* \"#utility.yul\":5444:5561   */\n    tag_495:\n        /* \"#utility.yul\":5553:5554   */\n      0x00\n        /* \"#utility.yul\":5550:5551   */\n      dup1\n        /* \"#utility.yul\":5543:5555   */\n      revert\n        /* \"#utility.yul\":5567:5684   */\n    tag_496:\n        /* \"#utility.yul\":5676:5677   */\n      0x00\n        /* \"#utility.yul\":5673:5674   */\n      dup1\n        /* \"#utility.yul\":5666:5678   */\n      revert\n        /* \"#utility.yul\":5690:6011   */\n    tag_497:\n        /* \"#utility.yul\":5777:5781   */\n      0x00\n        /* \"#utility.yul\":5867:5885   */\n      0xffffffffffffffff\n        /* \"#utility.yul\":5859:5865   */\n      dup3\n        /* \"#utility.yul\":5856:5886   */\n      gt\n        /* \"#utility.yul\":5853:5909   */\n      iszero\n      tag_634\n      jumpi\n        /* \"#utility.yul\":5889:5907   */\n      tag_635\n      tag_376\n      jump\t// in\n    tag_635:\n        /* \"#utility.yul\":5853:5909   */\n    tag_634:\n        /* \"#utility.yul\":5939:5943   */\n      0x20\n        /* \"#utility.yul\":5931:5937   */\n      dup3\n        /* \"#utility.yul\":5927:5944   */\n      mul\n        /* \"#utility.yul\":5919:5944   */\n      swap1\n      pop\n        /* \"#utility.yul\":5999:6003   */\n      0x20\n        /* \"#utility.yul\":5993:5997   */\n      dup2\n        /* \"#utility.yul\":5989:6004   */\n      add\n        /* \"#utility.yul\":5981:6004   */\n      swap1\n      pop\n        /* \"#utility.yul\":5690:6011   */\n      swap2\n      swap1\n      pop\n      jump\t// out\n        /* \"#utility.yul\":6033:6978   */\n    tag_498:\n        /* \"#utility.yul\":6139:6144   */\n      0x00\n        /* \"#utility.yul\":6164:6255   */\n      tag_637\n        /* \"#utility.yul\":6180:6254   */\n      tag_638\n        /* \"#utility.yul\":6247:6253   */\n      dup5\n        /* \"#utility.yul\":6180:6254   */\n      tag_497\n      jump\t// in\n    tag_638:\n        /* \"#utility.yul\":6164:6255   */\n      tag_483\n      jump\t// in\n    tag_637:\n        /* \"#utility.yul\":6155:6255   */\n      swap1\n      pop\n        /* \"#utility.yul\":6275:6280   */\n      dup1\n        /* \"#utility.yul\":6304:6310   */\n      dup4\n        /* \"#utility.yul\":6297:6302   */\n      dup3\n        /* \"#utility.yul\":6290:6311   */\n      mstore\n        /* \"#utility.yul\":6338:6342   */\n      0x20\n        /* \"#utility.yul\":6331:6336   */\n      dup3\n        /* \"#utility.yul\":6327:6343   */\n      add\n        /* \"#utility.yul\":6320:6343   */\n      swap1\n      pop\n        /* \"#utility.yul\":6391:6395   */\n      0x20\n        /* \"#utility.yul\":6383:6389   */\n      dup5\n        /* \"#utility.yul\":6379:6396   */\n      mul\n        /* \"#utility.yul\":6371:6377   */\n      dup4\n        /* \"#utility.yul\":6367:6397   */\n      add\n        /* \"#utility.yul\":6420:6423   */\n      dup6\n        /* \"#utility.yul\":6412:6418   */\n      dup2\n        /* \"#utility.yul\":6409:6424   */\n      gt\n        /* \"#utility.yul\":6406:6528   */\n      iszero\n      tag_639\n      jumpi\n        /* \"#utility.yul\":6439:6518   */\n      tag_640\n      tag_494\n      jump\t// in\n    tag_640:\n        /* \"#utility.yul\":6406:6528   */\n    tag_639:\n        /* \"#utility.yul\":6554:6560   */\n      dup4\n        /* \"#utility.yul\":6537:6972   */\n    tag_641:\n        /* \"#utility.yul\":6571:6577   */\n      dup2\n        /* \"#utility.yul\":6566:6569   */\n      dup2\n        /* \"#utility.yul\":6563:6578   */\n      lt\n        /* \"#utility.yul\":6537:6972   */\n      iszero\n      tag_643\n      jumpi\n        /* \"#utility.yul\":6660:6663   */\n      dup1\n        /* \"#utility.yul\":6647:6664   */\n      calldataload\n        /* \"#utility.yul\":6696:6714   */\n      0xffffffffffffffff\n        /* \"#utility.yul\":6683:6694   */\n      dup2\n        /* \"#utility.yul\":6680:6715   */\n      gt\n        /* \"#utility.yul\":6677:6799   */\n      iszero\n      tag_644\n      jumpi\n        /* \"#utility.yul\":6718:6797   */\n      tag_645\n      tag_479\n      jump\t// in\n    tag_645:\n        /* \"#utility.yul\":6677:6799   */\n    tag_644:\n        /* \"#utility.yul\":6842:6853   */\n      dup1\n        /* \"#utility.yul\":6834:6840   */\n      dup7\n        /* \"#utility.yul\":6830:6854   */\n      add\n        /* \"#utility.yul\":6880:6927   */\n      tag_646\n        /* \"#utility.yul\":6923:6926   */\n      dup10\n        /* \"#utility.yul\":6911:6921   */\n      dup3\n        /* \"#utility.yul\":6880:6927   */\n      tag_487\n      jump\t// in\n    tag_646:\n        /* \"#utility.yul\":6875:6878   */\n      dup6\n        /* \"#utility.yul\":6868:6928   */\n      mstore\n        /* \"#utility.yul\":6957:6961   */\n      0x20\n        /* \"#utility.yul\":6952:6955   */\n      dup6\n        /* \"#utility.yul\":6948:6962   */\n      add\n        /* \"#utility.yul\":6941:6962   */\n      swap5\n      pop\n        /* \"#utility.yul\":6613:6972   */\n      pop\n      pop\n        /* \"#utility.yul\":6597:6601   */\n      0x20\n        /* \"#utility.yul\":6592:6595   */\n      dup2\n        /* \"#utility.yul\":6588:6602   */\n      add\n        /* \"#utility.yul\":6581:6602   */\n      swap1\n      pop\n        /* \"#utility.yul\":6537:6972   */\n      jump(tag_641)\n    tag_643:\n        /* \"#utility.yul\":6541:6562   */\n      pop\n        /* \"#utility.yul\":6145:6978   */\n      pop\n      pop\n        /* \"#utility.yul\":6033:6978   */\n      swap4\n      swap3\n      pop\n      pop\n      pop\n      jump\t// out\n        /* \"#utility.yul\":7000:7390   */\n    tag_499:\n        /* \"#utility.yul\":7081:7086   */\n      0x00\n        /* \"#utility.yul\":7130:7133   */\n      dup3\n        /* \"#utility.yul\":7123:7127   */\n      0x1f\n        /* \"#utility.yul\":7115:7121   */\n      dup4\n        /* \"#utility.yul\":7111:7128   */\n      add\n        /* \"#utility.yul\":7107:7134   */\n      slt\n        /* \"#utility.yul\":7097:7219   */\n      tag_648\n      jumpi\n        /* \"#utility.yul\":7138:7217   */\n      tag_649\n      tag_479\n      jump\t// in\n    tag_649:\n        /* \"#utility.yul\":7097:7219   */\n    tag_648:\n        /* \"#utility.yul\":7255:7261   */\n      dup2\n        /* \"#utility.yul\":7242:7262   */\n      calldataload\n        /* \"#utility.yul\":7280:7384   */\n      tag_650\n        /* \"#utility.yul\":7380:7383   */\n      dup5\n        /* \"#utility.yul\":7372:7378   */\n      dup3\n        /* \"#utility.yul\":7365:7369   */\n      0x20\n        /* \"#utility.yul\":7357:7363   */\n      dup7\n        /* \"#utility.yul\":7353:7370   */\n      add\n        /* \"#utility.yul\":7280:7384   */\n      tag_498\n      jump\t// in\n    tag_650:\n        /* \"#utility.yul\":7271:7384   */\n      swap2\n      pop\n        /* \"#utility.yul\":7087:7390   */\n      pop\n        /* \"#utility.yul\":7000:7390   */\n      swap3\n      swap2\n      pop\n      pop\n      jump\t// out\n        /* \"#utility.yul\":7396:7512   */\n    tag_500:\n        /* \"#utility.yul\":7466:7487   */\n      tag_652\n        /* \"#utility.yul\":7481:7486   */\n      dup2\n        /* \"#utility.yul\":7466:7487   */\n      tag_488\n      jump\t// in\n    tag_652:\n        /* \"#utility.yul\":7459:7464   */\n      dup2\n        /* \"#utility.yul\":7456:7488   */\n      eq\n        /* \"#utility.yul\":7446:7506   */\n      tag_653\n      jumpi\n        /* \"#utility.yul\":7502:7503   */\n      0x00\n        /* \"#utility.yul\":7499:7500   */\n      dup1\n        /* \"#utility.yul\":7492:7504   */\n      revert\n        /* \"#utility.yul\":7446:7506   */\n    tag_653:\n        /* \"#utility.yul\":7396:7512   */\n      pop\n      jump\t// out\n        /* \"#utility.yul\":7518:7651   */\n    tag_501:\n        /* \"#utility.yul\":7561:7566   */\n      0x00\n        /* \"#utility.yul\":7599:7605   */\n      dup2\n        /* \"#utility.yul\":7586:7606   */\n      calldataload\n        /* \"#utility.yul\":7577:7606   */\n      swap1\n      pop\n        /* \"#utility.yul\":7615:7645   */\n      tag_655\n        /* \"#utility.yul\":7639:7644   */\n      dup2\n        /* \"#utility.yul\":7615:7645   */\n      tag_500\n      jump\t// in\n    tag_655:\n        /* \"#utility.yul\":7518:7651   */\n      swap3\n      swap2\n      pop\n      pop\n      jump\t// out\n        /* \"#utility.yul\":7698:10708   */\n    tag_502:\n        /* \"#utility.yul\":7768:7773   */\n      0x00\n        /* \"#utility.yul\":7812:7818   */\n      0x0140\n        /* \"#utility.yul\":7800:7809   */\n      dup3\n        /* \"#utility.yul\":7795:7798   */\n      dup5\n        /* \"#utility.yul\":7791:7810   */\n      sub\n        /* \"#utility.yul\":7787:7819   */\n      slt\n        /* \"#utility.yul\":7784:7903   */\n      iszero\n      tag_657\n      jumpi\n        /* \"#utility.yul\":7822:7901   */\n      tag_658\n      tag_495\n      jump\t// in\n    tag_658:\n        /* \"#utility.yul\":7784:7903   */\n    tag_657:\n        /* \"#utility.yul\":7921:7944   */\n      tag_659\n        /* \"#utility.yul\":7937:7943   */\n      0x0140\n        /* \"#utility.yul\":7921:7944   */\n      tag_483\n      jump\t// in\n    tag_659:\n        /* \"#utility.yul\":7912:7944   */\n      swap1\n      pop\n        /* \"#utility.yul\":8035:8036   */\n      0x00\n        /* \"#utility.yul\":8024:8033   */\n      dup3\n        /* \"#utility.yul\":8020:8037   */\n      add\n        /* \"#utility.yul\":8007:8038   */\n      calldataload\n        /* \"#utility.yul\":8065:8083   */\n      0xffffffffffffffff\n        /* \"#utility.yul\":8057:8063   */\n      dup2\n        /* \"#utility.yul\":8054:8084   */\n      gt\n        /* \"#utility.yul\":8051:8168   */\n      iszero\n      tag_660\n      jumpi\n        /* \"#utility.yul\":8087:8166   */\n      tag_661\n      tag_496\n      jump\t// in\n    tag_661:\n        /* \"#utility.yul\":8051:8168   */\n    tag_660:\n        /* \"#utility.yul\":8207:8266   */\n      tag_662\n        /* \"#utility.yul\":8262:8265   */\n      dup5\n        /* \"#utility.yul\":8253:8259   */\n      dup3\n        /* \"#utility.yul\":8242:8251   */\n      dup6\n        /* \"#utility.yul\":8238:8260   */\n      add\n        /* \"#utility.yul\":8207:8266   */\n      tag_487\n      jump\t// in\n    tag_662:\n        /* \"#utility.yul\":8200:8204   */\n      0x00\n        /* \"#utility.yul\":8193:8198   */\n      dup4\n        /* \"#utility.yul\":8189:8205   */\n      add\n        /* \"#utility.yul\":8182:8267   */\n      mstore\n        /* \"#utility.yul\":7954:8278   */\n      pop\n        /* \"#utility.yul\":8366:8368   */\n      0x20\n        /* \"#utility.yul\":8355:8364   */\n      dup3\n        /* \"#utility.yul\":8351:8369   */\n      add\n        /* \"#utility.yul\":8338:8370   */\n      calldataload\n        /* \"#utility.yul\":8397:8415   */\n      0xffffffffffffffff\n        /* \"#utility.yul\":8389:8395   */\n      dup2\n        /* \"#utility.yul\":8386:8416   */\n      gt\n        /* \"#utility.yul\":8383:8500   */\n      iszero\n      tag_663\n      jumpi\n        /* \"#utility.yul\":8419:8498   */\n      tag_664\n      tag_496\n      jump\t// in\n    tag_664:\n        /* \"#utility.yul\":8383:8500   */\n    tag_663:\n        /* \"#utility.yul\":8539:8598   */\n      tag_665\n        /* \"#utility.yul\":8594:8597   */\n      dup5\n        /* \"#utility.yul\":8585:8591   */\n      dup3\n        /* \"#utility.yul\":8574:8583   */\n      dup6\n        /* \"#utility.yul\":8570:8592   */\n      add\n        /* \"#utility.yul\":8539:8598   */\n      tag_487\n      jump\t// in\n    tag_665:\n        /* \"#utility.yul\":8532:8536   */\n      0x20\n        /* \"#utility.yul\":8525:8530   */\n      dup4\n        /* \"#utility.yul\":8521:8537   */\n      add\n        /* \"#utility.yul\":8514:8599   */\n      mstore\n        /* \"#utility.yul\":8288:8610   */\n      pop\n        /* \"#utility.yul\":8704:8706   */\n      0x40\n        /* \"#utility.yul\":8693:8702   */\n      dup3\n        /* \"#utility.yul\":8689:8707   */\n      add\n        /* \"#utility.yul\":8676:8708   */\n      calldataload\n        /* \"#utility.yul\":8735:8753   */\n      0xffffffffffffffff\n        /* \"#utility.yul\":8727:8733   */\n      dup2\n        /* \"#utility.yul\":8724:8754   */\n      gt\n        /* \"#utility.yul\":8721:8838   */\n      iszero\n      tag_666\n      jumpi\n        /* \"#utility.yul\":8757:8836   */\n      tag_667\n      tag_496\n      jump\t// in\n    tag_667:\n        /* \"#utility.yul\":8721:8838   */\n    tag_666:\n        /* \"#utility.yul\":8877:8936   */\n      tag_668\n        /* \"#utility.yul\":8932:8935   */\n      dup5\n        /* \"#utility.yul\":8923:8929   */\n      dup3\n        /* \"#utility.yul\":8912:8921   */\n      dup6\n        /* \"#utility.yul\":8908:8930   */\n      add\n        /* \"#utility.yul\":8877:8936   */\n      tag_487\n      jump\t// in\n    tag_668:\n        /* \"#utility.yul\":8870:8874   */\n      0x40\n        /* \"#utility.yul\":8863:8868   */\n      dup4\n        /* \"#utility.yul\":8859:8875   */\n      add\n        /* \"#utility.yul\":8852:8937   */\n      mstore\n        /* \"#utility.yul\":8620:8948   */\n      pop\n        /* \"#utility.yul\":9047:9049   */\n      0x60\n        /* \"#utility.yul\":9036:9045   */\n      dup3\n        /* \"#utility.yul\":9032:9050   */\n      add\n        /* \"#utility.yul\":9019:9051   */\n      calldataload\n        /* \"#utility.yul\":9078:9096   */\n      0xffffffffffffffff\n        /* \"#utility.yul\":9070:9076   */\n      dup2\n        /* \"#utility.yul\":9067:9097   */\n      gt\n        /* \"#utility.yul\":9064:9181   */\n      iszero\n      tag_669\n      jumpi\n        /* \"#utility.yul\":9100:9179   */\n      tag_670\n      tag_496\n      jump\t// in\n    tag_670:\n        /* \"#utility.yul\":9064:9181   */\n    tag_669:\n        /* \"#utility.yul\":9220:9279   */\n      tag_671\n        /* \"#utility.yul\":9275:9278   */\n      dup5\n        /* \"#utility.yul\":9266:9272   */\n      dup3\n        /* \"#utility.yul\":9255:9264   */\n      dup6\n        /* \"#utility.yul\":9251:9273   */\n      add\n        /* \"#utility.yul\":9220:9279   */\n      tag_487\n      jump\t// in\n    tag_671:\n        /* \"#utility.yul\":9213:9217   */\n      0x60\n        /* \"#utility.yul\":9206:9211   */\n      dup4\n        /* \"#utility.yul\":9202:9218   */\n      add\n        /* \"#utility.yul\":9195:9280   */\n      mstore\n        /* \"#utility.yul\":8958:9291   */\n      pop\n        /* \"#utility.yul\":9351:9354   */\n      0x80\n        /* \"#utility.yul\":9393:9442   */\n      tag_672\n        /* \"#utility.yul\":9438:9441   */\n      dup5\n        /* \"#utility.yul\":9429:9435   */\n      dup3\n        /* \"#utility.yul\":9418:9427   */\n      dup6\n        /* \"#utility.yul\":9414:9436   */\n      add\n        /* \"#utility.yul\":9393:9442   */\n      tag_492\n      jump\t// in\n    tag_672:\n        /* \"#utility.yul\":9386:9390   */\n      0x80\n        /* \"#utility.yul\":9379:9384   */\n      dup4\n        /* \"#utility.yul\":9375:9391   */\n      add\n        /* \"#utility.yul\":9368:9443   */\n      mstore\n        /* \"#utility.yul\":9301:9454   */\n      pop\n        /* \"#utility.yul\":9551:9554   */\n      0xa0\n        /* \"#utility.yul\":9540:9549   */\n      dup3\n        /* \"#utility.yul\":9536:9555   */\n      add\n        /* \"#utility.yul\":9523:9556   */\n      calldataload\n        /* \"#utility.yul\":9583:9601   */\n      0xffffffffffffffff\n        /* \"#utility.yul\":9575:9581   */\n      dup2\n        /* \"#utility.yul\":9572:9602   */\n      gt\n        /* \"#utility.yul\":9569:9686   */\n      iszero\n      tag_673\n      jumpi\n        /* \"#utility.yul\":9605:9684   */\n      tag_674\n      tag_496\n      jump\t// in\n    tag_674:\n        /* \"#utility.yul\":9569:9686   */\n    tag_673:\n        /* \"#utility.yul\":9725:9809   */\n      tag_675\n        /* \"#utility.yul\":9805:9808   */\n      dup5\n        /* \"#utility.yul\":9796:9802   */\n      dup3\n        /* \"#utility.yul\":9785:9794   */\n      dup6\n        /* \"#utility.yul\":9781:9803   */\n      add\n        /* \"#utility.yul\":9725:9809   */\n      tag_499\n      jump\t// in\n    tag_675:\n        /* \"#utility.yul\":9718:9722   */\n      0xa0\n        /* \"#utility.yul\":9711:9716   */\n      dup4\n        /* \"#utility.yul\":9707:9723   */\n      add\n        /* \"#utility.yul\":9700:9810   */\n      mstore\n        /* \"#utility.yul\":9464:9821   */\n      pop\n        /* \"#utility.yul\":9915:9918   */\n      0xc0\n        /* \"#utility.yul\":9904:9913   */\n      dup3\n        /* \"#utility.yul\":9900:9919   */\n      add\n        /* \"#utility.yul\":9887:9920   */\n      calldataload\n        /* \"#utility.yul\":9947:9965   */\n      0xffffffffffffffff\n        /* \"#utility.yul\":9939:9945   */\n      dup2\n        /* \"#utility.yul\":9936:9966   */\n      gt\n        /* \"#utility.yul\":9933:10050   */\n      iszero\n      tag_676\n      jumpi\n        /* \"#utility.yul\":9969:10048   */\n      tag_677\n      tag_496\n      jump\t// in\n    tag_677:\n        /* \"#utility.yul\":9933:10050   */\n    tag_676:\n        /* \"#utility.yul\":10089:10173   */\n      tag_678\n        /* \"#utility.yul\":10169:10172   */\n      dup5\n        /* \"#utility.yul\":10160:10166   */\n      dup3\n        /* \"#utility.yul\":10149:10158   */\n      dup6\n        /* \"#utility.yul\":10145:10167   */\n      add\n        /* \"#utility.yul\":10089:10173   */\n      tag_499\n      jump\t// in\n    tag_678:\n        /* \"#utility.yul\":10082:10086   */\n      0xc0\n        /* \"#utility.yul\":10075:10080   */\n      dup4\n        /* \"#utility.yul\":10071:10087   */\n      add\n        /* \"#utility.yul\":10064:10174   */\n      mstore\n        /* \"#utility.yul\":9831:10185   */\n      pop\n        /* \"#utility.yul\":10255:10258   */\n      0xe0\n        /* \"#utility.yul\":10297:10346   */\n      tag_679\n        /* \"#utility.yul\":10342:10345   */\n      dup5\n        /* \"#utility.yul\":10333:10339   */\n      dup3\n        /* \"#utility.yul\":10322:10331   */\n      dup6\n        /* \"#utility.yul\":10318:10340   */\n      add\n        /* \"#utility.yul\":10297:10346   */\n      tag_492\n      jump\t// in\n    tag_679:\n        /* \"#utility.yul\":10290:10294   */\n      0xe0\n        /* \"#utility.yul\":10283:10288   */\n      dup4\n        /* \"#utility.yul\":10279:10295   */\n      add\n        /* \"#utility.yul\":10272:10347   */\n      mstore\n        /* \"#utility.yul\":10195:10358   */\n      pop\n        /* \"#utility.yul\":10430:10433   */\n      0x0100\n        /* \"#utility.yul\":10474:10523   */\n      tag_680\n        /* \"#utility.yul\":10519:10522   */\n      dup5\n        /* \"#utility.yul\":10510:10516   */\n      dup3\n        /* \"#utility.yul\":10499:10508   */\n      dup6\n        /* \"#utility.yul\":10495:10517   */\n      add\n        /* \"#utility.yul\":10474:10523   */\n      tag_492\n      jump\t// in\n    tag_680:\n        /* \"#utility.yul\":10465:10471   */\n      0x0100\n        /* \"#utility.yul\":10458:10463   */\n      dup4\n        /* \"#utility.yul\":10454:10472   */\n      add\n        /* \"#utility.yul\":10447:10524   */\n      mstore\n        /* \"#utility.yul\":10368:10535   */\n      pop\n        /* \"#utility.yul\":10599:10602   */\n      0x0120\n        /* \"#utility.yul\":10643:10689   */\n      tag_681\n        /* \"#utility.yul\":10685:10688   */\n      dup5\n        /* \"#utility.yul\":10676:10682   */\n      dup3\n        /* \"#utility.yul\":10665:10674   */\n      dup6\n        /* \"#utility.yul\":10661:10683   */\n      add\n        /* \"#utility.yul\":10643:10689   */\n      tag_501\n      jump\t// in\n    tag_681:\n        /* \"#utility.yul\":10634:10640   */\n      0x0120\n        /* \"#utility.yul\":10627:10632   */\n      dup4\n        /* \"#utility.yul\":10623:10641   */\n      add\n        /* \"#utility.yul\":10616:10690   */\n      mstore\n        /* \"#utility.yul\":10545:10701   */\n      pop\n        /* \"#utility.yul\":7698:10708   */\n      swap3\n      swap2\n      pop\n      pop\n      jump\t// out\n        /* \"#utility.yul\":10757:11735   */\n    tag_503:\n        /* \"#utility.yul\":10874:10879   */\n      0x00\n        /* \"#utility.yul\":10899:11001   */\n      tag_683\n        /* \"#utility.yul\":10915:11000   */\n      tag_684\n        /* \"#utility.yul\":10993:10999   */\n      dup5\n        /* \"#utility.yul\":10915:11000   */\n      tag_493\n      jump\t// in\n    tag_684:\n        /* \"#utility.yul\":10899:11001   */\n      tag_483\n      jump\t// in\n    tag_683:\n        /* \"#utility.yul\":10890:11001   */\n      swap1\n      pop\n        /* \"#utility.yul\":11021:11026   */\n      dup1\n        /* \"#utility.yul\":11050:11056   */\n      dup4\n        /* \"#utility.yul\":11043:11048   */\n      dup3\n        /* \"#utility.yul\":11036:11057   */\n      mstore\n        /* \"#utility.yul\":11084:11088   */\n      0x20\n        /* \"#utility.yul\":11077:11082   */\n      dup3\n        /* \"#utility.yul\":11073:11089   */\n      add\n        /* \"#utility.yul\":11066:11089   */\n      swap1\n      pop\n        /* \"#utility.yul\":11137:11141   */\n      0x20\n        /* \"#utility.yul\":11129:11135   */\n      dup5\n        /* \"#utility.yul\":11125:11142   */\n      mul\n        /* \"#utility.yul\":11117:11123   */\n      dup4\n        /* \"#utility.yul\":11113:11143   */\n      add\n        /* \"#utility.yul\":11166:11169   */\n      dup6\n        /* \"#utility.yul\":11158:11164   */\n      dup2\n        /* \"#utility.yul\":11155:11170   */\n      gt\n        /* \"#utility.yul\":11152:11274   */\n      iszero\n      tag_685\n      jumpi\n        /* \"#utility.yul\":11185:11264   */\n      tag_686\n      tag_494\n      jump\t// in\n    tag_686:\n        /* \"#utility.yul\":11152:11274   */\n    tag_685:\n        /* \"#utility.yul\":11300:11306   */\n      dup4\n        /* \"#utility.yul\":11283:11729   */\n    tag_687:\n        /* \"#utility.yul\":11317:11323   */\n      dup2\n        /* \"#utility.yul\":11312:11315   */\n      dup2\n        /* \"#utility.yul\":11309:11324   */\n      lt\n        /* \"#utility.yul\":11283:11729   */\n      iszero\n      tag_689\n      jumpi\n        /* \"#utility.yul\":11406:11409   */\n      dup1\n        /* \"#utility.yul\":11393:11410   */\n      calldataload\n        /* \"#utility.yul\":11442:11460   */\n      0xffffffffffffffff\n        /* \"#utility.yul\":11429:11440   */\n      dup2\n        /* \"#utility.yul\":11426:11461   */\n      gt\n        /* \"#utility.yul\":11423:11545   */\n      iszero\n      tag_690\n      jumpi\n        /* \"#utility.yul\":11464:11543   */\n      tag_691\n      tag_479\n      jump\t// in\n    tag_691:\n        /* \"#utility.yul\":11423:11545   */\n    tag_690:\n        /* \"#utility.yul\":11588:11599   */\n      dup1\n        /* \"#utility.yul\":11580:11586   */\n      dup7\n        /* \"#utility.yul\":11576:11600   */\n      add\n        /* \"#utility.yul\":11626:11684   */\n      tag_692\n        /* \"#utility.yul\":11680:11683   */\n      dup10\n        /* \"#utility.yul\":11668:11678   */\n      dup3\n        /* \"#utility.yul\":11626:11684   */\n      tag_502\n      jump\t// in\n    tag_692:\n        /* \"#utility.yul\":11621:11624   */\n      dup6\n        /* \"#utility.yul\":11614:11685   */\n      mstore\n        /* \"#utility.yul\":11714:11718   */\n      0x20\n        /* \"#utility.yul\":11709:11712   */\n      dup6\n        /* \"#utility.yul\":11705:11719   */\n      add\n        /* \"#utility.yul\":11698:11719   */\n      swap5\n      pop\n        /* \"#utility.yul\":11359:11729   */\n      pop\n      pop\n        /* \"#utility.yul\":11343:11347   */\n      0x20\n        /* \"#utility.yul\":11338:11341   */\n      dup2\n        /* \"#utility.yul\":11334:11348   */\n      add\n        /* \"#utility.yul\":11327:11348   */\n      swap1\n      pop\n        /* \"#utility.yul\":11283:11729   */\n      jump(tag_687)\n    tag_689:\n        /* \"#utility.yul\":11287:11308   */\n      pop\n        /* \"#utility.yul\":10880:11735   */\n      pop\n      pop\n        /* \"#utility.yul\":10757:11735   */\n      swap4\n      swap3\n      pop\n      pop\n      pop\n      jump\t// out\n        /* \"#utility.yul\":11784:12196   */\n    tag_504:\n        /* \"#utility.yul\":11876:11881   */\n      0x00\n        /* \"#utility.yul\":11925:11928   */\n      dup3\n        /* \"#utility.yul\":11918:11922   */\n      0x1f\n        /* \"#utility.yul\":11910:11916   */\n      dup4\n        /* \"#utility.yul\":11906:11923   */\n      add\n        /* \"#utility.yul\":11902:11929   */\n      slt\n        /* \"#utility.yul\":11892:12014   */\n      tag_694\n      jumpi\n        /* \"#utility.yul\":11933:12012   */\n      tag_695\n      tag_479\n      jump\t// in\n    tag_695:\n        /* \"#utility.yul\":11892:12014   */\n    tag_694:\n        /* \"#utility.yul\":12050:12056   */\n      dup2\n        /* \"#utility.yul\":12037:12057   */\n      calldataload\n        /* \"#utility.yul\":12075:12190   */\n      tag_696\n        /* \"#utility.yul\":12186:12189   */\n      dup5\n        /* \"#utility.yul\":12178:12184   */\n      dup3\n        /* \"#utility.yul\":12171:12175   */\n      0x20\n        /* \"#utility.yul\":12163:12169   */\n      dup7\n        /* \"#utility.yul\":12159:12176   */\n      add\n        /* \"#utility.yul\":12075:12190   */\n      tag_503\n      jump\t// in\n    tag_696:\n        /* \"#utility.yul\":12066:12190   */\n      swap2\n      pop\n        /* \"#utility.yul\":11882:12196   */\n      pop\n        /* \"#utility.yul\":11784:12196   */\n      swap3\n      swap2\n      pop\n      pop\n      jump\t// out\n        /* \"#utility.yul\":12202:14703   */\n    tag_41:\n        /* \"#utility.yul\":12420:12426   */\n      0x00\n        /* \"#utility.yul\":12428:12434   */\n      dup1\n        /* \"#utility.yul\":12436:12442   */\n      0x00\n        /* \"#utility.yul\":12444:12450   */\n      dup1\n        /* \"#utility.yul\":12452:12458   */\n      0x00\n        /* \"#utility.yul\":12460:12466   */\n      dup1\n        /* \"#utility.yul\":12468:12474   */\n      0x00\n        /* \"#utility.yul\":12476:12482   */\n      dup1\n        /* \"#utility.yul\":12525:12528   */\n      0x0100\n        /* \"#utility.yul\":12513:12522   */\n      dup10\n        /* \"#utility.yul\":12504:12511   */\n      dup12\n        /* \"#utility.yul\":12500:12523   */\n      sub\n        /* \"#utility.yul\":12496:12529   */\n      slt\n        /* \"#utility.yul\":12493:12613   */\n      iszero\n      tag_698\n      jumpi\n        /* \"#utility.yul\":12532:12611   */\n      tag_699\n      tag_477\n      jump\t// in\n    tag_699:\n        /* \"#utility.yul\":12493:12613   */\n    tag_698:\n        /* \"#utility.yul\":12680:12681   */\n      0x00\n        /* \"#utility.yul\":12669:12678   */\n      dup10\n        /* \"#utility.yul\":12665:12682   */\n      add\n        /* \"#utility.yul\":12652:12683   */\n      calldataload\n        /* \"#utility.yul\":12710:12728   */\n      0xffffffffffffffff\n        /* \"#utility.yul\":12702:12708   */\n      dup2\n        /* \"#utility.yul\":12699:12729   */\n      gt\n        /* \"#utility.yul\":12696:12813   */\n      iszero\n      tag_700\n      jumpi\n        /* \"#utility.yul\":12732:12811   */\n      tag_701\n      tag_478\n      jump\t// in\n    tag_701:\n        /* \"#utility.yul\":12696:12813   */\n    tag_700:\n        /* \"#utility.yul\":12837:12900   */\n      tag_702\n        /* \"#utility.yul\":12892:12899   */\n      dup12\n        /* \"#utility.yul\":12883:12889   */\n      dup3\n        /* \"#utility.yul\":12872:12881   */\n      dup13\n        /* \"#utility.yul\":12868:12890   */\n      add\n        /* \"#utility.yul\":12837:12900   */\n      tag_487\n      jump\t// in\n    tag_702:\n        /* \"#utility.yul\":12827:12900   */\n      swap9\n      pop\n        /* \"#utility.yul\":12623:12910   */\n      pop\n        /* \"#utility.yul\":12977:12979   */\n      0x20\n        /* \"#utility.yul\":12966:12975   */\n      dup10\n        /* \"#utility.yul\":12962:12980   */\n      add\n        /* \"#utility.yul\":12949:12981   */\n      calldataload\n        /* \"#utility.yul\":13008:13026   */\n      0xffffffffffffffff\n        /* \"#utility.yul\":13000:13006   */\n      dup2\n        /* \"#utility.yul\":12997:13027   */\n      gt\n        /* \"#utility.yul\":12994:13111   */\n      iszero\n      tag_703\n      jumpi\n        /* \"#utility.yul\":13030:13109   */\n      tag_704\n      tag_478\n      jump\t// in\n    tag_704:\n        /* \"#utility.yul\":12994:13111   */\n    tag_703:\n        /* \"#utility.yul\":13135:13198   */\n      tag_705\n        /* \"#utility.yul\":13190:13197   */\n      dup12\n        /* \"#utility.yul\":13181:13187   */\n      dup3\n        /* \"#utility.yul\":13170:13179   */\n      dup13\n        /* \"#utility.yul\":13166:13188   */\n      add\n        /* \"#utility.yul\":13135:13198   */\n      tag_487\n      jump\t// in\n    tag_705:\n        /* \"#utility.yul\":13125:13198   */\n      swap8\n      pop\n        /* \"#utility.yul\":12920:13208   */\n      pop\n        /* \"#utility.yul\":13275:13277   */\n      0x40\n        /* \"#utility.yul\":13264:13273   */\n      dup10\n        /* \"#utility.yul\":13260:13278   */\n      add\n        /* \"#utility.yul\":13247:13279   */\n      calldataload\n        /* \"#utility.yul\":13306:13324   */\n      0xffffffffffffffff\n        /* \"#utility.yul\":13298:13304   */\n      dup2\n        /* \"#utility.yul\":13295:13325   */\n      gt\n        /* \"#utility.yul\":13292:13409   */\n      iszero\n      tag_706\n      jumpi\n        /* \"#utility.yul\":13328:13407   */\n      tag_707\n      tag_478\n      jump\t// in\n    tag_707:\n        /* \"#utility.yul\":13292:13409   */\n    tag_706:\n        /* \"#utility.yul\":13433:13496   */\n      tag_708\n        /* \"#utility.yul\":13488:13495   */\n      dup12\n        /* \"#utility.yul\":13479:13485   */\n      dup3\n        /* \"#utility.yul\":13468:13477   */\n      dup13\n        /* \"#utility.yul\":13464:13486   */\n      add\n        /* \"#utility.yul\":13433:13496   */\n      tag_487\n      jump\t// in\n    tag_708:\n        /* \"#utility.yul\":13423:13496   */\n      swap7\n      pop\n        /* \"#utility.yul\":13218:13506   */\n      pop\n        /* \"#utility.yul\":13573:13575   */\n      0x60\n        /* \"#utility.yul\":13562:13571   */\n      dup10\n        /* \"#utility.yul\":13558:13576   */\n      add\n        /* \"#utility.yul\":13545:13577   */\n      calldataload\n        /* \"#utility.yul\":13604:13622   */\n      0xffffffffffffffff\n        /* \"#utility.yul\":13596:13602   */\n      dup2\n        /* \"#utility.yul\":13593:13623   */\n      gt\n        /* \"#utility.yul\":13590:13707   */\n      iszero\n      tag_709\n      jumpi\n        /* \"#utility.yul\":13626:13705   */\n      tag_710\n      tag_478\n      jump\t// in\n    tag_710:\n        /* \"#utility.yul\":13590:13707   */\n    tag_709:\n        /* \"#utility.yul\":13731:13794   */\n      tag_711\n        /* \"#utility.yul\":13786:13793   */\n      dup12\n        /* \"#utility.yul\":13777:13783   */\n      dup3\n        /* \"#utility.yul\":13766:13775   */\n      dup13\n        /* \"#utility.yul\":13762:13784   */\n      add\n        /* \"#utility.yul\":13731:13794   */\n      tag_487\n      jump\t// in\n    tag_711:\n        /* \"#utility.yul\":13721:13794   */\n      swap6\n      pop\n        /* \"#utility.yul\":13516:13804   */\n      pop\n        /* \"#utility.yul\":13871:13874   */\n      0x80\n        /* \"#utility.yul\":13860:13869   */\n      dup10\n        /* \"#utility.yul\":13856:13875   */\n      add\n        /* \"#utility.yul\":13843:13876   */\n      calldataload\n        /* \"#utility.yul\":13903:13921   */\n      0xffffffffffffffff\n        /* \"#utility.yul\":13895:13901   */\n      dup2\n        /* \"#utility.yul\":13892:13922   */\n      gt\n        /* \"#utility.yul\":13889:14006   */\n      iszero\n      tag_712\n      jumpi\n        /* \"#utility.yul\":13925:14004   */\n      tag_713\n      tag_478\n      jump\t// in\n    tag_713:\n        /* \"#utility.yul\":13889:14006   */\n    tag_712:\n        /* \"#utility.yul\":14030:14093   */\n      tag_714\n        /* \"#utility.yul\":14085:14092   */\n      dup12\n        /* \"#utility.yul\":14076:14082   */\n      dup3\n        /* \"#utility.yul\":14065:14074   */\n      dup13\n        /* \"#utility.yul\":14061:14083   */\n      add\n        /* \"#utility.yul\":14030:14093   */\n      tag_487\n      jump\t// in\n    tag_714:\n        /* \"#utility.yul\":14020:14093   */\n      swap5\n      pop\n        /* \"#utility.yul\":13814:14103   */\n      pop\n        /* \"#utility.yul\":14142:14145   */\n      0xa0\n        /* \"#utility.yul\":14169:14222   */\n      tag_715\n        /* \"#utility.yul\":14214:14221   */\n      dup12\n        /* \"#utility.yul\":14205:14211   */\n      dup3\n        /* \"#utility.yul\":14194:14203   */\n      dup13\n        /* \"#utility.yul\":14190:14212   */\n      add\n        /* \"#utility.yul\":14169:14222   */\n      tag_492\n      jump\t// in\n    tag_715:\n        /* \"#utility.yul\":14159:14222   */\n      swap4\n      pop\n        /* \"#utility.yul\":14113:14232   */\n      pop\n        /* \"#utility.yul\":14271:14274   */\n      0xc0\n        /* \"#utility.yul\":14298:14351   */\n      tag_716\n        /* \"#utility.yul\":14343:14350   */\n      dup12\n        /* \"#utility.yul\":14334:14340   */\n      dup3\n        /* \"#utility.yul\":14323:14332   */\n      dup13\n        /* \"#utility.yul\":14319:14341   */\n      add\n        /* \"#utility.yul\":14298:14351   */\n      tag_492\n      jump\t// in\n    tag_716:\n        /* \"#utility.yul\":14288:14351   */\n      swap3\n      pop\n        /* \"#utility.yul\":14242:14361   */\n      pop\n        /* \"#utility.yul\":14428:14431   */\n      0xe0\n        /* \"#utility.yul\":14417:14426   */\n      dup10\n        /* \"#utility.yul\":14413:14432   */\n      add\n        /* \"#utility.yul\":14400:14433   */\n      calldataload\n        /* \"#utility.yul\":14460:14478   */\n      0xffffffffffffffff\n        /* \"#utility.yul\":14452:14458   */\n      dup2\n        /* \"#utility.yul\":14449:14479   */\n      gt\n        /* \"#utility.yul\":14446:14563   */\n      iszero\n      tag_717\n      jumpi\n        /* \"#utility.yul\":14482:14561   */\n      tag_718\n      tag_478\n      jump\t// in\n    tag_718:\n        /* \"#utility.yul\":14446:14563   */\n    tag_717:\n        /* \"#utility.yul\":14587:14686   */\n      tag_719\n        /* \"#utility.yul\":14678:14685   */\n      dup12\n        /* \"#utility.yul\":14669:14675   */\n      dup3\n        /* \"#utility.yul\":14658:14667   */\n      dup13\n        /* \"#utility.yul\":14654:14676   */\n      add\n        /* \"#utility.yul\":14587:14686   */\n      tag_504\n      jump\t// in\n    tag_719:\n        /* \"#utility.yul\":14577:14686   */\n      swap2\n      pop\n        /* \"#utility.yul\":14371:14696   */\n      pop\n        /* \"#utility.yul\":12202:14703   */\n      swap3\n      swap6\n      swap9\n      pop\n      swap3\n      swap6\n      swap9\n      swap1\n      swap4\n      swap7\n      pop\n      jump\t// out\n        /* \"#utility.yul\":14709:15565   */\n    tag_45:\n        /* \"#utility.yul\":14808:14814   */\n      0x00\n        /* \"#utility.yul\":14816:14822   */\n      dup1\n        /* \"#utility.yul\":14865:14867   */\n      0x40\n        /* \"#utility.yul\":14853:14862   */\n      dup4\n        /* \"#utility.yul\":14844:14851   */\n      dup6\n        /* \"#utility.yul\":14840:14863   */\n      sub\n        /* \"#utility.yul\":14836:14868   */\n      slt\n        /* \"#utility.yul\":14833:14952   */\n      iszero\n      tag_721\n      jumpi\n        /* \"#utility.yul\":14871:14950   */\n      tag_722\n      tag_477\n      jump\t// in\n    tag_722:\n        /* \"#utility.yul\":14833:14952   */\n    tag_721:\n        /* \"#utility.yul\":15019:15020   */\n      0x00\n        /* \"#utility.yul\":15008:15017   */\n      dup4\n        /* \"#utility.yul\":15004:15021   */\n      add\n        /* \"#utility.yul\":14991:15022   */\n      calldataload\n        /* \"#utility.yul\":15049:15067   */\n      0xffffffffffffffff\n        /* \"#utility.yul\":15041:15047   */\n      dup2\n        /* \"#utility.yul\":15038:15068   */\n      gt\n        /* \"#utility.yul\":15035:15152   */\n      iszero\n      tag_723\n      jumpi\n        /* \"#utility.yul\":15071:15150   */\n      tag_724\n      tag_478\n      jump\t// in\n    tag_724:\n        /* \"#utility.yul\":15035:15152   */\n    tag_723:\n        /* \"#utility.yul\":15176:15239   */\n      tag_725\n        /* \"#utility.yul\":15231:15238   */\n      dup6\n        /* \"#utility.yul\":15222:15228   */\n      dup3\n        /* \"#utility.yul\":15211:15220   */\n      dup7\n        /* \"#utility.yul\":15207:15229   */\n      add\n        /* \"#utility.yul\":15176:15239   */\n      tag_487\n      jump\t// in\n    tag_725:\n        /* \"#utility.yul\":15166:15239   */\n      swap3\n      pop\n        /* \"#utility.yul\":14962:15249   */\n      pop\n        /* \"#utility.yul\":15316:15318   */\n      0x20\n        /* \"#utility.yul\":15305:15314   */\n      dup4\n        /* \"#utility.yul\":15301:15319   */\n      add\n        /* \"#utility.yul\":15288:15320   */\n      calldataload\n        /* \"#utility.yul\":15347:15365   */\n      0xffffffffffffffff\n        /* \"#utility.yul\":15339:15345   */\n      dup2\n        /* \"#utility.yul\":15336:15366   */\n      gt\n        /* \"#utility.yul\":15333:15450   */\n      iszero\n      tag_726\n      jumpi\n        /* \"#utility.yul\":15369:15448   */\n      tag_727\n      tag_478\n      jump\t// in\n    tag_727:\n        /* \"#utility.yul\":15333:15450   */\n    tag_726:\n        /* \"#utility.yul\":15474:15548   */\n      tag_728\n        /* \"#utility.yul\":15540:15547   */\n      dup6\n        /* \"#utility.yul\":15531:15537   */\n      dup3\n        /* \"#utility.yul\":15520:15529   */\n      dup7\n        /* \"#utility.yul\":15516:15538   */\n      add\n        /* \"#utility.yul\":15474:15548   */\n      tag_502\n      jump\t// in\n    tag_728:\n        /* \"#utility.yul\":15464:15548   */\n      swap2\n      pop\n        /* \"#utility.yul\":15259:15558   */\n      pop\n        /* \"#utility.yul\":14709:15565   */\n      swap3\n      pop\n      swap3\n      swap1\n      pop\n      jump\t// out\n        /* \"#utility.yul\":15571:16405   */\n    tag_49:\n        /* \"#utility.yul\":15659:15665   */\n      0x00\n        /* \"#utility.yul\":15667:15673   */\n      dup1\n        /* \"#utility.yul\":15716:15718   */\n      0x40\n        /* \"#utility.yul\":15704:15713   */\n      dup4\n        /* \"#utility.yul\":15695:15702   */\n      dup6\n        /* \"#utility.yul\":15691:15714   */\n      sub\n        /* \"#utility.yul\":15687:15719   */\n      slt\n        /* \"#utility.yul\":15684:15803   */\n      iszero\n      tag_730\n      jumpi\n        /* \"#utility.yul\":15722:15801   */\n      tag_731\n      tag_477\n      jump\t// in\n    tag_731:\n        /* \"#utility.yul\":15684:15803   */\n    tag_730:\n        /* \"#utility.yul\":15870:15871   */\n      0x00\n        /* \"#utility.yul\":15859:15868   */\n      dup4\n        /* \"#utility.yul\":15855:15872   */\n      add\n        /* \"#utility.yul\":15842:15873   */\n      calldataload\n        /* \"#utility.yul\":15900:15918   */\n      0xffffffffffffffff\n        /* \"#utility.yul\":15892:15898   */\n      dup2\n        /* \"#utility.yul\":15889:15919   */\n      gt\n        /* \"#utility.yul\":15886:16003   */\n      iszero\n      tag_732\n      jumpi\n        /* \"#utility.yul\":15922:16001   */\n      tag_733\n      tag_478\n      jump\t// in\n    tag_733:\n        /* \"#utility.yul\":15886:16003   */\n    tag_732:\n        /* \"#utility.yul\":16027:16090   */\n      tag_734\n        /* \"#utility.yul\":16082:16089   */\n      dup6\n        /* \"#utility.yul\":16073:16079   */\n      dup3\n        /* \"#utility.yul\":16062:16071   */\n      dup7\n        /* \"#utility.yul\":16058:16080   */\n      add\n        /* \"#utility.yul\":16027:16090   */\n      tag_487\n      jump\t// in\n    tag_734:\n        /* \"#utility.yul\":16017:16090   */\n      swap3\n      pop\n        /* \"#utility.yul\":15813:16100   */\n      pop\n        /* \"#utility.yul\":16167:16169   */\n      0x20\n        /* \"#utility.yul\":16156:16165   */\n      dup4\n        /* \"#utility.yul\":16152:16170   */\n      add\n        /* \"#utility.yul\":16139:16171   */\n      calldataload\n        /* \"#utility.yul\":16198:16216   */\n      0xffffffffffffffff\n        /* \"#utility.yul\":16190:16196   */\n      dup2\n        /* \"#utility.yul\":16187:16217   */\n      gt\n        /* \"#utility.yul\":16184:16301   */\n      iszero\n      tag_735\n      jumpi\n        /* \"#utility.yul\":16220:16299   */\n      tag_736\n      tag_478\n      jump\t// in\n    tag_736:\n        /* \"#utility.yul\":16184:16301   */\n    tag_735:\n        /* \"#utility.yul\":16325:16388   */\n      tag_737\n        /* \"#utility.yul\":16380:16387   */\n      dup6\n        /* \"#utility.yul\":16371:16377   */\n      dup3\n        /* \"#utility.yul\":16360:16369   */\n      dup7\n        /* \"#utility.yul\":16356:16378   */\n      add\n        /* \"#utility.yul\":16325:16388   */\n      tag_487\n      jump\t// in\n    tag_737:\n        /* \"#utility.yul\":16315:16388   */\n      swap2\n      pop\n        /* \"#utility.yul\":16110:16398   */\n      pop\n        /* \"#utility.yul\":15571:16405   */\n      swap3\n      pop\n      swap3\n      swap1\n      pop\n      jump\t// out\n        /* \"#utility.yul\":16411:16529   */\n    tag_505:\n        /* \"#utility.yul\":16498:16522   */\n      tag_739\n        /* \"#utility.yul\":16516:16521   */\n      dup2\n        /* \"#utility.yul\":16498:16522   */\n      tag_490\n      jump\t// in\n    tag_739:\n        /* \"#utility.yul\":16493:16496   */\n      dup3\n        /* \"#utility.yul\":16486:16523   */\n      mstore\n        /* \"#utility.yul\":16411:16529   */\n      pop\n      pop\n      jump\t// out\n        /* \"#utility.yul\":16535:16757   */\n    tag_52:\n        /* \"#utility.yul\":16628:16632   */\n      0x00\n        /* \"#utility.yul\":16666:16668   */\n      0x20\n        /* \"#utility.yul\":16655:16664   */\n      dup3\n        /* \"#utility.yul\":16651:16669   */\n      add\n        /* \"#utility.yul\":16643:16669   */\n      swap1\n      pop\n        /* \"#utility.yul\":16679:16750   */\n      tag_741\n        /* \"#utility.yul\":16747:16748   */\n      0x00\n        /* \"#utility.yul\":16736:16745   */\n      dup4\n        /* \"#utility.yul\":16732:16749   */\n      add\n        /* \"#utility.yul\":16723:16729   */\n      dup5\n        /* \"#utility.yul\":16679:16750   */\n      tag_505\n      jump\t// in\n    tag_741:\n        /* \"#utility.yul\":16535:16757   */\n      swap3\n      swap2\n      pop\n      pop\n      jump\t// out\n        /* \"#utility.yul\":16763:16887   */\n    tag_506:\n        /* \"#utility.yul\":16840:16846   */\n      0x00\n        /* \"#utility.yul\":16874:16879   */\n      dup2\n        /* \"#utility.yul\":16868:16880   */\n      mload\n        /* \"#utility.yul\":16858:16880   */\n      swap1\n      pop\n        /* \"#utility.yul\":16763:16887   */\n      swap2\n      swap1\n      pop\n      jump\t// out\n        /* \"#utility.yul\":16893:17087   */\n    tag_507:\n        /* \"#utility.yul\":17002:17013   */\n      0x00\n        /* \"#utility.yul\":17036:17042   */\n      dup3\n        /* \"#utility.yul\":17031:17034   */\n      dup3\n        /* \"#utility.yul\":17024:17043   */\n      mstore\n        /* \"#utility.yul\":17076:17080   */\n      0x20\n        /* \"#utility.yul\":17071:17074   */\n      dup3\n        /* \"#utility.yul\":17067:17081   */\n      add\n        /* \"#utility.yul\":17052:17081   */\n      swap1\n      pop\n        /* \"#utility.yul\":16893:17087   */\n      swap3\n      swap2\n      pop\n      pop\n      jump\t// out\n        /* \"#utility.yul\":17093:17235   */\n    tag_508:\n        /* \"#utility.yul\":17170:17174   */\n      0x00\n        /* \"#utility.yul\":17193:17196   */\n      dup2\n        /* \"#utility.yul\":17185:17196   */\n      swap1\n      pop\n        /* \"#utility.yul\":17223:17227   */\n      0x20\n        /* \"#utility.yul\":17218:17221   */\n      dup3\n        /* \"#utility.yul\":17214:17228   */\n      add\n        /* \"#utility.yul\":17206:17228   */\n      swap1\n      pop\n        /* \"#utility.yul\":17093:17235   */\n      swap2\n      swap1\n      pop\n      jump\t// out\n        /* \"#utility.yul\":17241:17340   */\n    tag_509:\n        /* \"#utility.yul\":17293:17299   */\n      0x00\n        /* \"#utility.yul\":17327:17332   */\n      dup2\n        /* \"#utility.yul\":17321:17333   */\n      mload\n        /* \"#utility.yul\":17311:17333   */\n      swap1\n      pop\n        /* \"#utility.yul\":17241:17340   */\n      swap2\n      swap1\n      pop\n      jump\t// out\n        /* \"#utility.yul\":17346:17505   */\n    tag_510:\n        /* \"#utility.yul\":17420:17431   */\n      0x00\n        /* \"#utility.yul\":17454:17460   */\n      dup3\n        /* \"#utility.yul\":17449:17452   */\n      dup3\n        /* \"#utility.yul\":17442:17461   */\n      mstore\n        /* \"#utility.yul\":17494:17498   */\n      0x20\n        /* \"#utility.yul\":17489:17492   */\n      dup3\n        /* \"#utility.yul\":17485:17499   */\n      add\n        /* \"#utility.yul\":17470:17499   */\n      swap1\n      pop\n        /* \"#utility.yul\":17346:17505   */\n      swap3\n      swap2\n      pop\n      pop\n      jump\t// out\n        /* \"#utility.yul\":17511:17650   */\n    tag_511:\n        /* \"#utility.yul\":17600:17606   */\n      dup3\n        /* \"#utility.yul\":17595:17598   */\n      dup2\n        /* \"#utility.yul\":17590:17593   */\n      dup4\n        /* \"#utility.yul\":17584:17607   */\n      mcopy\n        /* \"#utility.yul\":17641:17642   */\n      0x00\n        /* \"#utility.yul\":17632:17638   */\n      dup4\n        /* \"#utility.yul\":17627:17630   */\n      dup4\n        /* \"#utility.yul\":17623:17639   */\n      add\n        /* \"#utility.yul\":17616:17643   */\n      mstore\n        /* \"#utility.yul\":17511:17650   */\n      pop\n      pop\n      pop\n      jump\t// out\n        /* \"#utility.yul\":17656:18013   */\n    tag_512:\n        /* \"#utility.yul\":17734:17737   */\n      0x00\n        /* \"#utility.yul\":17762:17801   */\n      tag_749\n        /* \"#utility.yul\":17795:17800   */\n      dup3\n        /* \"#utility.yul\":17762:17801   */\n      tag_509\n      jump\t// in\n    tag_749:\n        /* \"#utility.yul\":17817:17878   */\n      tag_750\n        /* \"#utility.yul\":17871:17877   */\n      dup2\n        /* \"#utility.yul\":17866:17869   */\n      dup6\n        /* \"#utility.yul\":17817:17878   */\n      tag_510\n      jump\t// in\n    tag_750:\n        /* \"#utility.yul\":17810:17878   */\n      swap4\n      pop\n        /* \"#utility.yul\":17887:17952   */\n      tag_751\n        /* \"#utility.yul\":17945:17951   */\n      dup2\n        /* \"#utility.yul\":17940:17943   */\n      dup6\n        /* \"#utility.yul\":17933:17937   */\n      0x20\n        /* \"#utility.yul\":17926:17931   */\n      dup7\n        /* \"#utility.yul\":17922:17938   */\n      add\n        /* \"#utility.yul\":17887:17952   */\n      tag_511\n      jump\t// in\n    tag_751:\n        /* \"#utility.yul\":17977:18006   */\n      tag_752\n        /* \"#utility.yul\":17999:18005   */\n      dup2\n        /* \"#utility.yul\":17977:18006   */\n      tag_481\n      jump\t// in\n    tag_752:\n        /* \"#utility.yul\":17972:17975   */\n      dup5\n        /* \"#utility.yul\":17968:18007   */\n      add\n        /* \"#utility.yul\":17961:18007   */\n      swap2\n      pop\n        /* \"#utility.yul\":17738:18013   */\n      pop\n        /* \"#utility.yul\":17656:18013   */\n      swap3\n      swap2\n      pop\n      pop\n      jump\t// out\n        /* \"#utility.yul\":18019:18215   */\n    tag_513:\n        /* \"#utility.yul\":18108:18118   */\n      0x00\n        /* \"#utility.yul\":18143:18209   */\n      tag_754\n        /* \"#utility.yul\":18205:18208   */\n      dup4\n        /* \"#utility.yul\":18197:18203   */\n      dup4\n        /* \"#utility.yul\":18143:18209   */\n      tag_512\n      jump\t// in\n    tag_754:\n        /* \"#utility.yul\":18129:18209   */\n      swap1\n      pop\n        /* \"#utility.yul\":18019:18215   */\n      swap3\n      swap2\n      pop\n      pop\n      jump\t// out\n        /* \"#utility.yul\":18221:18344   */\n    tag_514:\n        /* \"#utility.yul\":18301:18305   */\n      0x00\n        /* \"#utility.yul\":18333:18337   */\n      0x20\n        /* \"#utility.yul\":18328:18331   */\n      dup3\n        /* \"#utility.yul\":18324:18338   */\n      add\n        /* \"#utility.yul\":18316:18338   */\n      swap1\n      pop\n        /* \"#utility.yul\":18221:18344   */\n      swap2\n      swap1\n      pop\n      jump\t// out\n        /* \"#utility.yul\":18378:19369   */\n    tag_515:\n        /* \"#utility.yul\":18517:18520   */\n      0x00\n        /* \"#utility.yul\":18546:18610   */\n      tag_757\n        /* \"#utility.yul\":18604:18609   */\n      dup3\n        /* \"#utility.yul\":18546:18610   */\n      tag_506\n      jump\t// in\n    tag_757:\n        /* \"#utility.yul\":18626:18722   */\n      tag_758\n        /* \"#utility.yul\":18715:18721   */\n      dup2\n        /* \"#utility.yul\":18710:18713   */\n      dup6\n        /* \"#utility.yul\":18626:18722   */\n      tag_507\n      jump\t// in\n    tag_758:\n        /* \"#utility.yul\":18619:18722   */\n      swap4\n      pop\n        /* \"#utility.yul\":18748:18751   */\n      dup4\n        /* \"#utility.yul\":18793:18797   */\n      0x20\n        /* \"#utility.yul\":18785:18791   */\n      dup3\n        /* \"#utility.yul\":18781:18798   */\n      mul\n        /* \"#utility.yul\":18776:18779   */\n      dup6\n        /* \"#utility.yul\":18772:18799   */\n      add\n        /* \"#utility.yul\":18823:18889   */\n      tag_759\n        /* \"#utility.yul\":18883:18888   */\n      dup6\n        /* \"#utility.yul\":18823:18889   */\n      tag_508\n      jump\t// in\n    tag_759:\n        /* \"#utility.yul\":18912:18919   */\n      dup1\n        /* \"#utility.yul\":18943:18944   */\n      0x00\n        /* \"#utility.yul\":18928:19324   */\n    tag_760:\n        /* \"#utility.yul\":18953:18959   */\n      dup6\n        /* \"#utility.yul\":18950:18951   */\n      dup2\n        /* \"#utility.yul\":18947:18960   */\n      lt\n        /* \"#utility.yul\":18928:19324   */\n      iszero\n      tag_762\n      jumpi\n        /* \"#utility.yul\":19024:19033   */\n      dup5\n        /* \"#utility.yul\":19018:19022   */\n      dup5\n        /* \"#utility.yul\":19014:19034   */\n      sub\n        /* \"#utility.yul\":19009:19012   */\n      dup10\n        /* \"#utility.yul\":19002:19035   */\n      mstore\n        /* \"#utility.yul\":19075:19081   */\n      dup2\n        /* \"#utility.yul\":19069:19082   */\n      mload\n        /* \"#utility.yul\":19103:19187   */\n      tag_763\n        /* \"#utility.yul\":19182:19186   */\n      dup6\n        /* \"#utility.yul\":19167:19180   */\n      dup3\n        /* \"#utility.yul\":19103:19187   */\n      tag_513\n      jump\t// in\n    tag_763:\n        /* \"#utility.yul\":19095:19187   */\n      swap5\n      pop\n        /* \"#utility.yul\":19210:19280   */\n      tag_764\n        /* \"#utility.yul\":19273:19279   */\n      dup4\n        /* \"#utility.yul\":19210:19280   */\n      tag_514\n      jump\t// in\n    tag_764:\n        /* \"#utility.yul\":19200:19280   */\n      swap3\n      pop\n        /* \"#utility.yul\":19309:19313   */\n      0x20\n        /* \"#utility.yul\":19304:19307   */\n      dup11\n        /* \"#utility.yul\":19300:19314   */\n      add\n        /* \"#utility.yul\":19293:19314   */\n      swap10\n      pop\n        /* \"#utility.yul\":18988:19324   */\n      pop\n        /* \"#utility.yul\":18975:18976   */\n      0x01\n        /* \"#utility.yul\":18972:18973   */\n      dup2\n        /* \"#utility.yul\":18968:18977   */\n      add\n        /* \"#utility.yul\":18963:18977   */\n      swap1\n      pop\n        /* \"#utility.yul\":18928:19324   */\n      jump(tag_760)\n    tag_762:\n        /* \"#utility.yul\":18932:18946   */\n      pop\n        /* \"#utility.yul\":19340:19344   */\n      dup3\n        /* \"#utility.yul\":19333:19344   */\n      swap8\n      pop\n        /* \"#utility.yul\":19360:19363   */\n      dup8\n        /* \"#utility.yul\":19353:19363   */\n      swap6\n      pop\n        /* \"#utility.yul\":18522:19369   */\n      pop\n      pop\n      pop\n      pop\n      pop\n        /* \"#utility.yul\":18378:19369   */\n      swap3\n      swap2\n      pop\n      pop\n      jump\t// out\n        /* \"#utility.yul\":19375:19788   */\n    tag_57:\n        /* \"#utility.yul\":19538:19542   */\n      0x00\n        /* \"#utility.yul\":19576:19578   */\n      0x20\n        /* \"#utility.yul\":19565:19574   */\n      dup3\n        /* \"#utility.yul\":19561:19579   */\n      add\n        /* \"#utility.yul\":19553:19579   */\n      swap1\n      pop\n        /* \"#utility.yul\":19625:19634   */\n      dup2\n        /* \"#utility.yul\":19619:19623   */\n      dup2\n        /* \"#utility.yul\":19615:19635   */\n      sub\n        /* \"#utility.yul\":19611:19612   */\n      0x00\n        /* \"#utility.yul\":19600:19609   */\n      dup4\n        /* \"#utility.yul\":19596:19613   */\n      add\n        /* \"#utility.yul\":19589:19636   */\n      mstore\n        /* \"#utility.yul\":19653:19781   */\n      tag_766\n        /* \"#utility.yul\":19776:19780   */\n      dup2\n        /* \"#utility.yul\":19767:19773   */\n      dup5\n        /* \"#utility.yul\":19653:19781   */\n      tag_515\n      jump\t// in\n    tag_766:\n        /* \"#utility.yul\":19645:19781   */\n      swap1\n      pop\n        /* \"#utility.yul\":19375:19788   */\n      swap3\n      swap2\n      pop\n      pop\n      jump\t// out\n        /* \"#utility.yul\":19794:20123   */\n    tag_60:\n        /* \"#utility.yul\":19853:19859   */\n      0x00\n        /* \"#utility.yul\":19902:19904   */\n      0x20\n        /* \"#utility.yul\":19890:19899   */\n      dup3\n        /* \"#utility.yul\":19881:19888   */\n      dup5\n        /* \"#utility.yul\":19877:19900   */\n      sub\n        /* \"#utility.yul\":19873:19905   */\n      slt\n        /* \"#utility.yul\":19870:19989   */\n      iszero\n      tag_768\n      jumpi\n        /* \"#utility.yul\":19908:19987   */\n      tag_769\n      tag_477\n      jump\t// in\n    tag_769:\n        /* \"#utility.yul\":19870:19989   */\n    tag_768:\n        /* \"#utility.yul\":20028:20029   */\n      0x00\n        /* \"#utility.yul\":20053:20106   */\n      tag_770\n        /* \"#utility.yul\":20098:20105   */\n      dup5\n        /* \"#utility.yul\":20089:20095   */\n      dup3\n        /* \"#utility.yul\":20078:20087   */\n      dup6\n        /* \"#utility.yul\":20074:20096   */\n      add\n        /* \"#utility.yul\":20053:20106   */\n      tag_492\n      jump\t// in\n    tag_770:\n        /* \"#utility.yul\":20043:20106   */\n      swap2\n      pop\n        /* \"#utility.yul\":19999:20116   */\n      pop\n        /* \"#utility.yul\":19794:20123   */\n      swap3\n      swap2\n      pop\n      pop\n      jump\t// out\n        /* \"#utility.yul\":20129:20298   */\n    tag_516:\n        /* \"#utility.yul\":20213:20224   */\n      0x00\n        /* \"#utility.yul\":20247:20253   */\n      dup3\n        /* \"#utility.yul\":20242:20245   */\n      dup3\n        /* \"#utility.yul\":20235:20254   */\n      mstore\n        /* \"#utility.yul\":20287:20291   */\n      0x20\n        /* \"#utility.yul\":20282:20285   */\n      dup3\n        /* \"#utility.yul\":20278:20292   */\n      add\n        /* \"#utility.yul\":20263:20292   */\n      swap1\n      pop\n        /* \"#utility.yul\":20129:20298   */\n      swap3\n      swap2\n      pop\n      pop\n      jump\t// out\n        /* \"#utility.yul\":20304:20681   */\n    tag_517:\n        /* \"#utility.yul\":20392:20395   */\n      0x00\n        /* \"#utility.yul\":20420:20459   */\n      tag_773\n        /* \"#utility.yul\":20453:20458   */\n      dup3\n        /* \"#utility.yul\":20420:20459   */\n      tag_509\n      jump\t// in\n    tag_773:\n        /* \"#utility.yul\":20475:20546   */\n      tag_774\n        /* \"#utility.yul\":20539:20545   */\n      dup2\n        /* \"#utility.yul\":20534:20537   */\n      dup6\n        /* \"#utility.yul\":20475:20546   */\n      tag_516\n      jump\t// in\n    tag_774:\n        /* \"#utility.yul\":20468:20546   */\n      swap4\n      pop\n        /* \"#utility.yul\":20555:20620   */\n      tag_775\n        /* \"#utility.yul\":20613:20619   */\n      dup2\n        /* \"#utility.yul\":20608:20611   */\n      dup6\n        /* \"#utility.yul\":20601:20605   */\n      0x20\n        /* \"#utility.yul\":20594:20599   */\n      dup7\n        /* \"#utility.yul\":20590:20606   */\n      add\n        /* \"#utility.yul\":20555:20620   */\n      tag_511\n      jump\t// in\n    tag_775:\n        /* \"#utility.yul\":20645:20674   */\n      tag_776\n        /* \"#utility.yul\":20667:20673   */\n      dup2\n        /* \"#utility.yul\":20645:20674   */\n      tag_481\n      jump\t// in\n    tag_776:\n        /* \"#utility.yul\":20640:20643   */\n      dup5\n        /* \"#utility.yul\":20636:20675   */\n      add\n        /* \"#utility.yul\":20629:20675   */\n      swap2\n      pop\n        /* \"#utility.yul\":20396:20681   */\n      pop\n        /* \"#utility.yul\":20304:20681   */\n      swap3\n      swap2\n      pop\n      pop\n      jump\t// out\n        /* \"#utility.yul\":20687:21000   */\n    tag_63:\n        /* \"#utility.yul\":20800:20804   */\n      0x00\n        /* \"#utility.yul\":20838:20840   */\n      0x20\n        /* \"#utility.yul\":20827:20836   */\n      dup3\n        /* \"#utility.yul\":20823:20841   */\n      add\n        /* \"#utility.yul\":20815:20841   */\n      swap1\n      pop\n        /* \"#utility.yul\":20887:20896   */\n      dup2\n        /* \"#utility.yul\":20881:20885   */\n      dup2\n        /* \"#utility.yul\":20877:20897   */\n      sub\n        /* \"#utility.yul\":20873:20874   */\n      0x00\n        /* \"#utility.yul\":20862:20871   */\n      dup4\n        /* \"#utility.yul\":20858:20875   */\n      add\n        /* \"#utility.yul\":20851:20898   */\n      mstore\n        /* \"#utility.yul\":20915:20993   */\n      tag_778\n        /* \"#utility.yul\":20988:20992   */\n      dup2\n        /* \"#utility.yul\":20979:20985   */\n      dup5\n        /* \"#utility.yul\":20915:20993   */\n      tag_517\n      jump\t// in\n    tag_778:\n        /* \"#utility.yul\":20907:20993   */\n      swap1\n      pop\n        /* \"#utility.yul\":20687:21000   */\n      swap3\n      swap2\n      pop\n      pop\n      jump\t// out\n        /* \"#utility.yul\":21006:22215   */\n    tag_80:\n        /* \"#utility.yul\":21138:21144   */\n      0x00\n        /* \"#utility.yul\":21146:21152   */\n      dup1\n        /* \"#utility.yul\":21154:21160   */\n      0x00\n        /* \"#utility.yul\":21203:21205   */\n      0x60\n        /* \"#utility.yul\":21191:21200   */\n      dup5\n        /* \"#utility.yul\":21182:21189   */\n      dup7\n        /* \"#utility.yul\":21178:21201   */\n      sub\n        /* \"#utility.yul\":21174:21206   */\n      slt\n        /* \"#utility.yul\":21171:21290   */\n      iszero\n      tag_780\n      jumpi\n        /* \"#utility.yul\":21209:21288   */\n      tag_781\n      tag_477\n      jump\t// in\n    tag_781:\n        /* \"#utility.yul\":21171:21290   */\n    tag_780:\n        /* \"#utility.yul\":21357:21358   */\n      0x00\n        /* \"#utility.yul\":21346:21355   */\n      dup5\n        /* \"#utility.yul\":21342:21359   */\n      add\n        /* \"#utility.yul\":21329:21360   */\n      calldataload\n        /* \"#utility.yul\":21387:21405   */\n      0xffffffffffffffff\n        /* \"#utility.yul\":21379:21385   */\n      dup2\n        /* \"#utility.yul\":21376:21406   */\n      gt\n        /* \"#utility.yul\":21373:21490   */\n      iszero\n      tag_782\n      jumpi\n        /* \"#utility.yul\":21409:21488   */\n      tag_783\n      tag_478\n      jump\t// in\n    tag_783:\n        /* \"#utility.yul\":21373:21490   */\n    tag_782:\n        /* \"#utility.yul\":21514:21577   */\n      tag_784\n        /* \"#utility.yul\":21569:21576   */\n      dup7\n        /* \"#utility.yul\":21560:21566   */\n      dup3\n        /* \"#utility.yul\":21549:21558   */\n      dup8\n        /* \"#utility.yul\":21545:21567   */\n      add\n        /* \"#utility.yul\":21514:21577   */\n      tag_487\n      jump\t// in\n    tag_784:\n        /* \"#utility.yul\":21504:21577   */\n      swap4\n      pop\n        /* \"#utility.yul\":21300:21587   */\n      pop\n        /* \"#utility.yul\":21654:21656   */\n      0x20\n        /* \"#utility.yul\":21643:21652   */\n      dup5\n        /* \"#utility.yul\":21639:21657   */\n      add\n        /* \"#utility.yul\":21626:21658   */\n      calldataload\n        /* \"#utility.yul\":21685:21703   */\n      0xffffffffffffffff\n        /* \"#utility.yul\":21677:21683   */\n      dup2\n        /* \"#utility.yul\":21674:21704   */\n      gt\n        /* \"#utility.yul\":21671:21788   */\n      iszero\n      tag_785\n      jumpi\n        /* \"#utility.yul\":21707:21786   */\n      tag_786\n      tag_478\n      jump\t// in\n    tag_786:\n        /* \"#utility.yul\":21671:21788   */\n    tag_785:\n        /* \"#utility.yul\":21812:21875   */\n      tag_787\n        /* \"#utility.yul\":21867:21874   */\n      dup7\n        /* \"#utility.yul\":21858:21864   */\n      dup3\n        /* \"#utility.yul\":21847:21856   */\n      dup8\n        /* \"#utility.yul\":21843:21865   */\n      add\n        /* \"#utility.yul\":21812:21875   */\n      tag_487\n      jump\t// in\n    tag_787:\n        /* \"#utility.yul\":21802:21875   */\n      swap3\n      pop\n        /* \"#utility.yul\":21597:21885   */\n      pop\n        /* \"#utility.yul\":21952:21954   */\n      0x40\n        /* \"#utility.yul\":21941:21950   */\n      dup5\n        /* \"#utility.yul\":21937:21955   */\n      add\n        /* \"#utility.yul\":21924:21956   */\n      calldataload\n        /* \"#utility.yul\":21983:22001   */\n      0xffffffffffffffff\n        /* \"#utility.yul\":21975:21981   */\n      dup2\n        /* \"#utility.yul\":21972:22002   */\n      gt\n        /* \"#utility.yul\":21969:22086   */\n      iszero\n      tag_788\n      jumpi\n        /* \"#utility.yul\":22005:22084   */\n      tag_789\n      tag_478\n      jump\t// in\n    tag_789:\n        /* \"#utility.yul\":21969:22086   */\n    tag_788:\n        /* \"#utility.yul\":22110:22198   */\n      tag_790\n        /* \"#utility.yul\":22190:22197   */\n      dup7\n        /* \"#utility.yul\":22181:22187   */\n      dup3\n        /* \"#utility.yul\":22170:22179   */\n      dup8\n        /* \"#utility.yul\":22166:22188   */\n      add\n        /* \"#utility.yul\":22110:22198   */\n      tag_499\n      jump\t// in\n    tag_790:\n        /* \"#utility.yul\":22100:22198   */\n      swap2\n      pop\n        /* \"#utility.yul\":21895:22208   */\n      pop\n        /* \"#utility.yul\":21006:22215   */\n      swap3\n      pop\n      swap3\n      pop\n      swap3\n      jump\t// out\n        /* \"#utility.yul\":22221:22730   */\n    tag_84:\n        /* \"#utility.yul\":22290:22296   */\n      0x00\n        /* \"#utility.yul\":22339:22341   */\n      0x20\n        /* \"#utility.yul\":22327:22336   */\n      dup3\n        /* \"#utility.yul\":22318:22325   */\n      dup5\n        /* \"#utility.yul\":22314:22337   */\n      sub\n        /* \"#utility.yul\":22310:22342   */\n      slt\n        /* \"#utility.yul\":22307:22426   */\n      iszero\n      tag_792\n      jumpi\n        /* \"#utility.yul\":22345:22424   */\n      tag_793\n      tag_477\n      jump\t// in\n    tag_793:\n        /* \"#utility.yul\":22307:22426   */\n    tag_792:\n        /* \"#utility.yul\":22493:22494   */\n      0x00\n        /* \"#utility.yul\":22482:22491   */\n      dup3\n        /* \"#utility.yul\":22478:22495   */\n      add\n        /* \"#utility.yul\":22465:22496   */\n      calldataload\n        /* \"#utility.yul\":22523:22541   */\n      0xffffffffffffffff\n        /* \"#utility.yul\":22515:22521   */\n      dup2\n        /* \"#utility.yul\":22512:22542   */\n      gt\n        /* \"#utility.yul\":22509:22626   */\n      iszero\n      tag_794\n      jumpi\n        /* \"#utility.yul\":22545:22624   */\n      tag_795\n      tag_478\n      jump\t// in\n    tag_795:\n        /* \"#utility.yul\":22509:22626   */\n    tag_794:\n        /* \"#utility.yul\":22650:22713   */\n      tag_796\n        /* \"#utility.yul\":22705:22712   */\n      dup5\n        /* \"#utility.yul\":22696:22702   */\n      dup3\n        /* \"#utility.yul\":22685:22694   */\n      dup6\n        /* \"#utility.yul\":22681:22703   */\n      add\n        /* \"#utility.yul\":22650:22713   */\n      tag_487\n      jump\t// in\n    tag_796:\n        /* \"#utility.yul\":22640:22713   */\n      swap2\n      pop\n        /* \"#utility.yul\":22436:22723   */\n      pop\n        /* \"#utility.yul\":22221:22730   */\n      swap3\n      swap2\n      pop\n      pop\n      jump\t// out\n        /* \"#utility.yul\":22736:24398   */\n    tag_87:\n        /* \"#utility.yul\":23175:23179   */\n      0x00\n        /* \"#utility.yul\":23213:23216   */\n      0x0140\n        /* \"#utility.yul\":23202:23211   */\n      dup3\n        /* \"#utility.yul\":23198:23217   */\n      add\n        /* \"#utility.yul\":23190:23217   */\n      swap1\n      pop\n        /* \"#utility.yul\":23263:23272   */\n      dup2\n        /* \"#utility.yul\":23257:23261   */\n      dup2\n        /* \"#utility.yul\":23253:23273   */\n      sub\n        /* \"#utility.yul\":23249:23250   */\n      0x00\n        /* \"#utility.yul\":23238:23247   */\n      dup4\n        /* \"#utility.yul\":23234:23251   */\n      add\n        /* \"#utility.yul\":23227:23274   */\n      mstore\n        /* \"#utility.yul\":23291:23369   */\n      tag_798\n        /* \"#utility.yul\":23364:23368   */\n      dup2\n        /* \"#utility.yul\":23355:23361   */\n      dup14\n        /* \"#utility.yul\":23291:23369   */\n      tag_517\n      jump\t// in\n    tag_798:\n        /* \"#utility.yul\":23283:23369   */\n      swap1\n      pop\n        /* \"#utility.yul\":23416:23425   */\n      dup2\n        /* \"#utility.yul\":23410:23414   */\n      dup2\n        /* \"#utility.yul\":23406:23426   */\n      sub\n        /* \"#utility.yul\":23401:23403   */\n      0x20\n        /* \"#utility.yul\":23390:23399   */\n      dup4\n        /* \"#utility.yul\":23386:23404   */\n      add\n        /* \"#utility.yul\":23379:23427   */\n      mstore\n        /* \"#utility.yul\":23444:23522   */\n      tag_799\n        /* \"#utility.yul\":23517:23521   */\n      dup2\n        /* \"#utility.yul\":23508:23514   */\n      dup13\n        /* \"#utility.yul\":23444:23522   */\n      tag_517\n      jump\t// in\n    tag_799:\n        /* \"#utility.yul\":23436:23522   */\n      swap1\n      pop\n        /* \"#utility.yul\":23569:23578   */\n      dup2\n        /* \"#utility.yul\":23563:23567   */\n      dup2\n        /* \"#utility.yul\":23559:23579   */\n      sub\n        /* \"#utility.yul\":23554:23556   */\n      0x40\n        /* \"#utility.yul\":23543:23552   */\n      dup4\n        /* \"#utility.yul\":23539:23557   */\n      add\n        /* \"#utility.yul\":23532:23580   */\n      mstore\n        /* \"#utility.yul\":23597:23675   */\n      tag_800\n        /* \"#utility.yul\":23670:23674   */\n      dup2\n        /* \"#utility.yul\":23661:23667   */\n      dup12\n        /* \"#utility.yul\":23597:23675   */\n      tag_517\n      jump\t// in\n    tag_800:\n        /* \"#utility.yul\":23589:23675   */\n      swap1\n      pop\n        /* \"#utility.yul\":23722:23731   */\n      dup2\n        /* \"#utility.yul\":23716:23720   */\n      dup2\n        /* \"#utility.yul\":23712:23732   */\n      sub\n        /* \"#utility.yul\":23707:23709   */\n      0x60\n        /* \"#utility.yul\":23696:23705   */\n      dup4\n        /* \"#utility.yul\":23692:23710   */\n      add\n        /* \"#utility.yul\":23685:23733   */\n      mstore\n        /* \"#utility.yul\":23750:23828   */\n      tag_801\n        /* \"#utility.yul\":23823:23827   */\n      dup2\n        /* \"#utility.yul\":23814:23820   */\n      dup11\n        /* \"#utility.yul\":23750:23828   */\n      tag_517\n      jump\t// in\n    tag_801:\n        /* \"#utility.yul\":23742:23828   */\n      swap1\n      pop\n        /* \"#utility.yul\":23876:23885   */\n      dup2\n        /* \"#utility.yul\":23870:23874   */\n      dup2\n        /* \"#utility.yul\":23866:23886   */\n      sub\n        /* \"#utility.yul\":23860:23863   */\n      0x80\n        /* \"#utility.yul\":23849:23858   */\n      dup4\n        /* \"#utility.yul\":23845:23864   */\n      add\n        /* \"#utility.yul\":23838:23887   */\n      mstore\n        /* \"#utility.yul\":23904:23982   */\n      tag_802\n        /* \"#utility.yul\":23977:23981   */\n      dup2\n        /* \"#utility.yul\":23968:23974   */\n      dup10\n        /* \"#utility.yul\":23904:23982   */\n      tag_517\n      jump\t// in\n    tag_802:\n        /* \"#utility.yul\":23896:23982   */\n      swap1\n      pop\n        /* \"#utility.yul\":23992:24065   */\n      tag_803\n        /* \"#utility.yul\":24060:24063   */\n      0xa0\n        /* \"#utility.yul\":24049:24058   */\n      dup4\n        /* \"#utility.yul\":24045:24064   */\n      add\n        /* \"#utility.yul\":24036:24042   */\n      dup9\n        /* \"#utility.yul\":23992:24065   */\n      tag_505\n      jump\t// in\n    tag_803:\n        /* \"#utility.yul\":24075:24148   */\n      tag_804\n        /* \"#utility.yul\":24143:24146   */\n      0xc0\n        /* \"#utility.yul\":24132:24141   */\n      dup4\n        /* \"#utility.yul\":24128:24147   */\n      add\n        /* \"#utility.yul\":24119:24125   */\n      dup8\n        /* \"#utility.yul\":24075:24148   */\n      tag_505\n      jump\t// in\n    tag_804:\n        /* \"#utility.yul\":24158:24231   */\n      tag_805\n        /* \"#utility.yul\":24226:24229   */\n      0xe0\n        /* \"#utility.yul\":24215:24224   */\n      dup4\n        /* \"#utility.yul\":24211:24230   */\n      add\n        /* \"#utility.yul\":24202:24208   */\n      dup7\n        /* \"#utility.yul\":24158:24231   */\n      tag_505\n      jump\t// in\n    tag_805:\n        /* \"#utility.yul\":24241:24314   */\n      tag_806\n        /* \"#utility.yul\":24309:24312   */\n      0x0100\n        /* \"#utility.yul\":24298:24307   */\n      dup4\n        /* \"#utility.yul\":24294:24313   */\n      add\n        /* \"#utility.yul\":24285:24291   */\n      dup6\n        /* \"#utility.yul\":24241:24314   */\n      tag_505\n      jump\t// in\n    tag_806:\n        /* \"#utility.yul\":24324:24391   */\n      tag_807\n        /* \"#utility.yul\":24386:24389   */\n      0x0120\n        /* \"#utility.yul\":24375:24384   */\n      dup4\n        /* \"#utility.yul\":24371:24390   */\n      add\n        /* \"#utility.yul\":24362:24368   */\n      dup5\n        /* \"#utility.yul\":24324:24391   */\n      tag_489\n      jump\t// in\n    tag_807:\n        /* \"#utility.yul\":22736:24398   */\n      swap12\n      swap11\n      pop\n      pop\n      pop\n      pop\n      pop\n      pop\n      pop\n      pop\n      pop\n      pop\n      pop\n      jump\t// out\n        /* \"#utility.yul\":24404:24512   */\n    tag_518:\n        /* \"#utility.yul\":24481:24505   */\n      tag_809\n        /* \"#utility.yul\":24499:24504   */\n      dup2\n        /* \"#utility.yul\":24481:24505   */\n      tag_490\n      jump\t// in\n    tag_809:\n        /* \"#utility.yul\":24476:24479   */\n      dup3\n        /* \"#utility.yul\":24469:24506   */\n      mstore\n        /* \"#utility.yul\":24404:24512   */\n      pop\n      pop\n      jump\t// out\n        /* \"#utility.yul\":24518:24702   */\n    tag_519:\n        /* \"#utility.yul\":24617:24628   */\n      0x00\n        /* \"#utility.yul\":24651:24657   */\n      dup3\n        /* \"#utility.yul\":24646:24649   */\n      dup3\n        /* \"#utility.yul\":24639:24658   */\n      mstore\n        /* \"#utility.yul\":24691:24695   */\n      0x20\n        /* \"#utility.yul\":24686:24689   */\n      dup3\n        /* \"#utility.yul\":24682:24696   */\n      add\n        /* \"#utility.yul\":24667:24696   */\n      swap1\n      pop\n        /* \"#utility.yul\":24518:24702   */\n      swap3\n      swap2\n      pop\n      pop\n      jump\t// out\n        /* \"#utility.yul\":24736:25707   */\n    tag_520:\n        /* \"#utility.yul\":24865:24868   */\n      0x00\n        /* \"#utility.yul\":24894:24958   */\n      tag_812\n        /* \"#utility.yul\":24952:24957   */\n      dup3\n        /* \"#utility.yul\":24894:24958   */\n      tag_506\n      jump\t// in\n    tag_812:\n        /* \"#utility.yul\":24974:25060   */\n      tag_813\n        /* \"#utility.yul\":25053:25059   */\n      dup2\n        /* \"#utility.yul\":25048:25051   */\n      dup6\n        /* \"#utility.yul\":24974:25060   */\n      tag_519\n      jump\t// in\n    tag_813:\n        /* \"#utility.yul\":24967:25060   */\n      swap4\n      pop\n        /* \"#utility.yul\":25086:25089   */\n      dup4\n        /* \"#utility.yul\":25131:25135   */\n      0x20\n        /* \"#utility.yul\":25123:25129   */\n      dup3\n        /* \"#utility.yul\":25119:25136   */\n      mul\n        /* \"#utility.yul\":25114:25117   */\n      dup6\n        /* \"#utility.yul\":25110:25137   */\n      add\n        /* \"#utility.yul\":25161:25227   */\n      tag_814\n        /* \"#utility.yul\":25221:25226   */\n      dup6\n        /* \"#utility.yul\":25161:25227   */\n      tag_508\n      jump\t// in\n    tag_814:\n        /* \"#utility.yul\":25250:25257   */\n      dup1\n        /* \"#utility.yul\":25281:25282   */\n      0x00\n        /* \"#utility.yul\":25266:25662   */\n    tag_815:\n        /* \"#utility.yul\":25291:25297   */\n      dup6\n        /* \"#utility.yul\":25288:25289   */\n      dup2\n        /* \"#utility.yul\":25285:25298   */\n      lt\n        /* \"#utility.yul\":25266:25662   */\n      iszero\n      tag_817\n      jumpi\n        /* \"#utility.yul\":25362:25371   */\n      dup5\n        /* \"#utility.yul\":25356:25360   */\n      dup5\n        /* \"#utility.yul\":25352:25372   */\n      sub\n        /* \"#utility.yul\":25347:25350   */\n      dup10\n        /* \"#utility.yul\":25340:25373   */\n      mstore\n        /* \"#utility.yul\":25413:25419   */\n      dup2\n        /* \"#utility.yul\":25407:25420   */\n      mload\n        /* \"#utility.yul\":25441:25525   */\n      tag_818\n        /* \"#utility.yul\":25520:25524   */\n      dup6\n        /* \"#utility.yul\":25505:25518   */\n      dup3\n        /* \"#utility.yul\":25441:25525   */\n      tag_513\n      jump\t// in\n    tag_818:\n        /* \"#utility.yul\":25433:25525   */\n      swap5\n      pop\n        /* \"#utility.yul\":25548:25618   */\n      tag_819\n        /* \"#utility.yul\":25611:25617   */\n      dup4\n        /* \"#utility.yul\":25548:25618   */\n      tag_514\n      jump\t// in\n    tag_819:\n        /* \"#utility.yul\":25538:25618   */\n      swap3\n      pop\n        /* \"#utility.yul\":25647:25651   */\n      0x20\n        /* \"#utility.yul\":25642:25645   */\n      dup11\n        /* \"#utility.yul\":25638:25652   */\n      add\n        /* \"#utility.yul\":25631:25652   */\n      swap10\n      pop\n        /* \"#utility.yul\":25326:25662   */\n      pop\n        /* \"#utility.yul\":25313:25314   */\n      0x01\n        /* \"#utility.yul\":25310:25311   */\n      dup2\n        /* \"#utility.yul\":25306:25315   */\n      add\n        /* \"#utility.yul\":25301:25315   */\n      swap1\n      pop\n        /* \"#utility.yul\":25266:25662   */\n      jump(tag_815)\n    tag_817:\n        /* \"#utility.yul\":25270:25284   */\n      pop\n        /* \"#utility.yul\":25678:25682   */\n      dup3\n        /* \"#utility.yul\":25671:25682   */\n      swap8\n      pop\n        /* \"#utility.yul\":25698:25701   */\n      dup8\n        /* \"#utility.yul\":25691:25701   */\n      swap6\n      pop\n        /* \"#utility.yul\":24870:25707   */\n      pop\n      pop\n      pop\n      pop\n      pop\n        /* \"#utility.yul\":24736:25707   */\n      swap3\n      swap2\n      pop\n      pop\n      jump\t// out\n        /* \"#utility.yul\":25713:25812   */\n    tag_521:\n        /* \"#utility.yul\":25784:25805   */\n      tag_821\n        /* \"#utility.yul\":25799:25804   */\n      dup2\n        /* \"#utility.yul\":25784:25805   */\n      tag_488\n      jump\t// in\n    tag_821:\n        /* \"#utility.yul\":25779:25782   */\n      dup3\n        /* \"#utility.yul\":25772:25806   */\n      mstore\n        /* \"#utility.yul\":25713:25812   */\n      pop\n      pop\n      jump\t// out\n        /* \"#utility.yul\":25896:28416   */\n    tag_522:\n        /* \"#utility.yul\":26007:26010   */\n      0x00\n        /* \"#utility.yul\":26043:26049   */\n      0x0140\n        /* \"#utility.yul\":26038:26041   */\n      dup4\n        /* \"#utility.yul\":26034:26050   */\n      add\n        /* \"#utility.yul\":26136:26140   */\n      0x00\n        /* \"#utility.yul\":26129:26134   */\n      dup4\n        /* \"#utility.yul\":26125:26141   */\n      add\n        /* \"#utility.yul\":26119:26142   */\n      mload\n        /* \"#utility.yul\":26189:26192   */\n      dup5\n        /* \"#utility.yul\":26183:26187   */\n      dup3\n        /* \"#utility.yul\":26179:26193   */\n      sub\n        /* \"#utility.yul\":26172:26176   */\n      0x00\n        /* \"#utility.yul\":26167:26170   */\n      dup7\n        /* \"#utility.yul\":26163:26177   */\n      add\n        /* \"#utility.yul\":26156:26194   */\n      mstore\n        /* \"#utility.yul\":26215:26288   */\n      tag_823\n        /* \"#utility.yul\":26283:26287   */\n      dup3\n        /* \"#utility.yul\":26269:26281   */\n      dup3\n        /* \"#utility.yul\":26215:26288   */\n      tag_512\n      jump\t// in\n    tag_823:\n        /* \"#utility.yul\":26207:26288   */\n      swap2\n      pop\n        /* \"#utility.yul\":26060:26299   */\n      pop\n        /* \"#utility.yul\":26382:26386   */\n      0x20\n        /* \"#utility.yul\":26375:26380   */\n      dup4\n        /* \"#utility.yul\":26371:26387   */\n      add\n        /* \"#utility.yul\":26365:26388   */\n      mload\n        /* \"#utility.yul\":26435:26438   */\n      dup5\n        /* \"#utility.yul\":26429:26433   */\n      dup3\n        /* \"#utility.yul\":26425:26439   */\n      sub\n        /* \"#utility.yul\":26418:26422   */\n      0x20\n        /* \"#utility.yul\":26413:26416   */\n      dup7\n        /* \"#utility.yul\":26409:26423   */\n      add\n        /* \"#utility.yul\":26402:26440   */\n      mstore\n        /* \"#utility.yul\":26461:26534   */\n      tag_824\n        /* \"#utility.yul\":26529:26533   */\n      dup3\n        /* \"#utility.yul\":26515:26527   */\n      dup3\n        /* \"#utility.yul\":26461:26534   */\n      tag_512\n      jump\t// in\n    tag_824:\n        /* \"#utility.yul\":26453:26534   */\n      swap2\n      pop\n        /* \"#utility.yul\":26309:26545   */\n      pop\n        /* \"#utility.yul\":26634:26638   */\n      0x40\n        /* \"#utility.yul\":26627:26632   */\n      dup4\n        /* \"#utility.yul\":26623:26639   */\n      add\n        /* \"#utility.yul\":26617:26640   */\n      mload\n        /* \"#utility.yul\":26687:26690   */\n      dup5\n        /* \"#utility.yul\":26681:26685   */\n      dup3\n        /* \"#utility.yul\":26677:26691   */\n      sub\n        /* \"#utility.yul\":26670:26674   */\n      0x40\n        /* \"#utility.yul\":26665:26668   */\n      dup7\n        /* \"#utility.yul\":26661:26675   */\n      add\n        /* \"#utility.yul\":26654:26692   */\n      mstore\n        /* \"#utility.yul\":26713:26786   */\n      tag_825\n        /* \"#utility.yul\":26781:26785   */\n      dup3\n        /* \"#utility.yul\":26767:26779   */\n      dup3\n        /* \"#utility.yul\":26713:26786   */\n      tag_512\n      jump\t// in\n    tag_825:\n        /* \"#utility.yul\":26705:26786   */\n      swap2\n      pop\n        /* \"#utility.yul\":26555:26797   */\n      pop\n        /* \"#utility.yul\":26891:26895   */\n      0x60\n        /* \"#utility.yul\":26884:26889   */\n      dup4\n        /* \"#utility.yul\":26880:26896   */\n      add\n        /* \"#utility.yul\":26874:26897   */\n      mload\n        /* \"#utility.yul\":26944:26947   */\n      dup5\n        /* \"#utility.yul\":26938:26942   */\n      dup3\n        /* \"#utility.yul\":26934:26948   */\n      sub\n        /* \"#utility.yul\":26927:26931   */\n      0x60\n        /* \"#utility.yul\":26922:26925   */\n      dup7\n        /* \"#utility.yul\":26918:26932   */\n      add\n        /* \"#utility.yul\":26911:26949   */\n      mstore\n        /* \"#utility.yul\":26970:27043   */\n      tag_826\n        /* \"#utility.yul\":27038:27042   */\n      dup3\n        /* \"#utility.yul\":27024:27036   */\n      dup3\n        /* \"#utility.yul\":26970:27043   */\n      tag_512\n      jump\t// in\n    tag_826:\n        /* \"#utility.yul\":26962:27043   */\n      swap2\n      pop\n        /* \"#utility.yul\":26807:27054   */\n      pop\n        /* \"#utility.yul\":27137:27141   */\n      0x80\n        /* \"#utility.yul\":27130:27135   */\n      dup4\n        /* \"#utility.yul\":27126:27142   */\n      add\n        /* \"#utility.yul\":27120:27143   */\n      mload\n        /* \"#utility.yul\":27156:27219   */\n      tag_827\n        /* \"#utility.yul\":27213:27217   */\n      0x80\n        /* \"#utility.yul\":27208:27211   */\n      dup7\n        /* \"#utility.yul\":27204:27218   */\n      add\n        /* \"#utility.yul\":27190:27202   */\n      dup3\n        /* \"#utility.yul\":27156:27219   */\n      tag_518\n      jump\t// in\n    tag_827:\n        /* \"#utility.yul\":27064:27229   */\n      pop\n        /* \"#utility.yul\":27321:27325   */\n      0xa0\n        /* \"#utility.yul\":27314:27319   */\n      dup4\n        /* \"#utility.yul\":27310:27326   */\n      add\n        /* \"#utility.yul\":27304:27327   */\n      mload\n        /* \"#utility.yul\":27374:27377   */\n      dup5\n        /* \"#utility.yul\":27368:27372   */\n      dup3\n        /* \"#utility.yul\":27364:27378   */\n      sub\n        /* \"#utility.yul\":27357:27361   */\n      0xa0\n        /* \"#utility.yul\":27352:27355   */\n      dup7\n        /* \"#utility.yul\":27348:27362   */\n      add\n        /* \"#utility.yul\":27341:27379   */\n      mstore\n        /* \"#utility.yul\":27400:27523   */\n      tag_828\n        /* \"#utility.yul\":27518:27522   */\n      dup3\n        /* \"#utility.yul\":27504:27516   */\n      dup3\n        /* \"#utility.yul\":27400:27523   */\n      tag_520\n      jump\t// in\n    tag_828:\n        /* \"#utility.yul\":27392:27523   */\n      swap2\n      pop\n        /* \"#utility.yul\":27239:27534   */\n      pop\n        /* \"#utility.yul\":27623:27627   */\n      0xc0\n        /* \"#utility.yul\":27616:27621   */\n      dup4\n        /* \"#utility.yul\":27612:27628   */\n      add\n        /* \"#utility.yul\":27606:27629   */\n      mload\n        /* \"#utility.yul\":27676:27679   */\n      dup5\n        /* \"#utility.yul\":27670:27674   */\n      dup3\n        /* \"#utility.yul\":27666:27680   */\n      sub\n        /* \"#utility.yul\":27659:27663   */\n      0xc0\n        /* \"#utility.yul\":27654:27657   */\n      dup7\n        /* \"#utility.yul\":27650:27664   */\n      add\n        /* \"#utility.yul\":27643:27681   */\n      mstore\n        /* \"#utility.yul\":27702:27825   */\n      tag_829\n        /* \"#utility.yul\":27820:27824   */\n      dup3\n        /* \"#utility.yul\":27806:27818   */\n      dup3\n        /* \"#utility.yul\":27702:27825   */\n      tag_520\n      jump\t// in\n    tag_829:\n        /* \"#utility.yul\":27694:27825   */\n      swap2\n      pop\n        /* \"#utility.yul\":27544:27836   */\n      pop\n        /* \"#utility.yul\":27929:27933   */\n      0xe0\n        /* \"#utility.yul\":27922:27927   */\n      dup4\n        /* \"#utility.yul\":27918:27934   */\n      add\n        /* \"#utility.yul\":27912:27935   */\n      mload\n        /* \"#utility.yul\":27948:28011   */\n      tag_830\n        /* \"#utility.yul\":28005:28009   */\n      0xe0\n        /* \"#utility.yul\":28000:28003   */\n      dup7\n        /* \"#utility.yul\":27996:28010   */\n      add\n        /* \"#utility.yul\":27982:27994   */\n      dup3\n        /* \"#utility.yul\":27948:28011   */\n      tag_518\n      jump\t// in\n    tag_830:\n        /* \"#utility.yul\":27846:28021   */\n      pop\n        /* \"#utility.yul\":28116:28122   */\n      0x0100\n        /* \"#utility.yul\":28109:28114   */\n      dup4\n        /* \"#utility.yul\":28105:28123   */\n      add\n        /* \"#utility.yul\":28099:28124   */\n      mload\n        /* \"#utility.yul\":28137:28202   */\n      tag_831\n        /* \"#utility.yul\":28194:28200   */\n      0x0100\n        /* \"#utility.yul\":28189:28192   */\n      dup7\n        /* \"#utility.yul\":28185:28201   */\n      add\n        /* \"#utility.yul\":28171:28183   */\n      dup3\n        /* \"#utility.yul\":28137:28202   */\n      tag_518\n      jump\t// in\n    tag_831:\n        /* \"#utility.yul\":28031:28212   */\n      pop\n        /* \"#utility.yul\":28299:28305   */\n      0x0120\n        /* \"#utility.yul\":28292:28297   */\n      dup4\n        /* \"#utility.yul\":28288:28306   */\n      add\n        /* \"#utility.yul\":28282:28307   */\n      mload\n        /* \"#utility.yul\":28320:28379   */\n      tag_832\n        /* \"#utility.yul\":28371:28377   */\n      0x0120\n        /* \"#utility.yul\":28366:28369   */\n      dup7\n        /* \"#utility.yul\":28362:28378   */\n      add\n        /* \"#utility.yul\":28348:28360   */\n      dup3\n        /* \"#utility.yul\":28320:28379   */\n      tag_521\n      jump\t// in\n    tag_832:\n        /* \"#utility.yul\":28222:28389   */\n      pop\n        /* \"#utility.yul\":28406:28410   */\n      dup1\n        /* \"#utility.yul\":28399:28410   */\n      swap2\n      pop\n        /* \"#utility.yul\":26012:28416   */\n      pop\n        /* \"#utility.yul\":25896:28416   */\n      swap3\n      swap2\n      pop\n      pop\n      jump\t// out\n        /* \"#utility.yul\":28422:28987   */\n    tag_109:\n        /* \"#utility.yul\":28607:28611   */\n      0x00\n        /* \"#utility.yul\":28645:28647   */\n      0x60\n        /* \"#utility.yul\":28634:28643   */\n      dup3\n        /* \"#utility.yul\":28630:28648   */\n      add\n        /* \"#utility.yul\":28622:28648   */\n      swap1\n      pop\n        /* \"#utility.yul\":28694:28703   */\n      dup2\n        /* \"#utility.yul\":28688:28692   */\n      dup2\n        /* \"#utility.yul\":28684:28704   */\n      sub\n        /* \"#utility.yul\":28680:28681   */\n      0x00\n        /* \"#utility.yul\":28669:28678   */\n      dup4\n        /* \"#utility.yul\":28665:28682   */\n      add\n        /* \"#utility.yul\":28658:28705   */\n      mstore\n        /* \"#utility.yul\":28722:28822   */\n      tag_834\n        /* \"#utility.yul\":28817:28821   */\n      dup2\n        /* \"#utility.yul\":28808:28814   */\n      dup7\n        /* \"#utility.yul\":28722:28822   */\n      tag_522\n      jump\t// in\n    tag_834:\n        /* \"#utility.yul\":28714:28822   */\n      swap1\n      pop\n        /* \"#utility.yul\":28832:28898   */\n      tag_835\n        /* \"#utility.yul\":28894:28896   */\n      0x20\n        /* \"#utility.yul\":28883:28892   */\n      dup4\n        /* \"#utility.yul\":28879:28897   */\n      add\n        /* \"#utility.yul\":28870:28876   */\n      dup6\n        /* \"#utility.yul\":28832:28898   */\n      tag_489\n      jump\t// in\n    tag_835:\n        /* \"#utility.yul\":28908:28980   */\n      tag_836\n        /* \"#utility.yul\":28976:28978   */\n      0x40\n        /* \"#utility.yul\":28965:28974   */\n      dup4\n        /* \"#utility.yul\":28961:28979   */\n      add\n        /* \"#utility.yul\":28952:28958   */\n      dup5\n        /* \"#utility.yul\":28908:28980   */\n      tag_505\n      jump\t// in\n    tag_836:\n        /* \"#utility.yul\":28422:28987   */\n      swap5\n      swap4\n      pop\n      pop\n      pop\n      pop\n      jump\t// out\n        /* \"#utility.yul\":28993:29130   */\n    tag_523:\n        /* \"#utility.yul\":29083:29089   */\n      0x00\n        /* \"#utility.yul\":29117:29122   */\n      dup2\n        /* \"#utility.yul\":29111:29123   */\n      mload\n        /* \"#utility.yul\":29101:29123   */\n      swap1\n      pop\n        /* \"#utility.yul\":28993:29130   */\n      swap2\n      swap1\n      pop\n      jump\t// out\n        /* \"#utility.yul\":29136:29343   */\n    tag_524:\n        /* \"#utility.yul\":29258:29269   */\n      0x00\n        /* \"#utility.yul\":29292:29298   */\n      dup3\n        /* \"#utility.yul\":29287:29290   */\n      dup3\n        /* \"#utility.yul\":29280:29299   */\n      mstore\n        /* \"#utility.yul\":29332:29336   */\n      0x20\n        /* \"#utility.yul\":29327:29330   */\n      dup3\n        /* \"#utility.yul\":29323:29337   */\n      add\n        /* \"#utility.yul\":29308:29337   */\n      swap1\n      pop\n        /* \"#utility.yul\":29136:29343   */\n      swap3\n      swap2\n      pop\n      pop\n      jump\t// out\n        /* \"#utility.yul\":29349:29504   */\n    tag_525:\n        /* \"#utility.yul\":29439:29443   */\n      0x00\n        /* \"#utility.yul\":29462:29465   */\n      dup2\n        /* \"#utility.yul\":29454:29465   */\n      swap1\n      pop\n        /* \"#utility.yul\":29492:29496   */\n      0x20\n        /* \"#utility.yul\":29487:29490   */\n      dup3\n        /* \"#utility.yul\":29483:29497   */\n      add\n        /* \"#utility.yul\":29475:29497   */\n      swap1\n      pop\n        /* \"#utility.yul\":29349:29504   */\n      swap2\n      swap1\n      pop\n      jump\t// out\n        /* \"#utility.yul\":29510:29645   */\n    tag_526:\n        /* \"#utility.yul\":29598:29604   */\n      0x00\n        /* \"#utility.yul\":29632:29637   */\n      dup2\n        /* \"#utility.yul\":29626:29638   */\n      mload\n        /* \"#utility.yul\":29616:29638   */\n      swap1\n      pop\n        /* \"#utility.yul\":29510:29645   */\n      swap2\n      swap1\n      pop\n      jump\t// out\n        /* \"#utility.yul\":29651:29846   */\n    tag_527:\n        /* \"#utility.yul\":29761:29772   */\n      0x00\n        /* \"#utility.yul\":29795:29801   */\n      dup3\n        /* \"#utility.yul\":29790:29793   */\n      dup3\n        /* \"#utility.yul\":29783:29802   */\n      mstore\n        /* \"#utility.yul\":29835:29839   */\n      0x20\n        /* \"#utility.yul\":29830:29833   */\n      dup3\n        /* \"#utility.yul\":29826:29840   */\n      add\n        /* \"#utility.yul\":29811:29840   */\n      swap1\n      pop\n        /* \"#utility.yul\":29651:29846   */\n      swap3\n      swap2\n      pop\n      pop\n      jump\t// out\n        /* \"#utility.yul\":29852:30005   */\n    tag_528:\n        /* \"#utility.yul\":29940:29944   */\n      0x00\n        /* \"#utility.yul\":29963:29966   */\n      dup2\n        /* \"#utility.yul\":29955:29966   */\n      swap1\n      pop\n        /* \"#utility.yul\":29993:29997   */\n      0x20\n        /* \"#utility.yul\":29988:29991   */\n      dup3\n        /* \"#utility.yul\":29984:29998   */\n      add\n        /* \"#utility.yul\":29976:29998   */\n      swap1\n      pop\n        /* \"#utility.yul\":29852:30005   */\n      swap2\n      swap1\n      pop\n      jump\t// out\n        /* \"#utility.yul\":30089:32599   */\n    tag_529:\n        /* \"#utility.yul\":30190:30193   */\n      0x00\n        /* \"#utility.yul\":30226:30232   */\n      0x0140\n        /* \"#utility.yul\":30221:30224   */\n      dup4\n        /* \"#utility.yul\":30217:30233   */\n      add\n        /* \"#utility.yul\":30319:30323   */\n      0x00\n        /* \"#utility.yul\":30312:30317   */\n      dup4\n        /* \"#utility.yul\":30308:30324   */\n      add\n        /* \"#utility.yul\":30302:30325   */\n      mload\n        /* \"#utility.yul\":30372:30375   */\n      dup5\n        /* \"#utility.yul\":30366:30370   */\n      dup3\n        /* \"#utility.yul\":30362:30376   */\n      sub\n        /* \"#utility.yul\":30355:30359   */\n      0x00\n        /* \"#utility.yul\":30350:30353   */\n      dup7\n        /* \"#utility.yul\":30346:30360   */\n      add\n        /* \"#utility.yul\":30339:30377   */\n      mstore\n        /* \"#utility.yul\":30398:30471   */\n      tag_844\n        /* \"#utility.yul\":30466:30470   */\n      dup3\n        /* \"#utility.yul\":30452:30464   */\n      dup3\n        /* \"#utility.yul\":30398:30471   */\n      tag_512\n      jump\t// in\n    tag_844:\n        /* \"#utility.yul\":30390:30471   */\n      swap2\n      pop\n        /* \"#utility.yul\":30243:30482   */\n      pop\n        /* \"#utility.yul\":30565:30569   */\n      0x20\n        /* \"#utility.yul\":30558:30563   */\n      dup4\n        /* \"#utility.yul\":30554:30570   */\n      add\n        /* \"#utility.yul\":30548:30571   */\n      mload\n        /* \"#utility.yul\":30618:30621   */\n      dup5\n        /* \"#utility.yul\":30612:30616   */\n      dup3\n        /* \"#utility.yul\":30608:30622   */\n      sub\n        /* \"#utility.yul\":30601:30605   */\n      0x20\n        /* \"#utility.yul\":30596:30599   */\n      dup7\n        /* \"#utility.yul\":30592:30606   */\n      add\n        /* \"#utility.yul\":30585:30623   */\n      mstore\n        /* \"#utility.yul\":30644:30717   */\n      tag_845\n        /* \"#utility.yul\":30712:30716   */\n      dup3\n        /* \"#utility.yul\":30698:30710   */\n      dup3\n        /* \"#utility.yul\":30644:30717   */\n      tag_512\n      jump\t// in\n    tag_845:\n        /* \"#utility.yul\":30636:30717   */\n      swap2\n      pop\n        /* \"#utility.yul\":30492:30728   */\n      pop\n        /* \"#utility.yul\":30817:30821   */\n      0x40\n        /* \"#utility.yul\":30810:30815   */\n      dup4\n        /* \"#utility.yul\":30806:30822   */\n      add\n        /* \"#utility.yul\":30800:30823   */\n      mload\n        /* \"#utility.yul\":30870:30873   */\n      dup5\n        /* \"#utility.yul\":30864:30868   */\n      dup3\n        /* \"#utility.yul\":30860:30874   */\n      sub\n        /* \"#utility.yul\":30853:30857   */\n      0x40\n        /* \"#utility.yul\":30848:30851   */\n      dup7\n        /* \"#utility.yul\":30844:30858   */\n      add\n        /* \"#utility.yul\":30837:30875   */\n      mstore\n        /* \"#utility.yul\":30896:30969   */\n      tag_846\n        /* \"#utility.yul\":30964:30968   */\n      dup3\n        /* \"#utility.yul\":30950:30962   */\n      dup3\n        /* \"#utility.yul\":30896:30969   */\n      tag_512\n      jump\t// in\n    tag_846:\n        /* \"#utility.yul\":30888:30969   */\n      swap2\n      pop\n        /* \"#utility.yul\":30738:30980   */\n      pop\n        /* \"#utility.yul\":31074:31078   */\n      0x60\n        /* \"#utility.yul\":31067:31072   */\n      dup4\n        /* \"#utility.yul\":31063:31079   */\n      add\n        /* \"#utility.yul\":31057:31080   */\n      mload\n        /* \"#utility.yul\":31127:31130   */\n      dup5\n        /* \"#utility.yul\":31121:31125   */\n      dup3\n        /* \"#utility.yul\":31117:31131   */\n      sub\n        /* \"#utility.yul\":31110:31114   */\n      0x60\n        /* \"#utility.yul\":31105:31108   */\n      dup7\n        /* \"#utility.yul\":31101:31115   */\n      add\n        /* \"#utility.yul\":31094:31132   */\n      mstore\n        /* \"#utility.yul\":31153:31226   */\n      tag_847\n        /* \"#utility.yul\":31221:31225   */\n      dup3\n        /* \"#utility.yul\":31207:31219   */\n      dup3\n        /* \"#utility.yul\":31153:31226   */\n      tag_512\n      jump\t// in\n    tag_847:\n        /* \"#utility.yul\":31145:31226   */\n      swap2\n      pop\n        /* \"#utility.yul\":30990:31237   */\n      pop\n        /* \"#utility.yul\":31320:31324   */\n      0x80\n        /* \"#utility.yul\":31313:31318   */\n      dup4\n        /* \"#utility.yul\":31309:31325   */\n      add\n        /* \"#utility.yul\":31303:31326   */\n      mload\n        /* \"#utility.yul\":31339:31402   */\n      tag_848\n        /* \"#utility.yul\":31396:31400   */\n      0x80\n        /* \"#utility.yul\":31391:31394   */\n      dup7\n        /* \"#utility.yul\":31387:31401   */\n      add\n        /* \"#utility.yul\":31373:31385   */\n      dup3\n        /* \"#utility.yul\":31339:31402   */\n      tag_518\n      jump\t// in\n    tag_848:\n        /* \"#utility.yul\":31247:31412   */\n      pop\n        /* \"#utility.yul\":31504:31508   */\n      0xa0\n        /* \"#utility.yul\":31497:31502   */\n      dup4\n        /* \"#utility.yul\":31493:31509   */\n      add\n        /* \"#utility.yul\":31487:31510   */\n      mload\n        /* \"#utility.yul\":31557:31560   */\n      dup5\n        /* \"#utility.yul\":31551:31555   */\n      dup3\n        /* \"#utility.yul\":31547:31561   */\n      sub\n        /* \"#utility.yul\":31540:31544   */\n      0xa0\n        /* \"#utility.yul\":31535:31538   */\n      dup7\n        /* \"#utility.yul\":31531:31545   */\n      add\n        /* \"#utility.yul\":31524:31562   */\n      mstore\n        /* \"#utility.yul\":31583:31706   */\n      tag_849\n        /* \"#utility.yul\":31701:31705   */\n      dup3\n        /* \"#utility.yul\":31687:31699   */\n      dup3\n        /* \"#utility.yul\":31583:31706   */\n      tag_520\n      jump\t// in\n    tag_849:\n        /* \"#utility.yul\":31575:31706   */\n      swap2\n      pop\n        /* \"#utility.yul\":31422:31717   */\n      pop\n        /* \"#utility.yul\":31806:31810   */\n      0xc0\n        /* \"#utility.yul\":31799:31804   */\n      dup4\n        /* \"#utility.yul\":31795:31811   */\n      add\n        /* \"#utility.yul\":31789:31812   */\n      mload\n        /* \"#utility.yul\":31859:31862   */\n      dup5\n        /* \"#utility.yul\":31853:31857   */\n      dup3\n        /* \"#utility.yul\":31849:31863   */\n      sub\n        /* \"#utility.yul\":31842:31846   */\n      0xc0\n        /* \"#utility.yul\":31837:31840   */\n      dup7\n        /* \"#utility.yul\":31833:31847   */\n      add\n        /* \"#utility.yul\":31826:31864   */\n      mstore\n        /* \"#utility.yul\":31885:32008   */\n      tag_850\n        /* \"#utility.yul\":32003:32007   */\n      dup3\n        /* \"#utility.yul\":31989:32001   */\n      dup3\n        /* \"#utility.yul\":31885:32008   */\n      tag_520\n      jump\t// in\n    tag_850:\n        /* \"#utility.yul\":31877:32008   */\n      swap2\n      pop\n        /* \"#utility.yul\":31727:32019   */\n      pop\n        /* \"#utility.yul\":32112:32116   */\n      0xe0\n        /* \"#utility.yul\":32105:32110   */\n      dup4\n        /* \"#utility.yul\":32101:32117   */\n      add\n        /* \"#utility.yul\":32095:32118   */\n      mload\n        /* \"#utility.yul\":32131:32194   */\n      tag_851\n        /* \"#utility.yul\":32188:32192   */\n      0xe0\n        /* \"#utility.yul\":32183:32186   */\n      dup7\n        /* \"#utility.yul\":32179:32193   */\n      add\n        /* \"#utility.yul\":32165:32177   */\n      dup3\n        /* \"#utility.yul\":32131:32194   */\n      tag_518\n      jump\t// in\n    tag_851:\n        /* \"#utility.yul\":32029:32204   */\n      pop\n        /* \"#utility.yul\":32299:32305   */\n      0x0100\n        /* \"#utility.yul\":32292:32297   */\n      dup4\n        /* \"#utility.yul\":32288:32306   */\n      add\n        /* \"#utility.yul\":32282:32307   */\n      mload\n        /* \"#utility.yul\":32320:32385   */\n      tag_852\n        /* \"#utility.yul\":32377:32383   */\n      0x0100\n        /* \"#utility.yul\":32372:32375   */\n      dup7\n        /* \"#utility.yul\":32368:32384   */\n      add\n        /* \"#utility.yul\":32354:32366   */\n      dup3\n        /* \"#utility.yul\":32320:32385   */\n      tag_518\n      jump\t// in\n    tag_852:\n        /* \"#utility.yul\":32214:32395   */\n      pop\n        /* \"#utility.yul\":32482:32488   */\n      0x0120\n        /* \"#utility.yul\":32475:32480   */\n      dup4\n        /* \"#utility.yul\":32471:32489   */\n      add\n        /* \"#utility.yul\":32465:32490   */\n      mload\n        /* \"#utility.yul\":32503:32562   */\n      tag_853\n        /* \"#utility.yul\":32554:32560   */\n      0x0120\n        /* \"#utility.yul\":32549:32552   */\n      dup7\n        /* \"#utility.yul\":32545:32561   */\n      add\n        /* \"#utility.yul\":32531:32543   */\n      dup3\n        /* \"#utility.yul\":32503:32562   */\n      tag_521\n      jump\t// in\n    tag_853:\n        /* \"#utility.yul\":32405:32572   */\n      pop\n        /* \"#utility.yul\":32589:32593   */\n      dup1\n        /* \"#utility.yul\":32582:32593   */\n      swap2\n      pop\n        /* \"#utility.yul\":30195:32599   */\n      pop\n        /* \"#utility.yul\":30089:32599   */\n      swap3\n      swap2\n      pop\n      pop\n      jump\t// out\n        /* \"#utility.yul\":32605:32845   */\n    tag_530:\n        /* \"#utility.yul\":32716:32726   */\n      0x00\n        /* \"#utility.yul\":32751:32839   */\n      tag_855\n        /* \"#utility.yul\":32835:32838   */\n      dup4\n        /* \"#utility.yul\":32827:32833   */\n      dup4\n        /* \"#utility.yul\":32751:32839   */\n      tag_529\n      jump\t// in\n    tag_855:\n        /* \"#utility.yul\":32737:32839   */\n      swap1\n      pop\n        /* \"#utility.yul\":32605:32845   */\n      swap3\n      swap2\n      pop\n      pop\n      jump\t// out\n        /* \"#utility.yul\":32851:32985   */\n    tag_531:\n        /* \"#utility.yul\":32942:32946   */\n      0x00\n        /* \"#utility.yul\":32974:32978   */\n      0x20\n        /* \"#utility.yul\":32969:32972   */\n      dup3\n        /* \"#utility.yul\":32965:32979   */\n      add\n        /* \"#utility.yul\":32957:32979   */\n      swap1\n      pop\n        /* \"#utility.yul\":32851:32985   */\n      swap2\n      swap1\n      pop\n      jump\t// out\n        /* \"#utility.yul\":33073:34132   */\n    tag_532:\n        /* \"#utility.yul\":33224:33227   */\n      0x00\n        /* \"#utility.yul\":33253:33328   */\n      tag_858\n        /* \"#utility.yul\":33322:33327   */\n      dup3\n        /* \"#utility.yul\":33253:33328   */\n      tag_526\n      jump\t// in\n    tag_858:\n        /* \"#utility.yul\":33344:33441   */\n      tag_859\n        /* \"#utility.yul\":33434:33440   */\n      dup2\n        /* \"#utility.yul\":33429:33432   */\n      dup6\n        /* \"#utility.yul\":33344:33441   */\n      tag_527\n      jump\t// in\n    tag_859:\n        /* \"#utility.yul\":33337:33441   */\n      swap4\n      pop\n        /* \"#utility.yul\":33467:33470   */\n      dup4\n        /* \"#utility.yul\":33512:33516   */\n      0x20\n        /* \"#utility.yul\":33504:33510   */\n      dup3\n        /* \"#utility.yul\":33500:33517   */\n      mul\n        /* \"#utility.yul\":33495:33498   */\n      dup6\n        /* \"#utility.yul\":33491:33518   */\n      add\n        /* \"#utility.yul\":33542:33619   */\n      tag_860\n        /* \"#utility.yul\":33613:33618   */\n      dup6\n        /* \"#utility.yul\":33542:33619   */\n      tag_528\n      jump\t// in\n    tag_860:\n        /* \"#utility.yul\":33642:33649   */\n      dup1\n        /* \"#utility.yul\":33673:33674   */\n      0x00\n        /* \"#utility.yul\":33658:34087   */\n    tag_861:\n        /* \"#utility.yul\":33683:33689   */\n      dup6\n        /* \"#utility.yul\":33680:33681   */\n      dup2\n        /* \"#utility.yul\":33677:33690   */\n      lt\n        /* \"#utility.yul\":33658:34087   */\n      iszero\n      tag_863\n      jumpi\n        /* \"#utility.yul\":33754:33763   */\n      dup5\n        /* \"#utility.yul\":33748:33752   */\n      dup5\n        /* \"#utility.yul\":33744:33764   */\n      sub\n        /* \"#utility.yul\":33739:33742   */\n      dup10\n        /* \"#utility.yul\":33732:33765   */\n      mstore\n        /* \"#utility.yul\":33805:33811   */\n      dup2\n        /* \"#utility.yul\":33799:33812   */\n      mload\n        /* \"#utility.yul\":33833:33939   */\n      tag_864\n        /* \"#utility.yul\":33934:33938   */\n      dup6\n        /* \"#utility.yul\":33919:33932   */\n      dup3\n        /* \"#utility.yul\":33833:33939   */\n      tag_530\n      jump\t// in\n    tag_864:\n        /* \"#utility.yul\":33825:33939   */\n      swap5\n      pop\n        /* \"#utility.yul\":33962:34043   */\n      tag_865\n        /* \"#utility.yul\":34036:34042   */\n      dup4\n        /* \"#utility.yul\":33962:34043   */\n      tag_531\n      jump\t// in\n    tag_865:\n        /* \"#utility.yul\":33952:34043   */\n      swap3\n      pop\n        /* \"#utility.yul\":34072:34076   */\n      0x20\n        /* \"#utility.yul\":34067:34070   */\n      dup11\n        /* \"#utility.yul\":34063:34077   */\n      add\n        /* \"#utility.yul\":34056:34077   */\n      swap10\n      pop\n        /* \"#utility.yul\":33718:34087   */\n      pop\n        /* \"#utility.yul\":33705:33706   */\n      0x01\n        /* \"#utility.yul\":33702:33703   */\n      dup2\n        /* \"#utility.yul\":33698:33707   */\n      add\n        /* \"#utility.yul\":33693:33707   */\n      swap1\n      pop\n        /* \"#utility.yul\":33658:34087   */\n      jump(tag_861)\n    tag_863:\n        /* \"#utility.yul\":33662:33676   */\n      pop\n        /* \"#utility.yul\":34103:34107   */\n      dup3\n        /* \"#utility.yul\":34096:34107   */\n      swap8\n      pop\n        /* \"#utility.yul\":34123:34126   */\n      dup8\n        /* \"#utility.yul\":34116:34126   */\n      swap6\n      pop\n        /* \"#utility.yul\":33229:34132   */\n      pop\n      pop\n      pop\n      pop\n      pop\n        /* \"#utility.yul\":33073:34132   */\n      swap3\n      swap2\n      pop\n      pop\n      jump\t// out\n        /* \"#utility.yul\":34220:36873   */\n    tag_533:\n        /* \"#utility.yul\":34325:34328   */\n      0x00\n        /* \"#utility.yul\":34361:34367   */\n      0x0160\n        /* \"#utility.yul\":34356:34359   */\n      dup4\n        /* \"#utility.yul\":34352:34368   */\n      add\n        /* \"#utility.yul\":34456:34460   */\n      0x00\n        /* \"#utility.yul\":34449:34454   */\n      dup4\n        /* \"#utility.yul\":34445:34461   */\n      add\n        /* \"#utility.yul\":34439:34462   */\n      mload\n        /* \"#utility.yul\":34509:34512   */\n      dup5\n        /* \"#utility.yul\":34503:34507   */\n      dup3\n        /* \"#utility.yul\":34499:34513   */\n      sub\n        /* \"#utility.yul\":34492:34496   */\n      0x00\n        /* \"#utility.yul\":34487:34490   */\n      dup7\n        /* \"#utility.yul\":34483:34497   */\n      add\n        /* \"#utility.yul\":34476:34514   */\n      mstore\n        /* \"#utility.yul\":34535:34608   */\n      tag_867\n        /* \"#utility.yul\":34603:34607   */\n      dup3\n        /* \"#utility.yul\":34589:34601   */\n      dup3\n        /* \"#utility.yul\":34535:34608   */\n      tag_512\n      jump\t// in\n    tag_867:\n        /* \"#utility.yul\":34527:34608   */\n      swap2\n      pop\n        /* \"#utility.yul\":34378:34619   */\n      pop\n        /* \"#utility.yul\":34701:34705   */\n      0x20\n        /* \"#utility.yul\":34694:34699   */\n      dup4\n        /* \"#utility.yul\":34690:34706   */\n      add\n        /* \"#utility.yul\":34684:34707   */\n      mload\n        /* \"#utility.yul\":34754:34757   */\n      dup5\n        /* \"#utility.yul\":34748:34752   */\n      dup3\n        /* \"#utility.yul\":34744:34758   */\n      sub\n        /* \"#utility.yul\":34737:34741   */\n      0x20\n        /* \"#utility.yul\":34732:34735   */\n      dup7\n        /* \"#utility.yul\":34728:34742   */\n      add\n        /* \"#utility.yul\":34721:34759   */\n      mstore\n        /* \"#utility.yul\":34780:34853   */\n      tag_868\n        /* \"#utility.yul\":34848:34852   */\n      dup3\n        /* \"#utility.yul\":34834:34846   */\n      dup3\n        /* \"#utility.yul\":34780:34853   */\n      tag_512\n      jump\t// in\n    tag_868:\n        /* \"#utility.yul\":34772:34853   */\n      swap2\n      pop\n        /* \"#utility.yul\":34629:34864   */\n      pop\n        /* \"#utility.yul\":34953:34957   */\n      0x40\n        /* \"#utility.yul\":34946:34951   */\n      dup4\n        /* \"#utility.yul\":34942:34958   */\n      add\n        /* \"#utility.yul\":34936:34959   */\n      mload\n        /* \"#utility.yul\":35006:35009   */\n      dup5\n        /* \"#utility.yul\":35000:35004   */\n      dup3\n        /* \"#utility.yul\":34996:35010   */\n      sub\n        /* \"#utility.yul\":34989:34993   */\n      0x40\n        /* \"#utility.yul\":34984:34987   */\n      dup7\n        /* \"#utility.yul\":34980:34994   */\n      add\n        /* \"#utility.yul\":34973:35011   */\n      mstore\n        /* \"#utility.yul\":35032:35105   */\n      tag_869\n        /* \"#utility.yul\":35100:35104   */\n      dup3\n        /* \"#utility.yul\":35086:35098   */\n      dup3\n        /* \"#utility.yul\":35032:35105   */\n      tag_512\n      jump\t// in\n    tag_869:\n        /* \"#utility.yul\":35024:35105   */\n      swap2\n      pop\n        /* \"#utility.yul\":34874:35116   */\n      pop\n        /* \"#utility.yul\":35203:35207   */\n      0x60\n        /* \"#utility.yul\":35196:35201   */\n      dup4\n        /* \"#utility.yul\":35192:35208   */\n      add\n        /* \"#utility.yul\":35186:35209   */\n      mload\n        /* \"#utility.yul\":35256:35259   */\n      dup5\n        /* \"#utility.yul\":35250:35254   */\n      dup3\n        /* \"#utility.yul\":35246:35260   */\n      sub\n        /* \"#utility.yul\":35239:35243   */\n      0x60\n        /* \"#utility.yul\":35234:35237   */\n      dup7\n        /* \"#utility.yul\":35230:35244   */\n      add\n        /* \"#utility.yul\":35223:35261   */\n      mstore\n        /* \"#utility.yul\":35282:35355   */\n      tag_870\n        /* \"#utility.yul\":35350:35354   */\n      dup3\n        /* \"#utility.yul\":35336:35348   */\n      dup3\n        /* \"#utility.yul\":35282:35355   */\n      tag_512\n      jump\t// in\n    tag_870:\n        /* \"#utility.yul\":35274:35355   */\n      swap2\n      pop\n        /* \"#utility.yul\":35126:35366   */\n      pop\n        /* \"#utility.yul\":35454:35458   */\n      0x80\n        /* \"#utility.yul\":35447:35452   */\n      dup4\n        /* \"#utility.yul\":35443:35459   */\n      add\n        /* \"#utility.yul\":35437:35460   */\n      mload\n        /* \"#utility.yul\":35507:35510   */\n      dup5\n        /* \"#utility.yul\":35501:35505   */\n      dup3\n        /* \"#utility.yul\":35497:35511   */\n      sub\n        /* \"#utility.yul\":35490:35494   */\n      0x80\n        /* \"#utility.yul\":35485:35488   */\n      dup7\n        /* \"#utility.yul\":35481:35495   */\n      add\n        /* \"#utility.yul\":35474:35512   */\n      mstore\n        /* \"#utility.yul\":35533:35606   */\n      tag_871\n        /* \"#utility.yul\":35601:35605   */\n      dup3\n        /* \"#utility.yul\":35587:35599   */\n      dup3\n        /* \"#utility.yul\":35533:35606   */\n      tag_512\n      jump\t// in\n    tag_871:\n        /* \"#utility.yul\":35525:35606   */\n      swap2\n      pop\n        /* \"#utility.yul\":35376:35617   */\n      pop\n        /* \"#utility.yul\":35707:35711   */\n      0xa0\n        /* \"#utility.yul\":35700:35705   */\n      dup4\n        /* \"#utility.yul\":35696:35712   */\n      add\n        /* \"#utility.yul\":35690:35713   */\n      mload\n        /* \"#utility.yul\":35726:35789   */\n      tag_872\n        /* \"#utility.yul\":35783:35787   */\n      0xa0\n        /* \"#utility.yul\":35778:35781   */\n      dup7\n        /* \"#utility.yul\":35774:35788   */\n      add\n        /* \"#utility.yul\":35760:35772   */\n      dup3\n        /* \"#utility.yul\":35726:35789   */\n      tag_518\n      jump\t// in\n    tag_872:\n        /* \"#utility.yul\":35627:35799   */\n      pop\n        /* \"#utility.yul\":35886:35890   */\n      0xc0\n        /* \"#utility.yul\":35879:35884   */\n      dup4\n        /* \"#utility.yul\":35875:35891   */\n      add\n        /* \"#utility.yul\":35869:35892   */\n      mload\n        /* \"#utility.yul\":35905:35968   */\n      tag_873\n        /* \"#utility.yul\":35962:35966   */\n      0xc0\n        /* \"#utility.yul\":35957:35960   */\n      dup7\n        /* \"#utility.yul\":35953:35967   */\n      add\n        /* \"#utility.yul\":35939:35951   */\n      dup3\n        /* \"#utility.yul\":35905:35968   */\n      tag_518\n      jump\t// in\n    tag_873:\n        /* \"#utility.yul\":35809:35978   */\n      pop\n        /* \"#utility.yul\":36063:36067   */\n      0xe0\n        /* \"#utility.yul\":36056:36061   */\n      dup4\n        /* \"#utility.yul\":36052:36068   */\n      add\n        /* \"#utility.yul\":36046:36069   */\n      mload\n        /* \"#utility.yul\":36082:36145   */\n      tag_874\n        /* \"#utility.yul\":36139:36143   */\n      0xe0\n        /* \"#utility.yul\":36134:36137   */\n      dup7\n        /* \"#utility.yul\":36130:36144   */\n      add\n        /* \"#utility.yul\":36116:36128   */\n      dup3\n        /* \"#utility.yul\":36082:36145   */\n      tag_518\n      jump\t// in\n    tag_874:\n        /* \"#utility.yul\":35988:36155   */\n      pop\n        /* \"#utility.yul\":36253:36259   */\n      0x0100\n        /* \"#utility.yul\":36246:36251   */\n      dup4\n        /* \"#utility.yul\":36242:36260   */\n      add\n        /* \"#utility.yul\":36236:36261   */\n      mload\n        /* \"#utility.yul\":36274:36339   */\n      tag_875\n        /* \"#utility.yul\":36331:36337   */\n      0x0100\n        /* \"#utility.yul\":36326:36329   */\n      dup7\n        /* \"#utility.yul\":36322:36338   */\n      add\n        /* \"#utility.yul\":36308:36320   */\n      dup3\n        /* \"#utility.yul\":36274:36339   */\n      tag_518\n      jump\t// in\n    tag_875:\n        /* \"#utility.yul\":36165:36349   */\n      pop\n        /* \"#utility.yul\":36433:36439   */\n      0x0120\n        /* \"#utility.yul\":36426:36431   */\n      dup4\n        /* \"#utility.yul\":36422:36440   */\n      add\n        /* \"#utility.yul\":36416:36441   */\n      mload\n        /* \"#utility.yul\":36454:36513   */\n      tag_876\n        /* \"#utility.yul\":36505:36511   */\n      0x0120\n        /* \"#utility.yul\":36500:36503   */\n      dup7\n        /* \"#utility.yul\":36496:36512   */\n      add\n        /* \"#utility.yul\":36482:36494   */\n      dup3\n        /* \"#utility.yul\":36454:36513   */\n      tag_521\n      jump\t// in\n    tag_876:\n        /* \"#utility.yul\":36359:36523   */\n      pop\n        /* \"#utility.yul\":36607:36613   */\n      0x0140\n        /* \"#utility.yul\":36600:36605   */\n      dup4\n        /* \"#utility.yul\":36596:36614   */\n      add\n        /* \"#utility.yul\":36590:36615   */\n      mload\n        /* \"#utility.yul\":36664:36667   */\n      dup5\n        /* \"#utility.yul\":36658:36662   */\n      dup3\n        /* \"#utility.yul\":36654:36668   */\n      sub\n        /* \"#utility.yul\":36645:36651   */\n      0x0140\n        /* \"#utility.yul\":36640:36643   */\n      dup7\n        /* \"#utility.yul\":36636:36652   */\n      add\n        /* \"#utility.yul\":36629:36669   */\n      mstore\n        /* \"#utility.yul\":36690:36835   */\n      tag_877\n        /* \"#utility.yul\":36830:36834   */\n      dup3\n        /* \"#utility.yul\":36816:36828   */\n      dup3\n        /* \"#utility.yul\":36690:36835   */\n      tag_532\n      jump\t// in\n    tag_877:\n        /* \"#utility.yul\":36682:36835   */\n      swap2\n      pop\n        /* \"#utility.yul\":36533:36846   */\n      pop\n        /* \"#utility.yul\":36863:36867   */\n      dup1\n        /* \"#utility.yul\":36856:36867   */\n      swap2\n      pop\n        /* \"#utility.yul\":34330:36873   */\n      pop\n        /* \"#utility.yul\":34220:36873   */\n      swap3\n      swap2\n      pop\n      pop\n      jump\t// out\n        /* \"#utility.yul\":36879:37127   */\n    tag_534:\n        /* \"#utility.yul\":36994:37004   */\n      0x00\n        /* \"#utility.yul\":37029:37121   */\n      tag_879\n        /* \"#utility.yul\":37117:37120   */\n      dup4\n        /* \"#utility.yul\":37109:37115   */\n      dup4\n        /* \"#utility.yul\":37029:37121   */\n      tag_533\n      jump\t// in\n    tag_879:\n        /* \"#utility.yul\":37015:37121   */\n      swap1\n      pop\n        /* \"#utility.yul\":36879:37127   */\n      swap3\n      swap2\n      pop\n      pop\n      jump\t// out\n        /* \"#utility.yul\":37133:37269   */\n    tag_535:\n        /* \"#utility.yul\":37226:37230   */\n      0x00\n        /* \"#utility.yul\":37258:37262   */\n      0x20\n        /* \"#utility.yul\":37253:37256   */\n      dup3\n        /* \"#utility.yul\":37249:37263   */\n      add\n        /* \"#utility.yul\":37241:37263   */\n      swap1\n      pop\n        /* \"#utility.yul\":37133:37269   */\n      swap2\n      swap1\n      pop\n      jump\t// out\n        /* \"#utility.yul\":37361:38456   */\n    tag_536:\n        /* \"#utility.yul\":37526:37529   */\n      0x00\n        /* \"#utility.yul\":37555:37632   */\n      tag_882\n        /* \"#utility.yul\":37626:37631   */\n      dup3\n        /* \"#utility.yul\":37555:37632   */\n      tag_523\n      jump\t// in\n    tag_882:\n        /* \"#utility.yul\":37648:37757   */\n      tag_883\n        /* \"#utility.yul\":37750:37756   */\n      dup2\n        /* \"#utility.yul\":37745:37748   */\n      dup6\n        /* \"#utility.yul\":37648:37757   */\n      tag_524\n      jump\t// in\n    tag_883:\n        /* \"#utility.yul\":37641:37757   */\n      swap4\n      pop\n        /* \"#utility.yul\":37783:37786   */\n      dup4\n        /* \"#utility.yul\":37828:37832   */\n      0x20\n        /* \"#utility.yul\":37820:37826   */\n      dup3\n        /* \"#utility.yul\":37816:37833   */\n      mul\n        /* \"#utility.yul\":37811:37814   */\n      dup6\n        /* \"#utility.yul\":37807:37834   */\n      add\n        /* \"#utility.yul\":37858:37937   */\n      tag_884\n        /* \"#utility.yul\":37931:37936   */\n      dup6\n        /* \"#utility.yul\":37858:37937   */\n      tag_525\n      jump\t// in\n    tag_884:\n        /* \"#utility.yul\":37960:37967   */\n      dup1\n        /* \"#utility.yul\":37991:37992   */\n      0x00\n        /* \"#utility.yul\":37976:38411   */\n    tag_885:\n        /* \"#utility.yul\":38001:38007   */\n      dup6\n        /* \"#utility.yul\":37998:37999   */\n      dup2\n        /* \"#utility.yul\":37995:38008   */\n      lt\n        /* \"#utility.yul\":37976:38411   */\n      iszero\n      tag_887\n      jumpi\n        /* \"#utility.yul\":38072:38081   */\n      dup5\n        /* \"#utility.yul\":38066:38070   */\n      dup5\n        /* \"#utility.yul\":38062:38082   */\n      sub\n        /* \"#utility.yul\":38057:38060   */\n      dup10\n        /* \"#utility.yul\":38050:38083   */\n      mstore\n        /* \"#utility.yul\":38123:38129   */\n      dup2\n        /* \"#utility.yul\":38117:38130   */\n      mload\n        /* \"#utility.yul\":38151:38261   */\n      tag_888\n        /* \"#utility.yul\":38256:38260   */\n      dup6\n        /* \"#utility.yul\":38241:38254   */\n      dup3\n        /* \"#utility.yul\":38151:38261   */\n      tag_534\n      jump\t// in\n    tag_888:\n        /* \"#utility.yul\":38143:38261   */\n      swap5\n      pop\n        /* \"#utility.yul\":38284:38367   */\n      tag_889\n        /* \"#utility.yul\":38360:38366   */\n      dup4\n        /* \"#utility.yul\":38284:38367   */\n      tag_535\n      jump\t// in\n    tag_889:\n        /* \"#utility.yul\":38274:38367   */\n      swap3\n      pop\n        /* \"#utility.yul\":38396:38400   */\n      0x20\n        /* \"#utility.yul\":38391:38394   */\n      dup11\n        /* \"#utility.yul\":38387:38401   */\n      add\n        /* \"#utility.yul\":38380:38401   */\n      swap10\n      pop\n        /* \"#utility.yul\":38036:38411   */\n      pop\n        /* \"#utility.yul\":38023:38024   */\n      0x01\n        /* \"#utility.yul\":38020:38021   */\n      dup2\n        /* \"#utility.yul\":38016:38025   */\n      add\n        /* \"#utility.yul\":38011:38025   */\n      swap1\n      pop\n        /* \"#utility.yul\":37976:38411   */\n      jump(tag_885)\n    tag_887:\n        /* \"#utility.yul\":37980:37994   */\n      pop\n        /* \"#utility.yul\":38427:38431   */\n      dup3\n        /* \"#utility.yul\":38420:38431   */\n      swap8\n      pop\n        /* \"#utility.yul\":38447:38450   */\n      dup8\n        /* \"#utility.yul\":38440:38450   */\n      swap6\n      pop\n        /* \"#utility.yul\":37531:38456   */\n      pop\n      pop\n      pop\n      pop\n      pop\n        /* \"#utility.yul\":37361:38456   */\n      swap3\n      swap2\n      pop\n      pop\n      jump\t// out\n        /* \"#utility.yul\":38462:38927   */\n    tag_117:\n        /* \"#utility.yul\":38651:38655   */\n      0x00\n        /* \"#utility.yul\":38689:38691   */\n      0x20\n        /* \"#utility.yul\":38678:38687   */\n      dup3\n        /* \"#utility.yul\":38674:38692   */\n      add\n        /* \"#utility.yul\":38666:38692   */\n      swap1\n      pop\n        /* \"#utility.yul\":38738:38747   */\n      dup2\n        /* \"#utility.yul\":38732:38736   */\n      dup2\n        /* \"#utility.yul\":38728:38748   */\n      sub\n        /* \"#utility.yul\":38724:38725   */\n      0x00\n        /* \"#utility.yul\":38713:38722   */\n      dup4\n        /* \"#utility.yul\":38709:38726   */\n      add\n        /* \"#utility.yul\":38702:38749   */\n      mstore\n        /* \"#utility.yul\":38766:38920   */\n      tag_891\n        /* \"#utility.yul\":38915:38919   */\n      dup2\n        /* \"#utility.yul\":38906:38912   */\n      dup5\n        /* \"#utility.yul\":38766:38920   */\n      tag_536\n      jump\t// in\n    tag_891:\n        /* \"#utility.yul\":38758:38920   */\n      swap1\n      pop\n        /* \"#utility.yul\":38462:38927   */\n      swap3\n      swap2\n      pop\n      pop\n      jump\t// out\n        /* \"#utility.yul\":38933:39113   */\n    tag_133:\n        /* \"#utility.yul\":38981:39058   */\n      0x4e487b7100000000000000000000000000000000000000000000000000000000\n        /* \"#utility.yul\":38978:38979   */\n      0x00\n        /* \"#utility.yul\":38971:39059   */\n      mstore\n        /* \"#utility.yul\":39078:39082   */\n      0x32\n        /* \"#utility.yul\":39075:39076   */\n      0x04\n        /* \"#utility.yul\":39068:39083   */\n      mstore\n        /* \"#utility.yul\":39102:39106   */\n      0x24\n        /* \"#utility.yul\":39099:39100   */\n      0x00\n        /* \"#utility.yul\":39092:39107   */\n      revert\n        /* \"#utility.yul\":39119:39267   */\n    tag_537:\n        /* \"#utility.yul\":39221:39232   */\n      0x00\n        /* \"#utility.yul\":39258:39261   */\n      dup2\n        /* \"#utility.yul\":39243:39261   */\n      swap1\n      pop\n        /* \"#utility.yul\":39119:39267   */\n      swap3\n      swap2\n      pop\n      pop\n      jump\t// out\n        /* \"#utility.yul\":39273:39663   */\n    tag_538:\n        /* \"#utility.yul\":39379:39382   */\n      0x00\n        /* \"#utility.yul\":39407:39446   */\n      tag_895\n        /* \"#utility.yul\":39440:39445   */\n      dup3\n        /* \"#utility.yul\":39407:39446   */\n      tag_509\n      jump\t// in\n    tag_895:\n        /* \"#utility.yul\":39462:39551   */\n      tag_896\n        /* \"#utility.yul\":39544:39550   */\n      dup2\n        /* \"#utility.yul\":39539:39542   */\n      dup6\n        /* \"#utility.yul\":39462:39551   */\n      tag_537\n      jump\t// in\n    tag_896:\n        /* \"#utility.yul\":39455:39551   */\n      swap4\n      pop\n        /* \"#utility.yul\":39560:39625   */\n      tag_897\n        /* \"#utility.yul\":39618:39624   */\n      dup2\n        /* \"#utility.yul\":39613:39616   */\n      dup6\n        /* \"#utility.yul\":39606:39610   */\n      0x20\n        /* \"#utility.yul\":39599:39604   */\n      dup7\n        /* \"#utility.yul\":39595:39611   */\n      add\n        /* \"#utility.yul\":39560:39625   */\n      tag_511\n      jump\t// in\n    tag_897:\n        /* \"#utility.yul\":39650:39656   */\n      dup1\n        /* \"#utility.yul\":39645:39648   */\n      dup5\n        /* \"#utility.yul\":39641:39657   */\n      add\n        /* \"#utility.yul\":39634:39657   */\n      swap2\n      pop\n        /* \"#utility.yul\":39383:39663   */\n      pop\n        /* \"#utility.yul\":39273:39663   */\n      swap3\n      swap2\n      pop\n      pop\n      jump\t// out\n        /* \"#utility.yul\":39669:39944   */\n    tag_138:\n        /* \"#utility.yul\":39801:39804   */\n      0x00\n        /* \"#utility.yul\":39823:39918   */\n      tag_899\n        /* \"#utility.yul\":39914:39917   */\n      dup3\n        /* \"#utility.yul\":39905:39911   */\n      dup5\n        /* \"#utility.yul\":39823:39918   */\n      tag_538\n      jump\t// in\n    tag_899:\n        /* \"#utility.yul\":39816:39918   */\n      swap2\n      pop\n        /* \"#utility.yul\":39935:39938   */\n      dup2\n        /* \"#utility.yul\":39928:39938   */\n      swap1\n      pop\n        /* \"#utility.yul\":39669:39944   */\n      swap3\n      swap2\n      pop\n      pop\n      jump\t// out\n        /* \"#utility.yul\":39950:40130   */\n    tag_539:\n        /* \"#utility.yul\":39998:40075   */\n      0x4e487b7100000000000000000000000000000000000000000000000000000000\n        /* \"#utility.yul\":39995:39996   */\n      0x00\n        /* \"#utility.yul\":39988:40076   */\n      mstore\n        /* \"#utility.yul\":40095:40099   */\n      0x22\n        /* \"#utility.yul\":40092:40093   */\n      0x04\n        /* \"#utility.yul\":40085:40100   */\n      mstore\n        /* \"#utility.yul\":40119:40123   */\n      0x24\n        /* \"#utility.yul\":40116:40117   */\n      0x00\n        /* \"#utility.yul\":40109:40124   */\n      revert\n        /* \"#utility.yul\":40136:40456   */\n    tag_181:\n        /* \"#utility.yul\":40180:40186   */\n      0x00\n        /* \"#utility.yul\":40217:40218   */\n      0x02\n        /* \"#utility.yul\":40211:40215   */\n      dup3\n        /* \"#utility.yul\":40207:40219   */\n      div\n        /* \"#utility.yul\":40197:40219   */\n      swap1\n      pop\n        /* \"#utility.yul\":40264:40265   */\n      0x01\n        /* \"#utility.yul\":40258:40262   */\n      dup3\n        /* \"#utility.yul\":40254:40266   */\n      and\n        /* \"#utility.yul\":40285:40303   */\n      dup1\n        /* \"#utility.yul\":40275:40356   */\n      tag_902\n      jumpi\n        /* \"#utility.yul\":40341:40345   */\n      0x7f\n        /* \"#utility.yul\":40333:40339   */\n      dup3\n        /* \"#utility.yul\":40329:40346   */\n      and\n        /* \"#utility.yul\":40319:40346   */\n      swap2\n      pop\n        /* \"#utility.yul\":40275:40356   */\n    tag_902:\n        /* \"#utility.yul\":40403:40405   */\n      0x20\n        /* \"#utility.yul\":40395:40401   */\n      dup3\n        /* \"#utility.yul\":40392:40406   */\n      lt\n        /* \"#utility.yul\":40372:40390   */\n      dup2\n        /* \"#utility.yul\":40369:40407   */\n      sub\n        /* \"#utility.yul\":40366:40450   */\n      tag_903\n      jumpi\n        /* \"#utility.yul\":40422:40440   */\n      tag_904\n      tag_539\n      jump\t// in\n    tag_904:\n        /* \"#utility.yul\":40366:40450   */\n    tag_903:\n        /* \"#utility.yul\":40187:40456   */\n      pop\n        /* \"#utility.yul\":40136:40456   */\n      swap2\n      swap1\n      pop\n      jump\t// out\n        /* \"#utility.yul\":40462:40603   */\n    tag_540:\n        /* \"#utility.yul\":40511:40515   */\n      0x00\n        /* \"#utility.yul\":40534:40537   */\n      dup2\n        /* \"#utility.yul\":40526:40537   */\n      swap1\n      pop\n        /* \"#utility.yul\":40557:40560   */\n      dup2\n        /* \"#utility.yul\":40554:40555   */\n      0x00\n        /* \"#utility.yul\":40547:40561   */\n      mstore\n        /* \"#utility.yul\":40591:40595   */\n      0x20\n        /* \"#utility.yul\":40588:40589   */\n      0x00\n        /* \"#utility.yul\":40578:40596   */\n      keccak256\n        /* \"#utility.yul\":40570:40596   */\n      swap1\n      pop\n        /* \"#utility.yul\":40462:40603   */\n      swap2\n      swap1\n      pop\n      jump\t// out\n        /* \"#utility.yul\":40609:40702   */\n    tag_541:\n        /* \"#utility.yul\":40646:40652   */\n      0x00\n        /* \"#utility.yul\":40693:40695   */\n      0x20\n        /* \"#utility.yul\":40688:40690   */\n      0x1f\n        /* \"#utility.yul\":40681:40686   */\n      dup4\n        /* \"#utility.yul\":40677:40691   */\n      add\n        /* \"#utility.yul\":40673:40696   */\n      div\n        /* \"#utility.yul\":40663:40696   */\n      swap1\n      pop\n        /* \"#utility.yul\":40609:40702   */\n      swap2\n      swap1\n      pop\n      jump\t// out\n        /* \"#utility.yul\":40708:40815   */\n    tag_542:\n        /* \"#utility.yul\":40752:40760   */\n      0x00\n        /* \"#utility.yul\":40802:40807   */\n      dup3\n        /* \"#utility.yul\":40796:40800   */\n      dup3\n        /* \"#utility.yul\":40792:40808   */\n      shl\n        /* \"#utility.yul\":40771:40808   */\n      swap1\n      pop\n        /* \"#utility.yul\":40708:40815   */\n      swap3\n      swap2\n      pop\n      pop\n      jump\t// out\n        /* \"#utility.yul\":40821:41214   */\n    tag_543:\n        /* \"#utility.yul\":40890:40896   */\n      0x00\n        /* \"#utility.yul\":40940:40941   */\n      0x08\n        /* \"#utility.yul\":40928:40938   */\n      dup4\n        /* \"#utility.yul\":40924:40942   */\n      mul\n        /* \"#utility.yul\":40963:41060   */\n      tag_909\n        /* \"#utility.yul\":40993:41059   */\n      0xffffffffffffffffffffffffffffffffffffffffffffffffffffffffffffffff\n        /* \"#utility.yul\":40982:40991   */\n      dup3\n        /* \"#utility.yul\":40963:41060   */\n      tag_542\n      jump\t// in\n    tag_909:\n        /* \"#utility.yul\":41081:41120   */\n      tag_910\n        /* \"#utility.yul\":41111:41119   */\n      dup7\n        /* \"#utility.yul\":41100:41109   */\n      dup4\n        /* \"#utility.yul\":41081:41120   */\n      tag_542\n      jump\t// in\n    tag_910:\n        /* \"#utility.yul\":41069:41120   */\n      swap6\n      pop\n        /* \"#utility.yul\":41153:41157   */\n      dup1\n        /* \"#utility.yul\":41149:41158   */\n      not\n        /* \"#utility.yul\":41142:41147   */\n      dup5\n        /* \"#utility.yul\":41138:41159   */\n      and\n        /* \"#utility.yul\":41129:41159   */\n      swap4\n      pop\n        /* \"#utility.yul\":41202:41206   */\n      dup1\n        /* \"#utility.yul\":41192:41200   */\n      dup7\n        /* \"#utility.yul\":41188:41207   */\n      and\n        /* \"#utility.yul\":41181:41186   */\n      dup5\n        /* \"#utility.yul\":41178:41208   */\n      or\n        /* \"#utility.yul\":41168:41208   */\n      swap3\n      pop\n        /* \"#utility.yul\":40897:41214   */\n      pop\n      pop\n        /* \"#utility.yul\":40821:41214   */\n      swap4\n      swap3\n      pop\n      pop\n      pop\n      jump\t// out\n        /* \"#utility.yul\":41220:41280   */\n    tag_544:\n        /* \"#utility.yul\":41248:41251   */\n      0x00\n        /* \"#utility.yul\":41269:41274   */\n      dup2\n        /* \"#utility.yul\":41262:41274   */\n      swap1\n      pop\n        /* \"#utility.yul\":41220:41280   */\n      swap2\n      swap1\n      pop\n      jump\t// out\n        /* \"#utility.yul\":41286:41428   */\n    tag_545:\n        /* \"#utility.yul\":41336:41345   */\n      0x00\n        /* \"#utility.yul\":41369:41422   */\n      tag_913\n        /* \"#utility.yul\":41387:41421   */\n      tag_914\n        /* \"#utility.yul\":41396:41420   */\n      tag_915\n        /* \"#utility.yul\":41414:41419   */\n      dup5\n        /* \"#utility.yul\":41396:41420   */\n      tag_490\n      jump\t// in\n    tag_915:\n        /* \"#utility.yul\":41387:41421   */\n      tag_544\n      jump\t// in\n    tag_914:\n        /* \"#utility.yul\":41369:41422   */\n      tag_490\n      jump\t// in\n    tag_913:\n        /* \"#utility.yul\":41356:41422   */\n      swap1\n      pop\n        /* \"#utility.yul\":41286:41428   */\n      swap2\n      swap1\n      pop\n      jump\t// out\n        /* \"#utility.yul\":41434:41509   */\n    tag_546:\n        /* \"#utility.yul\":41477:41480   */\n      0x00\n        /* \"#utility.yul\":41498:41503   */\n      dup2\n        /* \"#utility.yul\":41491:41503   */\n      swap1\n      pop\n        /* \"#utility.yul\":41434:41509   */\n      swap2\n      swap1\n      pop\n      jump\t// out\n        /* \"#utility.yul\":41515:41784   */\n    tag_547:\n        /* \"#utility.yul\":41625:41664   */\n      tag_918\n        /* \"#utility.yul\":41656:41663   */\n      dup4\n        /* \"#utility.yul\":41625:41664   */\n      tag_545\n      jump\t// in\n    tag_918:\n        /* \"#utility.yul\":41686:41777   */\n      tag_919\n        /* \"#utility.yul\":41735:41776   */\n      tag_920\n        /* \"#utility.yul\":41759:41775   */\n      dup3\n        /* \"#utility.yul\":41735:41776   */\n      tag_546\n      jump\t// in\n    tag_920:\n        /* \"#utility.yul\":41727:41733   */\n      dup5\n        /* \"#utility.yul\":41720:41724   */\n      dup5\n        /* \"#utility.yul\":41714:41725   */\n      sload\n        /* \"#utility.yul\":41686:41777   */\n      tag_543\n      jump\t// in\n    tag_919:\n        /* \"#utility.yul\":41680:41684   */\n      dup3\n        /* \"#utility.yul\":41673:41778   */\n      sstore\n        /* \"#utility.yul\":41591:41784   */\n      pop\n        /* \"#utility.yul\":41515:41784   */\n      pop\n      pop\n      pop\n      jump\t// out\n        /* \"#utility.yul\":41790:41863   */\n    tag_548:\n        /* \"#utility.yul\":41835:41838   */\n      0x00\n        /* \"#utility.yul\":41790:41863   */\n      swap1\n      jump\t// out\n        /* \"#utility.yul\":41869:42058   */\n    tag_549:\n        /* \"#utility.yul\":41946:41978   */\n      tag_923\n      tag_548\n      jump\t// in\n    tag_923:\n        /* \"#utility.yul\":41987:42052   */\n      tag_924\n        /* \"#utility.yul\":42045:42051   */\n      dup2\n        /* \"#utility.yul\":42037:42043   */\n      dup5\n        /* \"#utility.yul\":42031:42035   */\n      dup5\n        /* \"#utility.yul\":41987:42052   */\n      tag_547\n      jump\t// in\n    tag_924:\n        /* \"#utility.yul\":41922:42058   */\n      pop\n        /* \"#utility.yul\":41869:42058   */\n      pop\n      pop\n      jump\t// out\n        /* \"#utility.yul\":42064:42250   */\n    tag_550:\n        /* \"#utility.yul\":42124:42244   */\n    tag_926:\n        /* \"#utility.yul\":42141:42144   */\n      dup2\n        /* \"#utility.yul\":42134:42139   */\n      dup2\n        /* \"#utility.yul\":42131:42145   */\n      lt\n        /* \"#utility.yul\":42124:42244   */\n      iszero\n      tag_928\n      jumpi\n        /* \"#utility.yul\":42195:42234   */\n      tag_929\n        /* \"#utility.yul\":42232:42233   */\n      0x00\n        /* \"#utility.yul\":42225:42230   */\n      dup3\n        /* \"#utility.yul\":42195:42234   */\n      tag_549\n      jump\t// in\n    tag_929:\n        /* \"#utility.yul\":42168:42169   */\n      0x01\n        /* \"#utility.yul\":42161:42166   */\n      dup2\n        /* \"#utility.yul\":42157:42170   */\n      add\n        /* \"#utility.yul\":42148:42170   */\n      swap1\n      pop\n        /* \"#utility.yul\":42124:42244   */\n      jump(tag_926)\n    tag_928:\n        /* \"#utility.yul\":42064:42250   */\n      pop\n      pop\n      jump\t// out\n        /* \"#utility.yul\":42256:42799   */\n    tag_551:\n        /* \"#utility.yul\":42357:42359   */\n      0x1f\n        /* \"#utility.yul\":42352:42355   */\n      dup3\n        /* \"#utility.yul\":42349:42360   */\n      gt\n        /* \"#utility.yul\":42346:42792   */\n      iszero\n      tag_931\n      jumpi\n        /* \"#utility.yul\":42391:42429   */\n      tag_932\n        /* \"#utility.yul\":42423:42428   */\n      dup2\n        /* \"#utility.yul\":42391:42429   */\n      tag_540\n      jump\t// in\n    tag_932:\n        /* \"#utility.yul\":42475:42504   */\n      tag_933\n        /* \"#utility.yul\":42493:42503   */\n      dup5\n        /* \"#utility.yul\":42475:42504   */\n      tag_541\n      jump\t// in\n    tag_933:\n        /* \"#utility.yul\":42465:42473   */\n      dup2\n        /* \"#utility.yul\":42461:42505   */\n      add\n        /* \"#utility.yul\":42658:42660   */\n      0x20\n        /* \"#utility.yul\":42646:42656   */\n      dup6\n        /* \"#utility.yul\":42643:42661   */\n      lt\n        /* \"#utility.yul\":42640:42689   */\n      iszero\n      tag_934\n      jumpi\n        /* \"#utility.yul\":42679:42687   */\n      dup2\n        /* \"#utility.yul\":42664:42687   */\n      swap1\n      pop\n        /* \"#utility.yul\":42640:42689   */\n    tag_934:\n        /* \"#utility.yul\":42702:42782   */\n      tag_935\n        /* \"#utility.yul\":42758:42780   */\n      tag_936\n        /* \"#utility.yul\":42776:42779   */\n      dup6\n        /* \"#utility.yul\":42758:42780   */\n      tag_541\n      jump\t// in\n    tag_936:\n        /* \"#utility.yul\":42748:42756   */\n      dup4\n        /* \"#utility.yul\":42744:42781   */\n      add\n        /* \"#utility.yul\":42731:42742   */\n      dup3\n        /* \"#utility.yul\":42702:42782   */\n      tag_550\n      jump\t// in\n    tag_935:\n        /* \"#utility.yul\":42361:42792   */\n      pop\n      pop\n        /* \"#utility.yul\":42346:42792   */\n    tag_931:\n        /* \"#utility.yul\":42256:42799   */\n      pop\n      pop\n      pop\n      jump\t// out\n        /* \"#utility.yul\":42805:42922   */\n    tag_552:\n        /* \"#utility.yul\":42859:42867   */\n      0x00\n        /* \"#utility.yul\":42909:42914   */\n      dup3\n        /* \"#utility.yul\":42903:42907   */\n      dup3\n        /* \"#utility.yul\":42899:42915   */\n      shr\n        /* \"#utility.yul\":42878:42915   */\n      swap1\n      pop\n        /* \"#utility.yul\":42805:42922   */\n      swap3\n      swap2\n      pop\n      pop\n      jump\t// out\n        /* \"#utility.yul\":42928:43097   */\n    tag_553:\n        /* \"#utility.yul\":42972:42978   */\n      0x00\n        /* \"#utility.yul\":43005:43056   */\n      tag_939\n        /* \"#utility.yul\":43053:43054   */\n      0x00\n        /* \"#utility.yul\":43049:43055   */\n      not\n        /* \"#utility.yul\":43041:43046   */\n      dup5\n        /* \"#utility.yul\":43038:43039   */\n      0x08\n        /* \"#utility.yul\":43034:43047   */\n      mul\n        /* \"#utility.yul\":43005:43056   */\n      tag_552\n      jump\t// in\n    tag_939:\n        /* \"#utility.yul\":43001:43057   */\n      not\n        /* \"#utility.yul\":43086:43090   */\n      dup1\n        /* \"#utility.yul\":43080:43084   */\n      dup4\n        /* \"#utility.yul\":43076:43091   */\n      and\n        /* \"#utility.yul\":43066:43091   */\n      swap2\n      pop\n        /* \"#utility.yul\":42979:43097   */\n      pop\n        /* \"#utility.yul\":42928:43097   */\n      swap3\n      swap2\n      pop\n      pop\n      jump\t// out\n        /* \"#utility.yul\":43102:43397   */\n    tag_554:\n        /* \"#utility.yul\":43178:43182   */\n      0x00\n        /* \"#utility.yul\":43324:43353   */\n      tag_941\n        /* \"#utility.yul\":43349:43352   */\n      dup4\n        /* \"#utility.yul\":43343:43347   */\n      dup4\n        /* \"#utility.yul\":43324:43353   */\n      tag_553\n      jump\t// in\n    tag_941:\n        /* \"#utility.yul\":43316:43353   */\n      swap2\n      pop\n        /* \"#utility.yul\":43386:43389   */\n      dup3\n        /* \"#utility.yul\":43383:43384   */\n      0x02\n        /* \"#utility.yul\":43379:43390   */\n      mul\n        /* \"#utility.yul\":43373:43377   */\n      dup3\n        /* \"#utility.yul\":43370:43391   */\n      or\n        /* \"#utility.yul\":43362:43391   */\n      swap1\n      pop\n        /* \"#utility.yul\":43102:43397   */\n      swap3\n      swap2\n      pop\n      pop\n      jump\t// out\n        /* \"#utility.yul\":43402:44797   */\n    tag_140:\n        /* \"#utility.yul\":43519:43556   */\n      tag_943\n        /* \"#utility.yul\":43552:43555   */\n      dup3\n        /* \"#utility.yul\":43519:43556   */\n      tag_509\n      jump\t// in\n    tag_943:\n        /* \"#utility.yul\":43621:43639   */\n      0xffffffffffffffff\n        /* \"#utility.yul\":43613:43619   */\n      dup2\n        /* \"#utility.yul\":43610:43640   */\n      gt\n        /* \"#utility.yul\":43607:43663   */\n      iszero\n      tag_944\n      jumpi\n        /* \"#utility.yul\":43643:43661   */\n      tag_945\n      tag_376\n      jump\t// in\n    tag_945:\n        /* \"#utility.yul\":43607:43663   */\n    tag_944:\n        /* \"#utility.yul\":43687:43725   */\n      tag_946\n        /* \"#utility.yul\":43719:43723   */\n      dup3\n        /* \"#utility.yul\":43713:43724   */\n      sload\n        /* \"#utility.yul\":43687:43725   */\n      tag_181\n      jump\t// in\n    tag_946:\n        /* \"#utility.yul\":43772:43839   */\n      tag_947\n        /* \"#utility.yul\":43832:43838   */\n      dup3\n        /* \"#utility.yul\":43824:43830   */\n      dup3\n        /* \"#utility.yul\":43818:43822   */\n      dup6\n        /* \"#utility.yul\":43772:43839   */\n      tag_551\n      jump\t// in\n    tag_947:\n        /* \"#utility.yul\":43866:43867   */\n      0x00\n        /* \"#utility.yul\":43890:43894   */\n      0x20\n        /* \"#utility.yul\":43877:43894   */\n      swap1\n      pop\n        /* \"#utility.yul\":43922:43924   */\n      0x1f\n        /* \"#utility.yul\":43914:43920   */\n      dup4\n        /* \"#utility.yul\":43911:43925   */\n      gt\n        /* \"#utility.yul\":43939:43940   */\n      0x01\n        /* \"#utility.yul\":43934:44552   */\n      dup2\n      eq\n      tag_949\n      jumpi\n        /* \"#utility.yul\":44596:44597   */\n      0x00\n        /* \"#utility.yul\":44613:44619   */\n      dup5\n        /* \"#utility.yul\":44610:44687   */\n      iszero\n      tag_950\n      jumpi\n        /* \"#utility.yul\":44662:44671   */\n      dup3\n        /* \"#utility.yul\":44657:44660   */\n      dup8\n        /* \"#utility.yul\":44653:44672   */\n      add\n        /* \"#utility.yul\":44647:44673   */\n      mload\n        /* \"#utility.yul\":44638:44673   */\n      swap1\n      pop\n        /* \"#utility.yul\":44610:44687   */\n    tag_950:\n        /* \"#utility.yul\":44713:44780   */\n      tag_951\n        /* \"#utility.yul\":44773:44779   */\n      dup6\n        /* \"#utility.yul\":44766:44771   */\n      dup3\n        /* \"#utility.yul\":44713:44780   */\n      tag_554\n      jump\t// in\n    tag_951:\n        /* \"#utility.yul\":44707:44711   */\n      dup7\n        /* \"#utility.yul\":44700:44781   */\n      sstore\n        /* \"#utility.yul\":44569:44791   */\n      pop\n        /* \"#utility.yul\":43904:44791   */\n      jump(tag_948)\n        /* \"#utility.yul\":43934:44552   */\n    tag_949:\n        /* \"#utility.yul\":43986:43990   */\n      0x1f\n        /* \"#utility.yul\":43982:43991   */\n      not\n        /* \"#utility.yul\":43974:43980   */\n      dup5\n        /* \"#utility.yul\":43970:43992   */\n      and\n        /* \"#utility.yul\":44020:44057   */\n      tag_952\n        /* \"#utility.yul\":44052:44056   */\n      dup7\n        /* \"#utility.yul\":44020:44057   */\n      tag_540\n      jump\t// in\n    tag_952:\n        /* \"#utility.yul\":44079:44080   */\n      0x00\n        /* \"#utility.yul\":44093:44301   */\n    tag_953:\n        /* \"#utility.yul\":44107:44114   */\n      dup3\n        /* \"#utility.yul\":44104:44105   */\n      dup2\n        /* \"#utility.yul\":44101:44115   */\n      lt\n        /* \"#utility.yul\":44093:44301   */\n      iszero\n      tag_955\n      jumpi\n        /* \"#utility.yul\":44186:44195   */\n      dup5\n        /* \"#utility.yul\":44181:44184   */\n      dup10\n        /* \"#utility.yul\":44177:44196   */\n      add\n        /* \"#utility.yul\":44171:44197   */\n      mload\n        /* \"#utility.yul\":44163:44169   */\n      dup3\n        /* \"#utility.yul\":44156:44198   */\n      sstore\n        /* \"#utility.yul\":44237:44238   */\n      0x01\n        /* \"#utility.yul\":44229:44235   */\n      dup3\n        /* \"#utility.yul\":44225:44239   */\n      add\n        /* \"#utility.yul\":44215:44239   */\n      swap2\n      pop\n        /* \"#utility.yul\":44284:44286   */\n      0x20\n        /* \"#utility.yul\":44273:44282   */\n      dup6\n        /* \"#utility.yul\":44269:44287   */\n      add\n        /* \"#utility.yul\":44256:44287   */\n      swap5\n      pop\n        /* \"#utility.yul\":44130:44134   */\n      0x20\n        /* \"#utility.yul\":44127:44128   */\n      dup2\n        /* \"#utility.yul\":44123:44135   */\n      add\n        /* \"#utility.yul\":44118:44135   */\n      swap1\n      pop\n        /* \"#utility.yul\":44093:44301   */\n      jump(tag_953)\n    tag_955:\n        /* \"#utility.yul\":44329:44335   */\n      dup7\n        /* \"#utility.yul\":44320:44327   */\n      dup4\n        /* \"#utility.yul\":44317:44336   */\n      lt\n        /* \"#utility.yul\":44314:44493   */\n      iszero\n      tag_956\n      jumpi\n        /* \"#utility.yul\":44387:44396   */\n      dup5\n        /* \"#utility.yul\":44382:44385   */\n      dup10\n        /* \"#utility.yul\":44378:44397   */\n      add\n        /* \"#utility.yul\":44372:44398   */\n      mload\n        /* \"#utility.yul\":44430:44478   */\n      tag_957\n        /* \"#utility.yul\":44472:44476   */\n      0x1f\n        /* \"#utility.yul\":44464:44470   */\n      dup10\n        /* \"#utility.yul\":44460:44477   */\n      and\n        /* \"#utility.yul\":44449:44458   */\n      dup3\n        /* \"#utility.yul\":44430:44478   */\n      tag_553\n      jump\t// in\n    tag_957:\n        /* \"#utility.yul\":44422:44428   */\n      dup4\n        /* \"#utility.yul\":44415:44479   */\n      sstore\n        /* \"#utility.yul\":44337:44493   */\n      pop\n        /* \"#utility.yul\":44314:44493   */\n    tag_956:\n        /* \"#utility.yul\":44539:44540   */\n      0x01\n        /* \"#utility.yul\":44535:44536   */\n      0x02\n        /* \"#utility.yul\":44527:44533   */\n      dup9\n        /* \"#utility.yul\":44523:44537   */\n      mul\n        /* \"#utility.yul\":44519:44541   */\n      add\n        /* \"#utility.yul\":44513:44517   */\n      dup9\n        /* \"#utility.yul\":44506:44542   */\n      sstore\n        /* \"#utility.yul\":43941:44552   */\n      pop\n      pop\n      pop\n        /* \"#utility.yul\":43904:44791   */\n    tag_948:\n      pop\n        /* \"#utility.yul\":43494:44797   */\n      pop\n      pop\n      pop\n        /* \"#utility.yul\":43402:44797   */\n      pop\n      pop\n      jump\t// out\n        /* \"#utility.yul\":44803:45026   */\n    tag_555:\n        /* \"#utility.yul\":44943:44977   */\n      0x56616c696461746f72206973206e6f7420616c6c6f77656420746f2076616c69\n        /* \"#utility.yul\":44939:44940   */\n      0x00\n        /* \"#utility.yul\":44931:44937   */\n      dup3\n        /* \"#utility.yul\":44927:44941   */\n      add\n        /* \"#utility.yul\":44920:44978   */\n      mstore\n        /* \"#utility.yul\":45012:45018   */\n      0x6461746500000000000000000000000000000000000000000000000000000000\n        /* \"#utility.yul\":45007:45009   */\n      0x20\n        /* \"#utility.yul\":44999:45005   */\n      dup3\n        /* \"#utility.yul\":44995:45010   */\n      add\n        /* \"#utility.yul\":44988:45019   */\n      mstore\n        /* \"#utility.yul\":44803:45026   */\n      pop\n      jump\t// out\n        /* \"#utility.yul\":45032:45398   */\n    tag_556:\n        /* \"#utility.yul\":45174:45177   */\n      0x00\n        /* \"#utility.yul\":45195:45262   */\n      tag_960\n        /* \"#utility.yul\":45259:45261   */\n      0x24\n        /* \"#utility.yul\":45254:45257   */\n      dup4\n        /* \"#utility.yul\":45195:45262   */\n      tag_516\n      jump\t// in\n    tag_960:\n        /* \"#utility.yul\":45188:45262   */\n      swap2\n      pop\n        /* \"#utility.yul\":45271:45364   */\n      tag_961\n        /* \"#utility.yul\":45360:45363   */\n      dup3\n        /* \"#utility.yul\":45271:45364   */\n      tag_555\n      jump\t// in\n    tag_961:\n        /* \"#utility.yul\":45389:45391   */\n      0x40\n        /* \"#utility.yul\":45384:45387   */\n      dup3\n        /* \"#utility.yul\":45380:45392   */\n      add\n        /* \"#utility.yul\":45373:45392   */\n      swap1\n      pop\n        /* \"#utility.yul\":45032:45398   */\n      swap2\n      swap1\n      pop\n      jump\t// out\n        /* \"#utility.yul\":45404:45823   */\n    tag_204:\n        /* \"#utility.yul\":45570:45574   */\n      0x00\n        /* \"#utility.yul\":45608:45610   */\n      0x20\n        /* \"#utility.yul\":45597:45606   */\n      dup3\n        /* \"#utility.yul\":45593:45611   */\n      add\n        /* \"#utility.yul\":45585:45611   */\n      swap1\n      pop\n        /* \"#utility.yul\":45657:45666   */\n      dup2\n        /* \"#utility.yul\":45651:45655   */\n      dup2\n        /* \"#utility.yul\":45647:45667   */\n      sub\n        /* \"#utility.yul\":45643:45644   */\n      0x00\n        /* \"#utility.yul\":45632:45641   */\n      dup4\n        /* \"#utility.yul\":45628:45645   */\n      add\n        /* \"#utility.yul\":45621:45668   */\n      mstore\n        /* \"#utility.yul\":45685:45816   */\n      tag_963\n        /* \"#utility.yul\":45811:45815   */\n      dup2\n        /* \"#utility.yul\":45685:45816   */\n      tag_556\n      jump\t// in\n    tag_963:\n        /* \"#utility.yul\":45677:45816   */\n      swap1\n      pop\n        /* \"#utility.yul\":45404:45823   */\n      swap2\n      swap1\n      pop\n      jump\t// out\n        /* \"#utility.yul\":45829:46009   */\n    tag_557:\n        /* \"#utility.yul\":45877:45954   */\n      0x4e487b7100000000000000000000000000000000000000000000000000000000\n        /* \"#utility.yul\":45874:45875   */\n      0x00\n        /* \"#utility.yul\":45867:45955   */\n      mstore\n        /* \"#utility.yul\":45974:45978   */\n      0x11\n        /* \"#utility.yul\":45971:45972   */\n      0x04\n        /* \"#utility.yul\":45964:45979   */\n      mstore\n        /* \"#utility.yul\":45998:46002   */\n      0x24\n        /* \"#utility.yul\":45995:45996   */\n      0x00\n        /* \"#utility.yul\":45988:46003   */\n      revert\n        /* \"#utility.yul\":46015:46206   */\n    tag_206:\n        /* \"#utility.yul\":46055:46058   */\n      0x00\n        /* \"#utility.yul\":46074:46094   */\n      tag_966\n        /* \"#utility.yul\":46092:46093   */\n      dup3\n        /* \"#utility.yul\":46074:46094   */\n      tag_490\n      jump\t// in\n    tag_966:\n        /* \"#utility.yul\":46069:46094   */\n      swap2\n      pop\n        /* \"#utility.yul\":46108:46128   */\n      tag_967\n        /* \"#utility.yul\":46126:46127   */\n      dup4\n        /* \"#utility.yul\":46108:46128   */\n      tag_490\n      jump\t// in\n    tag_967:\n        /* \"#utility.yul\":46103:46128   */\n      swap3\n      pop\n        /* \"#utility.yul\":46151:46152   */\n      dup3\n        /* \"#utility.yul\":46148:46149   */\n      dup3\n        /* \"#utility.yul\":46144:46153   */\n      add\n        /* \"#utility.yul\":46137:46153   */\n      swap1\n      pop\n        /* \"#utility.yul\":46172:46175   */\n      dup1\n        /* \"#utility.yul\":46169:46170   */\n      dup3\n        /* \"#utility.yul\":46166:46176   */\n      gt\n        /* \"#utility.yul\":46163:46199   */\n      iszero\n      tag_968\n      jumpi\n        /* \"#utility.yul\":46179:46197   */\n      tag_969\n      tag_557\n      jump\t// in\n    tag_969:\n        /* \"#utility.yul\":46163:46199   */\n    tag_968:\n        /* \"#utility.yul\":46015:46206   */\n      swap3\n      swap2\n      pop\n      pop\n      jump\t// out\n        /* \"#utility.yul\":46212:46379   */\n    tag_558:\n        /* \"#utility.yul\":46352:46371   */\n      0x416c72656164792076616c696461746564000000000000000000000000000000\n        /* \"#utility.yul\":46348:46349   */\n      0x00\n        /* \"#utility.yul\":46340:46346   */\n      dup3\n        /* \"#utility.yul\":46336:46350   */\n      add\n        /* \"#utility.yul\":46329:46372   */\n      mstore\n        /* \"#utility.yul\":46212:46379   */\n      pop\n      jump\t// out\n        /* \"#utility.yul\":46385:46751   */\n    tag_559:\n        /* \"#utility.yul\":46527:46530   */\n      0x00\n        /* \"#utility.yul\":46548:46615   */\n      tag_972\n        /* \"#utility.yul\":46612:46614   */\n      0x11\n        /* \"#utility.yul\":46607:46610   */\n      dup4\n        /* \"#utility.yul\":46548:46615   */\n      tag_516\n      jump\t// in\n    tag_972:\n        /* \"#utility.yul\":46541:46615   */\n      swap2\n      pop\n        /* \"#utility.yul\":46624:46717   */\n      tag_973\n        /* \"#utility.yul\":46713:46716   */\n      dup3\n        /* \"#utility.yul\":46624:46717   */\n      tag_558\n      jump\t// in\n    tag_973:\n        /* \"#utility.yul\":46742:46744   */\n      0x20\n        /* \"#utility.yul\":46737:46740   */\n      dup3\n        /* \"#utility.yul\":46733:46745   */\n      add\n        /* \"#utility.yul\":46726:46745   */\n      swap1\n      pop\n        /* \"#utility.yul\":46385:46751   */\n      swap2\n      swap1\n      pop\n      jump\t// out\n        /* \"#utility.yul\":46757:47176   */\n    tag_209:\n        /* \"#utility.yul\":46923:46927   */\n      0x00\n        /* \"#utility.yul\":46961:46963   */\n      0x20\n        /* \"#utility.yul\":46950:46959   */\n      dup3\n        /* \"#utility.yul\":46946:46964   */\n      add\n        /* \"#utility.yul\":46938:46964   */\n      swap1\n      pop\n        /* \"#utility.yul\":47010:47019   */\n      dup2\n        /* \"#utility.yul\":47004:47008   */\n      dup2\n        /* \"#utility.yul\":47000:47020   */\n      sub\n        /* \"#utility.yul\":46996:46997   */\n      0x00\n        /* \"#utility.yul\":46985:46994   */\n      dup4\n        /* \"#utility.yul\":46981:46998   */\n      add\n        /* \"#utility.yul\":46974:47021   */\n      mstore\n        /* \"#utility.yul\":47038:47169   */\n      tag_975\n        /* \"#utility.yul\":47164:47168   */\n      dup2\n        /* \"#utility.yul\":47038:47169   */\n      tag_559\n      jump\t// in\n    tag_975:\n        /* \"#utility.yul\":47030:47169   */\n      swap1\n      pop\n        /* \"#utility.yul\":46757:47176   */\n      swap2\n      swap1\n      pop\n      jump\t// out\n        /* \"#utility.yul\":47182:47360   */\n    tag_560:\n        /* \"#utility.yul\":47322:47352   */\n      0x43616e742076616c6964617465206d6f7265207468616e206f6e636500000000\n        /* \"#utility.yul\":47318:47319   */\n      0x00\n        /* \"#utility.yul\":47310:47316   */\n      dup3\n        /* \"#utility.yul\":47306:47320   */\n      add\n        /* \"#utility.yul\":47299:47353   */\n      mstore\n        /* \"#utility.yul\":47182:47360   */\n      pop\n      jump\t// out\n        /* \"#utility.yul\":47366:47732   */\n    tag_561:\n        /* \"#utility.yul\":47508:47511   */\n      0x00\n        /* \"#utility.yul\":47529:47596   */\n      tag_978\n        /* \"#utility.yul\":47593:47595   */\n      0x1c\n        /* \"#utility.yul\":47588:47591   */\n      dup4\n        /* \"#utility.yul\":47529:47596   */\n      tag_516\n      jump\t// in\n    tag_978:\n        /* \"#utility.yul\":47522:47596   */\n      swap2\n      pop\n        /* \"#utility.yul\":47605:47698   */\n      tag_979\n        /* \"#utility.yul\":47694:47697   */\n      dup3\n        /* \"#utility.yul\":47605:47698   */\n      tag_560\n      jump\t// in\n    tag_979:\n        /* \"#utility.yul\":47723:47725   */\n      0x20\n        /* \"#utility.yul\":47718:47721   */\n      dup3\n        /* \"#utility.yul\":47714:47726   */\n      add\n        /* \"#utility.yul\":47707:47726   */\n      swap1\n      pop\n        /* \"#utility.yul\":47366:47732   */\n      swap2\n      swap1\n      pop\n      jump\t// out\n        /* \"#utility.yul\":47738:48157   */\n    tag_213:\n        /* \"#utility.yul\":47904:47908   */\n      0x00\n        /* \"#utility.yul\":47942:47944   */\n      0x20\n        /* \"#utility.yul\":47931:47940   */\n      dup3\n        /* \"#utility.yul\":47927:47945   */\n      add\n        /* \"#utility.yul\":47919:47945   */\n      swap1\n      pop\n        /* \"#utility.yul\":47991:48000   */\n      dup2\n        /* \"#utility.yul\":47985:47989   */\n      dup2\n        /* \"#utility.yul\":47981:48001   */\n      sub\n        /* \"#utility.yul\":47977:47978   */\n      0x00\n        /* \"#utility.yul\":47966:47975   */\n      dup4\n        /* \"#utility.yul\":47962:47979   */\n      add\n        /* \"#utility.yul\":47955:48002   */\n      mstore\n        /* \"#utility.yul\":48019:48150   */\n      tag_981\n        /* \"#utility.yul\":48145:48149   */\n      dup2\n        /* \"#utility.yul\":48019:48150   */\n      tag_561\n      jump\t// in\n    tag_981:\n        /* \"#utility.yul\":48011:48150   */\n      swap1\n      pop\n        /* \"#utility.yul\":47738:48157   */\n      swap2\n      swap1\n      pop\n      jump\t// out\n        /* \"#utility.yul\":48163:48340   */\n    tag_562:\n        /* \"#utility.yul\":48303:48332   */\n      0x76616c696461746f722077617320616c72656164792061646465640000000000\n        /* \"#utility.yul\":48299:48300   */\n      0x00\n        /* \"#utility.yul\":48291:48297   */\n      dup3\n        /* \"#utility.yul\":48287:48301   */\n      add\n        /* \"#utility.yul\":48280:48333   */\n      mstore\n        /* \"#utility.yul\":48163:48340   */\n      pop\n      jump\t// out\n        /* \"#utility.yul\":48346:48712   */\n    tag_563:\n        /* \"#utility.yul\":48488:48491   */\n      0x00\n        /* \"#utility.yul\":48509:48576   */\n      tag_984\n        /* \"#utility.yul\":48573:48575   */\n      0x1b\n        /* \"#utility.yul\":48568:48571   */\n      dup4\n        /* \"#utility.yul\":48509:48576   */\n      tag_516\n      jump\t// in\n    tag_984:\n        /* \"#utility.yul\":48502:48576   */\n      swap2\n      pop\n        /* \"#utility.yul\":48585:48678   */\n      tag_985\n        /* \"#utility.yul\":48674:48677   */\n      dup3\n        /* \"#utility.yul\":48585:48678   */\n      tag_562\n      jump\t// in\n    tag_985:\n        /* \"#utility.yul\":48703:48705   */\n      0x20\n        /* \"#utility.yul\":48698:48701   */\n      dup3\n        /* \"#utility.yul\":48694:48706   */\n      add\n        /* \"#utility.yul\":48687:48706   */\n      swap1\n      pop\n        /* \"#utility.yul\":48346:48712   */\n      swap2\n      swap1\n      pop\n      jump\t// out\n        /* \"#utility.yul\":48718:49137   */\n    tag_281:\n        /* \"#utility.yul\":48884:48888   */\n      0x00\n        /* \"#utility.yul\":48922:48924   */\n      0x20\n        /* \"#utility.yul\":48911:48920   */\n      dup3\n        /* \"#utility.yul\":48907:48925   */\n      add\n        /* \"#utility.yul\":48899:48925   */\n      swap1\n      pop\n        /* \"#utility.yul\":48971:48980   */\n      dup2\n        /* \"#utility.yul\":48965:48969   */\n      dup2\n        /* \"#utility.yul\":48961:48981   */\n      sub\n        /* \"#utility.yul\":48957:48958   */\n      0x00\n        /* \"#utility.yul\":48946:48955   */\n      dup4\n        /* \"#utility.yul\":48942:48959   */\n      add\n        /* \"#utility.yul\":48935:48982   */\n      mstore\n        /* \"#utility.yul\":48999:49130   */\n      tag_987\n        /* \"#utility.yul\":49125:49129   */\n      dup2\n        /* \"#utility.yul\":48999:49130   */\n      tag_563\n      jump\t// in\n    tag_987:\n        /* \"#utility.yul\":48991:49130   */\n      swap1\n      pop\n        /* \"#utility.yul\":48718:49137   */\n      swap2\n      swap1\n      pop\n      jump\t// out\n        /* \"#utility.yul\":49143:49377   */\n    tag_564:\n        /* \"#utility.yul\":49283:49317   */\n      0x416c726561647920656e6f7567682076616c696461746f727320746f2076616c\n        /* \"#utility.yul\":49279:49280   */\n      0x00\n        /* \"#utility.yul\":49271:49277   */\n      dup3\n        /* \"#utility.yul\":49267:49281   */\n      add\n        /* \"#utility.yul\":49260:49318   */\n      mstore\n        /* \"#utility.yul\":49352:49369   */\n      0x6964617465207468652073746167650000000000000000000000000000000000\n        /* \"#utility.yul\":49347:49349   */\n      0x20\n        /* \"#utility.yul\":49339:49345   */\n      dup3\n        /* \"#utility.yul\":49335:49350   */\n      add\n        /* \"#utility.yul\":49328:49370   */\n      mstore\n        /* \"#utility.yul\":49143:49377   */\n      pop\n      jump\t// out\n        /* \"#utility.yul\":49383:49749   */\n    tag_565:\n        /* \"#utility.yul\":49525:49528   */\n      0x00\n        /* \"#utility.yul\":49546:49613   */\n      tag_990\n        /* \"#utility.yul\":49610:49612   */\n      0x2f\n        /* \"#utility.yul\":49605:49608   */\n      dup4\n        /* \"#utility.yul\":49546:49613   */\n      tag_516\n      jump\t// in\n    tag_990:\n        /* \"#utility.yul\":49539:49613   */\n      swap2\n      pop\n        /* \"#utility.yul\":49622:49715   */\n      tag_991\n        /* \"#utility.yul\":49711:49714   */\n      dup3\n        /* \"#utility.yul\":49622:49715   */\n      tag_564\n      jump\t// in\n    tag_991:\n        /* \"#utility.yul\":49740:49742   */\n      0x40\n        /* \"#utility.yul\":49735:49738   */\n      dup3\n        /* \"#utility.yul\":49731:49743   */\n      add\n        /* \"#utility.yul\":49724:49743   */\n      swap1\n      pop\n        /* \"#utility.yul\":49383:49749   */\n      swap2\n      swap1\n      pop\n      jump\t// out\n        /* \"#utility.yul\":49755:50174   */\n    tag_285:\n        /* \"#utility.yul\":49921:49925   */\n      0x00\n        /* \"#utility.yul\":49959:49961   */\n      0x20\n        /* \"#utility.yul\":49948:49957   */\n      dup3\n        /* \"#utility.yul\":49944:49962   */\n      add\n        /* \"#utility.yul\":49936:49962   */\n      swap1\n      pop\n        /* \"#utility.yul\":50008:50017   */\n      dup2\n        /* \"#utility.yul\":50002:50006   */\n      dup2\n        /* \"#utility.yul\":49998:50018   */\n      sub\n        /* \"#utility.yul\":49994:49995   */\n      0x00\n        /* \"#utility.yul\":49983:49992   */\n      dup4\n        /* \"#utility.yul\":49979:49996   */\n      add\n        /* \"#utility.yul\":49972:50019   */\n      mstore\n        /* \"#utility.yul\":50036:50167   */\n      tag_993\n        /* \"#utility.yul\":50162:50166   */\n      dup2\n        /* \"#utility.yul\":50036:50167   */\n      tag_565\n      jump\t// in\n    tag_993:\n        /* \"#utility.yul\":50028:50167   */\n      swap1\n      pop\n        /* \"#utility.yul\":49755:50174   */\n      swap2\n      swap1\n      pop\n      jump\t// out\n        /* \"#utility.yul\":50180:50345   */\n    tag_566:\n        /* \"#utility.yul\":50320:50337   */\n      0x5374616765206e6f7420666f756e640000000000000000000000000000000000\n        /* \"#utility.yul\":50316:50317   */\n      0x00\n        /* \"#utility.yul\":50308:50314   */\n      dup3\n        /* \"#utility.yul\":50304:50318   */\n      add\n        /* \"#utility.yul\":50297:50338   */\n      mstore\n        /* \"#utility.yul\":50180:50345   */\n      pop\n      jump\t// out\n        /* \"#utility.yul\":50351:50717   */\n    tag_567:\n        /* \"#utility.yul\":50493:50496   */\n      0x00\n        /* \"#utility.yul\":50514:50581   */\n      tag_996\n        /* \"#utility.yul\":50578:50580   */\n      0x0f\n        /* \"#utility.yul\":50573:50576   */\n      dup4\n        /* \"#utility.yul\":50514:50581   */\n      tag_516\n      jump\t// in\n    tag_996:\n        /* \"#utility.yul\":50507:50581   */\n      swap2\n      pop\n        /* \"#utility.yul\":50590:50683   */\n      tag_997\n        /* \"#utility.yul\":50679:50682   */\n      dup3\n        /* \"#utility.yul\":50590:50683   */\n      tag_566\n      jump\t// in\n    tag_997:\n        /* \"#utility.yul\":50708:50710   */\n      0x20\n        /* \"#utility.yul\":50703:50706   */\n      dup3\n        /* \"#utility.yul\":50699:50711   */\n      add\n        /* \"#utility.yul\":50692:50711   */\n      swap1\n      pop\n        /* \"#utility.yul\":50351:50717   */\n      swap2\n      swap1\n      pop\n      jump\t// out\n        /* \"#utility.yul\":50723:51142   */\n    tag_370:\n        /* \"#utility.yul\":50889:50893   */\n      0x00\n        /* \"#utility.yul\":50927:50929   */\n      0x20\n        /* \"#utility.yul\":50916:50925   */\n      dup3\n        /* \"#utility.yul\":50912:50930   */\n      add\n        /* \"#utility.yul\":50904:50930   */\n      swap1\n      pop\n        /* \"#utility.yul\":50976:50985   */\n      dup2\n        /* \"#utility.yul\":50970:50974   */\n      dup2\n        /* \"#utility.yul\":50966:50986   */\n      sub\n        /* \"#utility.yul\":50962:50963   */\n      0x00\n        /* \"#utility.yul\":50951:50960   */\n      dup4\n        /* \"#utility.yul\":50947:50964   */\n      add\n        /* \"#utility.yul\":50940:50987   */\n      mstore\n        /* \"#utility.yul\":51004:51135   */\n      tag_999\n        /* \"#utility.yul\":51130:51134   */\n      dup2\n        /* \"#utility.yul\":51004:51135   */\n      tag_567\n      jump\t// in\n    tag_999:\n        /* \"#utility.yul\":50996:51135   */\n      swap1\n      pop\n        /* \"#utility.yul\":50723:51142   */\n      swap2\n      swap1\n      pop\n      jump\t// out\n        /* \"#utility.yul\":51172:52046   */\n    tag_568:\n        /* \"#utility.yul\":51275:51278   */\n      0x00\n        /* \"#utility.yul\":51312:51317   */\n      dup2\n        /* \"#utility.yul\":51306:51318   */\n      sload\n        /* \"#utility.yul\":51341:51377   */\n      tag_1001\n        /* \"#utility.yul\":51367:51376   */\n      dup2\n        /* \"#utility.yul\":51341:51377   */\n      tag_181\n      jump\t// in\n    tag_1001:\n        /* \"#utility.yul\":51393:51482   */\n      tag_1002\n        /* \"#utility.yul\":51475:51481   */\n      dup2\n        /* \"#utility.yul\":51470:51473   */\n      dup7\n        /* \"#utility.yul\":51393:51482   */\n      tag_537\n      jump\t// in\n    tag_1002:\n        /* \"#utility.yul\":51386:51482   */\n      swap5\n      pop\n        /* \"#utility.yul\":51513:51514   */\n      0x01\n        /* \"#utility.yul\":51502:51511   */\n      dup3\n        /* \"#utility.yul\":51498:51515   */\n      and\n        /* \"#utility.yul\":51529:51530   */\n      0x00\n        /* \"#utility.yul\":51524:51690   */\n      dup2\n      eq\n      tag_1004\n      jumpi\n        /* \"#utility.yul\":51704:51705   */\n      0x01\n        /* \"#utility.yul\":51699:52040   */\n      dup2\n      eq\n      tag_1005\n      jumpi\n        /* \"#utility.yul\":51491:52040   */\n      jump(tag_1003)\n        /* \"#utility.yul\":51524:51690   */\n    tag_1004:\n        /* \"#utility.yul\":51608:51612   */\n      0xff\n        /* \"#utility.yul\":51604:51613   */\n      not\n        /* \"#utility.yul\":51593:51602   */\n      dup4\n        /* \"#utility.yul\":51589:51614   */\n      and\n        /* \"#utility.yul\":51584:51587   */\n      dup7\n        /* \"#utility.yul\":51577:51615   */\n      mstore\n        /* \"#utility.yul\":51670:51676   */\n      dup2\n        /* \"#utility.yul\":51663:51677   */\n      iszero\n        /* \"#utility.yul\":51656:51678   */\n      iszero\n        /* \"#utility.yul\":51648:51654   */\n      dup3\n        /* \"#utility.yul\":51644:51679   */\n      mul\n        /* \"#utility.yul\":51639:51642   */\n      dup7\n        /* \"#utility.yul\":51635:51680   */\n      add\n        /* \"#utility.yul\":51628:51680   */\n      swap4\n      pop\n        /* \"#utility.yul\":51524:51690   */\n      jump(tag_1003)\n        /* \"#utility.yul\":51699:52040   */\n    tag_1005:\n        /* \"#utility.yul\":51766:51804   */\n      tag_1006\n        /* \"#utility.yul\":51798:51803   */\n      dup6\n        /* \"#utility.yul\":51766:51804   */\n      tag_540\n      jump\t// in\n    tag_1006:\n        /* \"#utility.yul\":51826:51827   */\n      0x00\n        /* \"#utility.yul\":51840:51994   */\n    tag_1007:\n        /* \"#utility.yul\":51854:51860   */\n      dup4\n        /* \"#utility.yul\":51851:51852   */\n      dup2\n        /* \"#utility.yul\":51848:51861   */\n      lt\n        /* \"#utility.yul\":51840:51994   */\n      iszero\n      tag_1009\n      jumpi\n        /* \"#utility.yul\":51928:51935   */\n      dup2\n        /* \"#utility.yul\":51922:51936   */\n      sload\n        /* \"#utility.yul\":51918:51919   */\n      dup2\n        /* \"#utility.yul\":51913:51916   */\n      dup10\n        /* \"#utility.yul\":51909:51920   */\n      add\n        /* \"#utility.yul\":51902:51937   */\n      mstore\n        /* \"#utility.yul\":51978:51979   */\n      0x01\n        /* \"#utility.yul\":51969:51976   */\n      dup3\n        /* \"#utility.yul\":51965:51980   */\n      add\n        /* \"#utility.yul\":51954:51980   */\n      swap2\n      pop\n        /* \"#utility.yul\":51876:51880   */\n      0x20\n        /* \"#utility.yul\":51873:51874   */\n      dup2\n        /* \"#utility.yul\":51869:51881   */\n      add\n        /* \"#utility.yul\":51864:51881   */\n      swap1\n      pop\n        /* \"#utility.yul\":51840:51994   */\n      jump(tag_1007)\n    tag_1009:\n        /* \"#utility.yul\":52023:52029   */\n      dup4\n        /* \"#utility.yul\":52018:52021   */\n      dup9\n        /* \"#utility.yul\":52014:52030   */\n      add\n        /* \"#utility.yul\":52007:52030   */\n      swap6\n      pop\n        /* \"#utility.yul\":51706:52040   */\n      pop\n      pop\n        /* \"#utility.yul\":51491:52040   */\n    tag_1003:\n      pop\n        /* \"#utility.yul\":51279:52046   */\n      pop\n      pop\n        /* \"#utility.yul\":51172:52046   */\n      swap3\n      swap2\n      pop\n      pop\n      jump\t// out\n        /* \"#utility.yul\":52052:52321   */\n    tag_388:\n        /* \"#utility.yul\":52181:52184   */\n      0x00\n        /* \"#utility.yul\":52203:52295   */\n      tag_1011\n        /* \"#utility.yul\":52291:52294   */\n      dup3\n        /* \"#utility.yul\":52282:52288   */\n      dup5\n        /* \"#utility.yul\":52203:52295   */\n      tag_568\n      jump\t// in\n    tag_1011:\n        /* \"#utility.yul\":52196:52295   */\n      swap2\n      pop\n        /* \"#utility.yul\":52312:52315   */\n      dup2\n        /* \"#utility.yul\":52305:52315   */\n      swap1\n      pop\n        /* \"#utility.yul\":52052:52321   */\n      swap3\n      swap2\n      pop\n      pop\n      jump\t// out\n\n    auxdata: 0xa2646970667358221220889bef6fecc93473dc89c63d3eb8e04c12d5ca1c9a4394c7aa590611c5f7fa6d64736f6c634300081a0033\n}\n",
				"bytecode": {
					"linkReferences": {},
					"object": "60806040526040518060400160405280600681526020017f6167656e637900000000000000000000000000000000000000000000000000008152505f90816100479190610293565b50348015610053575f80fd5b50610362565b5f81519050919050565b7f4e487b71000000000000000000000000000000000000000000000000000000005f52604160045260245ffd5b7f4e487b71000000000000000000000000000000000000000000000000000000005f52602260045260245ffd5b5f60028204905060018216806100d457607f821691505b6020821081036100e7576100e6610090565b5b50919050565b5f819050815f5260205f209050919050565b5f6020601f8301049050919050565b5f82821b905092915050565b5f600883026101497fffffffffffffffffffffffffffffffffffffffffffffffffffffffffffffffff8261010e565b610153868361010e565b95508019841693508086168417925050509392505050565b5f819050919050565b5f819050919050565b5f61019761019261018d8461016b565b610174565b61016b565b9050919050565b5f819050919050565b6101b08361017d565b6101c46101bc8261019e565b84845461011a565b825550505050565b5f90565b6101d86101cc565b6101e38184846101a7565b505050565b5b81811015610206576101fb5f826101d0565b6001810190506101e9565b5050565b601f82111561024b5761021c816100ed565b610225846100ff565b81016020851015610234578190505b610248610240856100ff565b8301826101e8565b50505b505050565b5f82821c905092915050565b5f61026b5f1984600802610250565b1980831691505092915050565b5f610283838361025c565b9150826002028217905092915050565b61029c82610059565b67ffffffffffffffff8111156102b5576102b4610063565b5b6102bf82546100bd565b6102ca82828561020a565b5f60209050601f8311600181146102fb575f84156102e9578287015190505b6102f38582610278565b86555061035a565b601f198416610309866100ed565b5f5b828110156103305784890151825560018201915060208501945060208101905061030b565b8683101561034d5784890151610349601f89168261025c565b8355505b6001600288020188555050505b505050505050565b613dc98061036f5f395ff3fe608060405234801561000f575f80fd5b506004361061014b575f3560e01c80637d4aee20116100c1578063cb89c6441161007a578063cb89c644146103d8578063cbe737b314610408578063ce89e0211461043a578063dcc601281461046a578063e4a8f18b14610488578063ef079b20146104a65761014b565b80637d4aee20146102fd57806391c9b2681461031957806393dc12e61461035257806399e76d351461036e578063a762ad5b1461038c578063bed34bba146103a85761014b565b80634764251211610113578063476425121461020357806348c35ad4146102335780634ac647661461026357806357c303d514610281578063615ba9d91461029d578063632787f5146102cd5761014b565b8063074faf2b1461014f578063089cd0251461017f578063221c51bb1461019b578063292ee7c9146101b75780633efe1b8a146101d3575b5f80fd5b6101696004803603810190610164919061266d565b6104d6565b604051610176919061272b565b60405180910390f35b61019960048036038101906101949190612777565b61053d565b005b6101b560048036038101906101b09190612b42565b610541565b005b6101d160048036038101906101cc9190612c9b565b6107bb565b005b6101ed60048036038101906101e89190612d11565b6108d8565b6040516101fa9190612d96565b60405180910390f35b61021d60048036038101906102189190612d11565b6108f6565b60405161022a9190612eca565b60405180910390f35b61024d60048036038101906102489190612eea565b610915565b60405161025a9190612f5d565b60405180910390f35b61026b6109bb565b6040516102789190612eca565b60405180910390f35b61029b6004803603810190610296919061266d565b610a8f565b005b6102b760048036038101906102b2919061266d565b610c09565b6040516102c4919061272b565b60405180910390f35b6102e760048036038101906102e2919061266d565b610c7a565b6040516102f4919061272b565b60405180910390f35b61031760048036038101906103129190612f7d565b610ceb565b005b610333600480360381019061032e9190613021565b610d2e565b6040516103499a99989796959493929190613068565b60405180910390f35b61036c60048036038101906103679190612eea565b611040565b005b610376611043565b6040516103839190612f5d565b60405180910390f35b6103a660048036038101906103a1919061266d565b6110ce565b005b6103c260048036038101906103bd9190612d11565b6111f3565b6040516103cf919061272b565b60405180910390f35b6103f260048036038101906103ed9190612d11565b61124b565b6040516103ff9190612d96565b60405180910390f35b610422600480360381019061041d9190612d11565b61126a565b604051610431939291906132c0565b60405180910390f35b610454600480360381019061044f9190613021565b611adc565b6040516104619190612d96565b60405180910390f35b610472611b09565b60405161047f919061367b565b60405180910390f35b61049061237b565b60405161049d9190612d96565b60405180910390f35b6104c060048036038101906104bb9190612d11565b612387565b6040516104cd919061272b565b60405180910390f35b5f806104e285856108f6565b90505f5b815181101561053057610513848383815181106105065761050561369b565b5b60200260200101516111f3565b1561052357600192505050610536565b80806001019150506104e6565b505f9150505b9392505050565b5050565b5f6001896040516105529190613702565b90815260200160405180910390209050878160010190816105739190613912565b50868160020190816105859190613912565b5088815f0190816105969190613912565b50858160030190816105a89190613912565b50848160040190816105ba9190613912565b504281600501819055508381600601819055508281600701819055505f816009015f6101000a81548160ff0219169083151502179055505f8160080181905550600289908060018154018082558091505060019003905f5260205f20015f90919091909150908161062b9190613912565b505f5b82518110156107af5781600a0183828151811061064e5761064d61369b565b5b6020026020010151908060018154018082558091505060019003905f5260205f2090600a02015f909190919091505f820151815f01908161068f9190613912565b5060208201518160010190816106a59190613912565b5060408201518160020190816106bb9190613912565b5060608201518160030190816106d19190613912565b506080820151816004015560a08201518160050190805190602001906106f89291906123a6565b5060c08201518160060190805190602001906107159291906123a6565b5060e082015181600701556101008201518160080155610120820151816009015f6101000a81548160ff021916908315150217905550505081600a0181815481106107635761076261369b565b5b905f5260205f2090600a020160050186908060018154018082558091505060019003905f5260205f20015f9091909190915090816107a19190613912565b50808060010191505061062e565b50505050505050505050565b6001826040516107cb9190613702565b9081526020016040518091039020600a0181908060018154018082558091505060019003905f5260205f2090600a02015f909190919091505f820151815f0190816108169190613912565b50602082015181600101908161082c9190613912565b5060408201518160020190816108429190613912565b5060608201518160030190816108589190613912565b506080820151816004015560a082015181600501908051906020019061087f9291906123a6565b5060c082015181600601908051906020019061089c9291906123a6565b5060e082015181600701556101008201518160080155610120820151816009015f6101000a81548160ff02191690831515021790555050505050565b5f806108e4848461126a565b505090508060e0015191505092915050565b60605f610903848461126a565b505090508060a0015191505092915050565b60028181548110610924575f80fd5b905f5260205f20015f91509050805461093c90613745565b80601f016020809104026020016040519081016040528092919081815260200182805461096890613745565b80156109b35780601f1061098a576101008083540402835291602001916109b3565b820191905f5260205f20905b81548152906001019060200180831161099657829003601f168201915b505050505081565b60606002805480602002602001604051908101604052809291908181526020015f905b82821015610a86578382905f5260205f200180546109fb90613745565b80601f0160208091040260200160405190810160405280929190818152602001828054610a2790613745565b8015610a725780601f10610a4957610100808354040283529160200191610a72565b820191905f5260205f20905b815481529060010190602001808311610a5557829003601f168201915b5050505050815260200190600101906109de565b50505050905090565b5f80610a9b858561126a565b92505050600185604051610aaf9190613702565b9081526020016040518091039020600a018181548110610ad257610ad161369b565b5b905f5260205f2090600a02019150610aeb858585610c7a565b610b2a576040517f08c379a0000000000000000000000000000000000000000000000000000000008152600401610b2190613a51565b60405180910390fd5b60018260070154610b3b9190613a9c565b826006018054905010610b83576040517f08c379a0000000000000000000000000000000000000000000000000000000008152600401610b7a90613b19565b60405180910390fd5b610b8e858585610c09565b15610bce576040517f08c379a0000000000000000000000000000000000000000000000000000000008152600401610bc590613b81565b60405180910390fd5b8160060183908060018154018082558091505060019003905f5260205f20015f909190919091509081610c019190613912565b505050505050565b5f80610c15858561126a565b505090505f5b8160c0015151811015610c6d57610c50848360c001518381518110610c4357610c4261369b565b5b60200260200101516111f3565b15610c6057600192505050610c73565b8080600101915050610c1b565b505f9150505b9392505050565b5f80610c86858561126a565b505090505f5b8160a0015151811015610cde57610cc1848360a001518381518110610cb457610cb361369b565b5b60200260200101516111f3565b15610cd157600192505050610ce4565b8080600101915050610c8c565b505f9150505b9392505050565b5f5b8151811015610d2857610d1b8484848481518110610d0e57610d0d61369b565b5b60200260200101516110ce565b8080600101915050610ced565b50505050565b6001818051602081018201805184825260208301602085012081835280955050505050505f91509050805f018054610d6590613745565b80601f0160208091040260200160405190810160405280929190818152602001828054610d9190613745565b8015610ddc5780601f10610db357610100808354040283529160200191610ddc565b820191905f5260205f20905b815481529060010190602001808311610dbf57829003601f168201915b505050505090806001018054610df190613745565b80601f0160208091040260200160405190810160405280929190818152602001828054610e1d90613745565b8015610e685780601f10610e3f57610100808354040283529160200191610e68565b820191905f5260205f20905b815481529060010190602001808311610e4b57829003601f168201915b505050505090806002018054610e7d90613745565b80601f0160208091040260200160405190810160405280929190818152602001828054610ea990613745565b8015610ef45780601f10610ecb57610100808354040283529160200191610ef4565b820191905f5260205f20905b815481529060010190602001808311610ed757829003601f168201915b505050505090806003018054610f0990613745565b80601f0160208091040260200160405190810160405280929190818152602001828054610f3590613745565b8015610f805780601f10610f5757610100808354040283529160200191610f80565b820191905f5260205f20905b815481529060010190602001808311610f6357829003601f168201915b505050505090806004018054610f9590613745565b80601f0160208091040260200160405190810160405280929190818152602001828054610fc190613745565b801561100c5780601f10610fe35761010080835404028352916020019161100c565b820191905f5260205f20905b815481529060010190602001808311610fef57829003601f168201915b505050505090806005015490806006015490806007015490806008015490806009015f9054906101000a900460ff1690508a565b50565b5f805461104f90613745565b80601f016020809104026020016040519081016040528092919081815260200182805461107b90613745565b80156110c65780601f1061109d576101008083540402835291602001916110c6565b820191905f5260205f20905b8154815290600101906020018083116110a957829003601f168201915b505050505081565b5f6001846040516110df9190613702565b908152602001604051809103902090505f6110fa858561126a565b925050505f82600a0182815481106111155761111461369b565b5b905f5260205f2090600a0201905061112e868686610c7a565b61116d576040517f08c379a000000000000000000000000000000000000000000000000000000000815260040161116490613be9565b60405180910390fd5b6111778686612387565b156111b7576040517f08c379a00000000000000000000000000000000000000000000000000000000081526004016111ae90613c77565b60405180910390fd5b8060050184908060018154018082558091505060019003905f5260205f20015f9091909190915090816111ea9190613912565b50505050505050565b5f816040516020016112059190613702565b604051602081830303815290604052805190602001208360405160200161122c9190613702565b6040516020818303038152906040528051906020012014905092915050565b5f80611257848461126a565b505090508060c001515191505092915050565b6112726123fd565b5f805f6001866040516112859190613702565b9081526020016040518091039020604051806101600160405290815f820180546112ae90613745565b80601f01602080910402602001604051908101604052809291908181526020018280546112da90613745565b80156113255780601f106112fc57610100808354040283529160200191611325565b820191905f5260205f20905b81548152906001019060200180831161130857829003601f168201915b5050505050815260200160018201805461133e90613745565b80601f016020809104026020016040519081016040528092919081815260200182805461136a90613745565b80156113b55780601f1061138c576101008083540402835291602001916113b5565b820191905f5260205f20905b81548152906001019060200180831161139857829003601f168201915b505050505081526020016002820180546113ce90613745565b80601f01602080910402602001604051908101604052809291908181526020018280546113fa90613745565b80156114455780601f1061141c57610100808354040283529160200191611445565b820191905f5260205f20905b81548152906001019060200180831161142857829003601f168201915b5050505050815260200160038201805461145e90613745565b80601f016020809104026020016040519081016040528092919081815260200182805461148a90613745565b80156114d55780601f106114ac576101008083540402835291602001916114d5565b820191905f5260205f20905b8154815290600101906020018083116114b857829003601f168201915b505050505081526020016004820180546114ee90613745565b80601f016020809104026020016040519081016040528092919081815260200182805461151a90613745565b80156115655780601f1061153c57610100808354040283529160200191611565565b820191905f5260205f20905b81548152906001019060200180831161154857829003601f168201915b5050505050815260200160058201548152602001600682015481526020016007820154815260200160088201548152602001600982015f9054906101000a900460ff16151515158152602001600a8201805480602002602001604051908101604052809291908181526020015f905b82821015611a24578382905f5260205f2090600a0201604051806101400160405290815f8201805461160590613745565b80601f016020809104026020016040519081016040528092919081815260200182805461163190613745565b801561167c5780601f106116535761010080835404028352916020019161167c565b820191905f5260205f20905b81548152906001019060200180831161165f57829003601f168201915b5050505050815260200160018201805461169590613745565b80601f01602080910402602001604051908101604052809291908181526020018280546116c190613745565b801561170c5780601f106116e35761010080835404028352916020019161170c565b820191905f5260205f20905b8154815290600101906020018083116116ef57829003601f168201915b5050505050815260200160028201805461172590613745565b80601f016020809104026020016040519081016040528092919081815260200182805461175190613745565b801561179c5780601f106117735761010080835404028352916020019161179c565b820191905f5260205f20905b81548152906001019060200180831161177f57829003601f168201915b505050505081526020016003820180546117b590613745565b80601f01602080910402602001604051908101604052809291908181526020018280546117e190613745565b801561182c5780601f106118035761010080835404028352916020019161182c565b820191905f5260205f20905b81548152906001019060200180831161180f57829003601f168201915b505050505081526020016004820154815260200160058201805480602002602001604051908101604052809291908181526020015f905b8282101561190b578382905f5260205f2001805461188090613745565b80601f01602080910402602001604051908101604052809291908181526020018280546118ac90613745565b80156118f75780601f106118ce576101008083540402835291602001916118f7565b820191905f5260205f20905b8154815290600101906020018083116118da57829003601f168201915b505050505081526020019060010190611863565b50505050815260200160068201805480602002602001604051908101604052809291908181526020015f905b828210156119df578382905f5260205f2001805461195490613745565b80601f016020809104026020016040519081016040528092919081815260200182805461198090613745565b80156119cb5780601f106119a2576101008083540402835291602001916119cb565b820191905f5260205f20905b8154815290600101906020018083116119ae57829003601f168201915b505050505081526020019060010190611937565b5050505081526020016007820154815260200160088201548152602001600982015f9054906101000a900460ff161515151581525050815260200190600101906115d4565b50505050815250509050611a366123fd565b5f5b82610140015151811015611a99578261014001518181518110611a5e57611a5d61369b565b5b60200260200101519150611a7587835f01516111f3565b15611a8c5781600182955095509550505050611ad5565b8080600101915050611a38565b506040517f08c379a0000000000000000000000000000000000000000000000000000000008152600401611acc90613cdf565b60405180910390fd5b9250925092565b5f600182604051611aed9190613702565b9081526020016040518091039020600a01805490509050919050565b60605f60028054905067ffffffffffffffff811115611b2b57611b2a612549565b5b604051908082528060200260200182016040528015611b6457816020015b611b5161244e565b815260200190600190039081611b495790505b5090505f5b60028054905081101561237357600160028281548110611b8c57611b8b61369b565b5b905f5260205f2001604051611ba19190613d7d565b9081526020016040518091039020604051806101600160405290815f82018054611bca90613745565b80601f0160208091040260200160405190810160405280929190818152602001828054611bf690613745565b8015611c415780601f10611c1857610100808354040283529160200191611c41565b820191905f5260205f20905b815481529060010190602001808311611c2457829003601f168201915b50505050508152602001600182018054611c5a90613745565b80601f0160208091040260200160405190810160405280929190818152602001828054611c8690613745565b8015611cd15780601f10611ca857610100808354040283529160200191611cd1565b820191905f5260205f20905b815481529060010190602001808311611cb457829003601f168201915b50505050508152602001600282018054611cea90613745565b80601f0160208091040260200160405190810160405280929190818152602001828054611d1690613745565b8015611d615780601f10611d3857610100808354040283529160200191611d61565b820191905f5260205f20905b815481529060010190602001808311611d4457829003601f168201915b50505050508152602001600382018054611d7a90613745565b80601f0160208091040260200160405190810160405280929190818152602001828054611da690613745565b8015611df15780601f10611dc857610100808354040283529160200191611df1565b820191905f5260205f20905b815481529060010190602001808311611dd457829003601f168201915b50505050508152602001600482018054611e0a90613745565b80601f0160208091040260200160405190810160405280929190818152602001828054611e3690613745565b8015611e815780601f10611e5857610100808354040283529160200191611e81565b820191905f5260205f20905b815481529060010190602001808311611e6457829003601f168201915b5050505050815260200160058201548152602001600682015481526020016007820154815260200160088201548152602001600982015f9054906101000a900460ff16151515158152602001600a8201805480602002602001604051908101604052809291908181526020015f905b82821015612340578382905f5260205f2090600a0201604051806101400160405290815f82018054611f2190613745565b80601f0160208091040260200160405190810160405280929190818152602001828054611f4d90613745565b8015611f985780601f10611f6f57610100808354040283529160200191611f98565b820191905f5260205f20905b815481529060010190602001808311611f7b57829003601f168201915b50505050508152602001600182018054611fb190613745565b80601f0160208091040260200160405190810160405280929190818152602001828054611fdd90613745565b80156120285780601f10611fff57610100808354040283529160200191612028565b820191905f5260205f20905b81548152906001019060200180831161200b57829003601f168201915b5050505050815260200160028201805461204190613745565b80601f016020809104026020016040519081016040528092919081815260200182805461206d90613745565b80156120b85780601f1061208f576101008083540402835291602001916120b8565b820191905f5260205f20905b81548152906001019060200180831161209b57829003601f168201915b505050505081526020016003820180546120d190613745565b80601f01602080910402602001604051908101604052809291908181526020018280546120fd90613745565b80156121485780601f1061211f57610100808354040283529160200191612148565b820191905f5260205f20905b81548152906001019060200180831161212b57829003601f168201915b505050505081526020016004820154815260200160058201805480602002602001604051908101604052809291908181526020015f905b82821015612227578382905f5260205f2001805461219c90613745565b80601f01602080910402602001604051908101604052809291908181526020018280546121c890613745565b80156122135780601f106121ea57610100808354040283529160200191612213565b820191905f5260205f20905b8154815290600101906020018083116121f657829003601f168201915b50505050508152602001906001019061217f565b50505050815260200160068201805480602002602001604051908101604052809291908181526020015f905b828210156122fb578382905f5260205f2001805461227090613745565b80601f016020809104026020016040519081016040528092919081815260200182805461229c90613745565b80156122e75780601f106122be576101008083540402835291602001916122e7565b820191905f5260205f20905b8154815290600101906020018083116122ca57829003601f168201915b505050505081526020019060010190612253565b5050505081526020016007820154815260200160088201548152602001600982015f9054906101000a900460ff16151515158152505081526020019060010190611ef0565b505050508152505082828151811061235b5761235a61369b565b5b60200260200101819052508080600101915050611b69565b508091505090565b5f600280549050905090565b5f61239283836108d8565b61239c848461124b565b1015905092915050565b828054828255905f5260205f209081019282156123ec579160200282015b828111156123eb5782518290816123db9190613912565b50916020019190600101906123c4565b5b5090506123f991906124a5565b5090565b604051806101400160405280606081526020016060815260200160608152602001606081526020015f815260200160608152602001606081526020015f81526020015f81526020015f151581525090565b60405180610160016040528060608152602001606081526020016060815260200160608152602001606081526020015f81526020015f81526020015f81526020015f81526020015f15158152602001606081525090565b5b808211156124c4575f81816124bb91906124c8565b506001016124a6565b5090565b5080546124d490613745565b5f825580601f106124e55750612502565b601f0160209004905f5260205f20908101906125019190612505565b5b50565b5b8082111561251c575f815f905550600101612506565b5090565b5f604051905090565b5f80fd5b5f80fd5b5f80fd5b5f80fd5b5f601f19601f8301169050919050565b7f4e487b71000000000000000000000000000000000000000000000000000000005f52604160045260245ffd5b61257f82612539565b810181811067ffffffffffffffff8211171561259e5761259d612549565b5b80604052505050565b5f6125b0612520565b90506125bc8282612576565b919050565b5f67ffffffffffffffff8211156125db576125da612549565b5b6125e482612539565b9050602081019050919050565b828183375f83830152505050565b5f61261161260c846125c1565b6125a7565b90508281526020810184848401111561262d5761262c612535565b5b6126388482856125f1565b509392505050565b5f82601f83011261265457612653612531565b5b81356126648482602086016125ff565b91505092915050565b5f805f6060848603121561268457612683612529565b5b5f84013567ffffffffffffffff8111156126a1576126a061252d565b5b6126ad86828701612640565b935050602084013567ffffffffffffffff8111156126ce576126cd61252d565b5b6126da86828701612640565b925050604084013567ffffffffffffffff8111156126fb576126fa61252d565b5b61270786828701612640565b9150509250925092565b5f8115159050919050565b61272581612711565b82525050565b5f60208201905061273e5f83018461271c565b92915050565b5f819050919050565b61275681612744565b8114612760575f80fd5b50565b5f813590506127718161274d565b92915050565b5f806040838503121561278d5761278c612529565b5b5f61279a85828601612763565b92505060206127ab85828601612763565b9150509250929050565b5f67ffffffffffffffff8211156127cf576127ce612549565b5b602082029050602081019050919050565b5f80fd5b5f80fd5b5f80fd5b5f67ffffffffffffffff82111561280657612805612549565b5b602082029050602081019050919050565b5f612829612824846127ec565b6125a7565b9050808382526020820190506020840283018581111561284c5761284b6127e0565b5b835b8181101561289357803567ffffffffffffffff81111561287157612870612531565b5b80860161287e8982612640565b8552602085019450505060208101905061284e565b5050509392505050565b5f82601f8301126128b1576128b0612531565b5b81356128c1848260208601612817565b91505092915050565b6128d381612711565b81146128dd575f80fd5b50565b5f813590506128ee816128ca565b92915050565b5f610140828403121561290a576129096127e4565b5b6129156101406125a7565b90505f82013567ffffffffffffffff811115612934576129336127e8565b5b61294084828501612640565b5f83015250602082013567ffffffffffffffff811115612963576129626127e8565b5b61296f84828501612640565b602083015250604082013567ffffffffffffffff811115612993576129926127e8565b5b61299f84828501612640565b604083015250606082013567ffffffffffffffff8111156129c3576129c26127e8565b5b6129cf84828501612640565b60608301525060806129e384828501612763565b60808301525060a082013567ffffffffffffffff811115612a0757612a066127e8565b5b612a138482850161289d565b60a08301525060c082013567ffffffffffffffff811115612a3757612a366127e8565b5b612a438482850161289d565b60c08301525060e0612a5784828501612763565b60e083015250610100612a6c84828501612763565b61010083015250610120612a82848285016128e0565b6101208301525092915050565b5f612aa1612a9c846127b5565b6125a7565b90508083825260208201905060208402830185811115612ac457612ac36127e0565b5b835b81811015612b0b57803567ffffffffffffffff811115612ae957612ae8612531565b5b808601612af689826128f4565b85526020850194505050602081019050612ac6565b5050509392505050565b5f82601f830112612b2957612b28612531565b5b8135612b39848260208601612a8f565b91505092915050565b5f805f805f805f80610100898b031215612b5f57612b5e612529565b5b5f89013567ffffffffffffffff811115612b7c57612b7b61252d565b5b612b888b828c01612640565b985050602089013567ffffffffffffffff811115612ba957612ba861252d565b5b612bb58b828c01612640565b975050604089013567ffffffffffffffff811115612bd657612bd561252d565b5b612be28b828c01612640565b965050606089013567ffffffffffffffff811115612c0357612c0261252d565b5b612c0f8b828c01612640565b955050608089013567ffffffffffffffff811115612c3057612c2f61252d565b5b612c3c8b828c01612640565b94505060a0612c4d8b828c01612763565b93505060c0612c5e8b828c01612763565b92505060e089013567ffffffffffffffff811115612c7f57612c7e61252d565b5b612c8b8b828c01612b15565b9150509295985092959890939650565b5f8060408385031215612cb157612cb0612529565b5b5f83013567ffffffffffffffff811115612cce57612ccd61252d565b5b612cda85828601612640565b925050602083013567ffffffffffffffff811115612cfb57612cfa61252d565b5b612d07858286016128f4565b9150509250929050565b5f8060408385031215612d2757612d26612529565b5b5f83013567ffffffffffffffff811115612d4457612d4361252d565b5b612d5085828601612640565b925050602083013567ffffffffffffffff811115612d7157612d7061252d565b5b612d7d85828601612640565b9150509250929050565b612d9081612744565b82525050565b5f602082019050612da95f830184612d87565b92915050565b5f81519050919050565b5f82825260208201905092915050565b5f819050602082019050919050565b5f81519050919050565b5f82825260208201905092915050565b8281835e5f83830152505050565b5f612e0a82612dd8565b612e148185612de2565b9350612e24818560208601612df2565b612e2d81612539565b840191505092915050565b5f612e438383612e00565b905092915050565b5f602082019050919050565b5f612e6182612daf565b612e6b8185612db9565b935083602082028501612e7d85612dc9565b805f5b85811015612eb85784840389528151612e998582612e38565b9450612ea483612e4b565b925060208a01995050600181019050612e80565b50829750879550505050505092915050565b5f6020820190508181035f830152612ee28184612e57565b905092915050565b5f60208284031215612eff57612efe612529565b5b5f612f0c84828501612763565b91505092915050565b5f82825260208201905092915050565b5f612f2f82612dd8565b612f398185612f15565b9350612f49818560208601612df2565b612f5281612539565b840191505092915050565b5f6020820190508181035f830152612f758184612f25565b905092915050565b5f805f60608486031215612f9457612f93612529565b5b5f84013567ffffffffffffffff811115612fb157612fb061252d565b5b612fbd86828701612640565b935050602084013567ffffffffffffffff811115612fde57612fdd61252d565b5b612fea86828701612640565b925050604084013567ffffffffffffffff81111561300b5761300a61252d565b5b6130178682870161289d565b9150509250925092565b5f6020828403121561303657613035612529565b5b5f82013567ffffffffffffffff8111156130535761305261252d565b5b61305f84828501612640565b91505092915050565b5f610140820190508181035f830152613081818d612f25565b90508181036020830152613095818c612f25565b905081810360408301526130a9818b612f25565b905081810360608301526130bd818a612f25565b905081810360808301526130d18189612f25565b90506130e060a0830188612d87565b6130ed60c0830187612d87565b6130fa60e0830186612d87565b613108610100830185612d87565b61311661012083018461271c565b9b9a5050505050505050505050565b61312e81612744565b82525050565b5f82825260208201905092915050565b5f61314e82612daf565b6131588185613134565b93508360208202850161316a85612dc9565b805f5b858110156131a557848403895281516131868582612e38565b945061319183612e4b565b925060208a0199505060018101905061316d565b50829750879550505050505092915050565b6131c081612711565b82525050565b5f61014083015f8301518482035f8601526131e18282612e00565b915050602083015184820360208601526131fb8282612e00565b915050604083015184820360408601526132158282612e00565b9150506060830151848203606086015261322f8282612e00565b91505060808301516132446080860182613125565b5060a083015184820360a086015261325c8282613144565b91505060c083015184820360c08601526132768282613144565b91505060e083015161328b60e0860182613125565b506101008301516132a0610100860182613125565b506101208301516132b56101208601826131b7565b508091505092915050565b5f6060820190508181035f8301526132d881866131c6565b90506132e7602083018561271c565b6132f46040830184612d87565b949350505050565b5f81519050919050565b5f82825260208201905092915050565b5f819050602082019050919050565b5f81519050919050565b5f82825260208201905092915050565b5f819050602082019050919050565b5f61014083015f8301518482035f8601526133698282612e00565b915050602083015184820360208601526133838282612e00565b9150506040830151848203604086015261339d8282612e00565b915050606083015184820360608601526133b78282612e00565b91505060808301516133cc6080860182613125565b5060a083015184820360a08601526133e48282613144565b91505060c083015184820360c08601526133fe8282613144565b91505060e083015161341360e0860182613125565b50610100830151613428610100860182613125565b5061012083015161343d6101208601826131b7565b508091505092915050565b5f613453838361334e565b905092915050565b5f602082019050919050565b5f61347182613325565b61347b818561332f565b93508360208202850161348d8561333f565b805f5b858110156134c857848403895281516134a98582613448565b94506134b48361345b565b925060208a01995050600181019050613490565b50829750879550505050505092915050565b5f61016083015f8301518482035f8601526134f58282612e00565b9150506020830151848203602086015261350f8282612e00565b915050604083015184820360408601526135298282612e00565b915050606083015184820360608601526135438282612e00565b9150506080830151848203608086015261355d8282612e00565b91505060a083015161357260a0860182613125565b5060c083015161358560c0860182613125565b5060e083015161359860e0860182613125565b506101008301516135ad610100860182613125565b506101208301516135c26101208601826131b7565b506101408301518482036101408601526135dc8282613467565b9150508091505092915050565b5f6135f483836134da565b905092915050565b5f602082019050919050565b5f613612826132fc565b61361c8185613306565b93508360208202850161362e85613316565b805f5b85811015613669578484038952815161364a85826135e9565b9450613655836135fc565b925060208a01995050600181019050613631565b50829750879550505050505092915050565b5f6020820190508181035f8301526136938184613608565b905092915050565b7f4e487b71000000000000000000000000000000000000000000000000000000005f52603260045260245ffd5b5f81905092915050565b5f6136dc82612dd8565b6136e681856136c8565b93506136f6818560208601612df2565b80840191505092915050565b5f61370d82846136d2565b915081905092915050565b7f4e487b71000000000000000000000000000000000000000000000000000000005f52602260045260245ffd5b5f600282049050600182168061375c57607f821691505b60208210810361376f5761376e613718565b5b50919050565b5f819050815f5260205f209050919050565b5f6020601f8301049050919050565b5f82821b905092915050565b5f600883026137d17fffffffffffffffffffffffffffffffffffffffffffffffffffffffffffffffff82613796565b6137db8683613796565b95508019841693508086168417925050509392505050565b5f819050919050565b5f61381661381161380c84612744565b6137f3565b612744565b9050919050565b5f819050919050565b61382f836137fc565b61384361383b8261381d565b8484546137a2565b825550505050565b5f90565b61385761384b565b613862818484613826565b505050565b5b818110156138855761387a5f8261384f565b600181019050613868565b5050565b601f8211156138ca5761389b81613775565b6138a484613787565b810160208510156138b3578190505b6138c76138bf85613787565b830182613867565b50505b505050565b5f82821c905092915050565b5f6138ea5f19846008026138cf565b1980831691505092915050565b5f61390283836138db565b9150826002028217905092915050565b61391b82612dd8565b67ffffffffffffffff81111561393457613933612549565b5b61393e8254613745565b613949828285613889565b5f60209050601f83116001811461397a575f8415613968578287015190505b61397285826138f7565b8655506139d9565b601f19841661398886613775565b5f5b828110156139af5784890151825560018201915060208501945060208101905061398a565b868310156139cc57848901516139c8601f8916826138db565b8355505b6001600288020188555050505b505050505050565b7f56616c696461746f72206973206e6f7420616c6c6f77656420746f2076616c695f8201527f6461746500000000000000000000000000000000000000000000000000000000602082015250565b5f613a3b602483612f15565b9150613a46826139e1565b604082019050919050565b5f6020820190508181035f830152613a6881613a2f565b9050919050565b7f4e487b71000000000000000000000000000000000000000000000000000000005f52601160045260245ffd5b5f613aa682612744565b9150613ab183612744565b9250828201905080821115613ac957613ac8613a6f565b5b92915050565b7f416c72656164792076616c6964617465640000000000000000000000000000005f82015250565b5f613b03601183612f15565b9150613b0e82613acf565b602082019050919050565b5f6020820190508181035f830152613b3081613af7565b9050919050565b7f43616e742076616c6964617465206d6f7265207468616e206f6e6365000000005f82015250565b5f613b6b601c83612f15565b9150613b7682613b37565b602082019050919050565b5f6020820190508181035f830152613b9881613b5f565b9050919050565b7f76616c696461746f722077617320616c726561647920616464656400000000005f82015250565b5f613bd3601b83612f15565b9150613bde82613b9f565b602082019050919050565b5f6020820190508181035f830152613c0081613bc7565b9050919050565b7f416c726561647920656e6f7567682076616c696461746f727320746f2076616c5f8201527f6964617465207468652073746167650000000000000000000000000000000000602082015250565b5f613c61602f83612f15565b9150613c6c82613c07565b604082019050919050565b5f6020820190508181035f830152613c8e81613c55565b9050919050565b7f5374616765206e6f7420666f756e6400000000000000000000000000000000005f82015250565b5f613cc9600f83612f15565b9150613cd482613c95565b602082019050919050565b5f6020820190508181035f830152613cf681613cbd565b9050919050565b5f8154613d0981613745565b613d1381866136c8565b9450600182165f8114613d2d5760018114613d4257613d74565b60ff1983168652811515820286019350613d74565b613d4b85613775565b5f5b83811015613d6c57815481890152600182019150602081019050613d4d565b838801955050505b50505092915050565b5f613d888284613cfd565b91508190509291505056fea2646970667358221220889bef6fecc93473dc89c63d3eb8e04c12d5ca1c9a4394c7aa590611c5f7fa6d64736f6c634300081a0033",
					"opcodes": "PUSH1 0x80 PUSH1 0x40 MSTORE PUSH1 0x40 MLOAD DUP1 PUSH1 0x40 ADD PUSH1 0x40 MSTORE DUP1 PUSH1 0x6 DUP2 MSTORE PUSH1 0x20 ADD PUSH32 0x6167656E63790000000000000000000000000000000000000000000000000000 DUP2 MSTORE POP PUSH0 SWAP1 DUP2 PUSH2 0x47 SWAP2 SWAP1 PUSH2 0x293 JUMP JUMPDEST POP CALLVALUE DUP1 ISZERO PUSH2 0x53 JUMPI PUSH0 DUP1 REVERT JUMPDEST POP PUSH2 0x362 JUMP JUMPDEST PUSH0 DUP2 MLOAD SWAP1 POP SWAP2 SWAP1 POP JUMP JUMPDEST PUSH32 0x4E487B7100000000000000000000000000000000000000000000000000000000 PUSH0 MSTORE PUSH1 0x41 PUSH1 0x4 MSTORE PUSH1 0x24 PUSH0 REVERT JUMPDEST PUSH32 0x4E487B7100000000000000000000000000000000000000000000000000000000 PUSH0 MSTORE PUSH1 0x22 PUSH1 0x4 MSTORE PUSH1 0x24 PUSH0 REVERT JUMPDEST PUSH0 PUSH1 0x2 DUP3 DIV SWAP1 POP PUSH1 0x1 DUP3 AND DUP1 PUSH2 0xD4 JUMPI PUSH1 0x7F DUP3 AND SWAP2 POP JUMPDEST PUSH1 0x20 DUP3 LT DUP2 SUB PUSH2 0xE7 JUMPI PUSH2 0xE6 PUSH2 0x90 JUMP JUMPDEST JUMPDEST POP SWAP2 SWAP1 POP JUMP JUMPDEST PUSH0 DUP2 SWAP1 POP DUP2 PUSH0 MSTORE PUSH1 0x20 PUSH0 KECCAK256 SWAP1 POP SWAP2 SWAP1 POP JUMP JUMPDEST PUSH0 PUSH1 0x20 PUSH1 0x1F DUP4 ADD DIV SWAP1 POP SWAP2 SWAP1 POP JUMP JUMPDEST PUSH0 DUP3 DUP3 SHL SWAP1 POP SWAP3 SWAP2 POP POP JUMP JUMPDEST PUSH0 PUSH1 0x8 DUP4 MUL PUSH2 0x149 PUSH32 0xFFFFFFFFFFFFFFFFFFFFFFFFFFFFFFFFFFFFFFFFFFFFFFFFFFFFFFFFFFFFFFFF DUP3 PUSH2 0x10E JUMP JUMPDEST PUSH2 0x153 DUP7 DUP4 PUSH2 0x10E JUMP JUMPDEST SWAP6 POP DUP1 NOT DUP5 AND SWAP4 POP DUP1 DUP7 AND DUP5 OR SWAP3 POP POP POP SWAP4 SWAP3 POP POP POP JUMP JUMPDEST PUSH0 DUP2 SWAP1 POP SWAP2 SWAP1 POP JUMP JUMPDEST PUSH0 DUP2 SWAP1 POP SWAP2 SWAP1 POP JUMP JUMPDEST PUSH0 PUSH2 0x197 PUSH2 0x192 PUSH2 0x18D DUP5 PUSH2 0x16B JUMP JUMPDEST PUSH2 0x174 JUMP JUMPDEST PUSH2 0x16B JUMP JUMPDEST SWAP1 POP SWAP2 SWAP1 POP JUMP JUMPDEST PUSH0 DUP2 SWAP1 POP SWAP2 SWAP1 POP JUMP JUMPDEST PUSH2 0x1B0 DUP4 PUSH2 0x17D JUMP JUMPDEST PUSH2 0x1C4 PUSH2 0x1BC DUP3 PUSH2 0x19E JUMP JUMPDEST DUP5 DUP5 SLOAD PUSH2 0x11A JUMP JUMPDEST DUP3 SSTORE POP POP POP POP JUMP JUMPDEST PUSH0 SWAP1 JUMP JUMPDEST PUSH2 0x1D8 PUSH2 0x1CC JUMP JUMPDEST PUSH2 0x1E3 DUP2 DUP5 DUP5 PUSH2 0x1A7 JUMP JUMPDEST POP POP POP JUMP JUMPDEST JUMPDEST DUP2 DUP2 LT ISZERO PUSH2 0x206 JUMPI PUSH2 0x1FB PUSH0 DUP3 PUSH2 0x1D0 JUMP JUMPDEST PUSH1 0x1 DUP2 ADD SWAP1 POP PUSH2 0x1E9 JUMP JUMPDEST POP POP JUMP JUMPDEST PUSH1 0x1F DUP3 GT ISZERO PUSH2 0x24B JUMPI PUSH2 0x21C DUP2 PUSH2 0xED JUMP JUMPDEST PUSH2 0x225 DUP5 PUSH2 0xFF JUMP JUMPDEST DUP2 ADD PUSH1 0x20 DUP6 LT ISZERO PUSH2 0x234 JUMPI DUP2 SWAP1 POP JUMPDEST PUSH2 0x248 PUSH2 0x240 DUP6 PUSH2 0xFF JUMP JUMPDEST DUP4 ADD DUP3 PUSH2 0x1E8 JUMP JUMPDEST POP POP JUMPDEST POP POP POP JUMP JUMPDEST PUSH0 DUP3 DUP3 SHR SWAP1 POP SWAP3 SWAP2 POP POP JUMP JUMPDEST PUSH0 PUSH2 0x26B PUSH0 NOT DUP5 PUSH1 0x8 MUL PUSH2 0x250 JUMP JUMPDEST NOT DUP1 DUP4 AND SWAP2 POP POP SWAP3 SWAP2 POP POP JUMP JUMPDEST PUSH0 PUSH2 0x283 DUP4 DUP4 PUSH2 0x25C JUMP JUMPDEST SWAP2 POP DUP3 PUSH1 0x2 MUL DUP3 OR SWAP1 POP SWAP3 SWAP2 POP POP JUMP JUMPDEST PUSH2 0x29C DUP3 PUSH2 0x59 JUMP JUMPDEST PUSH8 0xFFFFFFFFFFFFFFFF DUP2 GT ISZERO PUSH2 0x2B5 JUMPI PUSH2 0x2B4 PUSH2 0x63 JUMP JUMPDEST JUMPDEST PUSH2 0x2BF DUP3 SLOAD PUSH2 0xBD JUMP JUMPDEST PUSH2 0x2CA DUP3 DUP3 DUP6 PUSH2 0x20A JUMP JUMPDEST PUSH0 PUSH1 0x20 SWAP1 POP PUSH1 0x1F DUP4 GT PUSH1 0x1 DUP2 EQ PUSH2 0x2FB JUMPI PUSH0 DUP5 ISZERO PUSH2 0x2E9 JUMPI DUP3 DUP8 ADD MLOAD SWAP1 POP JUMPDEST PUSH2 0x2F3 DUP6 DUP3 PUSH2 0x278 JUMP JUMPDEST DUP7 SSTORE POP PUSH2 0x35A JUMP JUMPDEST PUSH1 0x1F NOT DUP5 AND PUSH2 0x309 DUP7 PUSH2 0xED JUMP JUMPDEST PUSH0 JUMPDEST DUP3 DUP2 LT ISZERO PUSH2 0x330 JUMPI DUP5 DUP10 ADD MLOAD DUP3 SSTORE PUSH1 0x1 DUP3 ADD SWAP2 POP PUSH1 0x20 DUP6 ADD SWAP5 POP PUSH1 0x20 DUP2 ADD SWAP1 POP PUSH2 0x30B JUMP JUMPDEST DUP7 DUP4 LT ISZERO PUSH2 0x34D JUMPI DUP5 DUP10 ADD MLOAD PUSH2 0x349 PUSH1 0x1F DUP10 AND DUP3 PUSH2 0x25C JUMP JUMPDEST DUP4 SSTORE POP JUMPDEST PUSH1 0x1 PUSH1 0x2 DUP9 MUL ADD DUP9 SSTORE POP POP POP JUMPDEST POP POP POP POP POP POP JUMP JUMPDEST PUSH2 0x3DC9 DUP1 PUSH2 0x36F PUSH0 CODECOPY PUSH0 RETURN INVALID PUSH1 0x80 PUSH1 0x40 MSTORE CALLVALUE DUP1 ISZERO PUSH2 0xF JUMPI PUSH0 DUP1 REVERT JUMPDEST POP PUSH1 0x4 CALLDATASIZE LT PUSH2 0x14B JUMPI PUSH0 CALLDATALOAD PUSH1 0xE0 SHR DUP1 PUSH4 0x7D4AEE20 GT PUSH2 0xC1 JUMPI DUP1 PUSH4 0xCB89C644 GT PUSH2 0x7A JUMPI DUP1 PUSH4 0xCB89C644 EQ PUSH2 0x3D8 JUMPI DUP1 PUSH4 0xCBE737B3 EQ PUSH2 0x408 JUMPI DUP1 PUSH4 0xCE89E021 EQ PUSH2 0x43A JUMPI DUP1 PUSH4 0xDCC60128 EQ PUSH2 0x46A JUMPI DUP1 PUSH4 0xE4A8F18B EQ PUSH2 0x488 JUMPI DUP1 PUSH4 0xEF079B20 EQ PUSH2 0x4A6 JUMPI PUSH2 0x14B JUMP JUMPDEST DUP1 PUSH4 0x7D4AEE20 EQ PUSH2 0x2FD JUMPI DUP1 PUSH4 0x91C9B268 EQ PUSH2 0x319 JUMPI DUP1 PUSH4 0x93DC12E6 EQ PUSH2 0x352 JUMPI DUP1 PUSH4 0x99E76D35 EQ PUSH2 0x36E JUMPI DUP1 PUSH4 0xA762AD5B EQ PUSH2 0x38C JUMPI DUP1 PUSH4 0xBED34BBA EQ PUSH2 0x3A8 JUMPI PUSH2 0x14B JUMP JUMPDEST DUP1 PUSH4 0x47642512 GT PUSH2 0x113 JUMPI DUP1 PUSH4 0x47642512 EQ PUSH2 0x203 JUMPI DUP1 PUSH4 0x48C35AD4 EQ PUSH2 0x233 JUMPI DUP1 PUSH4 0x4AC64766 EQ PUSH2 0x263 JUMPI DUP1 PUSH4 0x57C303D5 EQ PUSH2 0x281 JUMPI DUP1 PUSH4 0x615BA9D9 EQ PUSH2 0x29D JUMPI DUP1 PUSH4 0x632787F5 EQ PUSH2 0x2CD JUMPI PUSH2 0x14B JUMP JUMPDEST DUP1 PUSH4 0x74FAF2B EQ PUSH2 0x14F JUMPI DUP1 PUSH4 0x89CD025 EQ PUSH2 0x17F JUMPI DUP1 PUSH4 0x221C51BB EQ PUSH2 0x19B JUMPI DUP1 PUSH4 0x292EE7C9 EQ PUSH2 0x1B7 JUMPI DUP1 PUSH4 0x3EFE1B8A EQ PUSH2 0x1D3 JUMPI JUMPDEST PUSH0 DUP1 REVERT JUMPDEST PUSH2 0x169 PUSH1 0x4 DUP1 CALLDATASIZE SUB DUP2 ADD SWAP1 PUSH2 0x164 SWAP2 SWAP1 PUSH2 0x266D JUMP JUMPDEST PUSH2 0x4D6 JUMP JUMPDEST PUSH1 0x40 MLOAD PUSH2 0x176 SWAP2 SWAP1 PUSH2 0x272B JUMP JUMPDEST PUSH1 0x40 MLOAD DUP1 SWAP2 SUB SWAP1 RETURN JUMPDEST PUSH2 0x199 PUSH1 0x4 DUP1 CALLDATASIZE SUB DUP2 ADD SWAP1 PUSH2 0x194 SWAP2 SWAP1 PUSH2 0x2777 JUMP JUMPDEST PUSH2 0x53D JUMP JUMPDEST STOP JUMPDEST PUSH2 0x1B5 PUSH1 0x4 DUP1 CALLDATASIZE SUB DUP2 ADD SWAP1 PUSH2 0x1B0 SWAP2 SWAP1 PUSH2 0x2B42 JUMP JUMPDEST PUSH2 0x541 JUMP JUMPDEST STOP JUMPDEST PUSH2 0x1D1 PUSH1 0x4 DUP1 CALLDATASIZE SUB DUP2 ADD SWAP1 PUSH2 0x1CC SWAP2 SWAP1 PUSH2 0x2C9B JUMP JUMPDEST PUSH2 0x7BB JUMP JUMPDEST STOP JUMPDEST PUSH2 0x1ED PUSH1 0x4 DUP1 CALLDATASIZE SUB DUP2 ADD SWAP1 PUSH2 0x1E8 SWAP2 SWAP1 PUSH2 0x2D11 JUMP JUMPDEST PUSH2 0x8D8 JUMP JUMPDEST PUSH1 0x40 MLOAD PUSH2 0x1FA SWAP2 SWAP1 PUSH2 0x2D96 JUMP JUMPDEST PUSH1 0x40 MLOAD DUP1 SWAP2 SUB SWAP1 RETURN JUMPDEST PUSH2 0x21D PUSH1 0x4 DUP1 CALLDATASIZE SUB DUP2 ADD SWAP1 PUSH2 0x218 SWAP2 SWAP1 PUSH2 0x2D11 JUMP JUMPDEST PUSH2 0x8F6 JUMP JUMPDEST PUSH1 0x40 MLOAD PUSH2 0x22A SWAP2 SWAP1 PUSH2 0x2ECA JUMP JUMPDEST PUSH1 0x40 MLOAD DUP1 SWAP2 SUB SWAP1 RETURN JUMPDEST PUSH2 0x24D PUSH1 0x4 DUP1 CALLDATASIZE SUB DUP2 ADD SWAP1 PUSH2 0x248 SWAP2 SWAP1 PUSH2 0x2EEA JUMP JUMPDEST PUSH2 0x915 JUMP JUMPDEST PUSH1 0x40 MLOAD PUSH2 0x25A SWAP2 SWAP1 PUSH2 0x2F5D JUMP JUMPDEST PUSH1 0x40 MLOAD DUP1 SWAP2 SUB SWAP1 RETURN JUMPDEST PUSH2 0x26B PUSH2 0x9BB JUMP JUMPDEST PUSH1 0x40 MLOAD PUSH2 0x278 SWAP2 SWAP1 PUSH2 0x2ECA JUMP JUMPDEST PUSH1 0x40 MLOAD DUP1 SWAP2 SUB SWAP1 RETURN JUMPDEST PUSH2 0x29B PUSH1 0x4 DUP1 CALLDATASIZE SUB DUP2 ADD SWAP1 PUSH2 0x296 SWAP2 SWAP1 PUSH2 0x266D JUMP JUMPDEST PUSH2 0xA8F JUMP JUMPDEST STOP JUMPDEST PUSH2 0x2B7 PUSH1 0x4 DUP1 CALLDATASIZE SUB DUP2 ADD SWAP1 PUSH2 0x2B2 SWAP2 SWAP1 PUSH2 0x266D JUMP JUMPDEST PUSH2 0xC09 JUMP JUMPDEST PUSH1 0x40 MLOAD PUSH2 0x2C4 SWAP2 SWAP1 PUSH2 0x272B JUMP JUMPDEST PUSH1 0x40 MLOAD DUP1 SWAP2 SUB SWAP1 RETURN JUMPDEST PUSH2 0x2E7 PUSH1 0x4 DUP1 CALLDATASIZE SUB DUP2 ADD SWAP1 PUSH2 0x2E2 SWAP2 SWAP1 PUSH2 0x266D JUMP JUMPDEST PUSH2 0xC7A JUMP JUMPDEST PUSH1 0x40 MLOAD PUSH2 0x2F4 SWAP2 SWAP1 PUSH2 0x272B JUMP JUMPDEST PUSH1 0x40 MLOAD DUP1 SWAP2 SUB SWAP1 RETURN JUMPDEST PUSH2 0x317 PUSH1 0x4 DUP1 CALLDATASIZE SUB DUP2 ADD SWAP1 PUSH2 0x312 SWAP2 SWAP1 PUSH2 0x2F7D JUMP JUMPDEST PUSH2 0xCEB JUMP JUMPDEST STOP JUMPDEST PUSH2 0x333 PUSH1 0x4 DUP1 CALLDATASIZE SUB DUP2 ADD SWAP1 PUSH2 0x32E SWAP2 SWAP1 PUSH2 0x3021 JUMP JUMPDEST PUSH2 0xD2E JUMP JUMPDEST PUSH1 0x40 MLOAD PUSH2 0x349 SWAP11 SWAP10 SWAP9 SWAP8 SWAP7 SWAP6 SWAP5 SWAP4 SWAP3 SWAP2 SWAP1 PUSH2 0x3068 JUMP JUMPDEST PUSH1 0x40 MLOAD DUP1 SWAP2 SUB SWAP1 RETURN JUMPDEST PUSH2 0x36C PUSH1 0x4 DUP1 CALLDATASIZE SUB DUP2 ADD SWAP1 PUSH2 0x367 SWAP2 SWAP1 PUSH2 0x2EEA JUMP JUMPDEST PUSH2 0x1040 JUMP JUMPDEST STOP JUMPDEST PUSH2 0x376 PUSH2 0x1043 JUMP JUMPDEST PUSH1 0x40 MLOAD PUSH2 0x383 SWAP2 SWAP1 PUSH2 0x2F5D JUMP JUMPDEST PUSH1 0x40 MLOAD DUP1 SWAP2 SUB SWAP1 RETURN JUMPDEST PUSH2 0x3A6 PUSH1 0x4 DUP1 CALLDATASIZE SUB DUP2 ADD SWAP1 PUSH2 0x3A1 SWAP2 SWAP1 PUSH2 0x266D JUMP JUMPDEST PUSH2 0x10CE JUMP JUMPDEST STOP JUMPDEST PUSH2 0x3C2 PUSH1 0x4 DUP1 CALLDATASIZE SUB DUP2 ADD SWAP1 PUSH2 0x3BD SWAP2 SWAP1 PUSH2 0x2D11 JUMP JUMPDEST PUSH2 0x11F3 JUMP JUMPDEST PUSH1 0x40 MLOAD PUSH2 0x3CF SWAP2 SWAP1 PUSH2 0x272B JUMP JUMPDEST PUSH1 0x40 MLOAD DUP1 SWAP2 SUB SWAP1 RETURN JUMPDEST PUSH2 0x3F2 PUSH1 0x4 DUP1 CALLDATASIZE SUB DUP2 ADD SWAP1 PUSH2 0x3ED SWAP2 SWAP1 PUSH2 0x2D11 JUMP JUMPDEST PUSH2 0x124B JUMP JUMPDEST PUSH1 0x40 MLOAD PUSH2 0x3FF SWAP2 SWAP1 PUSH2 0x2D96 JUMP JUMPDEST PUSH1 0x40 MLOAD DUP1 SWAP2 SUB SWAP1 RETURN JUMPDEST PUSH2 0x422 PUSH1 0x4 DUP1 CALLDATASIZE SUB DUP2 ADD SWAP1 PUSH2 0x41D SWAP2 SWAP1 PUSH2 0x2D11 JUMP JUMPDEST PUSH2 0x126A JUMP JUMPDEST PUSH1 0x40 MLOAD PUSH2 0x431 SWAP4 SWAP3 SWAP2 SWAP1 PUSH2 0x32C0 JUMP JUMPDEST PUSH1 0x40 MLOAD DUP1 SWAP2 SUB SWAP1 RETURN JUMPDEST PUSH2 0x454 PUSH1 0x4 DUP1 CALLDATASIZE SUB DUP2 ADD SWAP1 PUSH2 0x44F SWAP2 SWAP1 PUSH2 0x3021 JUMP JUMPDEST PUSH2 0x1ADC JUMP JUMPDEST PUSH1 0x40 MLOAD PUSH2 0x461 SWAP2 SWAP1 PUSH2 0x2D96 JUMP JUMPDEST PUSH1 0x40 MLOAD DUP1 SWAP2 SUB SWAP1 RETURN JUMPDEST PUSH2 0x472 PUSH2 0x1B09 JUMP JUMPDEST PUSH1 0x40 MLOAD PUSH2 0x47F SWAP2 SWAP1 PUSH2 0x367B JUMP JUMPDEST PUSH1 0x40 MLOAD DUP1 SWAP2 SUB SWAP1 RETURN JUMPDEST PUSH2 0x490 PUSH2 0x237B JUMP JUMPDEST PUSH1 0x40 MLOAD PUSH2 0x49D SWAP2 SWAP1 PUSH2 0x2D96 JUMP JUMPDEST PUSH1 0x40 MLOAD DUP1 SWAP2 SUB SWAP1 RETURN JUMPDEST PUSH2 0x4C0 PUSH1 0x4 DUP1 CALLDATASIZE SUB DUP2 ADD SWAP1 PUSH2 0x4BB SWAP2 SWAP1 PUSH2 0x2D11 JUMP JUMPDEST PUSH2 0x2387 JUMP JUMPDEST PUSH1 0x40 MLOAD PUSH2 0x4CD SWAP2 SWAP1 PUSH2 0x272B JUMP JUMPDEST PUSH1 0x40 MLOAD DUP1 SWAP2 SUB SWAP1 RETURN JUMPDEST PUSH0 DUP1 PUSH2 0x4E2 DUP6 DUP6 PUSH2 0x8F6 JUMP JUMPDEST SWAP1 POP PUSH0 JUMPDEST DUP2 MLOAD DUP2 LT ISZERO PUSH2 0x530 JUMPI PUSH2 0x513 DUP5 DUP4 DUP4 DUP2 MLOAD DUP2 LT PUSH2 0x506 JUMPI PUSH2 0x505 PUSH2 0x369B JUMP JUMPDEST JUMPDEST PUSH1 0x20 MUL PUSH1 0x20 ADD ADD MLOAD PUSH2 0x11F3 JUMP JUMPDEST ISZERO PUSH2 0x523 JUMPI PUSH1 0x1 SWAP3 POP POP POP PUSH2 0x536 JUMP JUMPDEST DUP1 DUP1 PUSH1 0x1 ADD SWAP2 POP POP PUSH2 0x4E6 JUMP JUMPDEST POP PUSH0 SWAP2 POP POP JUMPDEST SWAP4 SWAP3 POP POP POP JUMP JUMPDEST POP POP JUMP JUMPDEST PUSH0 PUSH1 0x1 DUP10 PUSH1 0x40 MLOAD PUSH2 0x552 SWAP2 SWAP1 PUSH2 0x3702 JUMP JUMPDEST SWAP1 DUP2 MSTORE PUSH1 0x20 ADD PUSH1 0x40 MLOAD DUP1 SWAP2 SUB SWAP1 KECCAK256 SWAP1 POP DUP8 DUP2 PUSH1 0x1 ADD SWAP1 DUP2 PUSH2 0x573 SWAP2 SWAP1 PUSH2 0x3912 JUMP JUMPDEST POP DUP7 DUP2 PUSH1 0x2 ADD SWAP1 DUP2 PUSH2 0x585 SWAP2 SWAP1 PUSH2 0x3912 JUMP JUMPDEST POP DUP9 DUP2 PUSH0 ADD SWAP1 DUP2 PUSH2 0x596 SWAP2 SWAP1 PUSH2 0x3912 JUMP JUMPDEST POP DUP6 DUP2 PUSH1 0x3 ADD SWAP1 DUP2 PUSH2 0x5A8 SWAP2 SWAP1 PUSH2 0x3912 JUMP JUMPDEST POP DUP5 DUP2 PUSH1 0x4 ADD SWAP1 DUP2 PUSH2 0x5BA SWAP2 SWAP1 PUSH2 0x3912 JUMP JUMPDEST POP TIMESTAMP DUP2 PUSH1 0x5 ADD DUP2 SWAP1 SSTORE POP DUP4 DUP2 PUSH1 0x6 ADD DUP2 SWAP1 SSTORE POP DUP3 DUP2 PUSH1 0x7 ADD DUP2 SWAP1 SSTORE POP PUSH0 DUP2 PUSH1 0x9 ADD PUSH0 PUSH2 0x100 EXP DUP2 SLOAD DUP2 PUSH1 0xFF MUL NOT AND SWAP1 DUP4 ISZERO ISZERO MUL OR SWAP1 SSTORE POP PUSH0 DUP2 PUSH1 0x8 ADD DUP2 SWAP1 SSTORE POP PUSH1 0x2 DUP10 SWAP1 DUP1 PUSH1 0x1 DUP2 SLOAD ADD DUP1 DUP3 SSTORE DUP1 SWAP2 POP POP PUSH1 0x1 SWAP1 SUB SWAP1 PUSH0 MSTORE PUSH1 0x20 PUSH0 KECCAK256 ADD PUSH0 SWAP1 SWAP2 SWAP1 SWAP2 SWAP1 SWAP2 POP SWAP1 DUP2 PUSH2 0x62B SWAP2 SWAP1 PUSH2 0x3912 JUMP JUMPDEST POP PUSH0 JUMPDEST DUP3 MLOAD DUP2 LT ISZERO PUSH2 0x7AF JUMPI DUP2 PUSH1 0xA ADD DUP4 DUP3 DUP2 MLOAD DUP2 LT PUSH2 0x64E JUMPI PUSH2 0x64D PUSH2 0x369B JUMP JUMPDEST JUMPDEST PUSH1 0x20 MUL PUSH1 0x20 ADD ADD MLOAD SWAP1 DUP1 PUSH1 0x1 DUP2 SLOAD ADD DUP1 DUP3 SSTORE DUP1 SWAP2 POP POP PUSH1 0x1 SWAP1 SUB SWAP1 PUSH0 MSTORE PUSH1 0x20 PUSH0 KECCAK256 SWAP1 PUSH1 0xA MUL ADD PUSH0 SWAP1 SWAP2 SWAP1 SWAP2 SWAP1 SWAP2 POP PUSH0 DUP3 ADD MLOAD DUP2 PUSH0 ADD SWAP1 DUP2 PUSH2 0x68F SWAP2 SWAP1 PUSH2 0x3912 JUMP JUMPDEST POP PUSH1 0x20 DUP3 ADD MLOAD DUP2 PUSH1 0x1 ADD SWAP1 DUP2 PUSH2 0x6A5 SWAP2 SWAP1 PUSH2 0x3912 JUMP JUMPDEST POP PUSH1 0x40 DUP3 ADD MLOAD DUP2 PUSH1 0x2 ADD SWAP1 DUP2 PUSH2 0x6BB SWAP2 SWAP1 PUSH2 0x3912 JUMP JUMPDEST POP PUSH1 0x60 DUP3 ADD MLOAD DUP2 PUSH1 0x3 ADD SWAP1 DUP2 PUSH2 0x6D1 SWAP2 SWAP1 PUSH2 0x3912 JUMP JUMPDEST POP PUSH1 0x80 DUP3 ADD MLOAD DUP2 PUSH1 0x4 ADD SSTORE PUSH1 0xA0 DUP3 ADD MLOAD DUP2 PUSH1 0x5 ADD SWAP1 DUP1 MLOAD SWAP1 PUSH1 0x20 ADD SWAP1 PUSH2 0x6F8 SWAP3 SWAP2 SWAP1 PUSH2 0x23A6 JUMP JUMPDEST POP PUSH1 0xC0 DUP3 ADD MLOAD DUP2 PUSH1 0x6 ADD SWAP1 DUP1 MLOAD SWAP1 PUSH1 0x20 ADD SWAP1 PUSH2 0x715 SWAP3 SWAP2 SWAP1 PUSH2 0x23A6 JUMP JUMPDEST POP PUSH1 0xE0 DUP3 ADD MLOAD DUP2 PUSH1 0x7 ADD SSTORE PUSH2 0x100 DUP3 ADD MLOAD DUP2 PUSH1 0x8 ADD SSTORE PUSH2 0x120 DUP3 ADD MLOAD DUP2 PUSH1 0x9 ADD PUSH0 PUSH2 0x100 EXP DUP2 SLOAD DUP2 PUSH1 0xFF MUL NOT AND SWAP1 DUP4 ISZERO ISZERO MUL OR SWAP1 SSTORE POP POP POP DUP2 PUSH1 0xA ADD DUP2 DUP2 SLOAD DUP2 LT PUSH2 0x763 JUMPI PUSH2 0x762 PUSH2 0x369B JUMP JUMPDEST JUMPDEST SWAP1 PUSH0 MSTORE PUSH1 0x20 PUSH0 KECCAK256 SWAP1 PUSH1 0xA MUL ADD PUSH1 0x5 ADD DUP7 SWAP1 DUP1 PUSH1 0x1 DUP2 SLOAD ADD DUP1 DUP3 SSTORE DUP1 SWAP2 POP POP PUSH1 0x1 SWAP1 SUB SWAP1 PUSH0 MSTORE PUSH1 0x20 PUSH0 KECCAK256 ADD PUSH0 SWAP1 SWAP2 SWAP1 SWAP2 SWAP1 SWAP2 POP SWAP1 DUP2 PUSH2 0x7A1 SWAP2 SWAP1 PUSH2 0x3912 JUMP JUMPDEST POP DUP1 DUP1 PUSH1 0x1 ADD SWAP2 POP POP PUSH2 0x62E JUMP JUMPDEST POP POP POP POP POP POP POP POP POP POP JUMP JUMPDEST PUSH1 0x1 DUP3 PUSH1 0x40 MLOAD PUSH2 0x7CB SWAP2 SWAP1 PUSH2 0x3702 JUMP JUMPDEST SWAP1 DUP2 MSTORE PUSH1 0x20 ADD PUSH1 0x40 MLOAD DUP1 SWAP2 SUB SWAP1 KECCAK256 PUSH1 0xA ADD DUP2 SWAP1 DUP1 PUSH1 0x1 DUP2 SLOAD ADD DUP1 DUP3 SSTORE DUP1 SWAP2 POP POP PUSH1 0x1 SWAP1 SUB SWAP1 PUSH0 MSTORE PUSH1 0x20 PUSH0 KECCAK256 SWAP1 PUSH1 0xA MUL ADD PUSH0 SWAP1 SWAP2 SWAP1 SWAP2 SWAP1 SWAP2 POP PUSH0 DUP3 ADD MLOAD DUP2 PUSH0 ADD SWAP1 DUP2 PUSH2 0x816 SWAP2 SWAP1 PUSH2 0x3912 JUMP JUMPDEST POP PUSH1 0x20 DUP3 ADD MLOAD DUP2 PUSH1 0x1 ADD SWAP1 DUP2 PUSH2 0x82C SWAP2 SWAP1 PUSH2 0x3912 JUMP JUMPDEST POP PUSH1 0x40 DUP3 ADD MLOAD DUP2 PUSH1 0x2 ADD SWAP1 DUP2 PUSH2 0x842 SWAP2 SWAP1 PUSH2 0x3912 JUMP JUMPDEST POP PUSH1 0x60 DUP3 ADD MLOAD DUP2 PUSH1 0x3 ADD SWAP1 DUP2 PUSH2 0x858 SWAP2 SWAP1 PUSH2 0x3912 JUMP JUMPDEST POP PUSH1 0x80 DUP3 ADD MLOAD DUP2 PUSH1 0x4 ADD SSTORE PUSH1 0xA0 DUP3 ADD MLOAD DUP2 PUSH1 0x5 ADD SWAP1 DUP1 MLOAD SWAP1 PUSH1 0x20 ADD SWAP1 PUSH2 0x87F SWAP3 SWAP2 SWAP1 PUSH2 0x23A6 JUMP JUMPDEST POP PUSH1 0xC0 DUP3 ADD MLOAD DUP2 PUSH1 0x6 ADD SWAP1 DUP1 MLOAD SWAP1 PUSH1 0x20 ADD SWAP1 PUSH2 0x89C SWAP3 SWAP2 SWAP1 PUSH2 0x23A6 JUMP JUMPDEST POP PUSH1 0xE0 DUP3 ADD MLOAD DUP2 PUSH1 0x7 ADD SSTORE PUSH2 0x100 DUP3 ADD MLOAD DUP2 PUSH1 0x8 ADD SSTORE PUSH2 0x120 DUP3 ADD MLOAD DUP2 PUSH1 0x9 ADD PUSH0 PUSH2 0x100 EXP DUP2 SLOAD DUP2 PUSH1 0xFF MUL NOT AND SWAP1 DUP4 ISZERO ISZERO MUL OR SWAP1 SSTORE POP POP POP POP POP JUMP JUMPDEST PUSH0 DUP1 PUSH2 0x8E4 DUP5 DUP5 PUSH2 0x126A JUMP JUMPDEST POP POP SWAP1 POP DUP1 PUSH1 0xE0 ADD MLOAD SWAP2 POP POP SWAP3 SWAP2 POP POP JUMP JUMPDEST PUSH1 0x60 PUSH0 PUSH2 0x903 DUP5 DUP5 PUSH2 0x126A JUMP JUMPDEST POP POP SWAP1 POP DUP1 PUSH1 0xA0 ADD MLOAD SWAP2 POP POP SWAP3 SWAP2 POP POP JUMP JUMPDEST PUSH1 0x2 DUP2 DUP2 SLOAD DUP2 LT PUSH2 0x924 JUMPI PUSH0 DUP1 REVERT JUMPDEST SWAP1 PUSH0 MSTORE PUSH1 0x20 PUSH0 KECCAK256 ADD PUSH0 SWAP2 POP SWAP1 POP DUP1 SLOAD PUSH2 0x93C SWAP1 PUSH2 0x3745 JUMP JUMPDEST DUP1 PUSH1 0x1F ADD PUSH1 0x20 DUP1 SWAP2 DIV MUL PUSH1 0x20 ADD PUSH1 0x40 MLOAD SWAP1 DUP2 ADD PUSH1 0x40 MSTORE DUP1 SWAP3 SWAP2 SWAP1 DUP2 DUP2 MSTORE PUSH1 0x20 ADD DUP3 DUP1 SLOAD PUSH2 0x968 SWAP1 PUSH2 0x3745 JUMP JUMPDEST DUP1 ISZERO PUSH2 0x9B3 JUMPI DUP1 PUSH1 0x1F LT PUSH2 0x98A JUMPI PUSH2 0x100 DUP1 DUP4 SLOAD DIV MUL DUP4 MSTORE SWAP2 PUSH1 0x20 ADD SWAP2 PUSH2 0x9B3 JUMP JUMPDEST DUP3 ADD SWAP2 SWAP1 PUSH0 MSTORE PUSH1 0x20 PUSH0 KECCAK256 SWAP1 JUMPDEST DUP2 SLOAD DUP2 MSTORE SWAP1 PUSH1 0x1 ADD SWAP1 PUSH1 0x20 ADD DUP1 DUP4 GT PUSH2 0x996 JUMPI DUP3 SWAP1 SUB PUSH1 0x1F AND DUP3 ADD SWAP2 JUMPDEST POP POP POP POP POP DUP2 JUMP JUMPDEST PUSH1 0x60 PUSH1 0x2 DUP1 SLOAD DUP1 PUSH1 0x20 MUL PUSH1 0x20 ADD PUSH1 0x40 MLOAD SWAP1 DUP2 ADD PUSH1 0x40 MSTORE DUP1 SWAP3 SWAP2 SWAP1 DUP2 DUP2 MSTORE PUSH1 0x20 ADD PUSH0 SWAP1 JUMPDEST DUP3 DUP3 LT ISZERO PUSH2 0xA86 JUMPI DUP4 DUP3 SWAP1 PUSH0 MSTORE PUSH1 0x20 PUSH0 KECCAK256 ADD DUP1 SLOAD PUSH2 0x9FB SWAP1 PUSH2 0x3745 JUMP JUMPDEST DUP1 PUSH1 0x1F ADD PUSH1 0x20 DUP1 SWAP2 DIV MUL PUSH1 0x20 ADD PUSH1 0x40 MLOAD SWAP1 DUP2 ADD PUSH1 0x40 MSTORE DUP1 SWAP3 SWAP2 SWAP1 DUP2 DUP2 MSTORE PUSH1 0x20 ADD DUP3 DUP1 SLOAD PUSH2 0xA27 SWAP1 PUSH2 0x3745 JUMP JUMPDEST DUP1 ISZERO PUSH2 0xA72 JUMPI DUP1 PUSH1 0x1F LT PUSH2 0xA49 JUMPI PUSH2 0x100 DUP1 DUP4 SLOAD DIV MUL DUP4 MSTORE SWAP2 PUSH1 0x20 ADD SWAP2 PUSH2 0xA72 JUMP JUMPDEST DUP3 ADD SWAP2 SWAP1 PUSH0 MSTORE PUSH1 0x20 PUSH0 KECCAK256 SWAP1 JUMPDEST DUP2 SLOAD DUP2 MSTORE SWAP1 PUSH1 0x1 ADD SWAP1 PUSH1 0x20 ADD DUP1 DUP4 GT PUSH2 0xA55 JUMPI DUP3 SWAP1 SUB PUSH1 0x1F AND DUP3 ADD SWAP2 JUMPDEST POP POP POP POP POP DUP2 MSTORE PUSH1 0x20 ADD SWAP1 PUSH1 0x1 ADD SWAP1 PUSH2 0x9DE JUMP JUMPDEST POP POP POP POP SWAP1 POP SWAP1 JUMP JUMPDEST PUSH0 DUP1 PUSH2 0xA9B DUP6 DUP6 PUSH2 0x126A JUMP JUMPDEST SWAP3 POP POP POP PUSH1 0x1 DUP6 PUSH1 0x40 MLOAD PUSH2 0xAAF SWAP2 SWAP1 PUSH2 0x3702 JUMP JUMPDEST SWAP1 DUP2 MSTORE PUSH1 0x20 ADD PUSH1 0x40 MLOAD DUP1 SWAP2 SUB SWAP1 KECCAK256 PUSH1 0xA ADD DUP2 DUP2 SLOAD DUP2 LT PUSH2 0xAD2 JUMPI PUSH2 0xAD1 PUSH2 0x369B JUMP JUMPDEST JUMPDEST SWAP1 PUSH0 MSTORE PUSH1 0x20 PUSH0 KECCAK256 SWAP1 PUSH1 0xA MUL ADD SWAP2 POP PUSH2 0xAEB DUP6 DUP6 DUP6 PUSH2 0xC7A JUMP JUMPDEST PUSH2 0xB2A JUMPI PUSH1 0x40 MLOAD PUSH32 0x8C379A000000000000000000000000000000000000000000000000000000000 DUP2 MSTORE PUSH1 0x4 ADD PUSH2 0xB21 SWAP1 PUSH2 0x3A51 JUMP JUMPDEST PUSH1 0x40 MLOAD DUP1 SWAP2 SUB SWAP1 REVERT JUMPDEST PUSH1 0x1 DUP3 PUSH1 0x7 ADD SLOAD PUSH2 0xB3B SWAP2 SWAP1 PUSH2 0x3A9C JUMP JUMPDEST DUP3 PUSH1 0x6 ADD DUP1 SLOAD SWAP1 POP LT PUSH2 0xB83 JUMPI PUSH1 0x40 MLOAD PUSH32 0x8C379A000000000000000000000000000000000000000000000000000000000 DUP2 MSTORE PUSH1 0x4 ADD PUSH2 0xB7A SWAP1 PUSH2 0x3B19 JUMP JUMPDEST PUSH1 0x40 MLOAD DUP1 SWAP2 SUB SWAP1 REVERT JUMPDEST PUSH2 0xB8E DUP6 DUP6 DUP6 PUSH2 0xC09 JUMP JUMPDEST ISZERO PUSH2 0xBCE JUMPI PUSH1 0x40 MLOAD PUSH32 0x8C379A000000000000000000000000000000000000000000000000000000000 DUP2 MSTORE PUSH1 0x4 ADD PUSH2 0xBC5 SWAP1 PUSH2 0x3B81 JUMP JUMPDEST PUSH1 0x40 MLOAD DUP1 SWAP2 SUB SWAP1 REVERT JUMPDEST DUP2 PUSH1 0x6 ADD DUP4 SWAP1 DUP1 PUSH1 0x1 DUP2 SLOAD ADD DUP1 DUP3 SSTORE DUP1 SWAP2 POP POP PUSH1 0x1 SWAP1 SUB SWAP1 PUSH0 MSTORE PUSH1 0x20 PUSH0 KECCAK256 ADD PUSH0 SWAP1 SWAP2 SWAP1 SWAP2 SWAP1 SWAP2 POP SWAP1 DUP2 PUSH2 0xC01 SWAP2 SWAP1 PUSH2 0x3912 JUMP JUMPDEST POP POP POP POP POP POP JUMP JUMPDEST PUSH0 DUP1 PUSH2 0xC15 DUP6 DUP6 PUSH2 0x126A JUMP JUMPDEST POP POP SWAP1 POP PUSH0 JUMPDEST DUP2 PUSH1 0xC0 ADD MLOAD MLOAD DUP2 LT ISZERO PUSH2 0xC6D JUMPI PUSH2 0xC50 DUP5 DUP4 PUSH1 0xC0 ADD MLOAD DUP4 DUP2 MLOAD DUP2 LT PUSH2 0xC43 JUMPI PUSH2 0xC42 PUSH2 0x369B JUMP JUMPDEST JUMPDEST PUSH1 0x20 MUL PUSH1 0x20 ADD ADD MLOAD PUSH2 0x11F3 JUMP JUMPDEST ISZERO PUSH2 0xC60 JUMPI PUSH1 0x1 SWAP3 POP POP POP PUSH2 0xC73 JUMP JUMPDEST DUP1 DUP1 PUSH1 0x1 ADD SWAP2 POP POP PUSH2 0xC1B JUMP JUMPDEST POP PUSH0 SWAP2 POP POP JUMPDEST SWAP4 SWAP3 POP POP POP JUMP JUMPDEST PUSH0 DUP1 PUSH2 0xC86 DUP6 DUP6 PUSH2 0x126A JUMP JUMPDEST POP POP SWAP1 POP PUSH0 JUMPDEST DUP2 PUSH1 0xA0 ADD MLOAD MLOAD DUP2 LT ISZERO PUSH2 0xCDE JUMPI PUSH2 0xCC1 DUP5 DUP4 PUSH1 0xA0 ADD MLOAD DUP4 DUP2 MLOAD DUP2 LT PUSH2 0xCB4 JUMPI PUSH2 0xCB3 PUSH2 0x369B JUMP JUMPDEST JUMPDEST PUSH1 0x20 MUL PUSH1 0x20 ADD ADD MLOAD PUSH2 0x11F3 JUMP JUMPDEST ISZERO PUSH2 0xCD1 JUMPI PUSH1 0x1 SWAP3 POP POP POP PUSH2 0xCE4 JUMP JUMPDEST DUP1 DUP1 PUSH1 0x1 ADD SWAP2 POP POP PUSH2 0xC8C JUMP JUMPDEST POP PUSH0 SWAP2 POP POP JUMPDEST SWAP4 SWAP3 POP POP POP JUMP JUMPDEST PUSH0 JUMPDEST DUP2 MLOAD DUP2 LT ISZERO PUSH2 0xD28 JUMPI PUSH2 0xD1B DUP5 DUP5 DUP5 DUP5 DUP2 MLOAD DUP2 LT PUSH2 0xD0E JUMPI PUSH2 0xD0D PUSH2 0x369B JUMP JUMPDEST JUMPDEST PUSH1 0x20 MUL PUSH1 0x20 ADD ADD MLOAD PUSH2 0x10CE JUMP JUMPDEST DUP1 DUP1 PUSH1 0x1 ADD SWAP2 POP POP PUSH2 0xCED JUMP JUMPDEST POP POP POP POP JUMP JUMPDEST PUSH1 0x1 DUP2 DUP1 MLOAD PUSH1 0x20 DUP2 ADD DUP3 ADD DUP1 MLOAD DUP5 DUP3 MSTORE PUSH1 0x20 DUP4 ADD PUSH1 0x20 DUP6 ADD KECCAK256 DUP2 DUP4 MSTORE DUP1 SWAP6 POP POP POP POP POP POP PUSH0 SWAP2 POP SWAP1 POP DUP1 PUSH0 ADD DUP1 SLOAD PUSH2 0xD65 SWAP1 PUSH2 0x3745 JUMP JUMPDEST DUP1 PUSH1 0x1F ADD PUSH1 0x20 DUP1 SWAP2 DIV MUL PUSH1 0x20 ADD PUSH1 0x40 MLOAD SWAP1 DUP2 ADD PUSH1 0x40 MSTORE DUP1 SWAP3 SWAP2 SWAP1 DUP2 DUP2 MSTORE PUSH1 0x20 ADD DUP3 DUP1 SLOAD PUSH2 0xD91 SWAP1 PUSH2 0x3745 JUMP JUMPDEST DUP1 ISZERO PUSH2 0xDDC JUMPI DUP1 PUSH1 0x1F LT PUSH2 0xDB3 JUMPI PUSH2 0x100 DUP1 DUP4 SLOAD DIV MUL DUP4 MSTORE SWAP2 PUSH1 0x20 ADD SWAP2 PUSH2 0xDDC JUMP JUMPDEST DUP3 ADD SWAP2 SWAP1 PUSH0 MSTORE PUSH1 0x20 PUSH0 KECCAK256 SWAP1 JUMPDEST DUP2 SLOAD DUP2 MSTORE SWAP1 PUSH1 0x1 ADD SWAP1 PUSH1 0x20 ADD DUP1 DUP4 GT PUSH2 0xDBF JUMPI DUP3 SWAP1 SUB PUSH1 0x1F AND DUP3 ADD SWAP2 JUMPDEST POP POP POP POP POP SWAP1 DUP1 PUSH1 0x1 ADD DUP1 SLOAD PUSH2 0xDF1 SWAP1 PUSH2 0x3745 JUMP JUMPDEST DUP1 PUSH1 0x1F ADD PUSH1 0x20 DUP1 SWAP2 DIV MUL PUSH1 0x20 ADD PUSH1 0x40 MLOAD SWAP1 DUP2 ADD PUSH1 0x40 MSTORE DUP1 SWAP3 SWAP2 SWAP1 DUP2 DUP2 MSTORE PUSH1 0x20 ADD DUP3 DUP1 SLOAD PUSH2 0xE1D SWAP1 PUSH2 0x3745 JUMP JUMPDEST DUP1 ISZERO PUSH2 0xE68 JUMPI DUP1 PUSH1 0x1F LT PUSH2 0xE3F JUMPI PUSH2 0x100 DUP1 DUP4 SLOAD DIV MUL DUP4 MSTORE SWAP2 PUSH1 0x20 ADD SWAP2 PUSH2 0xE68 JUMP JUMPDEST DUP3 ADD SWAP2 SWAP1 PUSH0 MSTORE PUSH1 0x20 PUSH0 KECCAK256 SWAP1 JUMPDEST DUP2 SLOAD DUP2 MSTORE SWAP1 PUSH1 0x1 ADD SWAP1 PUSH1 0x20 ADD DUP1 DUP4 GT PUSH2 0xE4B JUMPI DUP3 SWAP1 SUB PUSH1 0x1F AND DUP3 ADD SWAP2 JUMPDEST POP POP POP POP POP SWAP1 DUP1 PUSH1 0x2 ADD DUP1 SLOAD PUSH2 0xE7D SWAP1 PUSH2 0x3745 JUMP JUMPDEST DUP1 PUSH1 0x1F ADD PUSH1 0x20 DUP1 SWAP2 DIV MUL PUSH1 0x20 ADD PUSH1 0x40 MLOAD SWAP1 DUP2 ADD PUSH1 0x40 MSTORE DUP1 SWAP3 SWAP2 SWAP1 DUP2 DUP2 MSTORE PUSH1 0x20 ADD DUP3 DUP1 SLOAD PUSH2 0xEA9 SWAP1 PUSH2 0x3745 JUMP JUMPDEST DUP1 ISZERO PUSH2 0xEF4 JUMPI DUP1 PUSH1 0x1F LT PUSH2 0xECB JUMPI PUSH2 0x100 DUP1 DUP4 SLOAD DIV MUL DUP4 MSTORE SWAP2 PUSH1 0x20 ADD SWAP2 PUSH2 0xEF4 JUMP JUMPDEST DUP3 ADD SWAP2 SWAP1 PUSH0 MSTORE PUSH1 0x20 PUSH0 KECCAK256 SWAP1 JUMPDEST DUP2 SLOAD DUP2 MSTORE SWAP1 PUSH1 0x1 ADD SWAP1 PUSH1 0x20 ADD DUP1 DUP4 GT PUSH2 0xED7 JUMPI DUP3 SWAP1 SUB PUSH1 0x1F AND DUP3 ADD SWAP2 JUMPDEST POP POP POP POP POP SWAP1 DUP1 PUSH1 0x3 ADD DUP1 SLOAD PUSH2 0xF09 SWAP1 PUSH2 0x3745 JUMP JUMPDEST DUP1 PUSH1 0x1F ADD PUSH1 0x20 DUP1 SWAP2 DIV MUL PUSH1 0x20 ADD PUSH1 0x40 MLOAD SWAP1 DUP2 ADD PUSH1 0x40 MSTORE DUP1 SWAP3 SWAP2 SWAP1 DUP2 DUP2 MSTORE PUSH1 0x20 ADD DUP3 DUP1 SLOAD PUSH2 0xF35 SWAP1 PUSH2 0x3745 JUMP JUMPDEST DUP1 ISZERO PUSH2 0xF80 JUMPI DUP1 PUSH1 0x1F LT PUSH2 0xF57 JUMPI PUSH2 0x100 DUP1 DUP4 SLOAD DIV MUL DUP4 MSTORE SWAP2 PUSH1 0x20 ADD SWAP2 PUSH2 0xF80 JUMP JUMPDEST DUP3 ADD SWAP2 SWAP1 PUSH0 MSTORE PUSH1 0x20 PUSH0 KECCAK256 SWAP1 JUMPDEST DUP2 SLOAD DUP2 MSTORE SWAP1 PUSH1 0x1 ADD SWAP1 PUSH1 0x20 ADD DUP1 DUP4 GT PUSH2 0xF63 JUMPI DUP3 SWAP1 SUB PUSH1 0x1F AND DUP3 ADD SWAP2 JUMPDEST POP POP POP POP POP SWAP1 DUP1 PUSH1 0x4 ADD DUP1 SLOAD PUSH2 0xF95 SWAP1 PUSH2 0x3745 JUMP JUMPDEST DUP1 PUSH1 0x1F ADD PUSH1 0x20 DUP1 SWAP2 DIV MUL PUSH1 0x20 ADD PUSH1 0x40 MLOAD SWAP1 DUP2 ADD PUSH1 0x40 MSTORE DUP1 SWAP3 SWAP2 SWAP1 DUP2 DUP2 MSTORE PUSH1 0x20 ADD DUP3 DUP1 SLOAD PUSH2 0xFC1 SWAP1 PUSH2 0x3745 JUMP JUMPDEST DUP1 ISZERO PUSH2 0x100C JUMPI DUP1 PUSH1 0x1F LT PUSH2 0xFE3 JUMPI PUSH2 0x100 DUP1 DUP4 SLOAD DIV MUL DUP4 MSTORE SWAP2 PUSH1 0x20 ADD SWAP2 PUSH2 0x100C JUMP JUMPDEST DUP3 ADD SWAP2 SWAP1 PUSH0 MSTORE PUSH1 0x20 PUSH0 KECCAK256 SWAP1 JUMPDEST DUP2 SLOAD DUP2 MSTORE SWAP1 PUSH1 0x1 ADD SWAP1 PUSH1 0x20 ADD DUP1 DUP4 GT PUSH2 0xFEF JUMPI DUP3 SWAP1 SUB PUSH1 0x1F AND DUP3 ADD SWAP2 JUMPDEST POP POP POP POP POP SWAP1 DUP1 PUSH1 0x5 ADD SLOAD SWAP1 DUP1 PUSH1 0x6 ADD SLOAD SWAP1 DUP1 PUSH1 0x7 ADD SLOAD SWAP1 DUP1 PUSH1 0x8 ADD SLOAD SWAP1 DUP1 PUSH1 0x9 ADD PUSH0 SWAP1 SLOAD SWAP1 PUSH2 0x100 EXP SWAP1 DIV PUSH1 0xFF AND SWAP1 POP DUP11 JUMP JUMPDEST POP JUMP JUMPDEST PUSH0 DUP1 SLOAD PUSH2 0x104F SWAP1 PUSH2 0x3745 JUMP JUMPDEST DUP1 PUSH1 0x1F ADD PUSH1 0x20 DUP1 SWAP2 DIV MUL PUSH1 0x20 ADD PUSH1 0x40 MLOAD SWAP1 DUP2 ADD PUSH1 0x40 MSTORE DUP1 SWAP3 SWAP2 SWAP1 DUP2 DUP2 MSTORE PUSH1 0x20 ADD DUP3 DUP1 SLOAD PUSH2 0x107B SWAP1 PUSH2 0x3745 JUMP JUMPDEST DUP1 ISZERO PUSH2 0x10C6 JUMPI DUP1 PUSH1 0x1F LT PUSH2 0x109D JUMPI PUSH2 0x100 DUP1 DUP4 SLOAD DIV MUL DUP4 MSTORE SWAP2 PUSH1 0x20 ADD SWAP2 PUSH2 0x10C6 JUMP JUMPDEST DUP3 ADD SWAP2 SWAP1 PUSH0 MSTORE PUSH1 0x20 PUSH0 KECCAK256 SWAP1 JUMPDEST DUP2 SLOAD DUP2 MSTORE SWAP1 PUSH1 0x1 ADD SWAP1 PUSH1 0x20 ADD DUP1 DUP4 GT PUSH2 0x10A9 JUMPI DUP3 SWAP1 SUB PUSH1 0x1F AND DUP3 ADD SWAP2 JUMPDEST POP POP POP POP POP DUP2 JUMP JUMPDEST PUSH0 PUSH1 0x1 DUP5 PUSH1 0x40 MLOAD PUSH2 0x10DF SWAP2 SWAP1 PUSH2 0x3702 JUMP JUMPDEST SWAP1 DUP2 MSTORE PUSH1 0x20 ADD PUSH1 0x40 MLOAD DUP1 SWAP2 SUB SWAP1 KECCAK256 SWAP1 POP PUSH0 PUSH2 0x10FA DUP6 DUP6 PUSH2 0x126A JUMP JUMPDEST SWAP3 POP POP POP PUSH0 DUP3 PUSH1 0xA ADD DUP3 DUP2 SLOAD DUP2 LT PUSH2 0x1115 JUMPI PUSH2 0x1114 PUSH2 0x369B JUMP JUMPDEST JUMPDEST SWAP1 PUSH0 MSTORE PUSH1 0x20 PUSH0 KECCAK256 SWAP1 PUSH1 0xA MUL ADD SWAP1 POP PUSH2 0x112E DUP7 DUP7 DUP7 PUSH2 0xC7A JUMP JUMPDEST PUSH2 0x116D JUMPI PUSH1 0x40 MLOAD PUSH32 0x8C379A000000000000000000000000000000000000000000000000000000000 DUP2 MSTORE PUSH1 0x4 ADD PUSH2 0x1164 SWAP1 PUSH2 0x3BE9 JUMP JUMPDEST PUSH1 0x40 MLOAD DUP1 SWAP2 SUB SWAP1 REVERT JUMPDEST PUSH2 0x1177 DUP7 DUP7 PUSH2 0x2387 JUMP JUMPDEST ISZERO PUSH2 0x11B7 JUMPI PUSH1 0x40 MLOAD PUSH32 0x8C379A000000000000000000000000000000000000000000000000000000000 DUP2 MSTORE PUSH1 0x4 ADD PUSH2 0x11AE SWAP1 PUSH2 0x3C77 JUMP JUMPDEST PUSH1 0x40 MLOAD DUP1 SWAP2 SUB SWAP1 REVERT JUMPDEST DUP1 PUSH1 0x5 ADD DUP5 SWAP1 DUP1 PUSH1 0x1 DUP2 SLOAD ADD DUP1 DUP3 SSTORE DUP1 SWAP2 POP POP PUSH1 0x1 SWAP1 SUB SWAP1 PUSH0 MSTORE PUSH1 0x20 PUSH0 KECCAK256 ADD PUSH0 SWAP1 SWAP2 SWAP1 SWAP2 SWAP1 SWAP2 POP SWAP1 DUP2 PUSH2 0x11EA SWAP2 SWAP1 PUSH2 0x3912 JUMP JUMPDEST POP POP POP POP POP POP POP JUMP JUMPDEST PUSH0 DUP2 PUSH1 0x40 MLOAD PUSH1 0x20 ADD PUSH2 0x1205 SWAP2 SWAP1 PUSH2 0x3702 JUMP JUMPDEST PUSH1 0x40 MLOAD PUSH1 0x20 DUP2 DUP4 SUB SUB DUP2 MSTORE SWAP1 PUSH1 0x40 MSTORE DUP1 MLOAD SWAP1 PUSH1 0x20 ADD KECCAK256 DUP4 PUSH1 0x40 MLOAD PUSH1 0x20 ADD PUSH2 0x122C SWAP2 SWAP1 PUSH2 0x3702 JUMP JUMPDEST PUSH1 0x40 MLOAD PUSH1 0x20 DUP2 DUP4 SUB SUB DUP2 MSTORE SWAP1 PUSH1 0x40 MSTORE DUP1 MLOAD SWAP1 PUSH1 0x20 ADD KECCAK256 EQ SWAP1 POP SWAP3 SWAP2 POP POP JUMP JUMPDEST PUSH0 DUP1 PUSH2 0x1257 DUP5 DUP5 PUSH2 0x126A JUMP JUMPDEST POP POP SWAP1 POP DUP1 PUSH1 0xC0 ADD MLOAD MLOAD SWAP2 POP POP SWAP3 SWAP2 POP POP JUMP JUMPDEST PUSH2 0x1272 PUSH2 0x23FD JUMP JUMPDEST PUSH0 DUP1 PUSH0 PUSH1 0x1 DUP7 PUSH1 0x40 MLOAD PUSH2 0x1285 SWAP2 SWAP1 PUSH2 0x3702 JUMP JUMPDEST SWAP1 DUP2 MSTORE PUSH1 0x20 ADD PUSH1 0x40 MLOAD DUP1 SWAP2 SUB SWAP1 KECCAK256 PUSH1 0x40 MLOAD DUP1 PUSH2 0x160 ADD PUSH1 0x40 MSTORE SWAP1 DUP2 PUSH0 DUP3 ADD DUP1 SLOAD PUSH2 0x12AE SWAP1 PUSH2 0x3745 JUMP JUMPDEST DUP1 PUSH1 0x1F ADD PUSH1 0x20 DUP1 SWAP2 DIV MUL PUSH1 0x20 ADD PUSH1 0x40 MLOAD SWAP1 DUP2 ADD PUSH1 0x40 MSTORE DUP1 SWAP3 SWAP2 SWAP1 DUP2 DUP2 MSTORE PUSH1 0x20 ADD DUP3 DUP1 SLOAD PUSH2 0x12DA SWAP1 PUSH2 0x3745 JUMP JUMPDEST DUP1 ISZERO PUSH2 0x1325 JUMPI DUP1 PUSH1 0x1F LT PUSH2 0x12FC JUMPI PUSH2 0x100 DUP1 DUP4 SLOAD DIV MUL DUP4 MSTORE SWAP2 PUSH1 0x20 ADD SWAP2 PUSH2 0x1325 JUMP JUMPDEST DUP3 ADD SWAP2 SWAP1 PUSH0 MSTORE PUSH1 0x20 PUSH0 KECCAK256 SWAP1 JUMPDEST DUP2 SLOAD DUP2 MSTORE SWAP1 PUSH1 0x1 ADD SWAP1 PUSH1 0x20 ADD DUP1 DUP4 GT PUSH2 0x1308 JUMPI DUP3 SWAP1 SUB PUSH1 0x1F AND DUP3 ADD SWAP2 JUMPDEST POP POP POP POP POP DUP2 MSTORE PUSH1 0x20 ADD PUSH1 0x1 DUP3 ADD DUP1 SLOAD PUSH2 0x133E SWAP1 PUSH2 0x3745 JUMP JUMPDEST DUP1 PUSH1 0x1F ADD PUSH1 0x20 DUP1 SWAP2 DIV MUL PUSH1 0x20 ADD PUSH1 0x40 MLOAD SWAP1 DUP2 ADD PUSH1 0x40 MSTORE DUP1 SWAP3 SWAP2 SWAP1 DUP2 DUP2 MSTORE PUSH1 0x20 ADD DUP3 DUP1 SLOAD PUSH2 0x136A SWAP1 PUSH2 0x3745 JUMP JUMPDEST DUP1 ISZERO PUSH2 0x13B5 JUMPI DUP1 PUSH1 0x1F LT PUSH2 0x138C JUMPI PUSH2 0x100 DUP1 DUP4 SLOAD DIV MUL DUP4 MSTORE SWAP2 PUSH1 0x20 ADD SWAP2 PUSH2 0x13B5 JUMP JUMPDEST DUP3 ADD SWAP2 SWAP1 PUSH0 MSTORE PUSH1 0x20 PUSH0 KECCAK256 SWAP1 JUMPDEST DUP2 SLOAD DUP2 MSTORE SWAP1 PUSH1 0x1 ADD SWAP1 PUSH1 0x20 ADD DUP1 DUP4 GT PUSH2 0x1398 JUMPI DUP3 SWAP1 SUB PUSH1 0x1F AND DUP3 ADD SWAP2 JUMPDEST POP POP POP POP POP DUP2 MSTORE PUSH1 0x20 ADD PUSH1 0x2 DUP3 ADD DUP1 SLOAD PUSH2 0x13CE SWAP1 PUSH2 0x3745 JUMP JUMPDEST DUP1 PUSH1 0x1F ADD PUSH1 0x20 DUP1 SWAP2 DIV MUL PUSH1 0x20 ADD PUSH1 0x40 MLOAD SWAP1 DUP2 ADD PUSH1 0x40 MSTORE DUP1 SWAP3 SWAP2 SWAP1 DUP2 DUP2 MSTORE PUSH1 0x20 ADD DUP3 DUP1 SLOAD PUSH2 0x13FA SWAP1 PUSH2 0x3745 JUMP JUMPDEST DUP1 ISZERO PUSH2 0x1445 JUMPI DUP1 PUSH1 0x1F LT PUSH2 0x141C JUMPI PUSH2 0x100 DUP1 DUP4 SLOAD DIV MUL DUP4 MSTORE SWAP2 PUSH1 0x20 ADD SWAP2 PUSH2 0x1445 JUMP JUMPDEST DUP3 ADD SWAP2 SWAP1 PUSH0 MSTORE PUSH1 0x20 PUSH0 KECCAK256 SWAP1 JUMPDEST DUP2 SLOAD DUP2 MSTORE SWAP1 PUSH1 0x1 ADD SWAP1 PUSH1 0x20 ADD DUP1 DUP4 GT PUSH2 0x1428 JUMPI DUP3 SWAP1 SUB PUSH1 0x1F AND DUP3 ADD SWAP2 JUMPDEST POP POP POP POP POP DUP2 MSTORE PUSH1 0x20 ADD PUSH1 0x3 DUP3 ADD DUP1 SLOAD PUSH2 0x145E SWAP1 PUSH2 0x3745 JUMP JUMPDEST DUP1 PUSH1 0x1F ADD PUSH1 0x20 DUP1 SWAP2 DIV MUL PUSH1 0x20 ADD PUSH1 0x40 MLOAD SWAP1 DUP2 ADD PUSH1 0x40 MSTORE DUP1 SWAP3 SWAP2 SWAP1 DUP2 DUP2 MSTORE PUSH1 0x20 ADD DUP3 DUP1 SLOAD PUSH2 0x148A SWAP1 PUSH2 0x3745 JUMP JUMPDEST DUP1 ISZERO PUSH2 0x14D5 JUMPI DUP1 PUSH1 0x1F LT PUSH2 0x14AC JUMPI PUSH2 0x100 DUP1 DUP4 SLOAD DIV MUL DUP4 MSTORE SWAP2 PUSH1 0x20 ADD SWAP2 PUSH2 0x14D5 JUMP JUMPDEST DUP3 ADD SWAP2 SWAP1 PUSH0 MSTORE PUSH1 0x20 PUSH0 KECCAK256 SWAP1 JUMPDEST DUP2 SLOAD DUP2 MSTORE SWAP1 PUSH1 0x1 ADD SWAP1 PUSH1 0x20 ADD DUP1 DUP4 GT PUSH2 0x14B8 JUMPI DUP3 SWAP1 SUB PUSH1 0x1F AND DUP3 ADD SWAP2 JUMPDEST POP POP POP POP POP DUP2 MSTORE PUSH1 0x20 ADD PUSH1 0x4 DUP3 ADD DUP1 SLOAD PUSH2 0x14EE SWAP1 PUSH2 0x3745 JUMP JUMPDEST DUP1 PUSH1 0x1F ADD PUSH1 0x20 DUP1 SWAP2 DIV MUL PUSH1 0x20 ADD PUSH1 0x40 MLOAD SWAP1 DUP2 ADD PUSH1 0x40 MSTORE DUP1 SWAP3 SWAP2 SWAP1 DUP2 DUP2 MSTORE PUSH1 0x20 ADD DUP3 DUP1 SLOAD PUSH2 0x151A SWAP1 PUSH2 0x3745 JUMP JUMPDEST DUP1 ISZERO PUSH2 0x1565 JUMPI DUP1 PUSH1 0x1F LT PUSH2 0x153C JUMPI PUSH2 0x100 DUP1 DUP4 SLOAD DIV MUL DUP4 MSTORE SWAP2 PUSH1 0x20 ADD SWAP2 PUSH2 0x1565 JUMP JUMPDEST DUP3 ADD SWAP2 SWAP1 PUSH0 MSTORE PUSH1 0x20 PUSH0 KECCAK256 SWAP1 JUMPDEST DUP2 SLOAD DUP2 MSTORE SWAP1 PUSH1 0x1 ADD SWAP1 PUSH1 0x20 ADD DUP1 DUP4 GT PUSH2 0x1548 JUMPI DUP3 SWAP1 SUB PUSH1 0x1F AND DUP3 ADD SWAP2 JUMPDEST POP POP POP POP POP DUP2 MSTORE PUSH1 0x20 ADD PUSH1 0x5 DUP3 ADD SLOAD DUP2 MSTORE PUSH1 0x20 ADD PUSH1 0x6 DUP3 ADD SLOAD DUP2 MSTORE PUSH1 0x20 ADD PUSH1 0x7 DUP3 ADD SLOAD DUP2 MSTORE PUSH1 0x20 ADD PUSH1 0x8 DUP3 ADD SLOAD DUP2 MSTORE PUSH1 0x20 ADD PUSH1 0x9 DUP3 ADD PUSH0 SWAP1 SLOAD SWAP1 PUSH2 0x100 EXP SWAP1 DIV PUSH1 0xFF AND ISZERO ISZERO ISZERO ISZERO DUP2 MSTORE PUSH1 0x20 ADD PUSH1 0xA DUP3 ADD DUP1 SLOAD DUP1 PUSH1 0x20 MUL PUSH1 0x20 ADD PUSH1 0x40 MLOAD SWAP1 DUP2 ADD PUSH1 0x40 MSTORE DUP1 SWAP3 SWAP2 SWAP1 DUP2 DUP2 MSTORE PUSH1 0x20 ADD PUSH0 SWAP1 JUMPDEST DUP3 DUP3 LT ISZERO PUSH2 0x1A24 JUMPI DUP4 DUP3 SWAP1 PUSH0 MSTORE PUSH1 0x20 PUSH0 KECCAK256 SWAP1 PUSH1 0xA MUL ADD PUSH1 0x40 MLOAD DUP1 PUSH2 0x140 ADD PUSH1 0x40 MSTORE SWAP1 DUP2 PUSH0 DUP3 ADD DUP1 SLOAD PUSH2 0x1605 SWAP1 PUSH2 0x3745 JUMP JUMPDEST DUP1 PUSH1 0x1F ADD PUSH1 0x20 DUP1 SWAP2 DIV MUL PUSH1 0x20 ADD PUSH1 0x40 MLOAD SWAP1 DUP2 ADD PUSH1 0x40 MSTORE DUP1 SWAP3 SWAP2 SWAP1 DUP2 DUP2 MSTORE PUSH1 0x20 ADD DUP3 DUP1 SLOAD PUSH2 0x1631 SWAP1 PUSH2 0x3745 JUMP JUMPDEST DUP1 ISZERO PUSH2 0x167C JUMPI DUP1 PUSH1 0x1F LT PUSH2 0x1653 JUMPI PUSH2 0x100 DUP1 DUP4 SLOAD DIV MUL DUP4 MSTORE SWAP2 PUSH1 0x20 ADD SWAP2 PUSH2 0x167C JUMP JUMPDEST DUP3 ADD SWAP2 SWAP1 PUSH0 MSTORE PUSH1 0x20 PUSH0 KECCAK256 SWAP1 JUMPDEST DUP2 SLOAD DUP2 MSTORE SWAP1 PUSH1 0x1 ADD SWAP1 PUSH1 0x20 ADD DUP1 DUP4 GT PUSH2 0x165F JUMPI DUP3 SWAP1 SUB PUSH1 0x1F AND DUP3 ADD SWAP2 JUMPDEST POP POP POP POP POP DUP2 MSTORE PUSH1 0x20 ADD PUSH1 0x1 DUP3 ADD DUP1 SLOAD PUSH2 0x1695 SWAP1 PUSH2 0x3745 JUMP JUMPDEST DUP1 PUSH1 0x1F ADD PUSH1 0x20 DUP1 SWAP2 DIV MUL PUSH1 0x20 ADD PUSH1 0x40 MLOAD SWAP1 DUP2 ADD PUSH1 0x40 MSTORE DUP1 SWAP3 SWAP2 SWAP1 DUP2 DUP2 MSTORE PUSH1 0x20 ADD DUP3 DUP1 SLOAD PUSH2 0x16C1 SWAP1 PUSH2 0x3745 JUMP JUMPDEST DUP1 ISZERO PUSH2 0x170C JUMPI DUP1 PUSH1 0x1F LT PUSH2 0x16E3 JUMPI PUSH2 0x100 DUP1 DUP4 SLOAD DIV MUL DUP4 MSTORE SWAP2 PUSH1 0x20 ADD SWAP2 PUSH2 0x170C JUMP JUMPDEST DUP3 ADD SWAP2 SWAP1 PUSH0 MSTORE PUSH1 0x20 PUSH0 KECCAK256 SWAP1 JUMPDEST DUP2 SLOAD DUP2 MSTORE SWAP1 PUSH1 0x1 ADD SWAP1 PUSH1 0x20 ADD DUP1 DUP4 GT PUSH2 0x16EF JUMPI DUP3 SWAP1 SUB PUSH1 0x1F AND DUP3 ADD SWAP2 JUMPDEST POP POP POP POP POP DUP2 MSTORE PUSH1 0x20 ADD PUSH1 0x2 DUP3 ADD DUP1 SLOAD PUSH2 0x1725 SWAP1 PUSH2 0x3745 JUMP JUMPDEST DUP1 PUSH1 0x1F ADD PUSH1 0x20 DUP1 SWAP2 DIV MUL PUSH1 0x20 ADD PUSH1 0x40 MLOAD SWAP1 DUP2 ADD PUSH1 0x40 MSTORE DUP1 SWAP3 SWAP2 SWAP1 DUP2 DUP2 MSTORE PUSH1 0x20 ADD DUP3 DUP1 SLOAD PUSH2 0x1751 SWAP1 PUSH2 0x3745 JUMP JUMPDEST DUP1 ISZERO PUSH2 0x179C JUMPI DUP1 PUSH1 0x1F LT PUSH2 0x1773 JUMPI PUSH2 0x100 DUP1 DUP4 SLOAD DIV MUL DUP4 MSTORE SWAP2 PUSH1 0x20 ADD SWAP2 PUSH2 0x179C JUMP JUMPDEST DUP3 ADD SWAP2 SWAP1 PUSH0 MSTORE PUSH1 0x20 PUSH0 KECCAK256 SWAP1 JUMPDEST DUP2 SLOAD DUP2 MSTORE SWAP1 PUSH1 0x1 ADD SWAP1 PUSH1 0x20 ADD DUP1 DUP4 GT PUSH2 0x177F JUMPI DUP3 SWAP1 SUB PUSH1 0x1F AND DUP3 ADD SWAP2 JUMPDEST POP POP POP POP POP DUP2 MSTORE PUSH1 0x20 ADD PUSH1 0x3 DUP3 ADD DUP1 SLOAD PUSH2 0x17B5 SWAP1 PUSH2 0x3745 JUMP JUMPDEST DUP1 PUSH1 0x1F ADD PUSH1 0x20 DUP1 SWAP2 DIV MUL PUSH1 0x20 ADD PUSH1 0x40 MLOAD SWAP1 DUP2 ADD PUSH1 0x40 MSTORE DUP1 SWAP3 SWAP2 SWAP1 DUP2 DUP2 MSTORE PUSH1 0x20 ADD DUP3 DUP1 SLOAD PUSH2 0x17E1 SWAP1 PUSH2 0x3745 JUMP JUMPDEST DUP1 ISZERO PUSH2 0x182C JUMPI DUP1 PUSH1 0x1F LT PUSH2 0x1803 JUMPI PUSH2 0x100 DUP1 DUP4 SLOAD DIV MUL DUP4 MSTORE SWAP2 PUSH1 0x20 ADD SWAP2 PUSH2 0x182C JUMP JUMPDEST DUP3 ADD SWAP2 SWAP1 PUSH0 MSTORE PUSH1 0x20 PUSH0 KECCAK256 SWAP1 JUMPDEST DUP2 SLOAD DUP2 MSTORE SWAP1 PUSH1 0x1 ADD SWAP1 PUSH1 0x20 ADD DUP1 DUP4 GT PUSH2 0x180F JUMPI DUP3 SWAP1 SUB PUSH1 0x1F AND DUP3 ADD SWAP2 JUMPDEST POP POP POP POP POP DUP2 MSTORE PUSH1 0x20 ADD PUSH1 0x4 DUP3 ADD SLOAD DUP2 MSTORE PUSH1 0x20 ADD PUSH1 0x5 DUP3 ADD DUP1 SLOAD DUP1 PUSH1 0x20 MUL PUSH1 0x20 ADD PUSH1 0x40 MLOAD SWAP1 DUP2 ADD PUSH1 0x40 MSTORE DUP1 SWAP3 SWAP2 SWAP1 DUP2 DUP2 MSTORE PUSH1 0x20 ADD PUSH0 SWAP1 JUMPDEST DUP3 DUP3 LT ISZERO PUSH2 0x190B JUMPI DUP4 DUP3 SWAP1 PUSH0 MSTORE PUSH1 0x20 PUSH0 KECCAK256 ADD DUP1 SLOAD PUSH2 0x1880 SWAP1 PUSH2 0x3745 JUMP JUMPDEST DUP1 PUSH1 0x1F ADD PUSH1 0x20 DUP1 SWAP2 DIV MUL PUSH1 0x20 ADD PUSH1 0x40 MLOAD SWAP1 DUP2 ADD PUSH1 0x40 MSTORE DUP1 SWAP3 SWAP2 SWAP1 DUP2 DUP2 MSTORE PUSH1 0x20 ADD DUP3 DUP1 SLOAD PUSH2 0x18AC SWAP1 PUSH2 0x3745 JUMP JUMPDEST DUP1 ISZERO PUSH2 0x18F7 JUMPI DUP1 PUSH1 0x1F LT PUSH2 0x18CE JUMPI PUSH2 0x100 DUP1 DUP4 SLOAD DIV MUL DUP4 MSTORE SWAP2 PUSH1 0x20 ADD SWAP2 PUSH2 0x18F7 JUMP JUMPDEST DUP3 ADD SWAP2 SWAP1 PUSH0 MSTORE PUSH1 0x20 PUSH0 KECCAK256 SWAP1 JUMPDEST DUP2 SLOAD DUP2 MSTORE SWAP1 PUSH1 0x1 ADD SWAP1 PUSH1 0x20 ADD DUP1 DUP4 GT PUSH2 0x18DA JUMPI DUP3 SWAP1 SUB PUSH1 0x1F AND DUP3 ADD SWAP2 JUMPDEST POP POP POP POP POP DUP2 MSTORE PUSH1 0x20 ADD SWAP1 PUSH1 0x1 ADD SWAP1 PUSH2 0x1863 JUMP JUMPDEST POP POP POP POP DUP2 MSTORE PUSH1 0x20 ADD PUSH1 0x6 DUP3 ADD DUP1 SLOAD DUP1 PUSH1 0x20 MUL PUSH1 0x20 ADD PUSH1 0x40 MLOAD SWAP1 DUP2 ADD PUSH1 0x40 MSTORE DUP1 SWAP3 SWAP2 SWAP1 DUP2 DUP2 MSTORE PUSH1 0x20 ADD PUSH0 SWAP1 JUMPDEST DUP3 DUP3 LT ISZERO PUSH2 0x19DF JUMPI DUP4 DUP3 SWAP1 PUSH0 MSTORE PUSH1 0x20 PUSH0 KECCAK256 ADD DUP1 SLOAD PUSH2 0x1954 SWAP1 PUSH2 0x3745 JUMP JUMPDEST DUP1 PUSH1 0x1F ADD PUSH1 0x20 DUP1 SWAP2 DIV MUL PUSH1 0x20 ADD PUSH1 0x40 MLOAD SWAP1 DUP2 ADD PUSH1 0x40 MSTORE DUP1 SWAP3 SWAP2 SWAP1 DUP2 DUP2 MSTORE PUSH1 0x20 ADD DUP3 DUP1 SLOAD PUSH2 0x1980 SWAP1 PUSH2 0x3745 JUMP JUMPDEST DUP1 ISZERO PUSH2 0x19CB JUMPI DUP1 PUSH1 0x1F LT PUSH2 0x19A2 JUMPI PUSH2 0x100 DUP1 DUP4 SLOAD DIV MUL DUP4 MSTORE SWAP2 PUSH1 0x20 ADD SWAP2 PUSH2 0x19CB JUMP JUMPDEST DUP3 ADD SWAP2 SWAP1 PUSH0 MSTORE PUSH1 0x20 PUSH0 KECCAK256 SWAP1 JUMPDEST DUP2 SLOAD DUP2 MSTORE SWAP1 PUSH1 0x1 ADD SWAP1 PUSH1 0x20 ADD DUP1 DUP4 GT PUSH2 0x19AE JUMPI DUP3 SWAP1 SUB PUSH1 0x1F AND DUP3 ADD SWAP2 JUMPDEST POP POP POP POP POP DUP2 MSTORE PUSH1 0x20 ADD SWAP1 PUSH1 0x1 ADD SWAP1 PUSH2 0x1937 JUMP JUMPDEST POP POP POP POP DUP2 MSTORE PUSH1 0x20 ADD PUSH1 0x7 DUP3 ADD SLOAD DUP2 MSTORE PUSH1 0x20 ADD PUSH1 0x8 DUP3 ADD SLOAD DUP2 MSTORE PUSH1 0x20 ADD PUSH1 0x9 DUP3 ADD PUSH0 SWAP1 SLOAD SWAP1 PUSH2 0x100 EXP SWAP1 DIV PUSH1 0xFF AND ISZERO ISZERO ISZERO ISZERO DUP2 MSTORE POP POP DUP2 MSTORE PUSH1 0x20 ADD SWAP1 PUSH1 0x1 ADD SWAP1 PUSH2 0x15D4 JUMP JUMPDEST POP POP POP POP DUP2 MSTORE POP POP SWAP1 POP PUSH2 0x1A36 PUSH2 0x23FD JUMP JUMPDEST PUSH0 JUMPDEST DUP3 PUSH2 0x140 ADD MLOAD MLOAD DUP2 LT ISZERO PUSH2 0x1A99 JUMPI DUP3 PUSH2 0x140 ADD MLOAD DUP2 DUP2 MLOAD DUP2 LT PUSH2 0x1A5E JUMPI PUSH2 0x1A5D PUSH2 0x369B JUMP JUMPDEST JUMPDEST PUSH1 0x20 MUL PUSH1 0x20 ADD ADD MLOAD SWAP2 POP PUSH2 0x1A75 DUP8 DUP4 PUSH0 ADD MLOAD PUSH2 0x11F3 JUMP JUMPDEST ISZERO PUSH2 0x1A8C JUMPI DUP2 PUSH1 0x1 DUP3 SWAP6 POP SWAP6 POP SWAP6 POP POP POP POP PUSH2 0x1AD5 JUMP JUMPDEST DUP1 DUP1 PUSH1 0x1 ADD SWAP2 POP POP PUSH2 0x1A38 JUMP JUMPDEST POP PUSH1 0x40 MLOAD PUSH32 0x8C379A000000000000000000000000000000000000000000000000000000000 DUP2 MSTORE PUSH1 0x4 ADD PUSH2 0x1ACC SWAP1 PUSH2 0x3CDF JUMP JUMPDEST PUSH1 0x40 MLOAD DUP1 SWAP2 SUB SWAP1 REVERT JUMPDEST SWAP3 POP SWAP3 POP SWAP3 JUMP JUMPDEST PUSH0 PUSH1 0x1 DUP3 PUSH1 0x40 MLOAD PUSH2 0x1AED SWAP2 SWAP1 PUSH2 0x3702 JUMP JUMPDEST SWAP1 DUP2 MSTORE PUSH1 0x20 ADD PUSH1 0x40 MLOAD DUP1 SWAP2 SUB SWAP1 KECCAK256 PUSH1 0xA ADD DUP1 SLOAD SWAP1 POP SWAP1 POP SWAP2 SWAP1 POP JUMP JUMPDEST PUSH1 0x60 PUSH0 PUSH1 0x2 DUP1 SLOAD SWAP1 POP PUSH8 0xFFFFFFFFFFFFFFFF DUP2 GT ISZERO PUSH2 0x1B2B JUMPI PUSH2 0x1B2A PUSH2 0x2549 JUMP JUMPDEST JUMPDEST PUSH1 0x40 MLOAD SWAP1 DUP1 DUP3 MSTORE DUP1 PUSH1 0x20 MUL PUSH1 0x20 ADD DUP3 ADD PUSH1 0x40 MSTORE DUP1 ISZERO PUSH2 0x1B64 JUMPI DUP2 PUSH1 0x20 ADD JUMPDEST PUSH2 0x1B51 PUSH2 0x244E JUMP JUMPDEST DUP2 MSTORE PUSH1 0x20 ADD SWAP1 PUSH1 0x1 SWAP1 SUB SWAP1 DUP2 PUSH2 0x1B49 JUMPI SWAP1 POP JUMPDEST POP SWAP1 POP PUSH0 JUMPDEST PUSH1 0x2 DUP1 SLOAD SWAP1 POP DUP2 LT ISZERO PUSH2 0x2373 JUMPI PUSH1 0x1 PUSH1 0x2 DUP3 DUP2 SLOAD DUP2 LT PUSH2 0x1B8C JUMPI PUSH2 0x1B8B PUSH2 0x369B JUMP JUMPDEST JUMPDEST SWAP1 PUSH0 MSTORE PUSH1 0x20 PUSH0 KECCAK256 ADD PUSH1 0x40 MLOAD PUSH2 0x1BA1 SWAP2 SWAP1 PUSH2 0x3D7D JUMP JUMPDEST SWAP1 DUP2 MSTORE PUSH1 0x20 ADD PUSH1 0x40 MLOAD DUP1 SWAP2 SUB SWAP1 KECCAK256 PUSH1 0x40 MLOAD DUP1 PUSH2 0x160 ADD PUSH1 0x40 MSTORE SWAP1 DUP2 PUSH0 DUP3 ADD DUP1 SLOAD PUSH2 0x1BCA SWAP1 PUSH2 0x3745 JUMP JUMPDEST DUP1 PUSH1 0x1F ADD PUSH1 0x20 DUP1 SWAP2 DIV MUL PUSH1 0x20 ADD PUSH1 0x40 MLOAD SWAP1 DUP2 ADD PUSH1 0x40 MSTORE DUP1 SWAP3 SWAP2 SWAP1 DUP2 DUP2 MSTORE PUSH1 0x20 ADD DUP3 DUP1 SLOAD PUSH2 0x1BF6 SWAP1 PUSH2 0x3745 JUMP JUMPDEST DUP1 ISZERO PUSH2 0x1C41 JUMPI DUP1 PUSH1 0x1F LT PUSH2 0x1C18 JUMPI PUSH2 0x100 DUP1 DUP4 SLOAD DIV MUL DUP4 MSTORE SWAP2 PUSH1 0x20 ADD SWAP2 PUSH2 0x1C41 JUMP JUMPDEST DUP3 ADD SWAP2 SWAP1 PUSH0 MSTORE PUSH1 0x20 PUSH0 KECCAK256 SWAP1 JUMPDEST DUP2 SLOAD DUP2 MSTORE SWAP1 PUSH1 0x1 ADD SWAP1 PUSH1 0x20 ADD DUP1 DUP4 GT PUSH2 0x1C24 JUMPI DUP3 SWAP1 SUB PUSH1 0x1F AND DUP3 ADD SWAP2 JUMPDEST POP POP POP POP POP DUP2 MSTORE PUSH1 0x20 ADD PUSH1 0x1 DUP3 ADD DUP1 SLOAD PUSH2 0x1C5A SWAP1 PUSH2 0x3745 JUMP JUMPDEST DUP1 PUSH1 0x1F ADD PUSH1 0x20 DUP1 SWAP2 DIV MUL PUSH1 0x20 ADD PUSH1 0x40 MLOAD SWAP1 DUP2 ADD PUSH1 0x40 MSTORE DUP1 SWAP3 SWAP2 SWAP1 DUP2 DUP2 MSTORE PUSH1 0x20 ADD DUP3 DUP1 SLOAD PUSH2 0x1C86 SWAP1 PUSH2 0x3745 JUMP JUMPDEST DUP1 ISZERO PUSH2 0x1CD1 JUMPI DUP1 PUSH1 0x1F LT PUSH2 0x1CA8 JUMPI PUSH2 0x100 DUP1 DUP4 SLOAD DIV MUL DUP4 MSTORE SWAP2 PUSH1 0x20 ADD SWAP2 PUSH2 0x1CD1 JUMP JUMPDEST DUP3 ADD SWAP2 SWAP1 PUSH0 MSTORE PUSH1 0x20 PUSH0 KECCAK256 SWAP1 JUMPDEST DUP2 SLOAD DUP2 MSTORE SWAP1 PUSH1 0x1 ADD SWAP1 PUSH1 0x20 ADD DUP1 DUP4 GT PUSH2 0x1CB4 JUMPI DUP3 SWAP1 SUB PUSH1 0x1F AND DUP3 ADD SWAP2 JUMPDEST POP POP POP POP POP DUP2 MSTORE PUSH1 0x20 ADD PUSH1 0x2 DUP3 ADD DUP1 SLOAD PUSH2 0x1CEA SWAP1 PUSH2 0x3745 JUMP JUMPDEST DUP1 PUSH1 0x1F ADD PUSH1 0x20 DUP1 SWAP2 DIV MUL PUSH1 0x20 ADD PUSH1 0x40 MLOAD SWAP1 DUP2 ADD PUSH1 0x40 MSTORE DUP1 SWAP3 SWAP2 SWAP1 DUP2 DUP2 MSTORE PUSH1 0x20 ADD DUP3 DUP1 SLOAD PUSH2 0x1D16 SWAP1 PUSH2 0x3745 JUMP JUMPDEST DUP1 ISZERO PUSH2 0x1D61 JUMPI DUP1 PUSH1 0x1F LT PUSH2 0x1D38 JUMPI PUSH2 0x100 DUP1 DUP4 SLOAD DIV MUL DUP4 MSTORE SWAP2 PUSH1 0x20 ADD SWAP2 PUSH2 0x1D61 JUMP JUMPDEST DUP3 ADD SWAP2 SWAP1 PUSH0 MSTORE PUSH1 0x20 PUSH0 KECCAK256 SWAP1 JUMPDEST DUP2 SLOAD DUP2 MSTORE SWAP1 PUSH1 0x1 ADD SWAP1 PUSH1 0x20 ADD DUP1 DUP4 GT PUSH2 0x1D44 JUMPI DUP3 SWAP1 SUB PUSH1 0x1F AND DUP3 ADD SWAP2 JUMPDEST POP POP POP POP POP DUP2 MSTORE PUSH1 0x20 ADD PUSH1 0x3 DUP3 ADD DUP1 SLOAD PUSH2 0x1D7A SWAP1 PUSH2 0x3745 JUMP JUMPDEST DUP1 PUSH1 0x1F ADD PUSH1 0x20 DUP1 SWAP2 DIV MUL PUSH1 0x20 ADD PUSH1 0x40 MLOAD SWAP1 DUP2 ADD PUSH1 0x40 MSTORE DUP1 SWAP3 SWAP2 SWAP1 DUP2 DUP2 MSTORE PUSH1 0x20 ADD DUP3 DUP1 SLOAD PUSH2 0x1DA6 SWAP1 PUSH2 0x3745 JUMP JUMPDEST DUP1 ISZERO PUSH2 0x1DF1 JUMPI DUP1 PUSH1 0x1F LT PUSH2 0x1DC8 JUMPI PUSH2 0x100 DUP1 DUP4 SLOAD DIV MUL DUP4 MSTORE SWAP2 PUSH1 0x20 ADD SWAP2 PUSH2 0x1DF1 JUMP JUMPDEST DUP3 ADD SWAP2 SWAP1 PUSH0 MSTORE PUSH1 0x20 PUSH0 KECCAK256 SWAP1 JUMPDEST DUP2 SLOAD DUP2 MSTORE SWAP1 PUSH1 0x1 ADD SWAP1 PUSH1 0x20 ADD DUP1 DUP4 GT PUSH2 0x1DD4 JUMPI DUP3 SWAP1 SUB PUSH1 0x1F AND DUP3 ADD SWAP2 JUMPDEST POP POP POP POP POP DUP2 MSTORE PUSH1 0x20 ADD PUSH1 0x4 DUP3 ADD DUP1 SLOAD PUSH2 0x1E0A SWAP1 PUSH2 0x3745 JUMP JUMPDEST DUP1 PUSH1 0x1F ADD PUSH1 0x20 DUP1 SWAP2 DIV MUL PUSH1 0x20 ADD PUSH1 0x40 MLOAD SWAP1 DUP2 ADD PUSH1 0x40 MSTORE DUP1 SWAP3 SWAP2 SWAP1 DUP2 DUP2 MSTORE PUSH1 0x20 ADD DUP3 DUP1 SLOAD PUSH2 0x1E36 SWAP1 PUSH2 0x3745 JUMP JUMPDEST DUP1 ISZERO PUSH2 0x1E81 JUMPI DUP1 PUSH1 0x1F LT PUSH2 0x1E58 JUMPI PUSH2 0x100 DUP1 DUP4 SLOAD DIV MUL DUP4 MSTORE SWAP2 PUSH1 0x20 ADD SWAP2 PUSH2 0x1E81 JUMP JUMPDEST DUP3 ADD SWAP2 SWAP1 PUSH0 MSTORE PUSH1 0x20 PUSH0 KECCAK256 SWAP1 JUMPDEST DUP2 SLOAD DUP2 MSTORE SWAP1 PUSH1 0x1 ADD SWAP1 PUSH1 0x20 ADD DUP1 DUP4 GT PUSH2 0x1E64 JUMPI DUP3 SWAP1 SUB PUSH1 0x1F AND DUP3 ADD SWAP2 JUMPDEST POP POP POP POP POP DUP2 MSTORE PUSH1 0x20 ADD PUSH1 0x5 DUP3 ADD SLOAD DUP2 MSTORE PUSH1 0x20 ADD PUSH1 0x6 DUP3 ADD SLOAD DUP2 MSTORE PUSH1 0x20 ADD PUSH1 0x7 DUP3 ADD SLOAD DUP2 MSTORE PUSH1 0x20 ADD PUSH1 0x8 DUP3 ADD SLOAD DUP2 MSTORE PUSH1 0x20 ADD PUSH1 0x9 DUP3 ADD PUSH0 SWAP1 SLOAD SWAP1 PUSH2 0x100 EXP SWAP1 DIV PUSH1 0xFF AND ISZERO ISZERO ISZERO ISZERO DUP2 MSTORE PUSH1 0x20 ADD PUSH1 0xA DUP3 ADD DUP1 SLOAD DUP1 PUSH1 0x20 MUL PUSH1 0x20 ADD PUSH1 0x40 MLOAD SWAP1 DUP2 ADD PUSH1 0x40 MSTORE DUP1 SWAP3 SWAP2 SWAP1 DUP2 DUP2 MSTORE PUSH1 0x20 ADD PUSH0 SWAP1 JUMPDEST DUP3 DUP3 LT ISZERO PUSH2 0x2340 JUMPI DUP4 DUP3 SWAP1 PUSH0 MSTORE PUSH1 0x20 PUSH0 KECCAK256 SWAP1 PUSH1 0xA MUL ADD PUSH1 0x40 MLOAD DUP1 PUSH2 0x140 ADD PUSH1 0x40 MSTORE SWAP1 DUP2 PUSH0 DUP3 ADD DUP1 SLOAD PUSH2 0x1F21 SWAP1 PUSH2 0x3745 JUMP JUMPDEST DUP1 PUSH1 0x1F ADD PUSH1 0x20 DUP1 SWAP2 DIV MUL PUSH1 0x20 ADD PUSH1 0x40 MLOAD SWAP1 DUP2 ADD PUSH1 0x40 MSTORE DUP1 SWAP3 SWAP2 SWAP1 DUP2 DUP2 MSTORE PUSH1 0x20 ADD DUP3 DUP1 SLOAD PUSH2 0x1F4D SWAP1 PUSH2 0x3745 JUMP JUMPDEST DUP1 ISZERO PUSH2 0x1F98 JUMPI DUP1 PUSH1 0x1F LT PUSH2 0x1F6F JUMPI PUSH2 0x100 DUP1 DUP4 SLOAD DIV MUL DUP4 MSTORE SWAP2 PUSH1 0x20 ADD SWAP2 PUSH2 0x1F98 JUMP JUMPDEST DUP3 ADD SWAP2 SWAP1 PUSH0 MSTORE PUSH1 0x20 PUSH0 KECCAK256 SWAP1 JUMPDEST DUP2 SLOAD DUP2 MSTORE SWAP1 PUSH1 0x1 ADD SWAP1 PUSH1 0x20 ADD DUP1 DUP4 GT PUSH2 0x1F7B JUMPI DUP3 SWAP1 SUB PUSH1 0x1F AND DUP3 ADD SWAP2 JUMPDEST POP POP POP POP POP DUP2 MSTORE PUSH1 0x20 ADD PUSH1 0x1 DUP3 ADD DUP1 SLOAD PUSH2 0x1FB1 SWAP1 PUSH2 0x3745 JUMP JUMPDEST DUP1 PUSH1 0x1F ADD PUSH1 0x20 DUP1 SWAP2 DIV MUL PUSH1 0x20 ADD PUSH1 0x40 MLOAD SWAP1 DUP2 ADD PUSH1 0x40 MSTORE DUP1 SWAP3 SWAP2 SWAP1 DUP2 DUP2 MSTORE PUSH1 0x20 ADD DUP3 DUP1 SLOAD PUSH2 0x1FDD SWAP1 PUSH2 0x3745 JUMP JUMPDEST DUP1 ISZERO PUSH2 0x2028 JUMPI DUP1 PUSH1 0x1F LT PUSH2 0x1FFF JUMPI PUSH2 0x100 DUP1 DUP4 SLOAD DIV MUL DUP4 MSTORE SWAP2 PUSH1 0x20 ADD SWAP2 PUSH2 0x2028 JUMP JUMPDEST DUP3 ADD SWAP2 SWAP1 PUSH0 MSTORE PUSH1 0x20 PUSH0 KECCAK256 SWAP1 JUMPDEST DUP2 SLOAD DUP2 MSTORE SWAP1 PUSH1 0x1 ADD SWAP1 PUSH1 0x20 ADD DUP1 DUP4 GT PUSH2 0x200B JUMPI DUP3 SWAP1 SUB PUSH1 0x1F AND DUP3 ADD SWAP2 JUMPDEST POP POP POP POP POP DUP2 MSTORE PUSH1 0x20 ADD PUSH1 0x2 DUP3 ADD DUP1 SLOAD PUSH2 0x2041 SWAP1 PUSH2 0x3745 JUMP JUMPDEST DUP1 PUSH1 0x1F ADD PUSH1 0x20 DUP1 SWAP2 DIV MUL PUSH1 0x20 ADD PUSH1 0x40 MLOAD SWAP1 DUP2 ADD PUSH1 0x40 MSTORE DUP1 SWAP3 SWAP2 SWAP1 DUP2 DUP2 MSTORE PUSH1 0x20 ADD DUP3 DUP1 SLOAD PUSH2 0x206D SWAP1 PUSH2 0x3745 JUMP JUMPDEST DUP1 ISZERO PUSH2 0x20B8 JUMPI DUP1 PUSH1 0x1F LT PUSH2 0x208F JUMPI PUSH2 0x100 DUP1 DUP4 SLOAD DIV MUL DUP4 MSTORE SWAP2 PUSH1 0x20 ADD SWAP2 PUSH2 0x20B8 JUMP JUMPDEST DUP3 ADD SWAP2 SWAP1 PUSH0 MSTORE PUSH1 0x20 PUSH0 KECCAK256 SWAP1 JUMPDEST DUP2 SLOAD DUP2 MSTORE SWAP1 PUSH1 0x1 ADD SWAP1 PUSH1 0x20 ADD DUP1 DUP4 GT PUSH2 0x209B JUMPI DUP3 SWAP1 SUB PUSH1 0x1F AND DUP3 ADD SWAP2 JUMPDEST POP POP POP POP POP DUP2 MSTORE PUSH1 0x20 ADD PUSH1 0x3 DUP3 ADD DUP1 SLOAD PUSH2 0x20D1 SWAP1 PUSH2 0x3745 JUMP JUMPDEST DUP1 PUSH1 0x1F ADD PUSH1 0x20 DUP1 SWAP2 DIV MUL PUSH1 0x20 ADD PUSH1 0x40 MLOAD SWAP1 DUP2 ADD PUSH1 0x40 MSTORE DUP1 SWAP3 SWAP2 SWAP1 DUP2 DUP2 MSTORE PUSH1 0x20 ADD DUP3 DUP1 SLOAD PUSH2 0x20FD SWAP1 PUSH2 0x3745 JUMP JUMPDEST DUP1 ISZERO PUSH2 0x2148 JUMPI DUP1 PUSH1 0x1F LT PUSH2 0x211F JUMPI PUSH2 0x100 DUP1 DUP4 SLOAD DIV MUL DUP4 MSTORE SWAP2 PUSH1 0x20 ADD SWAP2 PUSH2 0x2148 JUMP JUMPDEST DUP3 ADD SWAP2 SWAP1 PUSH0 MSTORE PUSH1 0x20 PUSH0 KECCAK256 SWAP1 JUMPDEST DUP2 SLOAD DUP2 MSTORE SWAP1 PUSH1 0x1 ADD SWAP1 PUSH1 0x20 ADD DUP1 DUP4 GT PUSH2 0x212B JUMPI DUP3 SWAP1 SUB PUSH1 0x1F AND DUP3 ADD SWAP2 JUMPDEST POP POP POP POP POP DUP2 MSTORE PUSH1 0x20 ADD PUSH1 0x4 DUP3 ADD SLOAD DUP2 MSTORE PUSH1 0x20 ADD PUSH1 0x5 DUP3 ADD DUP1 SLOAD DUP1 PUSH1 0x20 MUL PUSH1 0x20 ADD PUSH1 0x40 MLOAD SWAP1 DUP2 ADD PUSH1 0x40 MSTORE DUP1 SWAP3 SWAP2 SWAP1 DUP2 DUP2 MSTORE PUSH1 0x20 ADD PUSH0 SWAP1 JUMPDEST DUP3 DUP3 LT ISZERO PUSH2 0x2227 JUMPI DUP4 DUP3 SWAP1 PUSH0 MSTORE PUSH1 0x20 PUSH0 KECCAK256 ADD DUP1 SLOAD PUSH2 0x219C SWAP1 PUSH2 0x3745 JUMP JUMPDEST DUP1 PUSH1 0x1F ADD PUSH1 0x20 DUP1 SWAP2 DIV MUL PUSH1 0x20 ADD PUSH1 0x40 MLOAD SWAP1 DUP2 ADD PUSH1 0x40 MSTORE DUP1 SWAP3 SWAP2 SWAP1 DUP2 DUP2 MSTORE PUSH1 0x20 ADD DUP3 DUP1 SLOAD PUSH2 0x21C8 SWAP1 PUSH2 0x3745 JUMP JUMPDEST DUP1 ISZERO PUSH2 0x2213 JUMPI DUP1 PUSH1 0x1F LT PUSH2 0x21EA JUMPI PUSH2 0x100 DUP1 DUP4 SLOAD DIV MUL DUP4 MSTORE SWAP2 PUSH1 0x20 ADD SWAP2 PUSH2 0x2213 JUMP JUMPDEST DUP3 ADD SWAP2 SWAP1 PUSH0 MSTORE PUSH1 0x20 PUSH0 KECCAK256 SWAP1 JUMPDEST DUP2 SLOAD DUP2 MSTORE SWAP1 PUSH1 0x1 ADD SWAP1 PUSH1 0x20 ADD DUP1 DUP4 GT PUSH2 0x21F6 JUMPI DUP3 SWAP1 SUB PUSH1 0x1F AND DUP3 ADD SWAP2 JUMPDEST POP POP POP POP POP DUP2 MSTORE PUSH1 0x20 ADD SWAP1 PUSH1 0x1 ADD SWAP1 PUSH2 0x217F JUMP JUMPDEST POP POP POP POP DUP2 MSTORE PUSH1 0x20 ADD PUSH1 0x6 DUP3 ADD DUP1 SLOAD DUP1 PUSH1 0x20 MUL PUSH1 0x20 ADD PUSH1 0x40 MLOAD SWAP1 DUP2 ADD PUSH1 0x40 MSTORE DUP1 SWAP3 SWAP2 SWAP1 DUP2 DUP2 MSTORE PUSH1 0x20 ADD PUSH0 SWAP1 JUMPDEST DUP3 DUP3 LT ISZERO PUSH2 0x22FB JUMPI DUP4 DUP3 SWAP1 PUSH0 MSTORE PUSH1 0x20 PUSH0 KECCAK256 ADD DUP1 SLOAD PUSH2 0x2270 SWAP1 PUSH2 0x3745 JUMP JUMPDEST DUP1 PUSH1 0x1F ADD PUSH1 0x20 DUP1 SWAP2 DIV MUL PUSH1 0x20 ADD PUSH1 0x40 MLOAD SWAP1 DUP2 ADD PUSH1 0x40 MSTORE DUP1 SWAP3 SWAP2 SWAP1 DUP2 DUP2 MSTORE PUSH1 0x20 ADD DUP3 DUP1 SLOAD PUSH2 0x229C SWAP1 PUSH2 0x3745 JUMP JUMPDEST DUP1 ISZERO PUSH2 0x22E7 JUMPI DUP1 PUSH1 0x1F LT PUSH2 0x22BE JUMPI PUSH2 0x100 DUP1 DUP4 SLOAD DIV MUL DUP4 MSTORE SWAP2 PUSH1 0x20 ADD SWAP2 PUSH2 0x22E7 JUMP JUMPDEST DUP3 ADD SWAP2 SWAP1 PUSH0 MSTORE PUSH1 0x20 PUSH0 KECCAK256 SWAP1 JUMPDEST DUP2 SLOAD DUP2 MSTORE SWAP1 PUSH1 0x1 ADD SWAP1 PUSH1 0x20 ADD DUP1 DUP4 GT PUSH2 0x22CA JUMPI DUP3 SWAP1 SUB PUSH1 0x1F AND DUP3 ADD SWAP2 JUMPDEST POP POP POP POP POP DUP2 MSTORE PUSH1 0x20 ADD SWAP1 PUSH1 0x1 ADD SWAP1 PUSH2 0x2253 JUMP JUMPDEST POP POP POP POP DUP2 MSTORE PUSH1 0x20 ADD PUSH1 0x7 DUP3 ADD SLOAD DUP2 MSTORE PUSH1 0x20 ADD PUSH1 0x8 DUP3 ADD SLOAD DUP2 MSTORE PUSH1 0x20 ADD PUSH1 0x9 DUP3 ADD PUSH0 SWAP1 SLOAD SWAP1 PUSH2 0x100 EXP SWAP1 DIV PUSH1 0xFF AND ISZERO ISZERO ISZERO ISZERO DUP2 MSTORE POP POP DUP2 MSTORE PUSH1 0x20 ADD SWAP1 PUSH1 0x1 ADD SWAP1 PUSH2 0x1EF0 JUMP JUMPDEST POP POP POP POP DUP2 MSTORE POP POP DUP3 DUP3 DUP2 MLOAD DUP2 LT PUSH2 0x235B JUMPI PUSH2 0x235A PUSH2 0x369B JUMP JUMPDEST JUMPDEST PUSH1 0x20 MUL PUSH1 0x20 ADD ADD DUP2 SWAP1 MSTORE POP DUP1 DUP1 PUSH1 0x1 ADD SWAP2 POP POP PUSH2 0x1B69 JUMP JUMPDEST POP DUP1 SWAP2 POP POP SWAP1 JUMP JUMPDEST PUSH0 PUSH1 0x2 DUP1 SLOAD SWAP1 POP SWAP1 POP SWAP1 JUMP JUMPDEST PUSH0 PUSH2 0x2392 DUP4 DUP4 PUSH2 0x8D8 JUMP JUMPDEST PUSH2 0x239C DUP5 DUP5 PUSH2 0x124B JUMP JUMPDEST LT ISZERO SWAP1 POP SWAP3 SWAP2 POP POP JUMP JUMPDEST DUP3 DUP1 SLOAD DUP3 DUP3 SSTORE SWAP1 PUSH0 MSTORE PUSH1 0x20 PUSH0 KECCAK256 SWAP1 DUP2 ADD SWAP3 DUP3 ISZERO PUSH2 0x23EC JUMPI SWAP2 PUSH1 0x20 MUL DUP3 ADD JUMPDEST DUP3 DUP2 GT ISZERO PUSH2 0x23EB JUMPI DUP3 MLOAD DUP3 SWAP1 DUP2 PUSH2 0x23DB SWAP2 SWAP1 PUSH2 0x3912 JUMP JUMPDEST POP SWAP2 PUSH1 0x20 ADD SWAP2 SWAP1 PUSH1 0x1 ADD SWAP1 PUSH2 0x23C4 JUMP JUMPDEST JUMPDEST POP SWAP1 POP PUSH2 0x23F9 SWAP2 SWAP1 PUSH2 0x24A5 JUMP JUMPDEST POP SWAP1 JUMP JUMPDEST PUSH1 0x40 MLOAD DUP1 PUSH2 0x140 ADD PUSH1 0x40 MSTORE DUP1 PUSH1 0x60 DUP2 MSTORE PUSH1 0x20 ADD PUSH1 0x60 DUP2 MSTORE PUSH1 0x20 ADD PUSH1 0x60 DUP2 MSTORE PUSH1 0x20 ADD PUSH1 0x60 DUP2 MSTORE PUSH1 0x20 ADD PUSH0 DUP2 MSTORE PUSH1 0x20 ADD PUSH1 0x60 DUP2 MSTORE PUSH1 0x20 ADD PUSH1 0x60 DUP2 MSTORE PUSH1 0x20 ADD PUSH0 DUP2 MSTORE PUSH1 0x20 ADD PUSH0 DUP2 MSTORE PUSH1 0x20 ADD PUSH0 ISZERO ISZERO DUP2 MSTORE POP SWAP1 JUMP JUMPDEST PUSH1 0x40 MLOAD DUP1 PUSH2 0x160 ADD PUSH1 0x40 MSTORE DUP1 PUSH1 0x60 DUP2 MSTORE PUSH1 0x20 ADD PUSH1 0x60 DUP2 MSTORE PUSH1 0x20 ADD PUSH1 0x60 DUP2 MSTORE PUSH1 0x20 ADD PUSH1 0x60 DUP2 MSTORE PUSH1 0x20 ADD PUSH1 0x60 DUP2 MSTORE PUSH1 0x20 ADD PUSH0 DUP2 MSTORE PUSH1 0x20 ADD PUSH0 DUP2 MSTORE PUSH1 0x20 ADD PUSH0 DUP2 MSTORE PUSH1 0x20 ADD PUSH0 DUP2 MSTORE PUSH1 0x20 ADD PUSH0 ISZERO ISZERO DUP2 MSTORE PUSH1 0x20 ADD PUSH1 0x60 DUP2 MSTORE POP SWAP1 JUMP JUMPDEST JUMPDEST DUP1 DUP3 GT ISZERO PUSH2 0x24C4 JUMPI PUSH0 DUP2 DUP2 PUSH2 0x24BB SWAP2 SWAP1 PUSH2 0x24C8 JUMP JUMPDEST POP PUSH1 0x1 ADD PUSH2 0x24A6 JUMP JUMPDEST POP SWAP1 JUMP JUMPDEST POP DUP1 SLOAD PUSH2 0x24D4 SWAP1 PUSH2 0x3745 JUMP JUMPDEST PUSH0 DUP3 SSTORE DUP1 PUSH1 0x1F LT PUSH2 0x24E5 JUMPI POP PUSH2 0x2502 JUMP JUMPDEST PUSH1 0x1F ADD PUSH1 0x20 SWAP1 DIV SWAP1 PUSH0 MSTORE PUSH1 0x20 PUSH0 KECCAK256 SWAP1 DUP2 ADD SWAP1 PUSH2 0x2501 SWAP2 SWAP1 PUSH2 0x2505 JUMP JUMPDEST JUMPDEST POP JUMP JUMPDEST JUMPDEST DUP1 DUP3 GT ISZERO PUSH2 0x251C JUMPI PUSH0 DUP2 PUSH0 SWAP1 SSTORE POP PUSH1 0x1 ADD PUSH2 0x2506 JUMP JUMPDEST POP SWAP1 JUMP JUMPDEST PUSH0 PUSH1 0x40 MLOAD SWAP1 POP SWAP1 JUMP JUMPDEST PUSH0 DUP1 REVERT JUMPDEST PUSH0 DUP1 REVERT JUMPDEST PUSH0 DUP1 REVERT JUMPDEST PUSH0 DUP1 REVERT JUMPDEST PUSH0 PUSH1 0x1F NOT PUSH1 0x1F DUP4 ADD AND SWAP1 POP SWAP2 SWAP1 POP JUMP JUMPDEST PUSH32 0x4E487B7100000000000000000000000000000000000000000000000000000000 PUSH0 MSTORE PUSH1 0x41 PUSH1 0x4 MSTORE PUSH1 0x24 PUSH0 REVERT JUMPDEST PUSH2 0x257F DUP3 PUSH2 0x2539 JUMP JUMPDEST DUP2 ADD DUP2 DUP2 LT PUSH8 0xFFFFFFFFFFFFFFFF DUP3 GT OR ISZERO PUSH2 0x259E JUMPI PUSH2 0x259D PUSH2 0x2549 JUMP JUMPDEST JUMPDEST DUP1 PUSH1 0x40 MSTORE POP POP POP JUMP JUMPDEST PUSH0 PUSH2 0x25B0 PUSH2 0x2520 JUMP JUMPDEST SWAP1 POP PUSH2 0x25BC DUP3 DUP3 PUSH2 0x2576 JUMP JUMPDEST SWAP2 SWAP1 POP JUMP JUMPDEST PUSH0 PUSH8 0xFFFFFFFFFFFFFFFF DUP3 GT ISZERO PUSH2 0x25DB JUMPI PUSH2 0x25DA PUSH2 0x2549 JUMP JUMPDEST JUMPDEST PUSH2 0x25E4 DUP3 PUSH2 0x2539 JUMP JUMPDEST SWAP1 POP PUSH1 0x20 DUP2 ADD SWAP1 POP SWAP2 SWAP1 POP JUMP JUMPDEST DUP3 DUP2 DUP4 CALLDATACOPY PUSH0 DUP4 DUP4 ADD MSTORE POP POP POP JUMP JUMPDEST PUSH0 PUSH2 0x2611 PUSH2 0x260C DUP5 PUSH2 0x25C1 JUMP JUMPDEST PUSH2 0x25A7 JUMP JUMPDEST SWAP1 POP DUP3 DUP2 MSTORE PUSH1 0x20 DUP2 ADD DUP5 DUP5 DUP5 ADD GT ISZERO PUSH2 0x262D JUMPI PUSH2 0x262C PUSH2 0x2535 JUMP JUMPDEST JUMPDEST PUSH2 0x2638 DUP5 DUP3 DUP6 PUSH2 0x25F1 JUMP JUMPDEST POP SWAP4 SWAP3 POP POP POP JUMP JUMPDEST PUSH0 DUP3 PUSH1 0x1F DUP4 ADD SLT PUSH2 0x2654 JUMPI PUSH2 0x2653 PUSH2 0x2531 JUMP JUMPDEST JUMPDEST DUP2 CALLDATALOAD PUSH2 0x2664 DUP5 DUP3 PUSH1 0x20 DUP7 ADD PUSH2 0x25FF JUMP JUMPDEST SWAP2 POP POP SWAP3 SWAP2 POP POP JUMP JUMPDEST PUSH0 DUP1 PUSH0 PUSH1 0x60 DUP5 DUP7 SUB SLT ISZERO PUSH2 0x2684 JUMPI PUSH2 0x2683 PUSH2 0x2529 JUMP JUMPDEST JUMPDEST PUSH0 DUP5 ADD CALLDATALOAD PUSH8 0xFFFFFFFFFFFFFFFF DUP2 GT ISZERO PUSH2 0x26A1 JUMPI PUSH2 0x26A0 PUSH2 0x252D JUMP JUMPDEST JUMPDEST PUSH2 0x26AD DUP7 DUP3 DUP8 ADD PUSH2 0x2640 JUMP JUMPDEST SWAP4 POP POP PUSH1 0x20 DUP5 ADD CALLDATALOAD PUSH8 0xFFFFFFFFFFFFFFFF DUP2 GT ISZERO PUSH2 0x26CE JUMPI PUSH2 0x26CD PUSH2 0x252D JUMP JUMPDEST JUMPDEST PUSH2 0x26DA DUP7 DUP3 DUP8 ADD PUSH2 0x2640 JUMP JUMPDEST SWAP3 POP POP PUSH1 0x40 DUP5 ADD CALLDATALOAD PUSH8 0xFFFFFFFFFFFFFFFF DUP2 GT ISZERO PUSH2 0x26FB JUMPI PUSH2 0x26FA PUSH2 0x252D JUMP JUMPDEST JUMPDEST PUSH2 0x2707 DUP7 DUP3 DUP8 ADD PUSH2 0x2640 JUMP JUMPDEST SWAP2 POP POP SWAP3 POP SWAP3 POP SWAP3 JUMP JUMPDEST PUSH0 DUP2 ISZERO ISZERO SWAP1 POP SWAP2 SWAP1 POP JUMP JUMPDEST PUSH2 0x2725 DUP2 PUSH2 0x2711 JUMP JUMPDEST DUP3 MSTORE POP POP JUMP JUMPDEST PUSH0 PUSH1 0x20 DUP3 ADD SWAP1 POP PUSH2 0x273E PUSH0 DUP4 ADD DUP5 PUSH2 0x271C JUMP JUMPDEST SWAP3 SWAP2 POP POP JUMP JUMPDEST PUSH0 DUP2 SWAP1 POP SWAP2 SWAP1 POP JUMP JUMPDEST PUSH2 0x2756 DUP2 PUSH2 0x2744 JUMP JUMPDEST DUP2 EQ PUSH2 0x2760 JUMPI PUSH0 DUP1 REVERT JUMPDEST POP JUMP JUMPDEST PUSH0 DUP2 CALLDATALOAD SWAP1 POP PUSH2 0x2771 DUP2 PUSH2 0x274D JUMP JUMPDEST SWAP3 SWAP2 POP POP JUMP JUMPDEST PUSH0 DUP1 PUSH1 0x40 DUP4 DUP6 SUB SLT ISZERO PUSH2 0x278D JUMPI PUSH2 0x278C PUSH2 0x2529 JUMP JUMPDEST JUMPDEST PUSH0 PUSH2 0x279A DUP6 DUP3 DUP7 ADD PUSH2 0x2763 JUMP JUMPDEST SWAP3 POP POP PUSH1 0x20 PUSH2 0x27AB DUP6 DUP3 DUP7 ADD PUSH2 0x2763 JUMP JUMPDEST SWAP2 POP POP SWAP3 POP SWAP3 SWAP1 POP JUMP JUMPDEST PUSH0 PUSH8 0xFFFFFFFFFFFFFFFF DUP3 GT ISZERO PUSH2 0x27CF JUMPI PUSH2 0x27CE PUSH2 0x2549 JUMP JUMPDEST JUMPDEST PUSH1 0x20 DUP3 MUL SWAP1 POP PUSH1 0x20 DUP2 ADD SWAP1 POP SWAP2 SWAP1 POP JUMP JUMPDEST PUSH0 DUP1 REVERT JUMPDEST PUSH0 DUP1 REVERT JUMPDEST PUSH0 DUP1 REVERT JUMPDEST PUSH0 PUSH8 0xFFFFFFFFFFFFFFFF DUP3 GT ISZERO PUSH2 0x2806 JUMPI PUSH2 0x2805 PUSH2 0x2549 JUMP JUMPDEST JUMPDEST PUSH1 0x20 DUP3 MUL SWAP1 POP PUSH1 0x20 DUP2 ADD SWAP1 POP SWAP2 SWAP1 POP JUMP JUMPDEST PUSH0 PUSH2 0x2829 PUSH2 0x2824 DUP5 PUSH2 0x27EC JUMP JUMPDEST PUSH2 0x25A7 JUMP JUMPDEST SWAP1 POP DUP1 DUP4 DUP3 MSTORE PUSH1 0x20 DUP3 ADD SWAP1 POP PUSH1 0x20 DUP5 MUL DUP4 ADD DUP6 DUP2 GT ISZERO PUSH2 0x284C JUMPI PUSH2 0x284B PUSH2 0x27E0 JUMP JUMPDEST JUMPDEST DUP4 JUMPDEST DUP2 DUP2 LT ISZERO PUSH2 0x2893 JUMPI DUP1 CALLDATALOAD PUSH8 0xFFFFFFFFFFFFFFFF DUP2 GT ISZERO PUSH2 0x2871 JUMPI PUSH2 0x2870 PUSH2 0x2531 JUMP JUMPDEST JUMPDEST DUP1 DUP7 ADD PUSH2 0x287E DUP10 DUP3 PUSH2 0x2640 JUMP JUMPDEST DUP6 MSTORE PUSH1 0x20 DUP6 ADD SWAP5 POP POP POP PUSH1 0x20 DUP2 ADD SWAP1 POP PUSH2 0x284E JUMP JUMPDEST POP POP POP SWAP4 SWAP3 POP POP POP JUMP JUMPDEST PUSH0 DUP3 PUSH1 0x1F DUP4 ADD SLT PUSH2 0x28B1 JUMPI PUSH2 0x28B0 PUSH2 0x2531 JUMP JUMPDEST JUMPDEST DUP2 CALLDATALOAD PUSH2 0x28C1 DUP5 DUP3 PUSH1 0x20 DUP7 ADD PUSH2 0x2817 JUMP JUMPDEST SWAP2 POP POP SWAP3 SWAP2 POP POP JUMP JUMPDEST PUSH2 0x28D3 DUP2 PUSH2 0x2711 JUMP JUMPDEST DUP2 EQ PUSH2 0x28DD JUMPI PUSH0 DUP1 REVERT JUMPDEST POP JUMP JUMPDEST PUSH0 DUP2 CALLDATALOAD SWAP1 POP PUSH2 0x28EE DUP2 PUSH2 0x28CA JUMP JUMPDEST SWAP3 SWAP2 POP POP JUMP JUMPDEST PUSH0 PUSH2 0x140 DUP3 DUP5 SUB SLT ISZERO PUSH2 0x290A JUMPI PUSH2 0x2909 PUSH2 0x27E4 JUMP JUMPDEST JUMPDEST PUSH2 0x2915 PUSH2 0x140 PUSH2 0x25A7 JUMP JUMPDEST SWAP1 POP PUSH0 DUP3 ADD CALLDATALOAD PUSH8 0xFFFFFFFFFFFFFFFF DUP2 GT ISZERO PUSH2 0x2934 JUMPI PUSH2 0x2933 PUSH2 0x27E8 JUMP JUMPDEST JUMPDEST PUSH2 0x2940 DUP5 DUP3 DUP6 ADD PUSH2 0x2640 JUMP JUMPDEST PUSH0 DUP4 ADD MSTORE POP PUSH1 0x20 DUP3 ADD CALLDATALOAD PUSH8 0xFFFFFFFFFFFFFFFF DUP2 GT ISZERO PUSH2 0x2963 JUMPI PUSH2 0x2962 PUSH2 0x27E8 JUMP JUMPDEST JUMPDEST PUSH2 0x296F DUP5 DUP3 DUP6 ADD PUSH2 0x2640 JUMP JUMPDEST PUSH1 0x20 DUP4 ADD MSTORE POP PUSH1 0x40 DUP3 ADD CALLDATALOAD PUSH8 0xFFFFFFFFFFFFFFFF DUP2 GT ISZERO PUSH2 0x2993 JUMPI PUSH2 0x2992 PUSH2 0x27E8 JUMP JUMPDEST JUMPDEST PUSH2 0x299F DUP5 DUP3 DUP6 ADD PUSH2 0x2640 JUMP JUMPDEST PUSH1 0x40 DUP4 ADD MSTORE POP PUSH1 0x60 DUP3 ADD CALLDATALOAD PUSH8 0xFFFFFFFFFFFFFFFF DUP2 GT ISZERO PUSH2 0x29C3 JUMPI PUSH2 0x29C2 PUSH2 0x27E8 JUMP JUMPDEST JUMPDEST PUSH2 0x29CF DUP5 DUP3 DUP6 ADD PUSH2 0x2640 JUMP JUMPDEST PUSH1 0x60 DUP4 ADD MSTORE POP PUSH1 0x80 PUSH2 0x29E3 DUP5 DUP3 DUP6 ADD PUSH2 0x2763 JUMP JUMPDEST PUSH1 0x80 DUP4 ADD MSTORE POP PUSH1 0xA0 DUP3 ADD CALLDATALOAD PUSH8 0xFFFFFFFFFFFFFFFF DUP2 GT ISZERO PUSH2 0x2A07 JUMPI PUSH2 0x2A06 PUSH2 0x27E8 JUMP JUMPDEST JUMPDEST PUSH2 0x2A13 DUP5 DUP3 DUP6 ADD PUSH2 0x289D JUMP JUMPDEST PUSH1 0xA0 DUP4 ADD MSTORE POP PUSH1 0xC0 DUP3 ADD CALLDATALOAD PUSH8 0xFFFFFFFFFFFFFFFF DUP2 GT ISZERO PUSH2 0x2A37 JUMPI PUSH2 0x2A36 PUSH2 0x27E8 JUMP JUMPDEST JUMPDEST PUSH2 0x2A43 DUP5 DUP3 DUP6 ADD PUSH2 0x289D JUMP JUMPDEST PUSH1 0xC0 DUP4 ADD MSTORE POP PUSH1 0xE0 PUSH2 0x2A57 DUP5 DUP3 DUP6 ADD PUSH2 0x2763 JUMP JUMPDEST PUSH1 0xE0 DUP4 ADD MSTORE POP PUSH2 0x100 PUSH2 0x2A6C DUP5 DUP3 DUP6 ADD PUSH2 0x2763 JUMP JUMPDEST PUSH2 0x100 DUP4 ADD MSTORE POP PUSH2 0x120 PUSH2 0x2A82 DUP5 DUP3 DUP6 ADD PUSH2 0x28E0 JUMP JUMPDEST PUSH2 0x120 DUP4 ADD MSTORE POP SWAP3 SWAP2 POP POP JUMP JUMPDEST PUSH0 PUSH2 0x2AA1 PUSH2 0x2A9C DUP5 PUSH2 0x27B5 JUMP JUMPDEST PUSH2 0x25A7 JUMP JUMPDEST SWAP1 POP DUP1 DUP4 DUP3 MSTORE PUSH1 0x20 DUP3 ADD SWAP1 POP PUSH1 0x20 DUP5 MUL DUP4 ADD DUP6 DUP2 GT ISZERO PUSH2 0x2AC4 JUMPI PUSH2 0x2AC3 PUSH2 0x27E0 JUMP JUMPDEST JUMPDEST DUP4 JUMPDEST DUP2 DUP2 LT ISZERO PUSH2 0x2B0B JUMPI DUP1 CALLDATALOAD PUSH8 0xFFFFFFFFFFFFFFFF DUP2 GT ISZERO PUSH2 0x2AE9 JUMPI PUSH2 0x2AE8 PUSH2 0x2531 JUMP JUMPDEST JUMPDEST DUP1 DUP7 ADD PUSH2 0x2AF6 DUP10 DUP3 PUSH2 0x28F4 JUMP JUMPDEST DUP6 MSTORE PUSH1 0x20 DUP6 ADD SWAP5 POP POP POP PUSH1 0x20 DUP2 ADD SWAP1 POP PUSH2 0x2AC6 JUMP JUMPDEST POP POP POP SWAP4 SWAP3 POP POP POP JUMP JUMPDEST PUSH0 DUP3 PUSH1 0x1F DUP4 ADD SLT PUSH2 0x2B29 JUMPI PUSH2 0x2B28 PUSH2 0x2531 JUMP JUMPDEST JUMPDEST DUP2 CALLDATALOAD PUSH2 0x2B39 DUP5 DUP3 PUSH1 0x20 DUP7 ADD PUSH2 0x2A8F JUMP JUMPDEST SWAP2 POP POP SWAP3 SWAP2 POP POP JUMP JUMPDEST PUSH0 DUP1 PUSH0 DUP1 PUSH0 DUP1 PUSH0 DUP1 PUSH2 0x100 DUP10 DUP12 SUB SLT ISZERO PUSH2 0x2B5F JUMPI PUSH2 0x2B5E PUSH2 0x2529 JUMP JUMPDEST JUMPDEST PUSH0 DUP10 ADD CALLDATALOAD PUSH8 0xFFFFFFFFFFFFFFFF DUP2 GT ISZERO PUSH2 0x2B7C JUMPI PUSH2 0x2B7B PUSH2 0x252D JUMP JUMPDEST JUMPDEST PUSH2 0x2B88 DUP12 DUP3 DUP13 ADD PUSH2 0x2640 JUMP JUMPDEST SWAP9 POP POP PUSH1 0x20 DUP10 ADD CALLDATALOAD PUSH8 0xFFFFFFFFFFFFFFFF DUP2 GT ISZERO PUSH2 0x2BA9 JUMPI PUSH2 0x2BA8 PUSH2 0x252D JUMP JUMPDEST JUMPDEST PUSH2 0x2BB5 DUP12 DUP3 DUP13 ADD PUSH2 0x2640 JUMP JUMPDEST SWAP8 POP POP PUSH1 0x40 DUP10 ADD CALLDATALOAD PUSH8 0xFFFFFFFFFFFFFFFF DUP2 GT ISZERO PUSH2 0x2BD6 JUMPI PUSH2 0x2BD5 PUSH2 0x252D JUMP JUMPDEST JUMPDEST PUSH2 0x2BE2 DUP12 DUP3 DUP13 ADD PUSH2 0x2640 JUMP JUMPDEST SWAP7 POP POP PUSH1 0x60 DUP10 ADD CALLDATALOAD PUSH8 0xFFFFFFFFFFFFFFFF DUP2 GT ISZERO PUSH2 0x2C03 JUMPI PUSH2 0x2C02 PUSH2 0x252D JUMP JUMPDEST JUMPDEST PUSH2 0x2C0F DUP12 DUP3 DUP13 ADD PUSH2 0x2640 JUMP JUMPDEST SWAP6 POP POP PUSH1 0x80 DUP10 ADD CALLDATALOAD PUSH8 0xFFFFFFFFFFFFFFFF DUP2 GT ISZERO PUSH2 0x2C30 JUMPI PUSH2 0x2C2F PUSH2 0x252D JUMP JUMPDEST JUMPDEST PUSH2 0x2C3C DUP12 DUP3 DUP13 ADD PUSH2 0x2640 JUMP JUMPDEST SWAP5 POP POP PUSH1 0xA0 PUSH2 0x2C4D DUP12 DUP3 DUP13 ADD PUSH2 0x2763 JUMP JUMPDEST SWAP4 POP POP PUSH1 0xC0 PUSH2 0x2C5E DUP12 DUP3 DUP13 ADD PUSH2 0x2763 JUMP JUMPDEST SWAP3 POP POP PUSH1 0xE0 DUP10 ADD CALLDATALOAD PUSH8 0xFFFFFFFFFFFFFFFF DUP2 GT ISZERO PUSH2 0x2C7F JUMPI PUSH2 0x2C7E PUSH2 0x252D JUMP JUMPDEST JUMPDEST PUSH2 0x2C8B DUP12 DUP3 DUP13 ADD PUSH2 0x2B15 JUMP JUMPDEST SWAP2 POP POP SWAP3 SWAP6 SWAP9 POP SWAP3 SWAP6 SWAP9 SWAP1 SWAP4 SWAP7 POP JUMP JUMPDEST PUSH0 DUP1 PUSH1 0x40 DUP4 DUP6 SUB SLT ISZERO PUSH2 0x2CB1 JUMPI PUSH2 0x2CB0 PUSH2 0x2529 JUMP JUMPDEST JUMPDEST PUSH0 DUP4 ADD CALLDATALOAD PUSH8 0xFFFFFFFFFFFFFFFF DUP2 GT ISZERO PUSH2 0x2CCE JUMPI PUSH2 0x2CCD PUSH2 0x252D JUMP JUMPDEST JUMPDEST PUSH2 0x2CDA DUP6 DUP3 DUP7 ADD PUSH2 0x2640 JUMP JUMPDEST SWAP3 POP POP PUSH1 0x20 DUP4 ADD CALLDATALOAD PUSH8 0xFFFFFFFFFFFFFFFF DUP2 GT ISZERO PUSH2 0x2CFB JUMPI PUSH2 0x2CFA PUSH2 0x252D JUMP JUMPDEST JUMPDEST PUSH2 0x2D07 DUP6 DUP3 DUP7 ADD PUSH2 0x28F4 JUMP JUMPDEST SWAP2 POP POP SWAP3 POP SWAP3 SWAP1 POP JUMP JUMPDEST PUSH0 DUP1 PUSH1 0x40 DUP4 DUP6 SUB SLT ISZERO PUSH2 0x2D27 JUMPI PUSH2 0x2D26 PUSH2 0x2529 JUMP JUMPDEST JUMPDEST PUSH0 DUP4 ADD CALLDATALOAD PUSH8 0xFFFFFFFFFFFFFFFF DUP2 GT ISZERO PUSH2 0x2D44 JUMPI PUSH2 0x2D43 PUSH2 0x252D JUMP JUMPDEST JUMPDEST PUSH2 0x2D50 DUP6 DUP3 DUP7 ADD PUSH2 0x2640 JUMP JUMPDEST SWAP3 POP POP PUSH1 0x20 DUP4 ADD CALLDATALOAD PUSH8 0xFFFFFFFFFFFFFFFF DUP2 GT ISZERO PUSH2 0x2D71 JUMPI PUSH2 0x2D70 PUSH2 0x252D JUMP JUMPDEST JUMPDEST PUSH2 0x2D7D DUP6 DUP3 DUP7 ADD PUSH2 0x2640 JUMP JUMPDEST SWAP2 POP POP SWAP3 POP SWAP3 SWAP1 POP JUMP JUMPDEST PUSH2 0x2D90 DUP2 PUSH2 0x2744 JUMP JUMPDEST DUP3 MSTORE POP POP JUMP JUMPDEST PUSH0 PUSH1 0x20 DUP3 ADD SWAP1 POP PUSH2 0x2DA9 PUSH0 DUP4 ADD DUP5 PUSH2 0x2D87 JUMP JUMPDEST SWAP3 SWAP2 POP POP JUMP JUMPDEST PUSH0 DUP2 MLOAD SWAP1 POP SWAP2 SWAP1 POP JUMP JUMPDEST PUSH0 DUP3 DUP3 MSTORE PUSH1 0x20 DUP3 ADD SWAP1 POP SWAP3 SWAP2 POP POP JUMP JUMPDEST PUSH0 DUP2 SWAP1 POP PUSH1 0x20 DUP3 ADD SWAP1 POP SWAP2 SWAP1 POP JUMP JUMPDEST PUSH0 DUP2 MLOAD SWAP1 POP SWAP2 SWAP1 POP JUMP JUMPDEST PUSH0 DUP3 DUP3 MSTORE PUSH1 0x20 DUP3 ADD SWAP1 POP SWAP3 SWAP2 POP POP JUMP JUMPDEST DUP3 DUP2 DUP4 MCOPY PUSH0 DUP4 DUP4 ADD MSTORE POP POP POP JUMP JUMPDEST PUSH0 PUSH2 0x2E0A DUP3 PUSH2 0x2DD8 JUMP JUMPDEST PUSH2 0x2E14 DUP2 DUP6 PUSH2 0x2DE2 JUMP JUMPDEST SWAP4 POP PUSH2 0x2E24 DUP2 DUP6 PUSH1 0x20 DUP7 ADD PUSH2 0x2DF2 JUMP JUMPDEST PUSH2 0x2E2D DUP2 PUSH2 0x2539 JUMP JUMPDEST DUP5 ADD SWAP2 POP POP SWAP3 SWAP2 POP POP JUMP JUMPDEST PUSH0 PUSH2 0x2E43 DUP4 DUP4 PUSH2 0x2E00 JUMP JUMPDEST SWAP1 POP SWAP3 SWAP2 POP POP JUMP JUMPDEST PUSH0 PUSH1 0x20 DUP3 ADD SWAP1 POP SWAP2 SWAP1 POP JUMP JUMPDEST PUSH0 PUSH2 0x2E61 DUP3 PUSH2 0x2DAF JUMP JUMPDEST PUSH2 0x2E6B DUP2 DUP6 PUSH2 0x2DB9 JUMP JUMPDEST SWAP4 POP DUP4 PUSH1 0x20 DUP3 MUL DUP6 ADD PUSH2 0x2E7D DUP6 PUSH2 0x2DC9 JUMP JUMPDEST DUP1 PUSH0 JUMPDEST DUP6 DUP2 LT ISZERO PUSH2 0x2EB8 JUMPI DUP5 DUP5 SUB DUP10 MSTORE DUP2 MLOAD PUSH2 0x2E99 DUP6 DUP3 PUSH2 0x2E38 JUMP JUMPDEST SWAP5 POP PUSH2 0x2EA4 DUP4 PUSH2 0x2E4B JUMP JUMPDEST SWAP3 POP PUSH1 0x20 DUP11 ADD SWAP10 POP POP PUSH1 0x1 DUP2 ADD SWAP1 POP PUSH2 0x2E80 JUMP JUMPDEST POP DUP3 SWAP8 POP DUP8 SWAP6 POP POP POP POP POP POP SWAP3 SWAP2 POP POP JUMP JUMPDEST PUSH0 PUSH1 0x20 DUP3 ADD SWAP1 POP DUP2 DUP2 SUB PUSH0 DUP4 ADD MSTORE PUSH2 0x2EE2 DUP2 DUP5 PUSH2 0x2E57 JUMP JUMPDEST SWAP1 POP SWAP3 SWAP2 POP POP JUMP JUMPDEST PUSH0 PUSH1 0x20 DUP3 DUP5 SUB SLT ISZERO PUSH2 0x2EFF JUMPI PUSH2 0x2EFE PUSH2 0x2529 JUMP JUMPDEST JUMPDEST PUSH0 PUSH2 0x2F0C DUP5 DUP3 DUP6 ADD PUSH2 0x2763 JUMP JUMPDEST SWAP2 POP POP SWAP3 SWAP2 POP POP JUMP JUMPDEST PUSH0 DUP3 DUP3 MSTORE PUSH1 0x20 DUP3 ADD SWAP1 POP SWAP3 SWAP2 POP POP JUMP JUMPDEST PUSH0 PUSH2 0x2F2F DUP3 PUSH2 0x2DD8 JUMP JUMPDEST PUSH2 0x2F39 DUP2 DUP6 PUSH2 0x2F15 JUMP JUMPDEST SWAP4 POP PUSH2 0x2F49 DUP2 DUP6 PUSH1 0x20 DUP7 ADD PUSH2 0x2DF2 JUMP JUMPDEST PUSH2 0x2F52 DUP2 PUSH2 0x2539 JUMP JUMPDEST DUP5 ADD SWAP2 POP POP SWAP3 SWAP2 POP POP JUMP JUMPDEST PUSH0 PUSH1 0x20 DUP3 ADD SWAP1 POP DUP2 DUP2 SUB PUSH0 DUP4 ADD MSTORE PUSH2 0x2F75 DUP2 DUP5 PUSH2 0x2F25 JUMP JUMPDEST SWAP1 POP SWAP3 SWAP2 POP POP JUMP JUMPDEST PUSH0 DUP1 PUSH0 PUSH1 0x60 DUP5 DUP7 SUB SLT ISZERO PUSH2 0x2F94 JUMPI PUSH2 0x2F93 PUSH2 0x2529 JUMP JUMPDEST JUMPDEST PUSH0 DUP5 ADD CALLDATALOAD PUSH8 0xFFFFFFFFFFFFFFFF DUP2 GT ISZERO PUSH2 0x2FB1 JUMPI PUSH2 0x2FB0 PUSH2 0x252D JUMP JUMPDEST JUMPDEST PUSH2 0x2FBD DUP7 DUP3 DUP8 ADD PUSH2 0x2640 JUMP JUMPDEST SWAP4 POP POP PUSH1 0x20 DUP5 ADD CALLDATALOAD PUSH8 0xFFFFFFFFFFFFFFFF DUP2 GT ISZERO PUSH2 0x2FDE JUMPI PUSH2 0x2FDD PUSH2 0x252D JUMP JUMPDEST JUMPDEST PUSH2 0x2FEA DUP7 DUP3 DUP8 ADD PUSH2 0x2640 JUMP JUMPDEST SWAP3 POP POP PUSH1 0x40 DUP5 ADD CALLDATALOAD PUSH8 0xFFFFFFFFFFFFFFFF DUP2 GT ISZERO PUSH2 0x300B JUMPI PUSH2 0x300A PUSH2 0x252D JUMP JUMPDEST JUMPDEST PUSH2 0x3017 DUP7 DUP3 DUP8 ADD PUSH2 0x289D JUMP JUMPDEST SWAP2 POP POP SWAP3 POP SWAP3 POP SWAP3 JUMP JUMPDEST PUSH0 PUSH1 0x20 DUP3 DUP5 SUB SLT ISZERO PUSH2 0x3036 JUMPI PUSH2 0x3035 PUSH2 0x2529 JUMP JUMPDEST JUMPDEST PUSH0 DUP3 ADD CALLDATALOAD PUSH8 0xFFFFFFFFFFFFFFFF DUP2 GT ISZERO PUSH2 0x3053 JUMPI PUSH2 0x3052 PUSH2 0x252D JUMP JUMPDEST JUMPDEST PUSH2 0x305F DUP5 DUP3 DUP6 ADD PUSH2 0x2640 JUMP JUMPDEST SWAP2 POP POP SWAP3 SWAP2 POP POP JUMP JUMPDEST PUSH0 PUSH2 0x140 DUP3 ADD SWAP1 POP DUP2 DUP2 SUB PUSH0 DUP4 ADD MSTORE PUSH2 0x3081 DUP2 DUP14 PUSH2 0x2F25 JUMP JUMPDEST SWAP1 POP DUP2 DUP2 SUB PUSH1 0x20 DUP4 ADD MSTORE PUSH2 0x3095 DUP2 DUP13 PUSH2 0x2F25 JUMP JUMPDEST SWAP1 POP DUP2 DUP2 SUB PUSH1 0x40 DUP4 ADD MSTORE PUSH2 0x30A9 DUP2 DUP12 PUSH2 0x2F25 JUMP JUMPDEST SWAP1 POP DUP2 DUP2 SUB PUSH1 0x60 DUP4 ADD MSTORE PUSH2 0x30BD DUP2 DUP11 PUSH2 0x2F25 JUMP JUMPDEST SWAP1 POP DUP2 DUP2 SUB PUSH1 0x80 DUP4 ADD MSTORE PUSH2 0x30D1 DUP2 DUP10 PUSH2 0x2F25 JUMP JUMPDEST SWAP1 POP PUSH2 0x30E0 PUSH1 0xA0 DUP4 ADD DUP9 PUSH2 0x2D87 JUMP JUMPDEST PUSH2 0x30ED PUSH1 0xC0 DUP4 ADD DUP8 PUSH2 0x2D87 JUMP JUMPDEST PUSH2 0x30FA PUSH1 0xE0 DUP4 ADD DUP7 PUSH2 0x2D87 JUMP JUMPDEST PUSH2 0x3108 PUSH2 0x100 DUP4 ADD DUP6 PUSH2 0x2D87 JUMP JUMPDEST PUSH2 0x3116 PUSH2 0x120 DUP4 ADD DUP5 PUSH2 0x271C JUMP JUMPDEST SWAP12 SWAP11 POP POP POP POP POP POP POP POP POP POP POP JUMP JUMPDEST PUSH2 0x312E DUP2 PUSH2 0x2744 JUMP JUMPDEST DUP3 MSTORE POP POP JUMP JUMPDEST PUSH0 DUP3 DUP3 MSTORE PUSH1 0x20 DUP3 ADD SWAP1 POP SWAP3 SWAP2 POP POP JUMP JUMPDEST PUSH0 PUSH2 0x314E DUP3 PUSH2 0x2DAF JUMP JUMPDEST PUSH2 0x3158 DUP2 DUP6 PUSH2 0x3134 JUMP JUMPDEST SWAP4 POP DUP4 PUSH1 0x20 DUP3 MUL DUP6 ADD PUSH2 0x316A DUP6 PUSH2 0x2DC9 JUMP JUMPDEST DUP1 PUSH0 JUMPDEST DUP6 DUP2 LT ISZERO PUSH2 0x31A5 JUMPI DUP5 DUP5 SUB DUP10 MSTORE DUP2 MLOAD PUSH2 0x3186 DUP6 DUP3 PUSH2 0x2E38 JUMP JUMPDEST SWAP5 POP PUSH2 0x3191 DUP4 PUSH2 0x2E4B JUMP JUMPDEST SWAP3 POP PUSH1 0x20 DUP11 ADD SWAP10 POP POP PUSH1 0x1 DUP2 ADD SWAP1 POP PUSH2 0x316D JUMP JUMPDEST POP DUP3 SWAP8 POP DUP8 SWAP6 POP POP POP POP POP POP SWAP3 SWAP2 POP POP JUMP JUMPDEST PUSH2 0x31C0 DUP2 PUSH2 0x2711 JUMP JUMPDEST DUP3 MSTORE POP POP JUMP JUMPDEST PUSH0 PUSH2 0x140 DUP4 ADD PUSH0 DUP4 ADD MLOAD DUP5 DUP3 SUB PUSH0 DUP7 ADD MSTORE PUSH2 0x31E1 DUP3 DUP3 PUSH2 0x2E00 JUMP JUMPDEST SWAP2 POP POP PUSH1 0x20 DUP4 ADD MLOAD DUP5 DUP3 SUB PUSH1 0x20 DUP7 ADD MSTORE PUSH2 0x31FB DUP3 DUP3 PUSH2 0x2E00 JUMP JUMPDEST SWAP2 POP POP PUSH1 0x40 DUP4 ADD MLOAD DUP5 DUP3 SUB PUSH1 0x40 DUP7 ADD MSTORE PUSH2 0x3215 DUP3 DUP3 PUSH2 0x2E00 JUMP JUMPDEST SWAP2 POP POP PUSH1 0x60 DUP4 ADD MLOAD DUP5 DUP3 SUB PUSH1 0x60 DUP7 ADD MSTORE PUSH2 0x322F DUP3 DUP3 PUSH2 0x2E00 JUMP JUMPDEST SWAP2 POP POP PUSH1 0x80 DUP4 ADD MLOAD PUSH2 0x3244 PUSH1 0x80 DUP7 ADD DUP3 PUSH2 0x3125 JUMP JUMPDEST POP PUSH1 0xA0 DUP4 ADD MLOAD DUP5 DUP3 SUB PUSH1 0xA0 DUP7 ADD MSTORE PUSH2 0x325C DUP3 DUP3 PUSH2 0x3144 JUMP JUMPDEST SWAP2 POP POP PUSH1 0xC0 DUP4 ADD MLOAD DUP5 DUP3 SUB PUSH1 0xC0 DUP7 ADD MSTORE PUSH2 0x3276 DUP3 DUP3 PUSH2 0x3144 JUMP JUMPDEST SWAP2 POP POP PUSH1 0xE0 DUP4 ADD MLOAD PUSH2 0x328B PUSH1 0xE0 DUP7 ADD DUP3 PUSH2 0x3125 JUMP JUMPDEST POP PUSH2 0x100 DUP4 ADD MLOAD PUSH2 0x32A0 PUSH2 0x100 DUP7 ADD DUP3 PUSH2 0x3125 JUMP JUMPDEST POP PUSH2 0x120 DUP4 ADD MLOAD PUSH2 0x32B5 PUSH2 0x120 DUP7 ADD DUP3 PUSH2 0x31B7 JUMP JUMPDEST POP DUP1 SWAP2 POP POP SWAP3 SWAP2 POP POP JUMP JUMPDEST PUSH0 PUSH1 0x60 DUP3 ADD SWAP1 POP DUP2 DUP2 SUB PUSH0 DUP4 ADD MSTORE PUSH2 0x32D8 DUP2 DUP7 PUSH2 0x31C6 JUMP JUMPDEST SWAP1 POP PUSH2 0x32E7 PUSH1 0x20 DUP4 ADD DUP6 PUSH2 0x271C JUMP JUMPDEST PUSH2 0x32F4 PUSH1 0x40 DUP4 ADD DUP5 PUSH2 0x2D87 JUMP JUMPDEST SWAP5 SWAP4 POP POP POP POP JUMP JUMPDEST PUSH0 DUP2 MLOAD SWAP1 POP SWAP2 SWAP1 POP JUMP JUMPDEST PUSH0 DUP3 DUP3 MSTORE PUSH1 0x20 DUP3 ADD SWAP1 POP SWAP3 SWAP2 POP POP JUMP JUMPDEST PUSH0 DUP2 SWAP1 POP PUSH1 0x20 DUP3 ADD SWAP1 POP SWAP2 SWAP1 POP JUMP JUMPDEST PUSH0 DUP2 MLOAD SWAP1 POP SWAP2 SWAP1 POP JUMP JUMPDEST PUSH0 DUP3 DUP3 MSTORE PUSH1 0x20 DUP3 ADD SWAP1 POP SWAP3 SWAP2 POP POP JUMP JUMPDEST PUSH0 DUP2 SWAP1 POP PUSH1 0x20 DUP3 ADD SWAP1 POP SWAP2 SWAP1 POP JUMP JUMPDEST PUSH0 PUSH2 0x140 DUP4 ADD PUSH0 DUP4 ADD MLOAD DUP5 DUP3 SUB PUSH0 DUP7 ADD MSTORE PUSH2 0x3369 DUP3 DUP3 PUSH2 0x2E00 JUMP JUMPDEST SWAP2 POP POP PUSH1 0x20 DUP4 ADD MLOAD DUP5 DUP3 SUB PUSH1 0x20 DUP7 ADD MSTORE PUSH2 0x3383 DUP3 DUP3 PUSH2 0x2E00 JUMP JUMPDEST SWAP2 POP POP PUSH1 0x40 DUP4 ADD MLOAD DUP5 DUP3 SUB PUSH1 0x40 DUP7 ADD MSTORE PUSH2 0x339D DUP3 DUP3 PUSH2 0x2E00 JUMP JUMPDEST SWAP2 POP POP PUSH1 0x60 DUP4 ADD MLOAD DUP5 DUP3 SUB PUSH1 0x60 DUP7 ADD MSTORE PUSH2 0x33B7 DUP3 DUP3 PUSH2 0x2E00 JUMP JUMPDEST SWAP2 POP POP PUSH1 0x80 DUP4 ADD MLOAD PUSH2 0x33CC PUSH1 0x80 DUP7 ADD DUP3 PUSH2 0x3125 JUMP JUMPDEST POP PUSH1 0xA0 DUP4 ADD MLOAD DUP5 DUP3 SUB PUSH1 0xA0 DUP7 ADD MSTORE PUSH2 0x33E4 DUP3 DUP3 PUSH2 0x3144 JUMP JUMPDEST SWAP2 POP POP PUSH1 0xC0 DUP4 ADD MLOAD DUP5 DUP3 SUB PUSH1 0xC0 DUP7 ADD MSTORE PUSH2 0x33FE DUP3 DUP3 PUSH2 0x3144 JUMP JUMPDEST SWAP2 POP POP PUSH1 0xE0 DUP4 ADD MLOAD PUSH2 0x3413 PUSH1 0xE0 DUP7 ADD DUP3 PUSH2 0x3125 JUMP JUMPDEST POP PUSH2 0x100 DUP4 ADD MLOAD PUSH2 0x3428 PUSH2 0x100 DUP7 ADD DUP3 PUSH2 0x3125 JUMP JUMPDEST POP PUSH2 0x120 DUP4 ADD MLOAD PUSH2 0x343D PUSH2 0x120 DUP7 ADD DUP3 PUSH2 0x31B7 JUMP JUMPDEST POP DUP1 SWAP2 POP POP SWAP3 SWAP2 POP POP JUMP JUMPDEST PUSH0 PUSH2 0x3453 DUP4 DUP4 PUSH2 0x334E JUMP JUMPDEST SWAP1 POP SWAP3 SWAP2 POP POP JUMP JUMPDEST PUSH0 PUSH1 0x20 DUP3 ADD SWAP1 POP SWAP2 SWAP1 POP JUMP JUMPDEST PUSH0 PUSH2 0x3471 DUP3 PUSH2 0x3325 JUMP JUMPDEST PUSH2 0x347B DUP2 DUP6 PUSH2 0x332F JUMP JUMPDEST SWAP4 POP DUP4 PUSH1 0x20 DUP3 MUL DUP6 ADD PUSH2 0x348D DUP6 PUSH2 0x333F JUMP JUMPDEST DUP1 PUSH0 JUMPDEST DUP6 DUP2 LT ISZERO PUSH2 0x34C8 JUMPI DUP5 DUP5 SUB DUP10 MSTORE DUP2 MLOAD PUSH2 0x34A9 DUP6 DUP3 PUSH2 0x3448 JUMP JUMPDEST SWAP5 POP PUSH2 0x34B4 DUP4 PUSH2 0x345B JUMP JUMPDEST SWAP3 POP PUSH1 0x20 DUP11 ADD SWAP10 POP POP PUSH1 0x1 DUP2 ADD SWAP1 POP PUSH2 0x3490 JUMP JUMPDEST POP DUP3 SWAP8 POP DUP8 SWAP6 POP POP POP POP POP POP SWAP3 SWAP2 POP POP JUMP JUMPDEST PUSH0 PUSH2 0x160 DUP4 ADD PUSH0 DUP4 ADD MLOAD DUP5 DUP3 SUB PUSH0 DUP7 ADD MSTORE PUSH2 0x34F5 DUP3 DUP3 PUSH2 0x2E00 JUMP JUMPDEST SWAP2 POP POP PUSH1 0x20 DUP4 ADD MLOAD DUP5 DUP3 SUB PUSH1 0x20 DUP7 ADD MSTORE PUSH2 0x350F DUP3 DUP3 PUSH2 0x2E00 JUMP JUMPDEST SWAP2 POP POP PUSH1 0x40 DUP4 ADD MLOAD DUP5 DUP3 SUB PUSH1 0x40 DUP7 ADD MSTORE PUSH2 0x3529 DUP3 DUP3 PUSH2 0x2E00 JUMP JUMPDEST SWAP2 POP POP PUSH1 0x60 DUP4 ADD MLOAD DUP5 DUP3 SUB PUSH1 0x60 DUP7 ADD MSTORE PUSH2 0x3543 DUP3 DUP3 PUSH2 0x2E00 JUMP JUMPDEST SWAP2 POP POP PUSH1 0x80 DUP4 ADD MLOAD DUP5 DUP3 SUB PUSH1 0x80 DUP7 ADD MSTORE PUSH2 0x355D DUP3 DUP3 PUSH2 0x2E00 JUMP JUMPDEST SWAP2 POP POP PUSH1 0xA0 DUP4 ADD MLOAD PUSH2 0x3572 PUSH1 0xA0 DUP7 ADD DUP3 PUSH2 0x3125 JUMP JUMPDEST POP PUSH1 0xC0 DUP4 ADD MLOAD PUSH2 0x3585 PUSH1 0xC0 DUP7 ADD DUP3 PUSH2 0x3125 JUMP JUMPDEST POP PUSH1 0xE0 DUP4 ADD MLOAD PUSH2 0x3598 PUSH1 0xE0 DUP7 ADD DUP3 PUSH2 0x3125 JUMP JUMPDEST POP PUSH2 0x100 DUP4 ADD MLOAD PUSH2 0x35AD PUSH2 0x100 DUP7 ADD DUP3 PUSH2 0x3125 JUMP JUMPDEST POP PUSH2 0x120 DUP4 ADD MLOAD PUSH2 0x35C2 PUSH2 0x120 DUP7 ADD DUP3 PUSH2 0x31B7 JUMP JUMPDEST POP PUSH2 0x140 DUP4 ADD MLOAD DUP5 DUP3 SUB PUSH2 0x140 DUP7 ADD MSTORE PUSH2 0x35DC DUP3 DUP3 PUSH2 0x3467 JUMP JUMPDEST SWAP2 POP POP DUP1 SWAP2 POP POP SWAP3 SWAP2 POP POP JUMP JUMPDEST PUSH0 PUSH2 0x35F4 DUP4 DUP4 PUSH2 0x34DA JUMP JUMPDEST SWAP1 POP SWAP3 SWAP2 POP POP JUMP JUMPDEST PUSH0 PUSH1 0x20 DUP3 ADD SWAP1 POP SWAP2 SWAP1 POP JUMP JUMPDEST PUSH0 PUSH2 0x3612 DUP3 PUSH2 0x32FC JUMP JUMPDEST PUSH2 0x361C DUP2 DUP6 PUSH2 0x3306 JUMP JUMPDEST SWAP4 POP DUP4 PUSH1 0x20 DUP3 MUL DUP6 ADD PUSH2 0x362E DUP6 PUSH2 0x3316 JUMP JUMPDEST DUP1 PUSH0 JUMPDEST DUP6 DUP2 LT ISZERO PUSH2 0x3669 JUMPI DUP5 DUP5 SUB DUP10 MSTORE DUP2 MLOAD PUSH2 0x364A DUP6 DUP3 PUSH2 0x35E9 JUMP JUMPDEST SWAP5 POP PUSH2 0x3655 DUP4 PUSH2 0x35FC JUMP JUMPDEST SWAP3 POP PUSH1 0x20 DUP11 ADD SWAP10 POP POP PUSH1 0x1 DUP2 ADD SWAP1 POP PUSH2 0x3631 JUMP JUMPDEST POP DUP3 SWAP8 POP DUP8 SWAP6 POP POP POP POP POP POP SWAP3 SWAP2 POP POP JUMP JUMPDEST PUSH0 PUSH1 0x20 DUP3 ADD SWAP1 POP DUP2 DUP2 SUB PUSH0 DUP4 ADD MSTORE PUSH2 0x3693 DUP2 DUP5 PUSH2 0x3608 JUMP JUMPDEST SWAP1 POP SWAP3 SWAP2 POP POP JUMP JUMPDEST PUSH32 0x4E487B7100000000000000000000000000000000000000000000000000000000 PUSH0 MSTORE PUSH1 0x32 PUSH1 0x4 MSTORE PUSH1 0x24 PUSH0 REVERT JUMPDEST PUSH0 DUP2 SWAP1 POP SWAP3 SWAP2 POP POP JUMP JUMPDEST PUSH0 PUSH2 0x36DC DUP3 PUSH2 0x2DD8 JUMP JUMPDEST PUSH2 0x36E6 DUP2 DUP6 PUSH2 0x36C8 JUMP JUMPDEST SWAP4 POP PUSH2 0x36F6 DUP2 DUP6 PUSH1 0x20 DUP7 ADD PUSH2 0x2DF2 JUMP JUMPDEST DUP1 DUP5 ADD SWAP2 POP POP SWAP3 SWAP2 POP POP JUMP JUMPDEST PUSH0 PUSH2 0x370D DUP3 DUP5 PUSH2 0x36D2 JUMP JUMPDEST SWAP2 POP DUP2 SWAP1 POP SWAP3 SWAP2 POP POP JUMP JUMPDEST PUSH32 0x4E487B7100000000000000000000000000000000000000000000000000000000 PUSH0 MSTORE PUSH1 0x22 PUSH1 0x4 MSTORE PUSH1 0x24 PUSH0 REVERT JUMPDEST PUSH0 PUSH1 0x2 DUP3 DIV SWAP1 POP PUSH1 0x1 DUP3 AND DUP1 PUSH2 0x375C JUMPI PUSH1 0x7F DUP3 AND SWAP2 POP JUMPDEST PUSH1 0x20 DUP3 LT DUP2 SUB PUSH2 0x376F JUMPI PUSH2 0x376E PUSH2 0x3718 JUMP JUMPDEST JUMPDEST POP SWAP2 SWAP1 POP JUMP JUMPDEST PUSH0 DUP2 SWAP1 POP DUP2 PUSH0 MSTORE PUSH1 0x20 PUSH0 KECCAK256 SWAP1 POP SWAP2 SWAP1 POP JUMP JUMPDEST PUSH0 PUSH1 0x20 PUSH1 0x1F DUP4 ADD DIV SWAP1 POP SWAP2 SWAP1 POP JUMP JUMPDEST PUSH0 DUP3 DUP3 SHL SWAP1 POP SWAP3 SWAP2 POP POP JUMP JUMPDEST PUSH0 PUSH1 0x8 DUP4 MUL PUSH2 0x37D1 PUSH32 0xFFFFFFFFFFFFFFFFFFFFFFFFFFFFFFFFFFFFFFFFFFFFFFFFFFFFFFFFFFFFFFFF DUP3 PUSH2 0x3796 JUMP JUMPDEST PUSH2 0x37DB DUP7 DUP4 PUSH2 0x3796 JUMP JUMPDEST SWAP6 POP DUP1 NOT DUP5 AND SWAP4 POP DUP1 DUP7 AND DUP5 OR SWAP3 POP POP POP SWAP4 SWAP3 POP POP POP JUMP JUMPDEST PUSH0 DUP2 SWAP1 POP SWAP2 SWAP1 POP JUMP JUMPDEST PUSH0 PUSH2 0x3816 PUSH2 0x3811 PUSH2 0x380C DUP5 PUSH2 0x2744 JUMP JUMPDEST PUSH2 0x37F3 JUMP JUMPDEST PUSH2 0x2744 JUMP JUMPDEST SWAP1 POP SWAP2 SWAP1 POP JUMP JUMPDEST PUSH0 DUP2 SWAP1 POP SWAP2 SWAP1 POP JUMP JUMPDEST PUSH2 0x382F DUP4 PUSH2 0x37FC JUMP JUMPDEST PUSH2 0x3843 PUSH2 0x383B DUP3 PUSH2 0x381D JUMP JUMPDEST DUP5 DUP5 SLOAD PUSH2 0x37A2 JUMP JUMPDEST DUP3 SSTORE POP POP POP POP JUMP JUMPDEST PUSH0 SWAP1 JUMP JUMPDEST PUSH2 0x3857 PUSH2 0x384B JUMP JUMPDEST PUSH2 0x3862 DUP2 DUP5 DUP5 PUSH2 0x3826 JUMP JUMPDEST POP POP POP JUMP JUMPDEST JUMPDEST DUP2 DUP2 LT ISZERO PUSH2 0x3885 JUMPI PUSH2 0x387A PUSH0 DUP3 PUSH2 0x384F JUMP JUMPDEST PUSH1 0x1 DUP2 ADD SWAP1 POP PUSH2 0x3868 JUMP JUMPDEST POP POP JUMP JUMPDEST PUSH1 0x1F DUP3 GT ISZERO PUSH2 0x38CA JUMPI PUSH2 0x389B DUP2 PUSH2 0x3775 JUMP JUMPDEST PUSH2 0x38A4 DUP5 PUSH2 0x3787 JUMP JUMPDEST DUP2 ADD PUSH1 0x20 DUP6 LT ISZERO PUSH2 0x38B3 JUMPI DUP2 SWAP1 POP JUMPDEST PUSH2 0x38C7 PUSH2 0x38BF DUP6 PUSH2 0x3787 JUMP JUMPDEST DUP4 ADD DUP3 PUSH2 0x3867 JUMP JUMPDEST POP POP JUMPDEST POP POP POP JUMP JUMPDEST PUSH0 DUP3 DUP3 SHR SWAP1 POP SWAP3 SWAP2 POP POP JUMP JUMPDEST PUSH0 PUSH2 0x38EA PUSH0 NOT DUP5 PUSH1 0x8 MUL PUSH2 0x38CF JUMP JUMPDEST NOT DUP1 DUP4 AND SWAP2 POP POP SWAP3 SWAP2 POP POP JUMP JUMPDEST PUSH0 PUSH2 0x3902 DUP4 DUP4 PUSH2 0x38DB JUMP JUMPDEST SWAP2 POP DUP3 PUSH1 0x2 MUL DUP3 OR SWAP1 POP SWAP3 SWAP2 POP POP JUMP JUMPDEST PUSH2 0x391B DUP3 PUSH2 0x2DD8 JUMP JUMPDEST PUSH8 0xFFFFFFFFFFFFFFFF DUP2 GT ISZERO PUSH2 0x3934 JUMPI PUSH2 0x3933 PUSH2 0x2549 JUMP JUMPDEST JUMPDEST PUSH2 0x393E DUP3 SLOAD PUSH2 0x3745 JUMP JUMPDEST PUSH2 0x3949 DUP3 DUP3 DUP6 PUSH2 0x3889 JUMP JUMPDEST PUSH0 PUSH1 0x20 SWAP1 POP PUSH1 0x1F DUP4 GT PUSH1 0x1 DUP2 EQ PUSH2 0x397A JUMPI PUSH0 DUP5 ISZERO PUSH2 0x3968 JUMPI DUP3 DUP8 ADD MLOAD SWAP1 POP JUMPDEST PUSH2 0x3972 DUP6 DUP3 PUSH2 0x38F7 JUMP JUMPDEST DUP7 SSTORE POP PUSH2 0x39D9 JUMP JUMPDEST PUSH1 0x1F NOT DUP5 AND PUSH2 0x3988 DUP7 PUSH2 0x3775 JUMP JUMPDEST PUSH0 JUMPDEST DUP3 DUP2 LT ISZERO PUSH2 0x39AF JUMPI DUP5 DUP10 ADD MLOAD DUP3 SSTORE PUSH1 0x1 DUP3 ADD SWAP2 POP PUSH1 0x20 DUP6 ADD SWAP5 POP PUSH1 0x20 DUP2 ADD SWAP1 POP PUSH2 0x398A JUMP JUMPDEST DUP7 DUP4 LT ISZERO PUSH2 0x39CC JUMPI DUP5 DUP10 ADD MLOAD PUSH2 0x39C8 PUSH1 0x1F DUP10 AND DUP3 PUSH2 0x38DB JUMP JUMPDEST DUP4 SSTORE POP JUMPDEST PUSH1 0x1 PUSH1 0x2 DUP9 MUL ADD DUP9 SSTORE POP POP POP JUMPDEST POP POP POP POP POP POP JUMP JUMPDEST PUSH32 0x56616C696461746F72206973206E6F7420616C6C6F77656420746F2076616C69 PUSH0 DUP3 ADD MSTORE PUSH32 0x6461746500000000000000000000000000000000000000000000000000000000 PUSH1 0x20 DUP3 ADD MSTORE POP JUMP JUMPDEST PUSH0 PUSH2 0x3A3B PUSH1 0x24 DUP4 PUSH2 0x2F15 JUMP JUMPDEST SWAP2 POP PUSH2 0x3A46 DUP3 PUSH2 0x39E1 JUMP JUMPDEST PUSH1 0x40 DUP3 ADD SWAP1 POP SWAP2 SWAP1 POP JUMP JUMPDEST PUSH0 PUSH1 0x20 DUP3 ADD SWAP1 POP DUP2 DUP2 SUB PUSH0 DUP4 ADD MSTORE PUSH2 0x3A68 DUP2 PUSH2 0x3A2F JUMP JUMPDEST SWAP1 POP SWAP2 SWAP1 POP JUMP JUMPDEST PUSH32 0x4E487B7100000000000000000000000000000000000000000000000000000000 PUSH0 MSTORE PUSH1 0x11 PUSH1 0x4 MSTORE PUSH1 0x24 PUSH0 REVERT JUMPDEST PUSH0 PUSH2 0x3AA6 DUP3 PUSH2 0x2744 JUMP JUMPDEST SWAP2 POP PUSH2 0x3AB1 DUP4 PUSH2 0x2744 JUMP JUMPDEST SWAP3 POP DUP3 DUP3 ADD SWAP1 POP DUP1 DUP3 GT ISZERO PUSH2 0x3AC9 JUMPI PUSH2 0x3AC8 PUSH2 0x3A6F JUMP JUMPDEST JUMPDEST SWAP3 SWAP2 POP POP JUMP JUMPDEST PUSH32 0x416C72656164792076616C696461746564000000000000000000000000000000 PUSH0 DUP3 ADD MSTORE POP JUMP JUMPDEST PUSH0 PUSH2 0x3B03 PUSH1 0x11 DUP4 PUSH2 0x2F15 JUMP JUMPDEST SWAP2 POP PUSH2 0x3B0E DUP3 PUSH2 0x3ACF JUMP JUMPDEST PUSH1 0x20 DUP3 ADD SWAP1 POP SWAP2 SWAP1 POP JUMP JUMPDEST PUSH0 PUSH1 0x20 DUP3 ADD SWAP1 POP DUP2 DUP2 SUB PUSH0 DUP4 ADD MSTORE PUSH2 0x3B30 DUP2 PUSH2 0x3AF7 JUMP JUMPDEST SWAP1 POP SWAP2 SWAP1 POP JUMP JUMPDEST PUSH32 0x43616E742076616C6964617465206D6F7265207468616E206F6E636500000000 PUSH0 DUP3 ADD MSTORE POP JUMP JUMPDEST PUSH0 PUSH2 0x3B6B PUSH1 0x1C DUP4 PUSH2 0x2F15 JUMP JUMPDEST SWAP2 POP PUSH2 0x3B76 DUP3 PUSH2 0x3B37 JUMP JUMPDEST PUSH1 0x20 DUP3 ADD SWAP1 POP SWAP2 SWAP1 POP JUMP JUMPDEST PUSH0 PUSH1 0x20 DUP3 ADD SWAP1 POP DUP2 DUP2 SUB PUSH0 DUP4 ADD MSTORE PUSH2 0x3B98 DUP2 PUSH2 0x3B5F JUMP JUMPDEST SWAP1 POP SWAP2 SWAP1 POP JUMP JUMPDEST PUSH32 0x76616C696461746F722077617320616C72656164792061646465640000000000 PUSH0 DUP3 ADD MSTORE POP JUMP JUMPDEST PUSH0 PUSH2 0x3BD3 PUSH1 0x1B DUP4 PUSH2 0x2F15 JUMP JUMPDEST SWAP2 POP PUSH2 0x3BDE DUP3 PUSH2 0x3B9F JUMP JUMPDEST PUSH1 0x20 DUP3 ADD SWAP1 POP SWAP2 SWAP1 POP JUMP JUMPDEST PUSH0 PUSH1 0x20 DUP3 ADD SWAP1 POP DUP2 DUP2 SUB PUSH0 DUP4 ADD MSTORE PUSH2 0x3C00 DUP2 PUSH2 0x3BC7 JUMP JUMPDEST SWAP1 POP SWAP2 SWAP1 POP JUMP JUMPDEST PUSH32 0x416C726561647920656E6F7567682076616C696461746F727320746F2076616C PUSH0 DUP3 ADD MSTORE PUSH32 0x6964617465207468652073746167650000000000000000000000000000000000 PUSH1 0x20 DUP3 ADD MSTORE POP JUMP JUMPDEST PUSH0 PUSH2 0x3C61 PUSH1 0x2F DUP4 PUSH2 0x2F15 JUMP JUMPDEST SWAP2 POP PUSH2 0x3C6C DUP3 PUSH2 0x3C07 JUMP JUMPDEST PUSH1 0x40 DUP3 ADD SWAP1 POP SWAP2 SWAP1 POP JUMP JUMPDEST PUSH0 PUSH1 0x20 DUP3 ADD SWAP1 POP DUP2 DUP2 SUB PUSH0 DUP4 ADD MSTORE PUSH2 0x3C8E DUP2 PUSH2 0x3C55 JUMP JUMPDEST SWAP1 POP SWAP2 SWAP1 POP JUMP JUMPDEST PUSH32 0x5374616765206E6F7420666F756E640000000000000000000000000000000000 PUSH0 DUP3 ADD MSTORE POP JUMP JUMPDEST PUSH0 PUSH2 0x3CC9 PUSH1 0xF DUP4 PUSH2 0x2F15 JUMP JUMPDEST SWAP2 POP PUSH2 0x3CD4 DUP3 PUSH2 0x3C95 JUMP JUMPDEST PUSH1 0x20 DUP3 ADD SWAP1 POP SWAP2 SWAP1 POP JUMP JUMPDEST PUSH0 PUSH1 0x20 DUP3 ADD SWAP1 POP DUP2 DUP2 SUB PUSH0 DUP4 ADD MSTORE PUSH2 0x3CF6 DUP2 PUSH2 0x3CBD JUMP JUMPDEST SWAP1 POP SWAP2 SWAP1 POP JUMP JUMPDEST PUSH0 DUP2 SLOAD PUSH2 0x3D09 DUP2 PUSH2 0x3745 JUMP JUMPDEST PUSH2 0x3D13 DUP2 DUP7 PUSH2 0x36C8 JUMP JUMPDEST SWAP5 POP PUSH1 0x1 DUP3 AND PUSH0 DUP2 EQ PUSH2 0x3D2D JUMPI PUSH1 0x1 DUP2 EQ PUSH2 0x3D42 JUMPI PUSH2 0x3D74 JUMP JUMPDEST PUSH1 0xFF NOT DUP4 AND DUP7 MSTORE DUP2 ISZERO ISZERO DUP3 MUL DUP7 ADD SWAP4 POP PUSH2 0x3D74 JUMP JUMPDEST PUSH2 0x3D4B DUP6 PUSH2 0x3775 JUMP JUMPDEST PUSH0 JUMPDEST DUP4 DUP2 LT ISZERO PUSH2 0x3D6C JUMPI DUP2 SLOAD DUP2 DUP10 ADD MSTORE PUSH1 0x1 DUP3 ADD SWAP2 POP PUSH1 0x20 DUP2 ADD SWAP1 POP PUSH2 0x3D4D JUMP JUMPDEST DUP4 DUP9 ADD SWAP6 POP POP POP JUMPDEST POP POP POP SWAP3 SWAP2 POP POP JUMP JUMPDEST PUSH0 PUSH2 0x3D88 DUP3 DUP5 PUSH2 0x3CFD JUMP JUMPDEST SWAP2 POP DUP2 SWAP1 POP SWAP3 SWAP2 POP POP JUMP INVALID LOG2 PUSH5 0x6970667358 0x22 SLT KECCAK256 DUP9 SWAP12 0xEF PUSH16 0xECC93473DC89C63D3EB8E04C12D5CA1C SWAP11 NUMBER SWAP5 0xC7 0xAA MSIZE MOD GT 0xC5 0xF7 STATICCALL PUSH14 0x64736F6C634300081A0033000000 "
				},
				"gasEstimates": {
					"creation": {
						"codeDepositCost": "3163400",
						"executionCost": "infinite",
						"totalCost": "infinite"
					},
					"external": {
						"addStage(string,(string,string,string,string,uint256,string[],string[],uint256,uint256,bool))": "infinite",
						"addValidator(string,string,string)": "infinite",
						"addValidators(string,string,string[])": "infinite",
						"agencyId()": "infinite",
						"closeProject(uint256)": "468",
						"compareStrings(string,string)": "infinite",
						"createProject(string,string,string,string,string,uint256,uint256,(string,string,string,string,uint256,string[],string[],uint256,uint256,bool)[])": "infinite",
						"getAllProjectIds()": "infinite",
						"getMaxTotalValidators(string,string)": "infinite",
						"getProjects()": "infinite",
						"getProjectsCount()": "2550",
						"getStageById(string,string)": "infinite",
						"getStagesCount(string)": "infinite",
						"getTotalValidators(string,string)": "infinite",
						"getValidatorsIds(string,string)": "infinite",
						"isStageValidatedByValidator(string,string,string)": "infinite",
						"isThereEnoughValidators(string,string)": "infinite",
						"isValidatorAllowedToValidate(string,string,string)": "infinite",
						"processPendingPayments(uint256,uint256)": "infinite",
						"projectIds(uint256)": "infinite",
						"projects(string)": "infinite",
						"validateStage(string,string,string)": "infinite",
						"validatorWasAlreadyAdded(string,string,string)": "infinite"
					}
				},
				"methodIdentifiers": {
					"addStage(string,(string,string,string,string,uint256,string[],string[],uint256,uint256,bool))": "292ee7c9",
					"addValidator(string,string,string)": "a762ad5b",
					"addValidators(string,string,string[])": "7d4aee20",
					"agencyId()": "99e76d35",
					"closeProject(uint256)": "93dc12e6",
					"compareStrings(string,string)": "bed34bba",
					"createProject(string,string,string,string,string,uint256,uint256,(string,string,string,string,uint256,string[],string[],uint256,uint256,bool)[])": "221c51bb",
					"getAllProjectIds()": "4ac64766",
					"getMaxTotalValidators(string,string)": "3efe1b8a",
					"getProjects()": "dcc60128",
					"getProjectsCount()": "e4a8f18b",
					"getStageById(string,string)": "cbe737b3",
					"getStagesCount(string)": "ce89e021",
					"getTotalValidators(string,string)": "cb89c644",
					"getValidatorsIds(string,string)": "47642512",
					"isStageValidatedByValidator(string,string,string)": "615ba9d9",
					"isThereEnoughValidators(string,string)": "ef079b20",
					"isValidatorAllowedToValidate(string,string,string)": "632787f5",
					"processPendingPayments(uint256,uint256)": "089cd025",
					"projectIds(uint256)": "48c35ad4",
					"projects(string)": "91c9b268",
					"validateStage(string,string,string)": "57c303d5",
					"validatorWasAlreadyAdded(string,string,string)": "074faf2b"
				}
			},
			"storageLayout": {
				"storage": [
					{
						"astId": 4,
						"contract": "src/BuiltTrustPay.sol:SmartPayConstruction",
						"label": "agencyId",
						"offset": 0,
						"slot": "0",
						"type": "t_string_storage"
					},
					{
						"astId": 57,
						"contract": "src/BuiltTrustPay.sol:SmartPayConstruction",
						"label": "projects",
						"offset": 0,
						"slot": "1",
						"type": "t_mapping(t_string_memory_ptr,t_struct(Project)52_storage)"
					},
					{
						"astId": 60,
						"contract": "src/BuiltTrustPay.sol:SmartPayConstruction",
						"label": "projectIds",
						"offset": 0,
						"slot": "2",
						"type": "t_array(t_string_storage)dyn_storage"
					}
				],
				"types": {
					"t_array(t_string_storage)dyn_storage": {
						"base": "t_string_storage",
						"encoding": "dynamic_array",
						"label": "string[]",
						"numberOfBytes": "32"
					},
					"t_array(t_struct(Stage)27_storage)dyn_storage": {
						"base": "t_struct(Stage)27_storage",
						"encoding": "dynamic_array",
						"label": "struct SmartPayConstruction.Stage[]",
						"numberOfBytes": "32"
					},
					"t_bool": {
						"encoding": "inplace",
						"label": "bool",
						"numberOfBytes": "1"
					},
					"t_mapping(t_string_memory_ptr,t_struct(Project)52_storage)": {
						"encoding": "mapping",
						"key": "t_string_memory_ptr",
						"label": "mapping(string => struct SmartPayConstruction.Project)",
						"numberOfBytes": "32",
						"value": "t_struct(Project)52_storage"
					},
					"t_string_memory_ptr": {
						"encoding": "bytes",
						"label": "string",
						"numberOfBytes": "32"
					},
					"t_string_storage": {
						"encoding": "bytes",
						"label": "string",
						"numberOfBytes": "32"
					},
					"t_struct(Project)52_storage": {
						"encoding": "inplace",
						"label": "struct SmartPayConstruction.Project",
						"members": [
							{
								"astId": 29,
								"contract": "src/BuiltTrustPay.sol:SmartPayConstruction",
								"label": "project_id",
								"offset": 0,
								"slot": "0",
								"type": "t_string_storage"
							},
							{
								"astId": 31,
								"contract": "src/BuiltTrustPay.sol:SmartPayConstruction",
								"label": "name",
								"offset": 0,
								"slot": "1",
								"type": "t_string_storage"
							},
							{
								"astId": 33,
								"contract": "src/BuiltTrustPay.sol:SmartPayConstruction",
								"label": "description",
								"offset": 0,
								"slot": "2",
								"type": "t_string_storage"
							},
							{
								"astId": 35,
								"contract": "src/BuiltTrustPay.sol:SmartPayConstruction",
								"label": "client_id",
								"offset": 0,
								"slot": "3",
								"type": "t_string_storage"
							},
							{
								"astId": 37,
								"contract": "src/BuiltTrustPay.sol:SmartPayConstruction",
								"label": "contractor",
								"offset": 0,
								"slot": "4",
								"type": "t_string_storage"
							},
							{
								"astId": 39,
								"contract": "src/BuiltTrustPay.sol:SmartPayConstruction",
								"label": "creationDate",
								"offset": 0,
								"slot": "5",
								"type": "t_uint256"
							},
							{
								"astId": 41,
								"contract": "src/BuiltTrustPay.sol:SmartPayConstruction",
								"label": "startDate",
								"offset": 0,
								"slot": "6",
								"type": "t_uint256"
							},
							{
								"astId": 43,
								"contract": "src/BuiltTrustPay.sol:SmartPayConstruction",
								"label": "endDate",
								"offset": 0,
								"slot": "7",
								"type": "t_uint256"
							},
							{
								"astId": 45,
								"contract": "src/BuiltTrustPay.sol:SmartPayConstruction",
								"label": "actualCompletionDate",
								"offset": 0,
								"slot": "8",
								"type": "t_uint256"
							},
							{
								"astId": 47,
								"contract": "src/BuiltTrustPay.sol:SmartPayConstruction",
								"label": "closed",
								"offset": 0,
								"slot": "9",
								"type": "t_bool"
							},
							{
								"astId": 51,
								"contract": "src/BuiltTrustPay.sol:SmartPayConstruction",
								"label": "stages",
								"offset": 0,
								"slot": "10",
								"type": "t_array(t_struct(Stage)27_storage)dyn_storage"
							}
						],
						"numberOfBytes": "352"
					},
					"t_struct(Stage)27_storage": {
						"encoding": "inplace",
						"label": "struct SmartPayConstruction.Stage",
						"members": [
							{
								"astId": 6,
								"contract": "src/BuiltTrustPay.sol:SmartPayConstruction",
								"label": "stage_id",
								"offset": 0,
								"slot": "0",
								"type": "t_string_storage"
							},
							{
								"astId": 8,
								"contract": "src/BuiltTrustPay.sol:SmartPayConstruction",
								"label": "title",
								"offset": 0,
								"slot": "1",
								"type": "t_string_storage"
							},
							{
								"astId": 10,
								"contract": "src/BuiltTrustPay.sol:SmartPayConstruction",
								"label": "description",
								"offset": 0,
								"slot": "2",
								"type": "t_string_storage"
							},
							{
								"astId": 12,
								"contract": "src/BuiltTrustPay.sol:SmartPayConstruction",
								"label": "validation_steps",
								"offset": 0,
								"slot": "3",
								"type": "t_string_storage"
							},
							{
								"astId": 14,
								"contract": "src/BuiltTrustPay.sol:SmartPayConstruction",
								"label": "value",
								"offset": 0,
								"slot": "4",
								"type": "t_uint256"
							},
							{
								"astId": 17,
								"contract": "src/BuiltTrustPay.sol:SmartPayConstruction",
								"label": "validators_ids",
								"offset": 0,
								"slot": "5",
								"type": "t_array(t_string_storage)dyn_storage"
							},
							{
								"astId": 20,
								"contract": "src/BuiltTrustPay.sol:SmartPayConstruction",
								"label": "validations",
								"offset": 0,
								"slot": "6",
								"type": "t_array(t_string_storage)dyn_storage"
							},
							{
								"astId": 22,
								"contract": "src/BuiltTrustPay.sol:SmartPayConstruction",
								"label": "totalValidators",
								"offset": 0,
								"slot": "7",
								"type": "t_uint256"
							},
							{
								"astId": 24,
								"contract": "src/BuiltTrustPay.sol:SmartPayConstruction",
								"label": "amountToValidator",
								"offset": 0,
								"slot": "8",
								"type": "t_uint256"
							},
							{
								"astId": 26,
								"contract": "src/BuiltTrustPay.sol:SmartPayConstruction",
								"label": "completed",
								"offset": 0,
								"slot": "9",
								"type": "t_bool"
							}
						],
						"numberOfBytes": "320"
					},
					"t_uint256": {
						"encoding": "inplace",
						"label": "uint256",
						"numberOfBytes": "32"
					}
				}
			},
			"userdoc": {
				"kind": "user",
				"methods": {
					"addStage(string,(string,string,string,string,uint256,string[],string[],uint256,uint256,bool))": {
						"notice": "Adds a new phase to an existing project. Allows you to expand a project with new phases, essential for evolving projects. "
					},
					"addValidator(string,string,string)": {
						"notice": "Adds a validator to a phase. Allows for expansion of the list of validators, ensuring there are enough validators to validate a phase."
					},
					"addValidators(string,string,string[])": {
						"notice": "Adds multiple validators to a phase. Facilitates bulk addition of validators, speeding up the validator setup process."
					},
					"closeProject(uint256)": {
						"notice": "Closes a project (implementation not provided). Marks a project as complete, essential to the project lifecycle."
					},
					"compareStrings(string,string)": {
						"notice": "Used internally to compare project IDs and phases, ensuring accuracy of operations."
					},
					"createProject(string,string,string,string,string,uint256,uint256,(string,string,string,string,uint256,string[],string[],uint256,uint256,bool)[])": {
						"notice": "The createProject function is responsible for creating a new project in the smart  contract. It receives several parameters that define the project's properties,  such as ID, name, description, client ID, contractor, start and end dates, and a  list of stages."
					},
					"getAllProjectIds()": {
						"notice": "Returns all project IDs. Provides an overview of all existing projects, useful for management and auditing."
					},
					"getMaxTotalValidators(string,string)": {
						"notice": "Returns the maximum number of validators required for a phase. Sets the limit of validations required to complete a phase, ensuring that all validations are performed  before proceeding."
					},
					"getProjects()": {
						"notice": "Returns all projects. Provides complete details of all projects, essential for visualization and analysis."
					},
					"getProjectsCount()": {
						"notice": "Returns the total count of projects. Provides a metric of how many projects there are, useful for reporting and data analysis."
					},
					"getStageById(string,string)": {
						"notice": "The getStageById function is responsible for retrieving a specific stage of a project,  given the project ID and the stage ID. It is useful for viewing the progress and details of the stages of a project created  by the createProject function."
					},
					"getStagesCount(string)": {
						"notice": "Returns the number of phases in a project. Useful for getting an overview of the size and complexity of a project."
					},
					"getTotalValidators(string,string)": {
						"notice": "Returns the total number of validations for a phase. Used to monitor the validation progress of a phase, ensuring that all required validations are performed."
					},
					"getValidatorsIds(string,string)": {
						"notice": "Returns the list of validator IDs for a phase. Provides information about the validators in a phase, essential for audits and verifications."
					},
					"isStageValidatedByValidator(string,string,string)": {
						"notice": "Checks whether a phase has been validated by a specific validator. Ensures that only authorized validators can validate phases, maintaining the integrity of the validation process."
					},
					"isThereEnoughValidators(string,string)": {
						"notice": "Checks if there are enough validators to validate a phase. Ensures that a phase has enough validators before allowing validations, ensuring the integrity of the process."
					},
					"isValidatorAllowedToValidate(string,string,string)": {
						"notice": "Checks whether a validator is authorized to validate a phase. Maintains the security and compliance of the validation process by ensuring that only authorized  validators can validate."
					},
					"processPendingPayments(uint256,uint256)": {
						"notice": "Processes pending payments for a stage (implementation not provided). Related to paying validators after stage validation, crucial for financial compensation."
					},
					"validateStage(string,string,string)": {
						"notice": "Validates a phase by a validator. Updates the validation status of a phase, essential for the progress of the project."
					},
					"validatorWasAlreadyAdded(string,string,string)": {
						"notice": "Checks whether a validator has already been added to a phase. Avoids duplication of validators, ensuring the efficiency of the validation process."
					}
				},
				"version": 1
			}
		}
	}
}